{
  "contractName": "HasSuperUsers",
  "abi": [
    {
      "constant": false,
      "inputs": [],
      "name": "renounceOwnership",
      "outputs": [],
      "payable": false,
      "stateMutability": "nonpayable",
      "type": "function"
    },
    {
      "constant": true,
      "inputs": [],
      "name": "owner",
      "outputs": [
        {
          "name": "",
          "type": "address"
        }
      ],
      "payable": false,
      "stateMutability": "view",
      "type": "function"
    },
    {
      "constant": true,
      "inputs": [],
      "name": "isOwner",
      "outputs": [
        {
          "name": "",
          "type": "bool"
        }
      ],
      "payable": false,
      "stateMutability": "view",
      "type": "function"
    },
    {
      "constant": false,
      "inputs": [
        {
          "name": "newOwner",
          "type": "address"
        }
      ],
      "name": "transferOwnership",
      "outputs": [],
      "payable": false,
      "stateMutability": "nonpayable",
      "type": "function"
    },
    {
      "anonymous": false,
      "inputs": [
        {
          "indexed": true,
          "name": "previousOwner",
          "type": "address"
        },
        {
          "indexed": true,
          "name": "newOwner",
          "type": "address"
        }
      ],
      "name": "OwnershipTransferred",
      "type": "event"
    },
    {
      "constant": true,
      "inputs": [
        {
          "name": "suAddress",
          "type": "address"
        }
      ],
      "name": "isSuperUser",
      "outputs": [
        {
          "name": "",
          "type": "bool"
        }
      ],
      "payable": false,
      "stateMutability": "view",
      "type": "function"
    },
    {
      "constant": false,
      "inputs": [
        {
          "name": "suAddress",
          "type": "address"
        },
        {
          "name": "value",
          "type": "bool"
        }
      ],
      "name": "setSuperUser",
      "outputs": [],
      "payable": false,
      "stateMutability": "nonpayable",
      "type": "function"
    }
  ],
  "bytecode": "0x608060405261001261005f60201b60201c565b600080546001600160a01b0319166001600160a01b03928316178082556040519216917f8be0079c531659141344cd1fd0a4f28419497f9722a3daafe3b4186f6b6457e0908290a3610063565b3390565b61040a806100726000396000f3fe608060405234801561001057600080fd5b50600436106100625760003560e01c806345655b4e14610067578063715018a6146100975780638da5cb5b1461009f5780638f32d59b146100c3578063cd784d1b146100df578063f2fde38b14610105575b600080fd5b6100956004803603604081101561007d57600080fd5b506001600160a01b038135169060200135151561012b565b005b6100956101b2565b6100a7610258565b604080516001600160a01b039092168252519081900360200190f35b6100cb610267565b604080519115158252519081900360200190f35b6100cb600480360360208110156100f557600080fd5b50356001600160a01b031661028b565b6100956004803603602081101561011b57600080fd5b50356001600160a01b03166102a9565b610133610267565b6101875760408051600160e51b62461bcd02815260206004820181905260248201527f4f776e61626c653a2063616c6c6572206973206e6f7420746865206f776e6572604482015290519081900360640190fd5b6001600160a01b03919091166000908152600160205260409020805460ff1916911515919091179055565b6101ba610267565b61020e5760408051600160e51b62461bcd02815260206004820181905260248201527f4f776e61626c653a2063616c6c6572206973206e6f7420746865206f776e6572604482015290519081900360640190fd5b600080546040516001600160a01b03909116907f8be0079c531659141344cd1fd0a4f28419497f9722a3daafe3b4186f6b6457e0908390a3600080546001600160a01b0319169055565b6000546001600160a01b031690565b600080546001600160a01b031661027c610311565b6001600160a01b031614905090565b6001600160a01b031660009081526001602052604090205460ff1690565b6102b1610267565b6103055760408051600160e51b62461bcd02815260206004820181905260248201527f4f776e61626c653a2063616c6c6572206973206e6f7420746865206f776e6572604482015290519081900360640190fd5b61030e81610315565b50565b3390565b6001600160a01b03811661035d57604051600160e51b62461bcd0281526004018080602001828103825260268152602001806103b96026913960400191505060405180910390fd5b600080546040516001600160a01b03808516939216917f8be0079c531659141344cd1fd0a4f28419497f9722a3daafe3b4186f6b6457e091a3600080546001600160a01b0319166001600160a01b039290921691909117905556fe4f776e61626c653a206e6577206f776e657220697320746865207a65726f2061646472657373a165627a7a72305820c146128f53cf259d0fac4d1bd02f5150ce21cd49742ee61e89d6c039c849f9aa0029",
  "source": "pragma solidity ^0.5.0;\n\nimport \"./Ownable.sol\";\n\ncontract HasSuperUsers is Ownable {\n    mapping(address => bool) private superUsers;\n\n    modifier onlySuperUser() {\n        require(isSuperUser(msg.sender), \"HasSuperUsers: caller is not a superUser\");\n        _;\n    }\n\n    function isSuperUser(address suAddress) public view returns (bool) {\n        return superUsers[suAddress];\n    }\n\n    function setSuperUser(address suAddress, bool value) public onlyOwner {\n        superUsers[suAddress] = value;\n    }\n}\n",
  "sourcePath": "/home/pepo/pr/uprtcl/eth-uprtcl/contracts/HasSuperUsers.sol",
  "compiler": {
    "name": "solc",
    "version": "0.5.8+commit.23d335f2.Emscripten.clang"
  },
  "schemaVersion": "3.0.11",
  "updatedAt": "2020-02-27T12:07:21.570Z",
  "devdoc": {
    "methods": {
      "isOwner()": {
        "details": "Returns true if the caller is the current owner."
      },
      "owner()": {
        "details": "Returns the address of the current owner."
      },
      "renounceOwnership()": {
        "details": "Leaves the contract without owner. It will not be possible to call `onlyOwner` functions anymore. Can only be called by the current owner.     * NOTE: Renouncing ownership will leave the contract without an owner, thereby removing any functionality that is only available to the owner."
      },
      "transferOwnership(address)": {
        "details": "Transfers ownership of the contract to a new account (`newOwner`). Can only be called by the current owner."
      }
    }
  },
  "userdoc": {
    "methods": {}
  }
}