{
  "contractName": "Toll",
  "abi": [
    {
      "anonymous": false,
      "inputs": [
        {
          "indexed": true,
          "internalType": "address",
          "name": "previousOwner",
          "type": "address"
        },
        {
          "indexed": true,
          "internalType": "address",
          "name": "newOwner",
          "type": "address"
        }
      ],
      "name": "OwnershipTransferred",
      "type": "event"
    },
    {
      "constant": true,
      "inputs": [],
      "name": "isOwner",
      "outputs": [
        {
          "internalType": "bool",
          "name": "",
          "type": "bool"
        }
      ],
      "payable": false,
      "stateMutability": "view",
      "type": "function"
    },
    {
      "constant": true,
      "inputs": [],
      "name": "owner",
      "outputs": [
        {
          "internalType": "address payable",
          "name": "",
          "type": "address"
        }
      ],
      "payable": false,
      "stateMutability": "view",
      "type": "function"
    },
    {
      "constant": false,
      "inputs": [],
      "name": "renounceOwnership",
      "outputs": [],
      "payable": false,
      "stateMutability": "nonpayable",
      "type": "function"
    },
    {
      "constant": false,
      "inputs": [
        {
          "internalType": "address payable",
          "name": "newOwner",
          "type": "address"
        }
      ],
      "name": "transferOwnership",
      "outputs": [],
      "payable": false,
      "stateMutability": "nonpayable",
      "type": "function"
    },
    {
      "constant": false,
      "inputs": [
        {
          "internalType": "uint256",
          "name": "amount",
          "type": "uint256"
        }
      ],
      "name": "transfer",
      "outputs": [],
      "payable": false,
      "stateMutability": "nonpayable",
      "type": "function"
    },
    {
      "constant": false,
      "inputs": [
        {
          "internalType": "uint256",
          "name": "addFee",
          "type": "uint256"
        },
        {
          "internalType": "uint256",
          "name": "updateFee",
          "type": "uint256"
        }
      ],
      "name": "setFees",
      "outputs": [],
      "payable": false,
      "stateMutability": "nonpayable",
      "type": "function"
    },
    {
      "constant": true,
      "inputs": [],
      "name": "getFees",
      "outputs": [
        {
          "internalType": "uint256",
          "name": "addFee",
          "type": "uint256"
        },
        {
          "internalType": "uint256",
          "name": "updateFee",
          "type": "uint256"
        }
      ],
      "payable": false,
      "stateMutability": "view",
      "type": "function"
    },
    {
      "constant": true,
      "inputs": [],
      "name": "getAddFee",
      "outputs": [
        {
          "internalType": "uint256",
          "name": "",
          "type": "uint256"
        }
      ],
      "payable": false,
      "stateMutability": "view",
      "type": "function"
    },
    {
      "constant": true,
      "inputs": [],
      "name": "getUpdateFee",
      "outputs": [
        {
          "internalType": "uint256",
          "name": "",
          "type": "uint256"
        }
      ],
      "payable": false,
      "stateMutability": "view",
      "type": "function"
    }
  ],
  "bytecode": "0x60806040526100156001600160e01b0361006216565b600080546001600160a01b0319166001600160a01b03928316178082556040519216917f8be0079c531659141344cd1fd0a4f28419497f9722a3daafe3b4186f6b6457e0908290a3610066565b3390565b61051b806100756000396000f3fe608060405234801561001057600080fd5b50600436106100935760003560e01c80638da5cb5b116100665780638da5cb5b146100fc5780638f32d59b14610120578063b7b0ccde1461013c578063db8d55f114610144578063f2fde38b1461016557610093565b80630b78f9c01461009857806312514bba146100bd578063715018a6146100da57806386830d58146100e2575b600080fd5b6100bb600480360360408110156100ae57600080fd5b508035906020013561018b565b005b6100bb600480360360208110156100d357600080fd5b50356101dd565b6100bb6102c4565b6100ea610355565b60408051918252519081900360200190f35b610104610362565b604080516001600160a01b039092168252519081900360200190f35b610128610371565b604080519115158252519081900360200190f35b6100ea610395565b61014c61039f565b6040805192835260208301919091528051918290030190f35b6100bb6004803603602081101561017b57600080fd5b50356001600160a01b03166103a9565b610193610371565b6101d2576040805162461bcd60e51b815260206004820181905260248201526000805160206104c7833981519152604482015290519081900360640190fd5b600191909155600255565b6101e5610371565b610224576040805162461bcd60e51b815260206004820181905260248201526000805160206104c7833981519152604482015290519081900360640190fd5b306001600160a01b0316638da5cb5b6040518163ffffffff1660e01b815260040160206040518083038186803b15801561025d57600080fd5b505afa158015610271573d6000803e3d6000fd5b505050506040513d602081101561028757600080fd5b50516040516001600160a01b039091169082156108fc029083906000818181858888f193505050501580156102c0573d6000803e3d6000fd5b5050565b6102cc610371565b61030b576040805162461bcd60e51b815260206004820181905260248201526000805160206104c7833981519152604482015290519081900360640190fd5b600080546040516001600160a01b03909116907f8be0079c531659141344cd1fd0a4f28419497f9722a3daafe3b4186f6b6457e0908390a3600080546001600160a01b0319169055565b60006001815b0154905090565b6000546001600160a01b031690565b600080546001600160a01b03166103866103fc565b6001600160a01b031614905090565b600060018061035b565b6001546002549091565b6103b1610371565b6103f0576040805162461bcd60e51b815260206004820181905260248201526000805160206104c7833981519152604482015290519081900360640190fd5b6103f981610400565b50565b3390565b6001600160a01b0381166104455760405162461bcd60e51b81526004018080602001828103825260268152602001806104a16026913960400191505060405180910390fd5b600080546040516001600160a01b03808516939216917f8be0079c531659141344cd1fd0a4f28419497f9722a3daafe3b4186f6b6457e091a3600080546001600160a01b0319166001600160a01b039290921691909117905556fe4f776e61626c653a206e6577206f776e657220697320746865207a65726f20616464726573734f776e61626c653a2063616c6c6572206973206e6f7420746865206f776e6572a265627a7a72315820f454d51f709035dee1b8885cba58c5563ed289fa839f8b300a050175a062e25564736f6c63430005100032",
  "source": "pragma solidity >=0.5.0 <0.6.0;\n\nimport \"./Ownable.sol\";\n/**\n * @dev Contract module which provides a basic access control mechanism, where\n * there is an account (an owner) that can be granted exclusive access to\n * specific functions.\n *\n * This module is used through inheritance. It will make available the modifier\n * `onlyOwner`, which can be applied to your functions to restrict their use to\n * the owner.\n */\ncontract Toll is Ownable {\n\n    uint256[2] private fees;\n\n    function transfer(uint256 amount) public onlyOwner {\n        this.owner().transfer(amount);\n    }\n\n    function setFees(uint256 addFee, uint256 updateFee) public onlyOwner {\n        fees[0] = addFee;\n        fees[1] = updateFee;\n    }\n\n    function getFees() public view returns (uint256 addFee, uint256 updateFee) {\n        return (fees[0], fees[1]);\n    }\n\n    function getAddFee() public view returns (uint256) {\n        return fees[0];\n    }\n\n    function getUpdateFee() public view returns (uint256) {\n        return fees[1];\n    }\n}",
  "sourcePath": "/home/pepo/pr/uprtcl/eth-uprtcl/contracts/Toll.sol",
  "compiler": {
    "name": "solc",
    "version": "0.5.16+commit.9c3226ce.Emscripten.clang"
  },
  "schemaVersion": "3.0.23",
  "updatedAt": "2020-02-21T14:43:45.304Z",
  "devdoc": {
    "details": "Contract module which provides a basic access control mechanism, where there is an account (an owner) that can be granted exclusive access to specific functions. * This module is used through inheritance. It will make available the modifier `onlyOwner`, which can be applied to your functions to restrict their use to the owner.",
    "methods": {
      "isOwner()": {
        "details": "Returns true if the caller is the current owner."
      },
      "owner()": {
        "details": "Returns the address of the current owner."
      },
      "renounceOwnership()": {
        "details": "Leaves the contract without owner. It will not be possible to call `onlyOwner` functions anymore. Can only be called by the current owner.     * NOTE: Renouncing ownership will leave the contract without an owner, thereby removing any functionality that is only available to the owner."
      },
      "transferOwnership(address)": {
        "details": "Transfers ownership of the contract to a new account (`newOwner`). Can only be called by the current owner."
      }
    }
  },
  "userdoc": {
    "methods": {}
  }
}