{
  "contractName": "UPNService",
  "abi": [
    {
      "constant": true,
      "inputs": [],
      "name": "DECIMALS",
      "outputs": [
        {
          "name": "",
          "type": "uint256"
        }
      ],
      "payable": false,
      "stateMutability": "view",
      "type": "function"
    },
    {
      "constant": true,
      "inputs": [],
      "name": "Ri",
      "outputs": [
        {
          "name": "",
          "type": "uint256"
        }
      ],
      "payable": false,
      "stateMutability": "view",
      "type": "function"
    },
    {
      "constant": false,
      "inputs": [],
      "name": "renounceOwnership",
      "outputs": [],
      "payable": false,
      "stateMutability": "nonpayable",
      "type": "function"
    },
    {
      "constant": true,
      "inputs": [],
      "name": "owner",
      "outputs": [
        {
          "name": "",
          "type": "address"
        }
      ],
      "payable": false,
      "stateMutability": "view",
      "type": "function"
    },
    {
      "constant": true,
      "inputs": [],
      "name": "isOwner",
      "outputs": [
        {
          "name": "",
          "type": "bool"
        }
      ],
      "payable": false,
      "stateMutability": "view",
      "type": "function"
    },
    {
      "constant": true,
      "inputs": [],
      "name": "P_PER_YEAR",
      "outputs": [
        {
          "name": "",
          "type": "uint256"
        }
      ],
      "payable": false,
      "stateMutability": "view",
      "type": "function"
    },
    {
      "constant": true,
      "inputs": [],
      "name": "Q",
      "outputs": [
        {
          "name": "",
          "type": "uint256"
        }
      ],
      "payable": false,
      "stateMutability": "view",
      "type": "function"
    },
    {
      "constant": true,
      "inputs": [],
      "name": "Fi",
      "outputs": [
        {
          "name": "",
          "type": "uint256"
        }
      ],
      "payable": false,
      "stateMutability": "view",
      "type": "function"
    },
    {
      "constant": false,
      "inputs": [
        {
          "name": "newOwner",
          "type": "address"
        }
      ],
      "name": "transferOwnership",
      "outputs": [],
      "payable": false,
      "stateMutability": "nonpayable",
      "type": "function"
    },
    {
      "constant": true,
      "inputs": [],
      "name": "P_BLOCKS",
      "outputs": [
        {
          "name": "",
          "type": "uint256"
        }
      ],
      "payable": false,
      "stateMutability": "view",
      "type": "function"
    },
    {
      "anonymous": false,
      "inputs": [
        {
          "indexed": true,
          "name": "previousOwner",
          "type": "address"
        },
        {
          "indexed": true,
          "name": "newOwner",
          "type": "address"
        }
      ],
      "name": "OwnershipTransferred",
      "type": "event"
    },
    {
      "constant": false,
      "inputs": [
        {
          "name": "_uprtclRoot",
          "type": "address"
        }
      ],
      "name": "setUprtclRoot",
      "outputs": [],
      "payable": false,
      "stateMutability": "nonpayable",
      "type": "function"
    },
    {
      "constant": false,
      "inputs": [
        {
          "name": "nv",
          "type": "uint256"
        }
      ],
      "name": "setFi",
      "outputs": [],
      "payable": false,
      "stateMutability": "nonpayable",
      "type": "function"
    },
    {
      "constant": false,
      "inputs": [
        {
          "name": "nv",
          "type": "uint256"
        }
      ],
      "name": "setRi",
      "outputs": [],
      "payable": false,
      "stateMutability": "nonpayable",
      "type": "function"
    },
    {
      "constant": false,
      "inputs": [
        {
          "name": "nv",
          "type": "uint256"
        }
      ],
      "name": "setQ",
      "outputs": [],
      "payable": false,
      "stateMutability": "nonpayable",
      "type": "function"
    },
    {
      "constant": false,
      "inputs": [
        {
          "name": "nv",
          "type": "uint256"
        }
      ],
      "name": "setP_BLOCKS",
      "outputs": [],
      "payable": false,
      "stateMutability": "nonpayable",
      "type": "function"
    },
    {
      "constant": false,
      "inputs": [
        {
          "name": "nv",
          "type": "uint256"
        }
      ],
      "name": "setP_PER_YEAR",
      "outputs": [],
      "payable": false,
      "stateMutability": "nonpayable",
      "type": "function"
    },
    {
      "constant": true,
      "inputs": [
        {
          "name": "upn",
          "type": "string"
        }
      ],
      "name": "hashUpn",
      "outputs": [
        {
          "name": "upnHased",
          "type": "bytes32"
        }
      ],
      "payable": false,
      "stateMutability": "pure",
      "type": "function"
    },
    {
      "constant": true,
      "inputs": [
        {
          "name": "V",
          "type": "uint256"
        },
        {
          "name": "P",
          "type": "uint256"
        }
      ],
      "name": "getTaxPerYear",
      "outputs": [
        {
          "name": "yearlyTax",
          "type": "uint256"
        }
      ],
      "payable": false,
      "stateMutability": "view",
      "type": "function"
    },
    {
      "constant": true,
      "inputs": [
        {
          "name": "V",
          "type": "uint256"
        },
        {
          "name": "P",
          "type": "uint256"
        }
      ],
      "name": "getTaxPerBlock",
      "outputs": [
        {
          "name": "perBlockTax",
          "type": "uint256"
        }
      ],
      "payable": false,
      "stateMutability": "view",
      "type": "function"
    },
    {
      "constant": false,
      "inputs": [
        {
          "name": "upnName",
          "type": "string"
        },
        {
          "components": [
            {
              "name": "owner",
              "type": "address"
            },
            {
              "name": "V",
              "type": "uint256"
            },
            {
              "name": "P",
              "type": "uint256"
            },
            {
              "name": "registry",
              "type": "address"
            }
          ],
          "name": "upnIn",
          "type": "tuple"
        },
        {
          "name": "account",
          "type": "address"
        },
        {
          "name": "upfront",
          "type": "uint256"
        }
      ],
      "name": "registerUPN",
      "outputs": [],
      "payable": false,
      "stateMutability": "nonpayable",
      "type": "function"
    },
    {
      "constant": false,
      "inputs": [
        {
          "name": "upnHash",
          "type": "bytes32"
        },
        {
          "name": "account",
          "type": "address"
        },
        {
          "name": "amount",
          "type": "uint256"
        }
      ],
      "name": "chargeUPN",
      "outputs": [],
      "payable": false,
      "stateMutability": "nonpayable",
      "type": "function"
    },
    {
      "constant": false,
      "inputs": [
        {
          "name": "upnHash",
          "type": "bytes32"
        },
        {
          "name": "newOwner",
          "type": "address"
        }
      ],
      "name": "transferUPN",
      "outputs": [],
      "payable": false,
      "stateMutability": "nonpayable",
      "type": "function"
    },
    {
      "constant": false,
      "inputs": [
        {
          "name": "upnHash",
          "type": "bytes32"
        },
        {
          "name": "V",
          "type": "uint256"
        },
        {
          "name": "P",
          "type": "uint256"
        },
        {
          "name": "account",
          "type": "address"
        },
        {
          "name": "upfront",
          "type": "uint256"
        }
      ],
      "name": "editUPN",
      "outputs": [],
      "payable": false,
      "stateMutability": "nonpayable",
      "type": "function"
    },
    {
      "constant": false,
      "inputs": [
        {
          "name": "upnHash",
          "type": "bytes32"
        },
        {
          "name": "registry",
          "type": "address"
        }
      ],
      "name": "changeUPRRegistry",
      "outputs": [],
      "payable": false,
      "stateMutability": "nonpayable",
      "type": "function"
    },
    {
      "constant": false,
      "inputs": [
        {
          "name": "upnHash",
          "type": "bytes32"
        },
        {
          "components": [
            {
              "name": "owner",
              "type": "address"
            },
            {
              "name": "V",
              "type": "uint256"
            },
            {
              "name": "P",
              "type": "uint256"
            },
            {
              "name": "registry",
              "type": "address"
            }
          ],
          "name": "upnIn",
          "type": "tuple"
        },
        {
          "name": "account",
          "type": "address"
        },
        {
          "name": "upfront",
          "type": "uint256"
        }
      ],
      "name": "takeUnpaidUPN",
      "outputs": [],
      "payable": false,
      "stateMutability": "nonpayable",
      "type": "function"
    },
    {
      "constant": false,
      "inputs": [
        {
          "name": "upnHash",
          "type": "bytes32"
        },
        {
          "components": [
            {
              "name": "owner",
              "type": "address"
            },
            {
              "name": "V",
              "type": "uint256"
            },
            {
              "name": "P",
              "type": "uint256"
            },
            {
              "name": "registry",
              "type": "address"
            }
          ],
          "name": "upnIn",
          "type": "tuple"
        },
        {
          "name": "account",
          "type": "address"
        }
      ],
      "name": "takeUPN",
      "outputs": [],
      "payable": false,
      "stateMutability": "nonpayable",
      "type": "function"
    },
    {
      "constant": false,
      "inputs": [
        {
          "name": "upnHash",
          "type": "bytes32"
        },
        {
          "name": "account",
          "type": "address"
        },
        {
          "name": "upfront",
          "type": "uint256"
        }
      ],
      "name": "executeTake",
      "outputs": [],
      "payable": false,
      "stateMutability": "nonpayable",
      "type": "function"
    },
    {
      "constant": true,
      "inputs": [
        {
          "name": "upnHash",
          "type": "bytes32"
        }
      ],
      "name": "getUPN",
      "outputs": [
        {
          "components": [
            {
              "name": "owner",
              "type": "address"
            },
            {
              "name": "V",
              "type": "uint256"
            },
            {
              "name": "P",
              "type": "uint256"
            },
            {
              "name": "block0",
              "type": "uint256"
            },
            {
              "name": "paid",
              "type": "uint256"
            },
            {
              "name": "registry",
              "type": "address"
            },
            {
              "name": "taken",
              "type": "uint8"
            },
            {
              "name": "newOwner",
              "type": "address"
            },
            {
              "name": "blockAvailable",
              "type": "uint256"
            },
            {
              "name": "newV",
              "type": "uint256"
            },
            {
              "name": "newP",
              "type": "uint256"
            },
            {
              "name": "newRegistry",
              "type": "address"
            }
          ],
          "name": "upn",
          "type": "tuple"
        }
      ],
      "payable": false,
      "stateMutability": "view",
      "type": "function"
    },
    {
      "constant": true,
      "inputs": [
        {
          "name": "context",
          "type": "string"
        }
      ],
      "name": "hashContext",
      "outputs": [
        {
          "name": "uprHashed",
          "type": "bytes32"
        }
      ],
      "payable": false,
      "stateMutability": "pure",
      "type": "function"
    },
    {
      "constant": true,
      "inputs": [
        {
          "name": "contextHash",
          "type": "bytes32"
        },
        {
          "name": "upnHash",
          "type": "bytes32"
        }
      ],
      "name": "getUPR",
      "outputs": [
        {
          "name": "value",
          "type": "string"
        }
      ],
      "payable": false,
      "stateMutability": "view",
      "type": "function"
    }
  ],
  "bytecode": "0x6080604052620f424060075561001961006660201b60201c565b600080546001600160a01b0319166001600160a01b03928316178082556040519216917f8be0079c531659141344cd1fd0a4f28419497f9722a3daafe3b4186f6b6457e0908290a361006a565b3390565b612112806100796000396000f3fe608060405234801561001057600080fd5b50600436106101da5760003560e01c80638da5cb5b11610104578063d1995430116100a2578063e509672411610071578063e5096724146103b9578063f2fde38b146103c1578063fd6665c4146103d4578063ff1bc91e146103e7576101da565b8063d19954301461038b578063d632fc131461038b578063dfcf04561461039e578063e493ef8c146103b1576101da565b80638f32d59b116100de5780638f32d59b1461034857806393ccaafb1461035d578063aa5a698514610370578063d08084c814610378576101da565b80638da5cb5b1461030d5780638e756e9e146103225780638f2d812814610335576101da565b806343f283f71161017c57806365d019701161014b57806365d01970146102d757806367ec8fee146102df578063715018a6146102f25780637cce0117146102fa576101da565b806343f283f71461027e57806348bed501146102915780634f8161bc146102a457806357923b05146102c4576101da565b80632df06319116101b85780632df06319146102305780632e0f2625146102435780633c38e9a71461025857806340667f3e1461026b576101da565b8063016f7aea146101df5780630c277455146101f457806327f5edb914610207575b600080fd5b6101f26101ed366004611826565b6103ef565b005b6101f26102023660046116d5565b610591565b61021a61021536600461167d565b610641565b6040516102279190611fca565b60405180910390f35b6101f261023e36600461167d565b6106f8565b61024b610724565b6040516102279190611edb565b61024b610266366004611722565b61072a565b6101f261027936600461169b565b610790565b6101f261028c366004611752565b6107eb565b6101f261029f36600461167d565b610878565b6102b76102b2366004611722565b6108a4565b6040516102279190611ee9565b61024b6102d2366004611722565b610945565b61024b61095d565b6101f26102ed3660046116d5565b610963565b6101f2610b8a565b6101f261030836600461189b565b610bfb565b610315610c44565b6040516102279190611e3e565b6101f2610330366004611782565b610c53565b6101f261034336600461167d565b610e7e565b610350610eaa565b6040516102279190611ecd565b6101f261036b36600461167d565b610ece565b61024b610efa565b6101f26103863660046118b9565b610f00565b61024b610399366004611929565b611072565b6101f26103ac36600461167d565b6110a2565b61024b6110ce565b61024b6110d4565b6101f26103cf36600461165f565b6110da565b6101f26103e23660046117c5565b61110d565b61024b6112d6565b600085815260016020526040902080546001600160a01b0316331461043257604051600160e51b62461bcd02815260040161042990611efa565b60405180910390fd5b6005810154600160a01b900460ff161561046157604051600160e51b62461bcd02815260040161042990611faa565b600061048b8260030154430361047f84600101548560020154610945565b9063ffffffff6112dc16565b600854835460048501549293506001600160a01b039182169263a9059cbb92909116906104b89085611319565b6040518363ffffffff1660e01b81526004016104d5929190611eb2565b600060405180830381600087803b1580156104ef57600080fd5b505af1158015610503573d6000803e3d6000fd5b5050600854604051600160e51b6302654acd0281526001600160a01b039091169250634ca959a0915061053e90879033908890600401611e8a565b600060405180830381600087803b15801561055857600080fd5b505af115801561056c573d6000803e3d6000fd5b5050436003850155505050600481019190915560018101939093555060029091015550565b600083815260016020526040902080546001600160a01b03166105c957604051600160e51b62461bcd02815260040161042990611f9a565b600854604051600160e51b6302654acd0281526001600160a01b0390911690634ca959a09061060090869033908790600401611e8a565b600060405180830381600087803b15801561061a57600080fd5b505af115801561062e573d6000803e3d6000fd5b5050505060040180549190910190555050565b6106496114bb565b5060009081526001602081815260409283902083516101808101855281546001600160a01b03908116825293820154928101929092526002810154938201939093526003830154606082015260048301546080820152600583015480831660a0830152600160a01b900460ff1660c08201526006830154821660e0820152600783015461010082015260088301546101208201526009830154610140820152600a909201541661016082015290565b610700610eaa565b61071f57604051600160e51b62461bcd02815260040161042990611f7a565b600555565b60075481565b60006107876107606005546107548561047f600554610754896004546112dc90919063ffffffff16565b9063ffffffff61135b16565b61077b600754610754600354886112dc90919063ffffffff16565b9063ffffffff61139d16565b90505b92915050565b600082815260016020526040902080546001600160a01b031633146107ca57604051600160e51b62461bcd02815260040161042990611efa565b80546001600160a01b0319166001600160a01b039290921691909117905550565b600082815260016020526040902080546001600160a01b0316331461082557604051600160e51b62461bcd02815260040161042990611efa565b6005810154600160a01b900460ff161561085457604051600160e51b62461bcd02815260040161042990611faa565b60050180546001600160a01b0319166001600160a01b039290921691909117905550565b610880610eaa565b61089f57604051600160e51b62461bcd02815260040161042990611f7a565b600255565b6000818152600160205260409081902060058101549151600160e01b63d8c601110281526060926001600160a01b03169063d8c60111906108e9908790600401611edb565b60006040518083038186803b15801561090157600080fd5b505afa158015610915573d6000803e3d6000fd5b505050506040513d6000823e601f3d908101601f1916820160405261093d919081019061195e565b949350505050565b6000610787600554610754600654610754878761072a565b60035481565b600083815260016020819052604090912060058101549091600160a01b90910460ff16146109a657604051600160e51b62461bcd02815260040161042990611f5a565b60068101546001600160a01b031633146109d557604051600160e51b62461bcd02815260040161042990611f4a565b80600701544310156109fc57604051600160e51b62461bcd02815260040161042990611f8a565b6000610a1a8260030154430361047f84600101548560020154610945565b600854835460048501549293506001600160a01b039182169263a9059cbb9290911690610a479085611319565b6040518363ffffffff1660e01b8152600401610a64929190611eb2565b600060405180830381600087803b158015610a7e57600080fd5b505af1158015610a92573d6000803e3d6000fd5b505050506000831115610b0957600854604051600160e51b6302654acd0281526001600160a01b0390911690634ca959a090610ad690879033908890600401611e8a565b600060405180830381600087803b158015610af057600080fd5b505af1158015610b04573d6000803e3d6000fd5b505050505b50436003820155600481019190915560068101805482546001600160a01b038083166001600160a01b031992831617855560088501805460018701556009860180546002880155600a8701546005880180549190941690851617600160a01b60ff021916909255919092169092556000600790930183905590829055555050565b610b92610eaa565b610bb157604051600160e51b62461bcd02815260040161042990611f7a565b600080546040516001600160a01b03909116907f8be0079c531659141344cd1fd0a4f28419497f9722a3daafe3b4186f6b6457e0908390a3600080546001600160a01b0319169055565b610c03610eaa565b610c2257604051600160e51b62461bcd02815260040161042990611f7a565b600880546001600160a01b0319166001600160a01b0392909216919091179055565b6000546001600160a01b031690565b600083815260016020526040902080546001600160a01b0316610c8b57604051600160e51b62461bcd02815260040161042990611f9a565b6005810154600160a01b900460ff1615610cba57604051600160e51b62461bcd02815260040161042990611f3a565b6000610cdb60075461075460025485600101546112dc90919063ffffffff16565b90506000610cf682846001015461131990919063ffffffff16565b6008548454604051600160e01b636556cd050281529293506001600160a01b0391821692636556cd0592610d369289923392909116908790600401611e4c565b600060405180830381600087803b158015610d5057600080fd5b505af1158015610d64573d6000803e3d6000fd5b5050600854604051600160e51b6302654acd0281526001600160a01b039091169250634ca959a09150610d9f90879033908790600401611e8a565b600060405180830381600087803b158015610db957600080fd5b505af1158015610dcd573d6000803e3d6000fd5b505050600584018054600160a01b60ff021916600160a01b17905550610df6602086018661165f565b6006840180546001600160a01b0319166001600160a01b03929092169190911790556020850135600884015560408501356009840155610e3c608086016060870161189b565b600a840180546001600160a01b0319166001600160a01b03929092169190911790556002830154610e6e90439061139d565b8360070181905550505050505050565b610e86610eaa565b610ea557604051600160e51b62461bcd02815260040161042990611f7a565b600455565b600080546001600160a01b0316610ebf6113c5565b6001600160a01b031614905090565b610ed6610eaa565b610ef557604051600160e51b62461bcd02815260040161042990611f7a565b600655565b60065481565b6000610f4186868080601f01602080910402602001604051908101604052809392919081815260200183838082843760009201919091525061107292505050565b60008181526001602052604090208054919250906001600160a01b031615610f7e57604051600160e51b62461bcd02815260040161042990611f2a565b8215610fee57600854604051600160e51b6302654acd0281526001600160a01b0390911690634ca959a090610fbb90879033908890600401611e8a565b600060405180830381600087803b158015610fd557600080fd5b505af1158015610fe9573d6000803e3d6000fd5b505050505b43600382015560048101839055611008602086018661165f565b81546001600160a01b0319166001600160a01b03919091161781556020850135600182015560408501356002820155611047608086016060870161189b565b60059190910180546001600160a01b0319166001600160a01b03909216919091179055505050505050565b6000816040516020016110859190611ee9565b604051602081830303815290604052805190602001209050919050565b6110aa610eaa565b6110c957604051600160e51b62461bcd02815260040161042990611f7a565b600355565b60045481565b60025481565b6110e2610eaa565b61110157604051600160e51b62461bcd02815260040161042990611f7a565b61110a816113c9565b50565b600060016000868152602001908152602001600020905060006111428260030154430361047f84600101548560020154610945565b90508160040154811161116a57604051600160e51b62461bcd02815260040161042990611fba565b82156111da57600854604051600160e51b6302654acd0281526001600160a01b0390911690634ca959a0906111a790879033908890600401611e8a565b600060405180830381600087803b1580156111c157600080fd5b505af11580156111d5573d6000803e3d6000fd5b505050505b436003830155600482018390556005820154600160a01b900460ff161561125f5760068201805483546001600160a01b03199081166001600160a01b03831617855560088501805460018701556009860180546002880155600587018054600160a01b60ff0219169055919092169092556000600785018190559081905590556112ce565b61126c602086018661165f565b82546001600160a01b0319166001600160a01b039190911617825560208501356001830155604085013560028301556112ab608086016060870161189b565b6005830180546001600160a01b0319166001600160a01b03929092169190911790555b505050505050565b60055481565b6000826112eb5750600061078a565b828202828482816112f857fe5b041461078757604051600160e51b62461bcd02815260040161042990611f6a565b600061078783836040518060400160405280601e81526020017f536166654d6174683a207375627472616374696f6e206f766572666c6f77000081525061144d565b600061078783836040518060400160405280601a81526020017f536166654d6174683a206469766973696f6e206279207a65726f000000000000815250611481565b60008282018381101561078757604051600160e51b62461bcd02815260040161042990611f1a565b3390565b6001600160a01b0381166113f257604051600160e51b62461bcd02815260040161042990611f0a565b600080546040516001600160a01b03808516939216917f8be0079c531659141344cd1fd0a4f28419497f9722a3daafe3b4186f6b6457e091a3600080546001600160a01b0319166001600160a01b0392909216919091179055565b6000818484111561147457604051600160e51b62461bcd0281526004016104299190611ee9565b50508183035b9392505050565b600081836114a557604051600160e51b62461bcd0281526004016104299190611ee9565b5060008385816114b157fe5b0495945050505050565b60405180610180016040528060006001600160a01b031681526020016000815260200160008152602001600081526020016000815260200160006001600160a01b03168152602001600060ff16815260200160006001600160a01b0316815260200160008152602001600081526020016000815260200160006001600160a01b031681525090565b803561078a816120b2565b803561078a816120c6565b803561078a816120cf565b60008083601f84011261157657600080fd5b50813567ffffffffffffffff81111561158e57600080fd5b6020830191508360018202830111156115a657600080fd5b9250929050565b600082601f8301126115be57600080fd5b81356115d16115cc82612000565b611fd9565b915080825260208301602083018583830111156115ed57600080fd5b6115f8838284612070565b50505092915050565b600082601f83011261161257600080fd5b81516116206115cc82612000565b9150808252602083016020830185838301111561163c57600080fd5b6115f883828461207c565b60006080828403121561165957600080fd5b50919050565b60006020828403121561167157600080fd5b600061093d8484611543565b60006020828403121561168f57600080fd5b600061093d848461154e565b600080604083850312156116ae57600080fd5b60006116ba858561154e565b92505060206116cb85828601611543565b9150509250929050565b6000806000606084860312156116ea57600080fd5b60006116f6868661154e565b935050602061170786828701611543565b92505060406117188682870161154e565b9150509250925092565b6000806040838503121561173557600080fd5b6000611741858561154e565b92505060206116cb8582860161154e565b6000806040838503121561176557600080fd5b6000611771858561154e565b92505060206116cb85828601611559565b600080600060c0848603121561179757600080fd5b60006117a3868661154e565b93505060206117b486828701611647565b92505060a061171886828701611543565b60008060008060e085870312156117db57600080fd5b60006117e7878761154e565b94505060206117f887828801611647565b93505060a061180987828801611543565b92505060c061181a8782880161154e565b91505092959194509250565b600080600080600060a0868803121561183e57600080fd5b600061184a888861154e565b955050602061185b8882890161154e565b945050604061186c8882890161154e565b935050606061187d88828901611543565b925050608061188e8882890161154e565b9150509295509295909350565b6000602082840312156118ad57600080fd5b600061093d8484611559565b600080600080600060e086880312156118d157600080fd5b853567ffffffffffffffff8111156118e857600080fd5b6118f488828901611564565b9550955050602061190788828901611647565b93505060a061191888828901611543565b92505060c061188e8882890161154e565b60006020828403121561193b57600080fd5b813567ffffffffffffffff81111561195257600080fd5b61093d848285016115ad565b60006020828403121561197057600080fd5b815167ffffffffffffffff81111561198757600080fd5b61093d84828501611601565b61199c81612065565b82525050565b61199c81612035565b61199c81612040565b61199c81612045565b61199c81612048565b60006119d182612028565b6119db818561202c565b93506119eb81856020860161207c565b6119f4816120a8565b9093019392505050565b6000611a0b602c8361202c565b7f75706e2063616e206f6e6c79206265207570646174656420627920697473206381527f757272656e74206f776e65720000000000000000000000000000000000000000602082015260400192915050565b6000611a6a60268361202c565b7f4f776e61626c653a206e6577206f776e657220697320746865207a65726f20618152600160d01b6564647265737302602082015260400192915050565b6000611ab5601b8361202c565b7f536166654d6174683a206164646974696f6e206f766572666c6f770000000000815260200192915050565b6000611aee60118361202c565b7f75706e206e6f7420617661696c61626c65000000000000000000000000000000815260200192915050565b6000611b2760118361202c565b7f75706e20616c72656164792074616b656e000000000000000000000000000000815260200192915050565b6000611b6060238361202c565b7f6f6e6c79206e6577206f776e65722063616e20657865637574652074686520748152600160e81b62616b6502602082015260400192915050565b6000611ba860188361202c565b7f75706e206e6f742070726576696f75736c792074616b656e0000000000000000815260200192915050565b6000611be160218361202c565b7f536166654d6174683a206d756c7469706c69636174696f6e206f766572666c6f8152600160f81b607702602082015260400192915050565b6000611c2760208361202c565b7f4f776e61626c653a2063616c6c6572206973206e6f7420746865206f776e6572815260200192915050565b6000611c6060218361202c565b7f75706e207374696c6c20756e6465722070726f74656374696f6e20706572696f8152600160fa1b601902602082015260400192915050565b6000611ca660128361202c565b7f75706e206e6f7420726567697374657265640000000000000000000000000000815260200192915050565b6000611cdf60198361202c565b7f74616b656e2075706e732063616e742062652065646974656400000000000000815260200192915050565b6000611d18601d8361202c565b7f55504e2069732075702d746f2d64617465206f6e207061796d656e7473000000815260200192915050565b8051610180830190611d5684826119a2565b506020820151611d6960208501826119b4565b506040820151611d7c60408501826119b4565b506060820151611d8f60608501826119b4565b506080820151611da260808501826119b4565b5060a0820151611db560a08501826119bd565b5060c0820151611dc860c0850182611e35565b5060e0820151611ddb60e08501826119a2565b50610100820151611df06101008501826119b4565b50610120820151611e056101208501826119b4565b50610140820151611e1a6101408501826119b4565b50610160820151611e2f6101608501826119bd565b50505050565b61199c8161205f565b6020810161078a82846119a2565b60808101611e5a82876119a2565b611e676020830186611993565b611e7460408301856119a2565b611e8160608301846119b4565b95945050505050565b60608101611e9882866119a2565b611ea56020830185611993565b61093d60408301846119b4565b60408101611ec082856119a2565b61147a60208301846119b4565b6020810161078a82846119ab565b6020810161078a82846119b4565b6020808252810161078781846119c6565b6020808252810161078a816119fe565b6020808252810161078a81611a5d565b6020808252810161078a81611aa8565b6020808252810161078a81611ae1565b6020808252810161078a81611b1a565b6020808252810161078a81611b53565b6020808252810161078a81611b9b565b6020808252810161078a81611bd4565b6020808252810161078a81611c1a565b6020808252810161078a81611c53565b6020808252810161078a81611c99565b6020808252810161078a81611cd2565b6020808252810161078a81611d0b565b610180810161078a8284611d44565b60405181810167ffffffffffffffff81118282101715611ff857600080fd5b604052919050565b600067ffffffffffffffff82111561201757600080fd5b506020601f91909101601f19160190565b5190565b90815260200190565b600061078a82612053565b151590565b90565b600061078a82612035565b6001600160a01b031690565b60ff1690565b600061078a82612048565b82818337506000910152565b60005b8381101561209757818101518382015260200161207f565b83811115611e2f5750506000910152565b601f01601f191690565b6120bb81612035565b811461110a57600080fd5b6120bb81612045565b6120bb8161204856fea265627a7a72305820115628115b86840de77ac47e4f1d355c63089d3e96e2d39351c09b87063f15b86c6578706572696d656e74616cf50037",
  "source": "pragma solidity >=0.5.0 <0.6.0;\npragma experimental ABIEncoderV2;\n\nimport \"./UprtclRoot.sol\";\nimport \"./UPRRegistry.sol\";\nimport \"./Ownable.sol\";\nimport \"./SafeMath.sol\";\n\ncontract UPNService is Ownable {\n    \n    using SafeMath for uint256;\n\n    struct UPNIn {\n        address owner;\n        uint256 V;\n        uint256 P;\n        UPRRegistry registry;\n    }\n\n    struct UPN {\n        address owner;\n        uint256 V;\n        uint256 P;\n        uint256 block0;\n        uint256 paid;\n        UPRRegistry registry;\n\n        uint8 taken;\n        address newOwner;\n        uint256 blockAvailable;\n        uint256 newV;\n        uint256 newP;\n        UPRRegistry newRegistry;\n    }\n\n    mapping(bytes32 => UPN) upns;\n    \n    uint256 public Fi;\n    uint256 public Ri;\n    uint256 public Q;\n    uint256 public P_BLOCKS;\n    uint256 public P_PER_YEAR;\n\n    uint256 public DECIMALS = 1000000;\n\n    UprtclRoot uprtclRoot;\n\n    function setUprtclRoot(UprtclRoot _uprtclRoot) public onlyOwner {\n        uprtclRoot = _uprtclRoot;\n    }\n\n    function setFi(uint256 nv) public onlyOwner { Fi = nv; }\n    function setRi(uint256 nv) public onlyOwner { Ri = nv; }\n    function setQ(uint256 nv) public onlyOwner { Q = nv; }\n    function setP_BLOCKS(uint256 nv) public onlyOwner { P_BLOCKS = nv; }\n    function setP_PER_YEAR(uint256 nv) public onlyOwner { P_PER_YEAR = nv; }\n\n    function hashUpn(string memory upn) public pure returns(bytes32 upnHased) {\n        return keccak256(abi.encode(upn));\n    }\n\n    function getTaxPerYear(uint256 V, uint256 P) public view returns(uint256 yearlyTax) {\n        return V.mul(Ri).div(DECIMALS).add((Q.mul(P).div(P_BLOCKS).mul(P).div(P_BLOCKS)));\n    }\n\n    function getTaxPerBlock(uint256 V, uint256 P) public view returns(uint256 perBlockTax) {\n        return getTaxPerYear(V, P).div(P_PER_YEAR).div(P_BLOCKS);\n    }\n\n    function registerUPN(string calldata upnName, UPNIn calldata upnIn, address account, uint256 upfront) external {\n        bytes32 upnHash = hashUpn(upnName);\n        UPN storage upn = upns[upnHash];\n        require(upn.owner == address(0), \"upn not available\");\n\n        /** new registration */\n        if (upfront > 0) {\n            uprtclRoot.consume(account, msg.sender, upfront);\n        }\n\n        upn.block0 = block.number;\n        upn.paid = upfront;\n\n        upn.owner = upnIn.owner;\n        upn.V = upnIn.V;\n        upn.P = upnIn.P;\n        upn.registry = upnIn.registry;\n    }\n\n    function chargeUPN(bytes32 upnHash, address account, uint256 amount) external {\n        UPN storage upn = upns[upnHash];\n        require(upn.owner != address(0), \"upn not registered\");\n\n        /** new registration */\n        uprtclRoot.consume(account, msg.sender, amount);\n        upn.paid = upn.paid + amount;\n    }\n\n    function transferUPN(bytes32 upnHash, address newOwner) external {\n        UPN storage upn = upns[upnHash];\n        require(upn.owner == msg.sender, \"upn can only be updated by its current owner\");\n        upn.owner = newOwner;\n    }\n\n    function editUPN(bytes32 upnHash, uint256 V, uint256 P, address account, uint256 upfront) external {\n        UPN storage upn = upns[upnHash];\n        require(upn.owner == msg.sender, \"upn can only be updated by its current owner\");\n        require(upn.taken == 0, \"taken upns cant be edited\");\n\n        /** send unpaid balance back ot owner */\n        uint256 shouldHavePaid = getTaxPerBlock(upn.V, upn.P).mul(block.number - upn.block0);\n        uprtclRoot.transfer(upn.owner, upn.paid.sub(shouldHavePaid));\n\n        /** consume new upfront payment */\n        uprtclRoot.consume(account, msg.sender, upfront);\n        upn.block0 = block.number;\n        upn.paid = upfront;\n        upn.V = V;\n        upn.P = P;\n    }\n\n    function changeUPRRegistry(bytes32 upnHash, UPRRegistry registry) external {\n        UPN storage upn = upns[upnHash];\n        require(upn.owner == msg.sender, \"upn can only be updated by its current owner\");\n        require(upn.taken == 0, \"taken upns cant be edited\");\n\n        upn.registry = registry;\n    }\n\n    function takeUnpaidUPN(bytes32 upnHash, UPNIn calldata upnIn, address account, uint256 upfront) external {\n        UPN storage upn = upns[upnHash];\n        uint256 shouldHavePaid = getTaxPerBlock(upn.V, upn.P).mul(block.number - upn.block0);\n        require(shouldHavePaid > upn.paid, \"UPN is up-to-date on payments\");\n\n        /** reset payment status */\n        if (upfront > 0) {\n            uprtclRoot.consume(account, msg.sender, upfront);\n        }\n\n        upn.block0 = block.number;\n        upn.paid = upfront;\n\n        /** if taken, only the new owner can take it */\n        if (upn.taken > 0) {\n            upn.owner = upn.newOwner;\n            upn.V = upn.newV;\n            upn.P = upn.newP;\n\n            upn.taken = 0;\n            upn.newOwner = address(0);\n            upn.blockAvailable = 0;\n            upn.newV = 0;\n            upn.newP = 0;\n            // upn.newRegistry = address(0);\n        } else {\n            upn.owner = upnIn.owner;\n            upn.V = upnIn.V;\n            upn.P = upnIn.P;\n            upn.registry = upnIn.registry;\n        }\n    }\n\n    function takeUPN(bytes32 upnHash, UPNIn calldata upnIn, address account) external {\n        UPN storage upn = upns[upnHash];\n        require(upn.owner != address(0), \"upn not registered\");\n        require(upn.taken == 0, \"upn already taken\");\n\n        uint256 payUs = upn.V.mul(Fi).div(DECIMALS);\n        uint256 payOwner = upn.V.sub(payUs);\n\n        uprtclRoot.transferTo(account, msg.sender, upn.owner, payOwner);\n        uprtclRoot.consume(account, msg.sender, payUs);\n\n        upn.taken = 1;\n        upn.newOwner = upnIn.owner;\n        upn.newV = upnIn.V;\n        upn.newP = upnIn.P;\n        upn.newRegistry = upnIn.registry;\n        upn.blockAvailable = block.number.add(upn.P);\n    }\n\n    function executeTake(bytes32 upnHash, address account, uint256 upfront) external {\n        UPN storage upn = upns[upnHash];\n        require(upn.taken == 1, \"upn not previously taken\");\n        require(upn.newOwner == msg.sender, \"only new owner can execute the take\");\n        require(block.number >= upn.blockAvailable, \"upn still under protection period\");\n\n        /** reimburse not spent balance to current owner */\n        uint256 shouldHavePaid = getTaxPerBlock(upn.V, upn.P).mul(block.number - upn.block0);\n        uprtclRoot.transfer(upn.owner, upn.paid.sub(shouldHavePaid));\n\n        /** reset payment status */\n        if (upfront > 0) {\n            uprtclRoot.consume(account, msg.sender, upfront);\n        }\n        upn.block0 = block.number;\n        upn.paid = upfront;\n\n        upn.owner = upn.newOwner;\n        upn.V = upn.newV;\n        upn.P = upn.newP;\n        upn.registry = upn.newRegistry;\n\n        upn.taken = 0;\n        upn.newOwner = address(0);\n        upn.blockAvailable = 0;\n        upn.newV = 0;\n        upn.newP = 0;\n        // upn.newRegistry = address(0);\n    }\n\n    function getUPN(bytes32 upnHash) public view returns(UPN memory upn) {\n        return upns[upnHash];\n    }\n\n    function hashContext(string memory context) public pure returns(bytes32 uprHashed) {\n        return keccak256(abi.encode(context));\n    }\n\n    function getUPR(bytes32 contextHash, bytes32 upnHash) public view returns (string memory value) {\n        UPN storage upn = upns[upnHash];\n        return upn.registry.getUPR(contextHash);\n    }\n\n}",
  "sourcePath": "/home/pepo/pr/uprtcl/eth-uprtcl/contracts/UPNService.sol",
  "compiler": {
    "name": "solc",
    "version": "0.5.8+commit.23d335f2.Emscripten.clang"
  },
  "schemaVersion": "3.0.11",
  "updatedAt": "2020-04-19T13:53:28.759Z",
  "devdoc": {
    "methods": {
      "isOwner()": {
        "details": "Returns true if the caller is the current owner."
      },
      "owner()": {
        "details": "Returns the address of the current owner."
      },
      "renounceOwnership()": {
        "details": "Leaves the contract without owner. It will not be possible to call `onlyOwner` functions anymore. Can only be called by the current owner.     * NOTE: Renouncing ownership will leave the contract without an owner, thereby removing any functionality that is only available to the owner."
      },
      "transferOwnership(address)": {
        "details": "Transfers ownership of the contract to a new account (`newOwner`). Can only be called by the current owner."
      }
    }
  },
  "userdoc": {
    "methods": {}
  }
}