{
  "contractName": "UPNService",
  "abi": [
    {
      "anonymous": false,
      "inputs": [
        {
          "indexed": true,
          "internalType": "address",
          "name": "previousOwner",
          "type": "address"
        },
        {
          "indexed": true,
          "internalType": "address",
          "name": "newOwner",
          "type": "address"
        }
      ],
      "name": "OwnershipTransferred",
      "type": "event"
    },
    {
      "constant": true,
      "inputs": [],
      "name": "DECIMALS",
      "outputs": [
        {
          "internalType": "uint256",
          "name": "",
          "type": "uint256"
        }
      ],
      "payable": false,
      "stateMutability": "view",
      "type": "function"
    },
    {
      "constant": true,
      "inputs": [],
      "name": "Fi",
      "outputs": [
        {
          "internalType": "uint256",
          "name": "",
          "type": "uint256"
        }
      ],
      "payable": false,
      "stateMutability": "view",
      "type": "function"
    },
    {
      "constant": true,
      "inputs": [],
      "name": "P_BLOCKS",
      "outputs": [
        {
          "internalType": "uint256",
          "name": "",
          "type": "uint256"
        }
      ],
      "payable": false,
      "stateMutability": "view",
      "type": "function"
    },
    {
      "constant": true,
      "inputs": [],
      "name": "P_PER_YEAR",
      "outputs": [
        {
          "internalType": "uint256",
          "name": "",
          "type": "uint256"
        }
      ],
      "payable": false,
      "stateMutability": "view",
      "type": "function"
    },
    {
      "constant": true,
      "inputs": [],
      "name": "Q",
      "outputs": [
        {
          "internalType": "uint256",
          "name": "",
          "type": "uint256"
        }
      ],
      "payable": false,
      "stateMutability": "view",
      "type": "function"
    },
    {
      "constant": true,
      "inputs": [],
      "name": "Ri",
      "outputs": [
        {
          "internalType": "uint256",
          "name": "",
          "type": "uint256"
        }
      ],
      "payable": false,
      "stateMutability": "view",
      "type": "function"
    },
    {
      "constant": true,
      "inputs": [],
      "name": "isOwner",
      "outputs": [
        {
          "internalType": "bool",
          "name": "",
          "type": "bool"
        }
      ],
      "payable": false,
      "stateMutability": "view",
      "type": "function"
    },
    {
      "constant": true,
      "inputs": [],
      "name": "owner",
      "outputs": [
        {
          "internalType": "address payable",
          "name": "",
          "type": "address"
        }
      ],
      "payable": false,
      "stateMutability": "view",
      "type": "function"
    },
    {
      "constant": false,
      "inputs": [],
      "name": "renounceOwnership",
      "outputs": [],
      "payable": false,
      "stateMutability": "nonpayable",
      "type": "function"
    },
    {
      "constant": false,
      "inputs": [
        {
          "internalType": "address payable",
          "name": "newOwner",
          "type": "address"
        }
      ],
      "name": "transferOwnership",
      "outputs": [],
      "payable": false,
      "stateMutability": "nonpayable",
      "type": "function"
    },
    {
      "constant": false,
      "inputs": [
        {
          "internalType": "contract UprtclRoot",
          "name": "_uprtclRoot",
          "type": "address"
        }
      ],
      "name": "setUprtclRoot",
      "outputs": [],
      "payable": false,
      "stateMutability": "nonpayable",
      "type": "function"
    },
    {
      "constant": false,
      "inputs": [
        {
          "internalType": "uint256",
          "name": "nv",
          "type": "uint256"
        }
      ],
      "name": "setFi",
      "outputs": [],
      "payable": false,
      "stateMutability": "nonpayable",
      "type": "function"
    },
    {
      "constant": false,
      "inputs": [
        {
          "internalType": "uint256",
          "name": "nv",
          "type": "uint256"
        }
      ],
      "name": "setRi",
      "outputs": [],
      "payable": false,
      "stateMutability": "nonpayable",
      "type": "function"
    },
    {
      "constant": false,
      "inputs": [
        {
          "internalType": "uint256",
          "name": "nv",
          "type": "uint256"
        }
      ],
      "name": "setQ",
      "outputs": [],
      "payable": false,
      "stateMutability": "nonpayable",
      "type": "function"
    },
    {
      "constant": false,
      "inputs": [
        {
          "internalType": "uint256",
          "name": "nv",
          "type": "uint256"
        }
      ],
      "name": "setP_BLOCKS",
      "outputs": [],
      "payable": false,
      "stateMutability": "nonpayable",
      "type": "function"
    },
    {
      "constant": false,
      "inputs": [
        {
          "internalType": "uint256",
          "name": "nv",
          "type": "uint256"
        }
      ],
      "name": "setP_PER_YEAR",
      "outputs": [],
      "payable": false,
      "stateMutability": "nonpayable",
      "type": "function"
    },
    {
      "constant": true,
      "inputs": [
        {
          "internalType": "string",
          "name": "upn",
          "type": "string"
        }
      ],
      "name": "hashUpn",
      "outputs": [
        {
          "internalType": "bytes32",
          "name": "upnHased",
          "type": "bytes32"
        }
      ],
      "payable": false,
      "stateMutability": "pure",
      "type": "function"
    },
    {
      "constant": true,
      "inputs": [
        {
          "internalType": "uint256",
          "name": "V",
          "type": "uint256"
        },
        {
          "internalType": "uint256",
          "name": "P",
          "type": "uint256"
        }
      ],
      "name": "getTaxPerYear",
      "outputs": [
        {
          "internalType": "uint256",
          "name": "yearlyTax",
          "type": "uint256"
        }
      ],
      "payable": false,
      "stateMutability": "view",
      "type": "function"
    },
    {
      "constant": true,
      "inputs": [
        {
          "internalType": "uint256",
          "name": "V",
          "type": "uint256"
        },
        {
          "internalType": "uint256",
          "name": "P",
          "type": "uint256"
        }
      ],
      "name": "getTaxPerBlock",
      "outputs": [
        {
          "internalType": "uint256",
          "name": "perBlockTax",
          "type": "uint256"
        }
      ],
      "payable": false,
      "stateMutability": "view",
      "type": "function"
    },
    {
      "constant": false,
      "inputs": [
        {
          "internalType": "string",
          "name": "upnName",
          "type": "string"
        },
        {
          "components": [
            {
              "internalType": "address",
              "name": "owner",
              "type": "address"
            },
            {
              "internalType": "uint256",
              "name": "V",
              "type": "uint256"
            },
            {
              "internalType": "uint256",
              "name": "P",
              "type": "uint256"
            }
          ],
          "internalType": "struct UPNService.UPNIn",
          "name": "upnIn",
          "type": "tuple"
        },
        {
          "internalType": "address",
          "name": "account",
          "type": "address"
        },
        {
          "internalType": "uint256",
          "name": "upfront",
          "type": "uint256"
        }
      ],
      "name": "registerUPN",
      "outputs": [],
      "payable": false,
      "stateMutability": "nonpayable",
      "type": "function"
    },
    {
      "constant": false,
      "inputs": [
        {
          "internalType": "bytes32",
          "name": "upnHash",
          "type": "bytes32"
        },
        {
          "internalType": "address",
          "name": "account",
          "type": "address"
        },
        {
          "internalType": "uint256",
          "name": "amount",
          "type": "uint256"
        }
      ],
      "name": "chargeUPN",
      "outputs": [],
      "payable": false,
      "stateMutability": "nonpayable",
      "type": "function"
    },
    {
      "constant": false,
      "inputs": [
        {
          "internalType": "bytes32",
          "name": "upnHash",
          "type": "bytes32"
        },
        {
          "internalType": "address",
          "name": "newOwner",
          "type": "address"
        }
      ],
      "name": "transferUPN",
      "outputs": [],
      "payable": false,
      "stateMutability": "nonpayable",
      "type": "function"
    },
    {
      "constant": false,
      "inputs": [
        {
          "internalType": "bytes32",
          "name": "upnHash",
          "type": "bytes32"
        },
        {
          "internalType": "uint256",
          "name": "V",
          "type": "uint256"
        },
        {
          "internalType": "uint256",
          "name": "P",
          "type": "uint256"
        },
        {
          "internalType": "address",
          "name": "account",
          "type": "address"
        },
        {
          "internalType": "uint256",
          "name": "upfront",
          "type": "uint256"
        }
      ],
      "name": "editUPN",
      "outputs": [],
      "payable": false,
      "stateMutability": "nonpayable",
      "type": "function"
    },
    {
      "constant": false,
      "inputs": [
        {
          "internalType": "bytes32",
          "name": "upnHash",
          "type": "bytes32"
        },
        {
          "components": [
            {
              "internalType": "address",
              "name": "owner",
              "type": "address"
            },
            {
              "internalType": "uint256",
              "name": "V",
              "type": "uint256"
            },
            {
              "internalType": "uint256",
              "name": "P",
              "type": "uint256"
            }
          ],
          "internalType": "struct UPNService.UPNIn",
          "name": "upnIn",
          "type": "tuple"
        },
        {
          "internalType": "address",
          "name": "account",
          "type": "address"
        },
        {
          "internalType": "uint256",
          "name": "upfront",
          "type": "uint256"
        }
      ],
      "name": "takeUnpaidUPN",
      "outputs": [],
      "payable": false,
      "stateMutability": "nonpayable",
      "type": "function"
    },
    {
      "constant": false,
      "inputs": [
        {
          "internalType": "bytes32",
          "name": "upnHash",
          "type": "bytes32"
        },
        {
          "components": [
            {
              "internalType": "address",
              "name": "owner",
              "type": "address"
            },
            {
              "internalType": "uint256",
              "name": "V",
              "type": "uint256"
            },
            {
              "internalType": "uint256",
              "name": "P",
              "type": "uint256"
            }
          ],
          "internalType": "struct UPNService.UPNIn",
          "name": "upnIn",
          "type": "tuple"
        },
        {
          "internalType": "address",
          "name": "account",
          "type": "address"
        }
      ],
      "name": "takeUPN",
      "outputs": [],
      "payable": false,
      "stateMutability": "nonpayable",
      "type": "function"
    },
    {
      "constant": false,
      "inputs": [
        {
          "internalType": "bytes32",
          "name": "upnHash",
          "type": "bytes32"
        }
      ],
      "name": "executeTake",
      "outputs": [],
      "payable": false,
      "stateMutability": "nonpayable",
      "type": "function"
    },
    {
      "constant": true,
      "inputs": [
        {
          "internalType": "bytes32",
          "name": "upnHash",
          "type": "bytes32"
        }
      ],
      "name": "getUPN",
      "outputs": [
        {
          "components": [
            {
              "internalType": "address",
              "name": "owner",
              "type": "address"
            },
            {
              "internalType": "uint256",
              "name": "V",
              "type": "uint256"
            },
            {
              "internalType": "uint256",
              "name": "P",
              "type": "uint256"
            },
            {
              "internalType": "uint256",
              "name": "block0",
              "type": "uint256"
            },
            {
              "internalType": "uint256",
              "name": "paid",
              "type": "uint256"
            },
            {
              "internalType": "uint8",
              "name": "taken",
              "type": "uint8"
            },
            {
              "internalType": "address",
              "name": "newOwner",
              "type": "address"
            },
            {
              "internalType": "uint256",
              "name": "blockAvailable",
              "type": "uint256"
            },
            {
              "internalType": "uint256",
              "name": "newV",
              "type": "uint256"
            },
            {
              "internalType": "uint256",
              "name": "newP",
              "type": "uint256"
            }
          ],
          "internalType": "struct UPNService.UPN",
          "name": "upn",
          "type": "tuple"
        }
      ],
      "payable": false,
      "stateMutability": "view",
      "type": "function"
    },
    {
      "constant": true,
      "inputs": [
        {
          "internalType": "string",
          "name": "context",
          "type": "string"
        },
        {
          "internalType": "string",
          "name": "upn",
          "type": "string"
        }
      ],
      "name": "hashUpr",
      "outputs": [
        {
          "internalType": "bytes32",
          "name": "uprHashed",
          "type": "bytes32"
        }
      ],
      "payable": false,
      "stateMutability": "pure",
      "type": "function"
    },
    {
      "constant": false,
      "inputs": [
        {
          "components": [
            {
              "internalType": "string",
              "name": "context",
              "type": "string"
            },
            {
              "internalType": "string",
              "name": "upn",
              "type": "string"
            }
          ],
          "internalType": "struct UPNService.UPRParts",
          "name": "uprParts",
          "type": "tuple"
        },
        {
          "internalType": "string",
          "name": "value",
          "type": "string"
        }
      ],
      "name": "setUPR",
      "outputs": [],
      "payable": false,
      "stateMutability": "nonpayable",
      "type": "function"
    },
    {
      "constant": true,
      "inputs": [
        {
          "internalType": "bytes32",
          "name": "uprHash",
          "type": "bytes32"
        }
      ],
      "name": "getUPR",
      "outputs": [
        {
          "internalType": "string",
          "name": "value",
          "type": "string"
        }
      ],
      "payable": false,
      "stateMutability": "view",
      "type": "function"
    }
  ],
  "bytecode": "0x6080604052620f424060085561001c6001600160e01b0361006916565b600080546001600160a01b0319166001600160a01b03928316178082556040519216917f8be0079c531659141344cd1fd0a4f28419497f9722a3daafe3b4186f6b6457e0908290a361006d565b3390565b611ed98061007c6000396000f3fe608060405234801561001057600080fd5b50600436106101da5760003560e01c80637cce011711610104578063d7b94906116100a2578063e509672411610071578063e5096724146103cc578063ebd1948d146103d4578063f2fde38b146103e7578063ff1bc91e146103fa576101da565b8063d7b949061461037e578063d8c6011114610391578063dfcf0456146103b1578063e493ef8c146103c4576101da565b80638f32d59b116100de5780638f32d59b1461033b57806393ccaafb14610350578063aa5a698514610363578063d632fc131461036b576101da565b80637cce0117146103005780638da5cb5b146103135780638f2d812814610328576101da565b80633c38e9a71161017c57806357923b051161014b57806357923b05146102ca57806365d01970146102dd57806369839bc4146102e5578063715018a6146102f8576101da565b80633c38e9a71461027e57806340667f3e1461029157806348bed501146102a457806349fab24e146102b7576101da565b8063216aa5f6116101b8578063216aa5f61461021a57806327f5edb91461022d5780632df06319146102565780632e0f262514610269576101da565b8063016f7aea146101df578063094c24b9146101f45780630c27745514610207575b600080fd5b6101f26101ed36600461161b565b610402565b005b6101f26102023660046116ae565b61057a565b6101f261021536600461152a565b6106b7565b6101f26102283660046115ba565b610761565b61024061023b3660046114d2565b6108d4565b60405161024d9190611d8b565b60405180910390f35b6101f26102643660046114d2565b610974565b61027161099d565b60405161024d9190611c87565b61027161028c3660046117e8565b6109a3565b6101f261029f3660046114f0565b6109fd565b6101f26102b23660046114d2565b610a55565b6101f26102c53660046114d2565b610a7e565b6102716102d83660046117e8565b610b33565b610271610b4b565b6101f26102f3366004611577565b610b51565b6101f2610d53565b6101f261030e366004611690565b610dc1565b61031b610e07565b60405161024d9190611c05565b6101f26103363660046114d2565b610e17565b610343610e40565b60405161024d9190611c79565b6101f261035e3660046114d2565b610e64565b610271610e8d565b61027161037936600461171e565b610e93565b61027161038c366004611753565b610ec3565b6103a461039f3660046114d2565b610ef6565b60405161024d9190611c95565b6101f26103bf3660046114d2565b610f95565b610271610fbe565b610271610fc4565b6101f26103e23660046117b2565b610fca565b6101f26103f53660046114ac565b611021565b610271611051565b600085815260016020526040902080546001600160a01b031633146104425760405162461bcd60e51b815260040161043990611ccb565b60405180910390fd5b600061046c8260030154430361046084600101548560020154610b33565b9063ffffffff61105716565b600954835460048501549293506001600160a01b0391821692636556cd0592889233929116906104a2908763ffffffff61109116565b6040518563ffffffff1660e01b81526004016104c19493929190611c13565b600060405180830381600087803b1580156104db57600080fd5b505af11580156104ef573d6000803e3d6000fd5b50506009546040516302654acd60e51b81526001600160a01b039091169250634ca959a0915061052790879033908890600401611c51565b600060405180830381600087803b15801561054157600080fd5b505af1158015610555573d6000803e3d6000fd5b5050436003850155505050600481019190915560018101939093555060029091015550565b60006105bb86868080601f016020809104026020016040519081016040528093929190818152602001838380828437600092019190915250610e9392505050565b60008181526001602052604090208054919250906001600160a01b0316156105f55760405162461bcd60e51b815260040161043990611cfb565b821561066f576009546040516302654acd60e51b81526001600160a01b0390911690634ca959a09061062f90879033908890600401611c51565b600060405180830381600087803b15801561064957600080fd5b505af115801561065d573d6000803e3d6000fd5b50504360038401555050600481018390555b61067c60208601866114ac565b81546001600160a01b0319166001600160a01b0391909116178155602085013560018201556040909401356002909401939093555050505050565b600083815260016020526040902080546001600160a01b03166106ec5760405162461bcd60e51b815260040161043990611d7b565b6009546040516302654acd60e51b81526001600160a01b0390911690634ca959a09061072090869033908790600401611c51565b600060405180830381600087803b15801561073a57600080fd5b505af115801561074e573d6000803e3d6000fd5b5050505060040180549190910190555050565b600060016000868152602001908152602001600020905060006107968260030154430361046084600101548560020154610b33565b9050816004015481116107bb5760405162461bcd60e51b815260040161043990611d5b565b6009546040516302654acd60e51b81526001600160a01b0390911690634ca959a0906107ef90879033908890600401611c51565b600060405180830381600087803b15801561080957600080fd5b505af115801561081d573d6000803e3d6000fd5b5050436003850155505060048201839055600582015460ff161561088f5760058201805483546001600160a01b0319166001600160a01b03610100830416178455600784018054600186015560088501805460028701556001600160a81b0319909216909255600091829055556108cc565b61089c60208601866114ac565b82546001600160a01b0319166001600160a01b039190911617825560208501356001830155604085013560028301555b505050505050565b6108dc611260565b5060009081526001602081815260409283902083516101408101855281546001600160a01b03908116825293820154928101929092526002810154938201939093526003830154606082015260048301546080820152600583015460ff811660a08301526101009081900490921660c0820152600683015460e082015260078301549181019190915260089091015461012082015290565b61097c610e40565b6109985760405162461bcd60e51b815260040161043990611d3b565b600655565b60085481565b60006109f46109c1836104608560055461105790919063ffffffff16565b6109e86008546109dc6004548861105790919063ffffffff16565b9063ffffffff6110d316565b9063ffffffff61111516565b90505b92915050565b600082815260016020526040902080546001600160a01b03163314610a345760405162461bcd60e51b815260040161043990611ccb565b80546001600160a01b0319166001600160a01b039290921691909117905550565b610a5d610e40565b610a795760405162461bcd60e51b815260040161043990611d3b565b600355565b60008181526001602081905260409091206005810154909160ff90911614610ab85760405162461bcd60e51b815260040161043990611d1b565b8060060154431015610adc5760405162461bcd60e51b815260040161043990611d6b565b60058101805482546001600160a01b0319166001600160a01b0361010083041617835560078301805460018501556008840180546002909501949094556001600160a81b0319909116909155600090819055905550565b60006109f46006546109dc6007546109dc87876109a3565b60045481565b600083815260016020526040902080546001600160a01b0316610b865760405162461bcd60e51b815260040161043990611d7b565b600581015460ff1615610bab5760405162461bcd60e51b815260040161043990611d0b565b6000610bcc6008546109dc600354856001015461105790919063ffffffff16565b90506000610be782846001015461109190919063ffffffff16565b6009548454604051636556cd0560e01b81529293506001600160a01b0391821692636556cd0592610c249289923392909116908790600401611c13565b600060405180830381600087803b158015610c3e57600080fd5b505af1158015610c52573d6000803e3d6000fd5b50506009546040516302654acd60e51b81526001600160a01b039091169250634ca959a09150610c8a90879033908790600401611c51565b600060405180830381600087803b158015610ca457600080fd5b505af1158015610cb8573d6000803e3d6000fd5b50505060058401805460ff1916600117905550610cd860208601866114ac565b6005840180546001600160a01b039290921661010002610100600160a81b031990921691909117905560208501356007840155604085013560088401556006546002840154600091610d30919063ffffffff61105716565b9050610d42438263ffffffff61111516565b846006018190555050505050505050565b610d5b610e40565b610d775760405162461bcd60e51b815260040161043990611d3b565b600080546040516001600160a01b03909116907f8be0079c531659141344cd1fd0a4f28419497f9722a3daafe3b4186f6b6457e0908390a3600080546001600160a01b0319169055565b610dc9610e40565b610de55760405162461bcd60e51b815260040161043990611d3b565b600980546001600160a01b0319166001600160a01b0392909216919091179055565b6000546001600160a01b03165b90565b610e1f610e40565b610e3b5760405162461bcd60e51b815260040161043990611d3b565b600555565b600080546001600160a01b0316610e5561113a565b6001600160a01b031614905090565b610e6c610e40565b610e885760405162461bcd60e51b815260040161043990611d3b565b600755565b60075481565b600081604051602001610ea69190611c95565b604051602081830303815290604052805190602001209050919050565b60008282604051602001610ed8929190611ca6565b60405160208183030381529060405280519060200120905092915050565b600081815260026020818152604092839020805484516001821615610100026000190190911693909304601f81018390048302840183019094528383526060939091830182828015610f895780601f10610f5e57610100808354040283529160200191610f89565b820191906000526020600020905b815481529060010190602001808311610f6c57829003601f168201915b50505050509050919050565b610f9d610e40565b610fb95760405162461bcd60e51b815260040161043990611d3b565b600455565b60055481565b60035481565b6000610fd98360200151610e93565b6000818152600160205260409020549091506001600160a01b031633146110125760405162461bcd60e51b815260040161043990611d4b565b61101c838361113e565b505050565b611029610e40565b6110455760405162461bcd60e51b815260040161043990611d3b565b61104e8161117c565b50565b60065481565b600082611066575060006109f7565b8282028284828161107357fe5b04146109f45760405162461bcd60e51b815260040161043990611d2b565b60006109f483836040518060400160405280601e81526020017f536166654d6174683a207375627472616374696f6e206f766572666c6f7700008152506111fd565b60006109f483836040518060400160405280601a81526020017f536166654d6174683a206469766973696f6e206279207a65726f000000000000815250611229565b6000828201838110156109f45760405162461bcd60e51b815260040161043990611ceb565b3390565b600061115283600001518460200151610ec3565b600081815260026020908152604090912084519293506111769290918501906112c8565b50505050565b6001600160a01b0381166111a25760405162461bcd60e51b815260040161043990611cdb565b600080546040516001600160a01b03808516939216917f8be0079c531659141344cd1fd0a4f28419497f9722a3daafe3b4186f6b6457e091a3600080546001600160a01b0319166001600160a01b0392909216919091179055565b600081848411156112215760405162461bcd60e51b81526004016104399190611c95565b505050900390565b6000818361124a5760405162461bcd60e51b81526004016104399190611c95565b50600083858161125657fe5b0495945050505050565b60405180610140016040528060006001600160a01b0316815260200160008152602001600081526020016000815260200160008152602001600060ff16815260200160006001600160a01b031681526020016000815260200160008152602001600081525090565b828054600181600116156101000203166002900490600052602060002090601f016020900481019282601f1061130957805160ff1916838001178555611336565b82800160010185558215611336579182015b8281111561133657825182559160200191906001019061131b565b50611342929150611346565b5090565b610e1491905b80821115611342576000815560010161134c565b80356109f781611e70565b80356109f781611e84565b80356109f781611e8d565b60008083601f84011261139357600080fd5b50813567ffffffffffffffff8111156113ab57600080fd5b6020830191508360018202830111156113c357600080fd5b9250929050565b600082601f8301126113db57600080fd5b81356113ee6113e982611dc1565b611d9a565b9150808252602083016020830185838301111561140a57600080fd5b611415838284611e2e565b50505092915050565b60006060828403121561143057600080fd5b50919050565b60006040828403121561144857600080fd5b6114526040611d9a565b9050813567ffffffffffffffff81111561146b57600080fd5b611477848285016113ca565b825250602082013567ffffffffffffffff81111561149457600080fd5b6114a0848285016113ca565b60208301525092915050565b6000602082840312156114be57600080fd5b60006114ca8484611360565b949350505050565b6000602082840312156114e457600080fd5b60006114ca848461136b565b6000806040838503121561150357600080fd5b600061150f858561136b565b925050602061152085828601611360565b9150509250929050565b60008060006060848603121561153f57600080fd5b600061154b868661136b565b935050602061155c86828701611360565b925050604061156d8682870161136b565b9150509250925092565b600080600060a0848603121561158c57600080fd5b6000611598868661136b565b93505060206115a98682870161141e565b925050608061156d86828701611360565b60008060008060c085870312156115d057600080fd5b60006115dc878761136b565b94505060206115ed8782880161141e565b93505060806115fe87828801611360565b92505060a061160f8782880161136b565b91505092959194509250565b600080600080600060a0868803121561163357600080fd5b600061163f888861136b565b95505060206116508882890161136b565b94505060406116618882890161136b565b935050606061167288828901611360565b92505060806116838882890161136b565b9150509295509295909350565b6000602082840312156116a257600080fd5b60006114ca8484611376565b600080600080600060c086880312156116c657600080fd5b853567ffffffffffffffff8111156116dd57600080fd5b6116e988828901611381565b955095505060206116fc8882890161141e565b935050608061170d88828901611360565b92505060a06116838882890161136b565b60006020828403121561173057600080fd5b813567ffffffffffffffff81111561174757600080fd5b6114ca848285016113ca565b6000806040838503121561176657600080fd5b823567ffffffffffffffff81111561177d57600080fd5b611789858286016113ca565b925050602083013567ffffffffffffffff8111156117a657600080fd5b611520858286016113ca565b600080604083850312156117c557600080fd5b823567ffffffffffffffff8111156117dc57600080fd5b61178985828601611436565b600080604083850312156117fb57600080fd5b6000611807858561136b565b92505060206115208582860161136b565b61182181611e23565b82525050565b61182181611df6565b61182181611e01565b61182181610e14565b600061184d82611de9565b6118578185611ded565b9350611867818560208601611e3a565b61187081611e66565b9093019392505050565b6000611887602c83611ded565b7f75706e2063616e206f6e6c79206265207570646174656420627920697473206381526b3ab93932b73a1037bbb732b960a11b602082015260400192915050565b60006118d5602683611ded565b7f4f776e61626c653a206e6577206f776e657220697320746865207a65726f206181526564647265737360d01b602082015260400192915050565b600061191d601b83611ded565b7f536166654d6174683a206164646974696f6e206f766572666c6f770000000000815260200192915050565b6000611956601183611ded565b7075706e206e6f7420617661696c61626c6560781b815260200192915050565b6000611983601183611ded565b703ab8371030b63932b0b23c903a30b5b2b760791b815260200192915050565b60006119b0601883611ded565b7f75706e206e6f742070726576696f75736c792074616b656e0000000000000000815260200192915050565b60006119e9602183611ded565b7f536166654d6174683a206d756c7469706c69636174696f6e206f766572666c6f8152607760f81b602082015260400192915050565b6000611a2c602083611ded565b7f4f776e61626c653a2063616c6c6572206973206e6f7420746865206f776e6572815260200192915050565b6000611a65601b83611ded565b7f55504e206e6f74206f776e6564206279206d73672e73656e6465720000000000815260200192915050565b6000611a9e601b83611ded565b7f55504e206973207570746f64617465206f6e207061796d656e74730000000000815260200192915050565b6000611ad7602183611ded565b7f75706e207374696c6c20756e6465722070726f74656374696f6e20706572696f8152601960fa1b602082015260400192915050565b6000611b1a601283611ded565b711d5c1b881b9bdd081c9959da5cdd195c995960721b815260200192915050565b8051610140830190611b4d8482611827565b506020820151611b606020850182611839565b506040820151611b736040850182611839565b506060820151611b866060850182611839565b506080820151611b996080850182611839565b5060a0820151611bac60a0850182611bfc565b5060c0820151611bbf60c0850182611827565b5060e0820151611bd260e0850182611839565b50610100820151611be7610100850182611839565b50610120820151611176610120850182611839565b61182181611e1d565b602081016109f78284611827565b60808101611c218287611827565b611c2e6020830186611818565b611c3b6040830185611827565b611c486060830184611839565b95945050505050565b60608101611c5f8286611827565b611c6c6020830185611818565b6114ca6040830184611839565b602081016109f78284611830565b602081016109f78284611839565b602080825281016109f48184611842565b60408082528101611cb78185611842565b905081810360208301526114ca8184611842565b602080825281016109f78161187a565b602080825281016109f7816118c8565b602080825281016109f781611910565b602080825281016109f781611949565b602080825281016109f781611976565b602080825281016109f7816119a3565b602080825281016109f7816119dc565b602080825281016109f781611a1f565b602080825281016109f781611a58565b602080825281016109f781611a91565b602080825281016109f781611aca565b602080825281016109f781611b0d565b61014081016109f78284611b3b565b60405181810167ffffffffffffffff81118282101715611db957600080fd5b604052919050565b600067ffffffffffffffff821115611dd857600080fd5b506020601f91909101601f19160190565b5190565b90815260200190565b60006109f782611e11565b151590565b60006109f782611df6565b6001600160a01b031690565b60ff1690565b60006109f782611e06565b82818337506000910152565b60005b83811015611e55578181015183820152602001611e3d565b838111156111765750506000910152565b601f01601f191690565b611e7981611df6565b811461104e57600080fd5b611e7981610e14565b611e7981611e0656fea365627a7a7231582024767fe506a3c7abf6346de98f2013b5d67bde2938ece5e62adfed4ab376e9616c6578706572696d656e74616cf564736f6c63430005100040",
  "source": "pragma solidity >=0.5.0 <0.6.0;\npragma experimental ABIEncoderV2;\n\nimport \"./UprtclRoot.sol\";\nimport \"./Ownable.sol\";\nimport \"./SafeMath.sol\";\n\ncontract UPNService is Ownable {\n    \n    using SafeMath for uint256;\n\n    struct UPNIn {\n        address owner;\n        uint256 V;\n        uint256 P;\n    }\n\n    struct UPN {\n        address owner;\n        uint256 V;\n        uint256 P;\n        uint256 block0;\n        uint256 paid;\n\n        uint8 taken;\n        address newOwner;\n        uint256 blockAvailable;\n        uint256 newV;\n        uint256 newP;\n    }\n\n    struct UPRParts {\n        string context;\n        string upn;\n    }\n\n    mapping(bytes32 => UPN) upns;\n    mapping(bytes32 => string) uprs;\n\n    uint256 public Fi;\n    uint256 public Ri;\n    uint256 public Q;\n    uint256 public P_BLOCKS;\n    uint256 public P_PER_YEAR;\n\n    uint256 public DECIMALS = 1000000;\n\n    UprtclRoot uprtclRoot;\n\n    function setUprtclRoot(UprtclRoot _uprtclRoot) public onlyOwner {\n        uprtclRoot = _uprtclRoot;\n    }\n\n    function setFi(uint256 nv) public onlyOwner { Fi = nv; }\n    function setRi(uint256 nv) public onlyOwner { Ri = nv; }\n    function setQ(uint256 nv) public onlyOwner { Q = nv; }\n    function setP_BLOCKS(uint256 nv) public onlyOwner { P_BLOCKS = nv; }\n    function setP_PER_YEAR(uint256 nv) public onlyOwner { P_PER_YEAR = nv; }\n\n    function hashUpn(string memory upn) public pure returns(bytes32 upnHased) {\n        return keccak256(abi.encode(upn));\n    }\n\n    function getTaxPerYear(uint256 V, uint256 P) public view returns(uint256 yearlyTax) {\n        return V.mul(Ri).div(DECIMALS).add((Q.mul(P).mul(P)));\n    }\n\n    function getTaxPerBlock(uint256 V, uint256 P) public view returns(uint256 perBlockTax) {\n        return getTaxPerYear(V, P).div(P_PER_YEAR).div(P_BLOCKS);\n    }\n\n    function registerUPN(string calldata upnName, UPNIn calldata upnIn, address account, uint256 upfront) external {\n        bytes32 upnHash = hashUpn(upnName);\n        UPN storage upn = upns[upnHash];\n        require(upn.owner == address(0), \"upn not available\");\n\n        /** new registration */\n        if (upfront > 0) {\n            uprtclRoot.consume(account, msg.sender, upfront);\n            upn.block0 = block.number;\n            upn.paid = upfront;\n        }\n\n        upn.owner = upnIn.owner;\n        upn.V = upnIn.V;\n        upn.P = upnIn.P;\n    }\n\n    function chargeUPN(bytes32 upnHash, address account, uint256 amount) external {\n        UPN storage upn = upns[upnHash];\n        require(upn.owner != address(0), \"upn not registered\");\n\n        /** new registration */\n        uprtclRoot.consume(account, msg.sender, amount);\n        upn.paid = upn.paid + amount;\n    }\n\n    function transferUPN(bytes32 upnHash, address newOwner) external {\n        UPN storage upn = upns[upnHash];\n        require(upn.owner == msg.sender, \"upn can only be updated by its current owner\");\n        upn.owner = newOwner;\n    }\n\n    function editUPN(bytes32 upnHash, uint256 V, uint256 P, address account, uint256 upfront) external {\n        UPN storage upn = upns[upnHash];\n        require(upn.owner == msg.sender, \"upn can only be updated by its current owner\");\n\n        /** send unpaid balance back ot owner */\n        uint256 shouldHavePaid = getTaxPerBlock(upn.V, upn.P).mul(block.number - upn.block0);\n        uprtclRoot.transferTo(account, msg.sender, upn.owner, upn.paid.sub(shouldHavePaid));\n\n        /** consume new upfront payment */\n        uprtclRoot.consume(account, msg.sender, upfront);\n        upn.block0 = block.number;\n        upn.paid = upfront;\n        upn.V = V;\n        upn.P = P;\n    }\n\n    function takeUnpaidUPN(bytes32 upnHash, UPNIn calldata upnIn, address account, uint256 upfront) external {\n        UPN storage upn = upns[upnHash];\n        uint256 shouldHavePaid = getTaxPerBlock(upn.V, upn.P).mul(block.number - upn.block0);\n        require(shouldHavePaid > upn.paid, \"UPN is uptodate on payments\");\n\n        /** reset payment status */\n        uprtclRoot.consume(account, msg.sender, upfront);\n        upn.block0 = block.number;\n        upn.paid = upfront;\n\n        /** if taken, only the new owner can take it */\n        if (upn.taken > 0) {\n            upn.owner = upn.newOwner;\n            upn.V = upn.newV;\n            upn.P = upn.newP;\n\n            upn.taken = 0;\n            upn.newOwner = address(0);\n            upn.newV = 0;\n            upn.newP = 0;\n        } else {\n            upn.owner = upnIn.owner;\n            upn.V = upnIn.V;\n            upn.P = upnIn.P;\n        }\n    }\n\n    function takeUPN(bytes32 upnHash, UPNIn calldata upnIn, address account) external {\n        UPN storage upn = upns[upnHash];\n        require(upn.owner != address(0), \"upn not registered\");\n        require(upn.taken == 0, \"upn already taken\");\n\n        uint256 payUs = upn.V.mul(Fi).div(DECIMALS);\n        uint256 payOwner = upn.V.sub(payUs);\n\n        uprtclRoot.transferTo(account, msg.sender, upn.owner, payOwner);\n        uprtclRoot.consume(account, msg.sender, payUs);\n\n        upn.taken = 1;\n        upn.newOwner = upnIn.owner;\n        upn.newV = upnIn.V;\n        upn.newP = upnIn.P;\n\n        uint256 Pb = upn.P.mul(P_BLOCKS);\n        upn.blockAvailable = block.number.add(Pb);\n    }\n\n    function executeTake(bytes32 upnHash) external {\n        UPN storage upn = upns[upnHash];\n        require(upn.taken == 1, \"upn not previously taken\");\n        require(block.number >= upn.blockAvailable, \"upn still under protection period\");\n\n        upn.owner = upn.newOwner;\n        upn.V = upn.newV;\n        upn.P = upn.newP;\n\n        upn.taken = 0;\n        upn.newOwner = address(0);\n        upn.newV = 0;\n        upn.newP = 0;\n    }\n\n    function getUPN(bytes32 upnHash) public view returns(UPN memory upn) {\n        return upns[upnHash];\n    }\n\n    function hashUpr(string memory context, string memory upn) public pure returns(bytes32 uprHashed) {\n        return keccak256(abi.encode(context, upn));\n    }\n\n    function setUPRInternal(UPRParts memory uprParts, string memory value) private {\n        bytes32 uprHash = hashUpr(uprParts.context, uprParts.upn);\n        uprs[uprHash] = value;\n    }\n\n    function setUPR(UPRParts memory uprParts, string memory value) public {\n        bytes32 upnHash = hashUpn(uprParts.upn);\n        require(upns[upnHash].owner == msg.sender, \"UPN not owned by msg.sender\");\n        setUPRInternal(uprParts, value);\n    }\n\n    function getUPR(bytes32 uprHash) public view returns (string memory value) {\n        return uprs[uprHash];\n    }\n\n}",
  "sourcePath": "/home/pepo/pr/uprtcl/eth-uprtcl/contracts/UPNService.sol",
  "compiler": {
    "name": "solc",
    "version": "0.5.16+commit.9c3226ce.Emscripten.clang"
  },
  "schemaVersion": "3.0.23",
  "updatedAt": "2020-03-05T11:18:20.808Z",
  "devdoc": {
    "methods": {
      "isOwner()": {
        "details": "Returns true if the caller is the current owner."
      },
      "owner()": {
        "details": "Returns the address of the current owner."
      },
      "renounceOwnership()": {
        "details": "Leaves the contract without owner. It will not be possible to call `onlyOwner` functions anymore. Can only be called by the current owner.     * NOTE: Renouncing ownership will leave the contract without an owner, thereby removing any functionality that is only available to the owner."
      },
      "transferOwnership(address)": {
        "details": "Transfers ownership of the contract to a new account (`newOwner`). Can only be called by the current owner."
      }
    }
  },
  "userdoc": {
    "methods": {}
  }
}