{
  "contractName": "UPNService",
  "abi": [
    {
      "anonymous": false,
      "inputs": [
        {
          "indexed": true,
          "internalType": "address",
          "name": "previousOwner",
          "type": "address"
        },
        {
          "indexed": true,
          "internalType": "address",
          "name": "newOwner",
          "type": "address"
        }
      ],
      "name": "OwnershipTransferred",
      "type": "event"
    },
    {
      "constant": true,
      "inputs": [],
      "name": "DECIMALS",
      "outputs": [
        {
          "internalType": "uint256",
          "name": "",
          "type": "uint256"
        }
      ],
      "payable": false,
      "stateMutability": "view",
      "type": "function"
    },
    {
      "constant": true,
      "inputs": [],
      "name": "Fi",
      "outputs": [
        {
          "internalType": "uint256",
          "name": "",
          "type": "uint256"
        }
      ],
      "payable": false,
      "stateMutability": "view",
      "type": "function"
    },
    {
      "constant": true,
      "inputs": [],
      "name": "P_BLOCKS",
      "outputs": [
        {
          "internalType": "uint256",
          "name": "",
          "type": "uint256"
        }
      ],
      "payable": false,
      "stateMutability": "view",
      "type": "function"
    },
    {
      "constant": true,
      "inputs": [],
      "name": "P_PER_YEAR",
      "outputs": [
        {
          "internalType": "uint256",
          "name": "",
          "type": "uint256"
        }
      ],
      "payable": false,
      "stateMutability": "view",
      "type": "function"
    },
    {
      "constant": true,
      "inputs": [],
      "name": "Q",
      "outputs": [
        {
          "internalType": "uint256",
          "name": "",
          "type": "uint256"
        }
      ],
      "payable": false,
      "stateMutability": "view",
      "type": "function"
    },
    {
      "constant": true,
      "inputs": [],
      "name": "Ri",
      "outputs": [
        {
          "internalType": "uint256",
          "name": "",
          "type": "uint256"
        }
      ],
      "payable": false,
      "stateMutability": "view",
      "type": "function"
    },
    {
      "constant": true,
      "inputs": [],
      "name": "isOwner",
      "outputs": [
        {
          "internalType": "bool",
          "name": "",
          "type": "bool"
        }
      ],
      "payable": false,
      "stateMutability": "view",
      "type": "function"
    },
    {
      "constant": true,
      "inputs": [],
      "name": "owner",
      "outputs": [
        {
          "internalType": "address payable",
          "name": "",
          "type": "address"
        }
      ],
      "payable": false,
      "stateMutability": "view",
      "type": "function"
    },
    {
      "constant": false,
      "inputs": [],
      "name": "renounceOwnership",
      "outputs": [],
      "payable": false,
      "stateMutability": "nonpayable",
      "type": "function"
    },
    {
      "constant": false,
      "inputs": [
        {
          "internalType": "address payable",
          "name": "newOwner",
          "type": "address"
        }
      ],
      "name": "transferOwnership",
      "outputs": [],
      "payable": false,
      "stateMutability": "nonpayable",
      "type": "function"
    },
    {
      "constant": false,
      "inputs": [
        {
          "internalType": "contract UprtclRoot",
          "name": "_uprtclRoot",
          "type": "address"
        }
      ],
      "name": "setUprtclRoot",
      "outputs": [],
      "payable": false,
      "stateMutability": "nonpayable",
      "type": "function"
    },
    {
      "constant": false,
      "inputs": [
        {
          "internalType": "uint256",
          "name": "nv",
          "type": "uint256"
        }
      ],
      "name": "setFi",
      "outputs": [],
      "payable": false,
      "stateMutability": "nonpayable",
      "type": "function"
    },
    {
      "constant": false,
      "inputs": [
        {
          "internalType": "uint256",
          "name": "nv",
          "type": "uint256"
        }
      ],
      "name": "setRi",
      "outputs": [],
      "payable": false,
      "stateMutability": "nonpayable",
      "type": "function"
    },
    {
      "constant": false,
      "inputs": [
        {
          "internalType": "uint256",
          "name": "nv",
          "type": "uint256"
        }
      ],
      "name": "setQ",
      "outputs": [],
      "payable": false,
      "stateMutability": "nonpayable",
      "type": "function"
    },
    {
      "constant": false,
      "inputs": [
        {
          "internalType": "uint256",
          "name": "nv",
          "type": "uint256"
        }
      ],
      "name": "setP_BLOCKS",
      "outputs": [],
      "payable": false,
      "stateMutability": "nonpayable",
      "type": "function"
    },
    {
      "constant": false,
      "inputs": [
        {
          "internalType": "uint256",
          "name": "nv",
          "type": "uint256"
        }
      ],
      "name": "setP_PER_YEAR",
      "outputs": [],
      "payable": false,
      "stateMutability": "nonpayable",
      "type": "function"
    },
    {
      "constant": true,
      "inputs": [
        {
          "internalType": "string",
          "name": "upn",
          "type": "string"
        }
      ],
      "name": "hashUpn",
      "outputs": [
        {
          "internalType": "bytes32",
          "name": "upnHased",
          "type": "bytes32"
        }
      ],
      "payable": false,
      "stateMutability": "pure",
      "type": "function"
    },
    {
      "constant": true,
      "inputs": [
        {
          "internalType": "uint256",
          "name": "V",
          "type": "uint256"
        },
        {
          "internalType": "uint256",
          "name": "P",
          "type": "uint256"
        }
      ],
      "name": "getTaxPerYear",
      "outputs": [
        {
          "internalType": "uint256",
          "name": "yearlyTax",
          "type": "uint256"
        }
      ],
      "payable": false,
      "stateMutability": "view",
      "type": "function"
    },
    {
      "constant": true,
      "inputs": [
        {
          "internalType": "uint256",
          "name": "V",
          "type": "uint256"
        },
        {
          "internalType": "uint256",
          "name": "P",
          "type": "uint256"
        }
      ],
      "name": "getTaxPerBlock",
      "outputs": [
        {
          "internalType": "uint256",
          "name": "perBlockTax",
          "type": "uint256"
        }
      ],
      "payable": false,
      "stateMutability": "view",
      "type": "function"
    },
    {
      "constant": false,
      "inputs": [
        {
          "internalType": "string",
          "name": "upnName",
          "type": "string"
        },
        {
          "components": [
            {
              "internalType": "address",
              "name": "owner",
              "type": "address"
            },
            {
              "internalType": "uint256",
              "name": "V",
              "type": "uint256"
            },
            {
              "internalType": "uint256",
              "name": "P",
              "type": "uint256"
            },
            {
              "internalType": "contract UPRRegistry",
              "name": "registry",
              "type": "address"
            }
          ],
          "internalType": "struct UPNService.UPNIn",
          "name": "upnIn",
          "type": "tuple"
        },
        {
          "internalType": "address",
          "name": "account",
          "type": "address"
        },
        {
          "internalType": "uint256",
          "name": "upfront",
          "type": "uint256"
        }
      ],
      "name": "registerUPN",
      "outputs": [],
      "payable": false,
      "stateMutability": "nonpayable",
      "type": "function"
    },
    {
      "constant": false,
      "inputs": [
        {
          "internalType": "bytes32",
          "name": "upnHash",
          "type": "bytes32"
        },
        {
          "internalType": "address",
          "name": "account",
          "type": "address"
        },
        {
          "internalType": "uint256",
          "name": "amount",
          "type": "uint256"
        }
      ],
      "name": "chargeUPN",
      "outputs": [],
      "payable": false,
      "stateMutability": "nonpayable",
      "type": "function"
    },
    {
      "constant": false,
      "inputs": [
        {
          "internalType": "bytes32",
          "name": "upnHash",
          "type": "bytes32"
        },
        {
          "internalType": "address",
          "name": "newOwner",
          "type": "address"
        }
      ],
      "name": "transferUPN",
      "outputs": [],
      "payable": false,
      "stateMutability": "nonpayable",
      "type": "function"
    },
    {
      "constant": false,
      "inputs": [
        {
          "internalType": "bytes32",
          "name": "upnHash",
          "type": "bytes32"
        },
        {
          "internalType": "uint256",
          "name": "V",
          "type": "uint256"
        },
        {
          "internalType": "uint256",
          "name": "P",
          "type": "uint256"
        },
        {
          "internalType": "address",
          "name": "account",
          "type": "address"
        },
        {
          "internalType": "uint256",
          "name": "upfront",
          "type": "uint256"
        }
      ],
      "name": "editUPN",
      "outputs": [],
      "payable": false,
      "stateMutability": "nonpayable",
      "type": "function"
    },
    {
      "constant": false,
      "inputs": [
        {
          "internalType": "bytes32",
          "name": "upnHash",
          "type": "bytes32"
        },
        {
          "internalType": "contract UPRRegistry",
          "name": "registry",
          "type": "address"
        }
      ],
      "name": "changeUPRRegistry",
      "outputs": [],
      "payable": false,
      "stateMutability": "nonpayable",
      "type": "function"
    },
    {
      "constant": false,
      "inputs": [
        {
          "internalType": "bytes32",
          "name": "upnHash",
          "type": "bytes32"
        },
        {
          "components": [
            {
              "internalType": "address",
              "name": "owner",
              "type": "address"
            },
            {
              "internalType": "uint256",
              "name": "V",
              "type": "uint256"
            },
            {
              "internalType": "uint256",
              "name": "P",
              "type": "uint256"
            },
            {
              "internalType": "contract UPRRegistry",
              "name": "registry",
              "type": "address"
            }
          ],
          "internalType": "struct UPNService.UPNIn",
          "name": "upnIn",
          "type": "tuple"
        },
        {
          "internalType": "address",
          "name": "account",
          "type": "address"
        },
        {
          "internalType": "uint256",
          "name": "upfront",
          "type": "uint256"
        }
      ],
      "name": "takeUnpaidUPN",
      "outputs": [],
      "payable": false,
      "stateMutability": "nonpayable",
      "type": "function"
    },
    {
      "constant": false,
      "inputs": [
        {
          "internalType": "bytes32",
          "name": "upnHash",
          "type": "bytes32"
        },
        {
          "components": [
            {
              "internalType": "address",
              "name": "owner",
              "type": "address"
            },
            {
              "internalType": "uint256",
              "name": "V",
              "type": "uint256"
            },
            {
              "internalType": "uint256",
              "name": "P",
              "type": "uint256"
            },
            {
              "internalType": "contract UPRRegistry",
              "name": "registry",
              "type": "address"
            }
          ],
          "internalType": "struct UPNService.UPNIn",
          "name": "upnIn",
          "type": "tuple"
        },
        {
          "internalType": "address",
          "name": "account",
          "type": "address"
        }
      ],
      "name": "takeUPN",
      "outputs": [],
      "payable": false,
      "stateMutability": "nonpayable",
      "type": "function"
    },
    {
      "constant": false,
      "inputs": [
        {
          "internalType": "bytes32",
          "name": "upnHash",
          "type": "bytes32"
        },
        {
          "internalType": "address",
          "name": "account",
          "type": "address"
        },
        {
          "internalType": "uint256",
          "name": "upfront",
          "type": "uint256"
        }
      ],
      "name": "executeTake",
      "outputs": [],
      "payable": false,
      "stateMutability": "nonpayable",
      "type": "function"
    },
    {
      "constant": true,
      "inputs": [
        {
          "internalType": "bytes32",
          "name": "upnHash",
          "type": "bytes32"
        }
      ],
      "name": "getUPN",
      "outputs": [
        {
          "components": [
            {
              "internalType": "address",
              "name": "owner",
              "type": "address"
            },
            {
              "internalType": "uint256",
              "name": "V",
              "type": "uint256"
            },
            {
              "internalType": "uint256",
              "name": "P",
              "type": "uint256"
            },
            {
              "internalType": "uint256",
              "name": "block0",
              "type": "uint256"
            },
            {
              "internalType": "uint256",
              "name": "paid",
              "type": "uint256"
            },
            {
              "internalType": "contract UPRRegistry",
              "name": "registry",
              "type": "address"
            },
            {
              "internalType": "uint8",
              "name": "taken",
              "type": "uint8"
            },
            {
              "internalType": "address",
              "name": "newOwner",
              "type": "address"
            },
            {
              "internalType": "uint256",
              "name": "blockAvailable",
              "type": "uint256"
            },
            {
              "internalType": "uint256",
              "name": "newV",
              "type": "uint256"
            },
            {
              "internalType": "uint256",
              "name": "newP",
              "type": "uint256"
            },
            {
              "internalType": "contract UPRRegistry",
              "name": "newRegistry",
              "type": "address"
            }
          ],
          "internalType": "struct UPNService.UPN",
          "name": "upn",
          "type": "tuple"
        }
      ],
      "payable": false,
      "stateMutability": "view",
      "type": "function"
    },
    {
      "constant": true,
      "inputs": [
        {
          "internalType": "string",
          "name": "context",
          "type": "string"
        }
      ],
      "name": "hashContext",
      "outputs": [
        {
          "internalType": "bytes32",
          "name": "uprHashed",
          "type": "bytes32"
        }
      ],
      "payable": false,
      "stateMutability": "pure",
      "type": "function"
    },
    {
      "constant": true,
      "inputs": [
        {
          "internalType": "bytes32",
          "name": "contextHash",
          "type": "bytes32"
        },
        {
          "internalType": "bytes32",
          "name": "upnHash",
          "type": "bytes32"
        }
      ],
      "name": "getUPR",
      "outputs": [
        {
          "internalType": "string",
          "name": "value",
          "type": "string"
        }
      ],
      "payable": false,
      "stateMutability": "view",
      "type": "function"
    }
  ],
  "bytecode": "0x6080604052620f424060075561001c6001600160e01b0361006916565b600080546001600160a01b0319166001600160a01b03928316178082556040519216917f8be0079c531659141344cd1fd0a4f28419497f9722a3daafe3b4186f6b6457e0908290a361006d565b3390565b61206c8061007c6000396000f3fe608060405234801561001057600080fd5b50600436106101da5760003560e01c80638da5cb5b11610104578063d1995430116100a2578063e509672411610071578063e5096724146103b9578063f2fde38b146103c1578063fd6665c4146103d4578063ff1bc91e146103e7576101da565b8063d19954301461038b578063d632fc131461038b578063dfcf04561461039e578063e493ef8c146103b1576101da565b80638f32d59b116100de5780638f32d59b1461034857806393ccaafb1461035d578063aa5a698514610370578063d08084c814610378576101da565b80638da5cb5b1461030d5780638e756e9e146103225780638f2d812814610335576101da565b806343f283f71161017c57806365d019701161014b57806365d01970146102d757806367ec8fee146102df578063715018a6146102f25780637cce0117146102fa576101da565b806343f283f71461027e57806348bed501146102915780634f8161bc146102a457806357923b05146102c4576101da565b80632df06319116101b85780632df06319146102305780632e0f2625146102435780633c38e9a71461025857806340667f3e1461026b576101da565b8063016f7aea146101df5780630c277455146101f457806327f5edb914610207575b600080fd5b6101f26101ed3660046117b7565b6103ef565b005b6101f2610202366004611666565b610588565b61021a61021536600461160e565b610632565b6040516102279190611f1b565b60405180910390f35b6101f261023e36600461160e565b6106e9565b61024b610712565b6040516102279190611e2c565b61024b6102663660046116b3565b610718565b6101f261027936600461162c565b61077e565b6101f261028c3660046116e3565b6107d6565b6101f261029f36600461160e565b61085d565b6102b76102b23660046116b3565b610886565b6040516102279190611e3a565b61024b6102d23660046116b3565b610924565b61024b61093c565b6101f26102ed366004611666565b610942565b6101f2610b5a565b6101f261030836600461182c565b610bc8565b610315610c0e565b6040516102279190611d8f565b6101f2610330366004611713565b610c1d565b6101f261034336600461160e565b610e39565b610350610e62565b6040516102279190611e1e565b6101f261036b36600461160e565b610e86565b61024b610eaf565b6101f261038636600461184a565b610eb5565b61024b6103993660046118ba565b611021565b6101f26103ac36600461160e565b611051565b61024b61107a565b61024b611080565b6101f26103cf3660046115f0565b611086565b6101f26103e2366004611756565b6110b6565b61024b611276565b600085815260016020526040902080546001600160a01b0316331461042f5760405162461bcd60e51b815260040161042690611e4b565b60405180910390fd5b6005810154600160a01b900460ff161561045b5760405162461bcd60e51b815260040161042690611efb565b60006104858260030154430361047984600101548560020154610924565b9063ffffffff61127c16565b600854835460048501549293506001600160a01b039182169263a9059cbb92909116906104b290856112b6565b6040518363ffffffff1660e01b81526004016104cf929190611e03565b600060405180830381600087803b1580156104e957600080fd5b505af11580156104fd573d6000803e3d6000fd5b50506008546040516302654acd60e51b81526001600160a01b039091169250634ca959a0915061053590879033908890600401611ddb565b600060405180830381600087803b15801561054f57600080fd5b505af1158015610563573d6000803e3d6000fd5b5050436003850155505050600481019190915560018101939093555060029091015550565b600083815260016020526040902080546001600160a01b03166105bd5760405162461bcd60e51b815260040161042690611eeb565b6008546040516302654acd60e51b81526001600160a01b0390911690634ca959a0906105f190869033908790600401611ddb565b600060405180830381600087803b15801561060b57600080fd5b505af115801561061f573d6000803e3d6000fd5b5050505060040180549190910190555050565b61063a61144c565b5060009081526001602081815260409283902083516101808101855281546001600160a01b03908116825293820154928101929092526002810154938201939093526003830154606082015260048301546080820152600583015480831660a0830152600160a01b900460ff1660c08201526006830154821660e0820152600783015461010082015260088301546101208201526009830154610140820152600a909201541661016082015290565b6106f1610e62565b61070d5760405162461bcd60e51b815260040161042690611ecb565b600555565b60075481565b600061077561074e600554610742856104796005546107428960045461127c90919063ffffffff16565b9063ffffffff6112f816565b6107696007546107426003548861127c90919063ffffffff16565b9063ffffffff61133a16565b90505b92915050565b600082815260016020526040902080546001600160a01b031633146107b55760405162461bcd60e51b815260040161042690611e4b565b80546001600160a01b0319166001600160a01b039290921691909117905550565b600082815260016020526040902080546001600160a01b0316331461080d5760405162461bcd60e51b815260040161042690611e4b565b6005810154600160a01b900460ff16156108395760405162461bcd60e51b815260040161042690611efb565b60050180546001600160a01b0319166001600160a01b039290921691909117905550565b610865610e62565b6108815760405162461bcd60e51b815260040161042690611ecb565b600255565b600081815260016020526040908190206005810154915163d8c6011160e01b81526060926001600160a01b03169063d8c60111906108c8908790600401611e2c565b60006040518083038186803b1580156108e057600080fd5b505afa1580156108f4573d6000803e3d6000fd5b505050506040513d6000823e601f3d908101601f1916820160405261091c91908101906118ef565b949350505050565b60006107756005546107426006546107428787610718565b60035481565b600083815260016020819052604090912060058101549091600160a01b90910460ff16146109825760405162461bcd60e51b815260040161042690611eab565b60068101546001600160a01b031633146109ae5760405162461bcd60e51b815260040161042690611e9b565b80600701544310156109d25760405162461bcd60e51b815260040161042690611edb565b60006109f08260030154430361047984600101548560020154610924565b600854835460048501549293506001600160a01b039182169263a9059cbb9290911690610a1d90856112b6565b6040518363ffffffff1660e01b8152600401610a3a929190611e03565b600060405180830381600087803b158015610a5457600080fd5b505af1158015610a68573d6000803e3d6000fd5b505050506000831115610adc576008546040516302654acd60e51b81526001600160a01b0390911690634ca959a090610aa990879033908890600401611ddb565b600060405180830381600087803b158015610ac357600080fd5b505af1158015610ad7573d6000803e3d6000fd5b505050505b50436003820155600481019190915560068101805482546001600160a01b038083166001600160a01b031992831617855560088501805460018701556009860180546002880155600a870154600588018054919094169085161760ff60a01b1916909255919092169092556000600790930183905590829055555050565b610b62610e62565b610b7e5760405162461bcd60e51b815260040161042690611ecb565b600080546040516001600160a01b03909116907f8be0079c531659141344cd1fd0a4f28419497f9722a3daafe3b4186f6b6457e0908390a3600080546001600160a01b0319169055565b610bd0610e62565b610bec5760405162461bcd60e51b815260040161042690611ecb565b600880546001600160a01b0319166001600160a01b0392909216919091179055565b6000546001600160a01b031690565b600083815260016020526040902080546001600160a01b0316610c525760405162461bcd60e51b815260040161042690611eeb565b6005810154600160a01b900460ff1615610c7e5760405162461bcd60e51b815260040161042690611e8b565b6000610c9f600754610742600254856001015461127c90919063ffffffff16565b90506000610cba8284600101546112b690919063ffffffff16565b6008548454604051636556cd0560e01b81529293506001600160a01b0391821692636556cd0592610cf79289923392909116908790600401611d9d565b600060405180830381600087803b158015610d1157600080fd5b505af1158015610d25573d6000803e3d6000fd5b50506008546040516302654acd60e51b81526001600160a01b039091169250634ca959a09150610d5d90879033908790600401611ddb565b600060405180830381600087803b158015610d7757600080fd5b505af1158015610d8b573d6000803e3d6000fd5b50505060058401805460ff60a01b1916600160a01b17905550610db160208601866115f0565b6006840180546001600160a01b0319166001600160a01b03929092169190911790556020850135600884015560408501356009840155610df7608086016060870161182c565b600a840180546001600160a01b0319166001600160a01b03929092169190911790556002830154610e2990439061133a565b8360070181905550505050505050565b610e41610e62565b610e5d5760405162461bcd60e51b815260040161042690611ecb565b600455565b600080546001600160a01b0316610e7761135f565b6001600160a01b031614905090565b610e8e610e62565b610eaa5760405162461bcd60e51b815260040161042690611ecb565b600655565b60065481565b6000610ef686868080601f01602080910402602001604051908101604052809392919081815260200183838082843760009201919091525061102192505050565b60008181526001602052604090208054919250906001600160a01b031615610f305760405162461bcd60e51b815260040161042690611e7b565b8215610f9d576008546040516302654acd60e51b81526001600160a01b0390911690634ca959a090610f6a90879033908890600401611ddb565b600060405180830381600087803b158015610f8457600080fd5b505af1158015610f98573d6000803e3d6000fd5b505050505b43600382015560048101839055610fb760208601866115f0565b81546001600160a01b0319166001600160a01b03919091161781556020850135600182015560408501356002820155610ff6608086016060870161182c565b60059190910180546001600160a01b0319166001600160a01b03909216919091179055505050505050565b6000816040516020016110349190611e3a565b604051602081830303815290604052805190602001209050919050565b611059610e62565b6110755760405162461bcd60e51b815260040161042690611ecb565b600355565b60045481565b60025481565b61108e610e62565b6110aa5760405162461bcd60e51b815260040161042690611ecb565b6110b381611363565b50565b600060016000868152602001908152602001600020905060006110eb8260030154430361047984600101548560020154610924565b9050816004015481116111105760405162461bcd60e51b815260040161042690611f0b565b821561117d576008546040516302654acd60e51b81526001600160a01b0390911690634ca959a09061114a90879033908890600401611ddb565b600060405180830381600087803b15801561116457600080fd5b505af1158015611178573d6000803e3d6000fd5b505050505b436003830155600482018390556005820154600160a01b900460ff16156111ff5760068201805483546001600160a01b03199081166001600160a01b0383161785556008850180546001870155600986018054600288015560058701805460ff60a01b191690559190921690925560006007850181905590819055905561126e565b61120c60208601866115f0565b82546001600160a01b0319166001600160a01b0391909116178255602085013560018301556040850135600283015561124b608086016060870161182c565b6005830180546001600160a01b0319166001600160a01b03929092169190911790555b505050505050565b60055481565b60008261128b57506000610778565b8282028284828161129857fe5b04146107755760405162461bcd60e51b815260040161042690611ebb565b600061077583836040518060400160405280601e81526020017f536166654d6174683a207375627472616374696f6e206f766572666c6f7700008152506113e4565b600061077583836040518060400160405280601a81526020017f536166654d6174683a206469766973696f6e206279207a65726f000000000000815250611415565b6000828201838110156107755760405162461bcd60e51b815260040161042690611e6b565b3390565b6001600160a01b0381166113895760405162461bcd60e51b815260040161042690611e5b565b600080546040516001600160a01b03808516939216917f8be0079c531659141344cd1fd0a4f28419497f9722a3daafe3b4186f6b6457e091a3600080546001600160a01b0319166001600160a01b0392909216919091179055565b600081848411156114085760405162461bcd60e51b81526004016104269190611e3a565b50508183035b9392505050565b600081836114365760405162461bcd60e51b81526004016104269190611e3a565b50600083858161144257fe5b0495945050505050565b60405180610180016040528060006001600160a01b031681526020016000815260200160008152602001600081526020016000815260200160006001600160a01b03168152602001600060ff16815260200160006001600160a01b0316815260200160008152602001600081526020016000815260200160006001600160a01b031681525090565b803561077881612003565b803561077881612017565b803561077881612020565b60008083601f84011261150757600080fd5b50813567ffffffffffffffff81111561151f57600080fd5b60208301915083600182028301111561153757600080fd5b9250929050565b600082601f83011261154f57600080fd5b813561156261155d82611f51565b611f2a565b9150808252602083016020830185838301111561157e57600080fd5b611589838284611fc1565b50505092915050565b600082601f8301126115a357600080fd5b81516115b161155d82611f51565b915080825260208301602083018583830111156115cd57600080fd5b611589838284611fcd565b6000608082840312156115ea57600080fd5b50919050565b60006020828403121561160257600080fd5b600061091c84846114d4565b60006020828403121561162057600080fd5b600061091c84846114df565b6000806040838503121561163f57600080fd5b600061164b85856114df565b925050602061165c858286016114d4565b9150509250929050565b60008060006060848603121561167b57600080fd5b600061168786866114df565b9350506020611698868287016114d4565b92505060406116a9868287016114df565b9150509250925092565b600080604083850312156116c657600080fd5b60006116d285856114df565b925050602061165c858286016114df565b600080604083850312156116f657600080fd5b600061170285856114df565b925050602061165c858286016114ea565b600080600060c0848603121561172857600080fd5b600061173486866114df565b9350506020611745868287016115d8565b92505060a06116a9868287016114d4565b60008060008060e0858703121561176c57600080fd5b600061177887876114df565b9450506020611789878288016115d8565b93505060a061179a878288016114d4565b92505060c06117ab878288016114df565b91505092959194509250565b600080600080600060a086880312156117cf57600080fd5b60006117db88886114df565b95505060206117ec888289016114df565b94505060406117fd888289016114df565b935050606061180e888289016114d4565b925050608061181f888289016114df565b9150509295509295909350565b60006020828403121561183e57600080fd5b600061091c84846114ea565b600080600080600060e0868803121561186257600080fd5b853567ffffffffffffffff81111561187957600080fd5b611885888289016114f5565b95509550506020611898888289016115d8565b93505060a06118a9888289016114d4565b92505060c061181f888289016114df565b6000602082840312156118cc57600080fd5b813567ffffffffffffffff8111156118e357600080fd5b61091c8482850161153e565b60006020828403121561190157600080fd5b815167ffffffffffffffff81111561191857600080fd5b61091c84828501611592565b61192d81611fb6565b82525050565b61192d81611f86565b61192d81611f91565b61192d81611f96565b61192d81611f99565b600061196282611f79565b61196c8185611f7d565b935061197c818560208601611fcd565b61198581611ff9565b9093019392505050565b600061199c602c83611f7d565b7f75706e2063616e206f6e6c79206265207570646174656420627920697473206381526b3ab93932b73a1037bbb732b960a11b602082015260400192915050565b60006119ea602683611f7d565b7f4f776e61626c653a206e6577206f776e657220697320746865207a65726f206181526564647265737360d01b602082015260400192915050565b6000611a32601b83611f7d565b7f536166654d6174683a206164646974696f6e206f766572666c6f770000000000815260200192915050565b6000611a6b601183611f7d565b7075706e206e6f7420617661696c61626c6560781b815260200192915050565b6000611a98601183611f7d565b703ab8371030b63932b0b23c903a30b5b2b760791b815260200192915050565b6000611ac5602383611f7d565b7f6f6e6c79206e6577206f776e65722063616e2065786563757465207468652074815262616b6560e81b602082015260400192915050565b6000611b0a601883611f7d565b7f75706e206e6f742070726576696f75736c792074616b656e0000000000000000815260200192915050565b6000611b43602183611f7d565b7f536166654d6174683a206d756c7469706c69636174696f6e206f766572666c6f8152607760f81b602082015260400192915050565b6000611b86602083611f7d565b7f4f776e61626c653a2063616c6c6572206973206e6f7420746865206f776e6572815260200192915050565b6000611bbf602183611f7d565b7f75706e207374696c6c20756e6465722070726f74656374696f6e20706572696f8152601960fa1b602082015260400192915050565b6000611c02601283611f7d565b711d5c1b881b9bdd081c9959da5cdd195c995960721b815260200192915050565b6000611c30601983611f7d565b7f74616b656e2075706e732063616e742062652065646974656400000000000000815260200192915050565b6000611c69601d83611f7d565b7f55504e2069732075702d746f2d64617465206f6e207061796d656e7473000000815260200192915050565b8051610180830190611ca78482611933565b506020820151611cba6020850182611945565b506040820151611ccd6040850182611945565b506060820151611ce06060850182611945565b506080820151611cf36080850182611945565b5060a0820151611d0660a085018261194e565b5060c0820151611d1960c0850182611d86565b5060e0820151611d2c60e0850182611933565b50610100820151611d41610100850182611945565b50610120820151611d56610120850182611945565b50610140820151611d6b610140850182611945565b50610160820151611d8061016085018261194e565b50505050565b61192d81611fb0565b602081016107788284611933565b60808101611dab8287611933565b611db86020830186611924565b611dc56040830185611933565b611dd26060830184611945565b95945050505050565b60608101611de98286611933565b611df66020830185611924565b61091c6040830184611945565b60408101611e118285611933565b61140e6020830184611945565b60208101610778828461193c565b602081016107788284611945565b602080825281016107758184611957565b602080825281016107788161198f565b60208082528101610778816119dd565b6020808252810161077881611a25565b6020808252810161077881611a5e565b6020808252810161077881611a8b565b6020808252810161077881611ab8565b6020808252810161077881611afd565b6020808252810161077881611b36565b6020808252810161077881611b79565b6020808252810161077881611bb2565b6020808252810161077881611bf5565b6020808252810161077881611c23565b6020808252810161077881611c5c565b61018081016107788284611c95565b60405181810167ffffffffffffffff81118282101715611f4957600080fd5b604052919050565b600067ffffffffffffffff821115611f6857600080fd5b506020601f91909101601f19160190565b5190565b90815260200190565b600061077882611fa4565b151590565b90565b600061077882611f86565b6001600160a01b031690565b60ff1690565b600061077882611f99565b82818337506000910152565b60005b83811015611fe8578181015183820152602001611fd0565b83811115611d805750506000910152565b601f01601f191690565b61200c81611f86565b81146110b357600080fd5b61200c81611f96565b61200c81611f9956fea365627a7a72315820157d74abeb179b67ebf001239e6e1534dae0f1a20046d088e62c0a1a97a9b8f16c6578706572696d656e74616cf564736f6c63430005100040",
  "source": "pragma solidity >=0.5.0 <0.6.0;\npragma experimental ABIEncoderV2;\n\nimport \"./UprtclRoot.sol\";\nimport \"./UPRRegistry.sol\";\nimport \"./Ownable.sol\";\nimport \"./SafeMath.sol\";\n\ncontract UPNService is Ownable {\n    \n    using SafeMath for uint256;\n\n    struct UPNIn {\n        address owner;\n        uint256 V;\n        uint256 P;\n        UPRRegistry registry;\n    }\n\n    struct UPN {\n        address owner;\n        uint256 V;\n        uint256 P;\n        uint256 block0;\n        uint256 paid;\n        UPRRegistry registry;\n\n        uint8 taken;\n        address newOwner;\n        uint256 blockAvailable;\n        uint256 newV;\n        uint256 newP;\n        UPRRegistry newRegistry;\n    }\n\n    mapping(bytes32 => UPN) upns;\n    \n    uint256 public Fi;\n    uint256 public Ri;\n    uint256 public Q;\n    uint256 public P_BLOCKS;\n    uint256 public P_PER_YEAR;\n\n    uint256 public DECIMALS = 1000000;\n\n    UprtclRoot uprtclRoot;\n\n    function setUprtclRoot(UprtclRoot _uprtclRoot) public onlyOwner {\n        uprtclRoot = _uprtclRoot;\n    }\n\n    function setFi(uint256 nv) public onlyOwner { Fi = nv; }\n    function setRi(uint256 nv) public onlyOwner { Ri = nv; }\n    function setQ(uint256 nv) public onlyOwner { Q = nv; }\n    function setP_BLOCKS(uint256 nv) public onlyOwner { P_BLOCKS = nv; }\n    function setP_PER_YEAR(uint256 nv) public onlyOwner { P_PER_YEAR = nv; }\n\n    function hashUpn(string memory upn) public pure returns(bytes32 upnHased) {\n        return keccak256(abi.encode(upn));\n    }\n\n    function getTaxPerYear(uint256 V, uint256 P) public view returns(uint256 yearlyTax) {\n        return V.mul(Ri).div(DECIMALS).add((Q.mul(P).div(P_BLOCKS).mul(P).div(P_BLOCKS)));\n    }\n\n    function getTaxPerBlock(uint256 V, uint256 P) public view returns(uint256 perBlockTax) {\n        return getTaxPerYear(V, P).div(P_PER_YEAR).div(P_BLOCKS);\n    }\n\n    function registerUPN(string calldata upnName, UPNIn calldata upnIn, address account, uint256 upfront) external {\n        bytes32 upnHash = hashUpn(upnName);\n        UPN storage upn = upns[upnHash];\n        require(upn.owner == address(0), \"upn not available\");\n\n        /** new registration */\n        if (upfront > 0) {\n            uprtclRoot.consume(account, msg.sender, upfront);\n        }\n\n        upn.block0 = block.number;\n        upn.paid = upfront;\n\n        upn.owner = upnIn.owner;\n        upn.V = upnIn.V;\n        upn.P = upnIn.P;\n        upn.registry = upnIn.registry;\n    }\n\n    function chargeUPN(bytes32 upnHash, address account, uint256 amount) external {\n        UPN storage upn = upns[upnHash];\n        require(upn.owner != address(0), \"upn not registered\");\n\n        /** new registration */\n        uprtclRoot.consume(account, msg.sender, amount);\n        upn.paid = upn.paid + amount;\n    }\n\n    function transferUPN(bytes32 upnHash, address newOwner) external {\n        UPN storage upn = upns[upnHash];\n        require(upn.owner == msg.sender, \"upn can only be updated by its current owner\");\n        upn.owner = newOwner;\n    }\n\n    function editUPN(bytes32 upnHash, uint256 V, uint256 P, address account, uint256 upfront) external {\n        UPN storage upn = upns[upnHash];\n        require(upn.owner == msg.sender, \"upn can only be updated by its current owner\");\n        require(upn.taken == 0, \"taken upns cant be edited\");\n\n        /** send unpaid balance back ot owner */\n        uint256 shouldHavePaid = getTaxPerBlock(upn.V, upn.P).mul(block.number - upn.block0);\n        uprtclRoot.transfer(upn.owner, upn.paid.sub(shouldHavePaid));\n\n        /** consume new upfront payment */\n        uprtclRoot.consume(account, msg.sender, upfront);\n        upn.block0 = block.number;\n        upn.paid = upfront;\n        upn.V = V;\n        upn.P = P;\n    }\n\n    function changeUPRRegistry(bytes32 upnHash, UPRRegistry registry) external {\n        UPN storage upn = upns[upnHash];\n        require(upn.owner == msg.sender, \"upn can only be updated by its current owner\");\n        require(upn.taken == 0, \"taken upns cant be edited\");\n\n        upn.registry = registry;\n    }\n\n    function takeUnpaidUPN(bytes32 upnHash, UPNIn calldata upnIn, address account, uint256 upfront) external {\n        UPN storage upn = upns[upnHash];\n        uint256 shouldHavePaid = getTaxPerBlock(upn.V, upn.P).mul(block.number - upn.block0);\n        require(shouldHavePaid > upn.paid, \"UPN is up-to-date on payments\");\n\n        /** reset payment status */\n        if (upfront > 0) {\n            uprtclRoot.consume(account, msg.sender, upfront);\n        }\n\n        upn.block0 = block.number;\n        upn.paid = upfront;\n\n        /** if taken, only the new owner can take it */\n        if (upn.taken > 0) {\n            upn.owner = upn.newOwner;\n            upn.V = upn.newV;\n            upn.P = upn.newP;\n\n            upn.taken = 0;\n            upn.newOwner = address(0);\n            upn.blockAvailable = 0;\n            upn.newV = 0;\n            upn.newP = 0;\n            // upn.newRegistry = address(0);\n        } else {\n            upn.owner = upnIn.owner;\n            upn.V = upnIn.V;\n            upn.P = upnIn.P;\n            upn.registry = upnIn.registry;\n        }\n    }\n\n    function takeUPN(bytes32 upnHash, UPNIn calldata upnIn, address account) external {\n        UPN storage upn = upns[upnHash];\n        require(upn.owner != address(0), \"upn not registered\");\n        require(upn.taken == 0, \"upn already taken\");\n\n        uint256 payUs = upn.V.mul(Fi).div(DECIMALS);\n        uint256 payOwner = upn.V.sub(payUs);\n\n        uprtclRoot.transferTo(account, msg.sender, upn.owner, payOwner);\n        uprtclRoot.consume(account, msg.sender, payUs);\n\n        upn.taken = 1;\n        upn.newOwner = upnIn.owner;\n        upn.newV = upnIn.V;\n        upn.newP = upnIn.P;\n        upn.newRegistry = upnIn.registry;\n        upn.blockAvailable = block.number.add(upn.P);\n    }\n\n    function executeTake(bytes32 upnHash, address account, uint256 upfront) external {\n        UPN storage upn = upns[upnHash];\n        require(upn.taken == 1, \"upn not previously taken\");\n        require(upn.newOwner == msg.sender, \"only new owner can execute the take\");\n        require(block.number >= upn.blockAvailable, \"upn still under protection period\");\n\n        /** reimburse not spent balance to current owner */\n        uint256 shouldHavePaid = getTaxPerBlock(upn.V, upn.P).mul(block.number - upn.block0);\n        uprtclRoot.transfer(upn.owner, upn.paid.sub(shouldHavePaid));\n\n        /** reset payment status */\n        if (upfront > 0) {\n            uprtclRoot.consume(account, msg.sender, upfront);\n        }\n        upn.block0 = block.number;\n        upn.paid = upfront;\n\n        upn.owner = upn.newOwner;\n        upn.V = upn.newV;\n        upn.P = upn.newP;\n        upn.registry = upn.newRegistry;\n\n        upn.taken = 0;\n        upn.newOwner = address(0);\n        upn.blockAvailable = 0;\n        upn.newV = 0;\n        upn.newP = 0;\n        // upn.newRegistry = address(0);\n    }\n\n    function getUPN(bytes32 upnHash) public view returns(UPN memory upn) {\n        return upns[upnHash];\n    }\n\n    function hashContext(string memory context) public pure returns(bytes32 uprHashed) {\n        return keccak256(abi.encode(context));\n    }\n\n    function getUPR(bytes32 contextHash, bytes32 upnHash) public view returns (string memory value) {\n        UPN storage upn = upns[upnHash];\n        return upn.registry.getUPR(contextHash);\n    }\n\n}",
  "sourcePath": "/home/pepo/pr/uprtcl/eth-uprtcl/contracts/UPNService.sol",
  "compiler": {
    "name": "solc",
    "version": "0.5.16+commit.9c3226ce.Emscripten.clang"
  },
  "schemaVersion": "3.0.23",
  "updatedAt": "2020-04-28T16:12:24.585Z",
  "networkType": "ethereum",
  "devdoc": {
    "methods": {
      "isOwner()": {
        "details": "Returns true if the caller is the current owner."
      },
      "owner()": {
        "details": "Returns the address of the current owner."
      },
      "renounceOwnership()": {
        "details": "Leaves the contract without owner. It will not be possible to call `onlyOwner` functions anymore. Can only be called by the current owner.     * NOTE: Renouncing ownership will leave the contract without an owner, thereby removing any functionality that is only available to the owner."
      },
      "transferOwnership(address)": {
        "details": "Transfers ownership of the contract to a new account (`newOwner`). Can only be called by the current owner."
      }
    }
  },
  "userdoc": {
    "methods": {}
  }
}