{
  "contractName": "UPRRegistry",
  "abi": [
    {
      "anonymous": false,
      "inputs": [
        {
          "indexed": true,
          "internalType": "address",
          "name": "previousOwner",
          "type": "address"
        },
        {
          "indexed": true,
          "internalType": "address",
          "name": "newOwner",
          "type": "address"
        }
      ],
      "name": "OwnershipTransferred",
      "type": "event"
    },
    {
      "constant": true,
      "inputs": [],
      "name": "isOwner",
      "outputs": [
        {
          "internalType": "bool",
          "name": "",
          "type": "bool"
        }
      ],
      "payable": false,
      "stateMutability": "view",
      "type": "function"
    },
    {
      "constant": true,
      "inputs": [],
      "name": "owner",
      "outputs": [
        {
          "internalType": "address payable",
          "name": "",
          "type": "address"
        }
      ],
      "payable": false,
      "stateMutability": "view",
      "type": "function"
    },
    {
      "constant": false,
      "inputs": [],
      "name": "renounceOwnership",
      "outputs": [],
      "payable": false,
      "stateMutability": "nonpayable",
      "type": "function"
    },
    {
      "constant": false,
      "inputs": [
        {
          "internalType": "address payable",
          "name": "newOwner",
          "type": "address"
        }
      ],
      "name": "transferOwnership",
      "outputs": [],
      "payable": false,
      "stateMutability": "nonpayable",
      "type": "function"
    },
    {
      "constant": false,
      "inputs": [
        {
          "internalType": "bytes32",
          "name": "contextHash",
          "type": "bytes32"
        },
        {
          "internalType": "string",
          "name": "value",
          "type": "string"
        }
      ],
      "name": "setUPR",
      "outputs": [],
      "payable": false,
      "stateMutability": "nonpayable",
      "type": "function"
    },
    {
      "constant": true,
      "inputs": [
        {
          "internalType": "bytes32",
          "name": "contextHash",
          "type": "bytes32"
        }
      ],
      "name": "getUPR",
      "outputs": [
        {
          "internalType": "string",
          "name": "value",
          "type": "string"
        }
      ],
      "payable": false,
      "stateMutability": "view",
      "type": "function"
    }
  ],
  "bytecode": "0x60806040526100156001600160e01b0361006216565b600080546001600160a01b0319166001600160a01b03928316178082556040519216917f8be0079c531659141344cd1fd0a4f28419497f9722a3daafe3b4186f6b6457e0908290a3610066565b3390565b610713806100756000396000f3fe608060405234801561001057600080fd5b50600436106100625760003560e01c8063715018a6146100675780638da5cb5b146100715780638f32d59b1461008f5780638f6dd793146100a4578063d8c60111146100b7578063f2fde38b146100d7575b600080fd5b61006f6100ea565b005b610079610161565b60405161008691906105a1565b60405180910390f35b610097610171565b60405161008691906105af565b61006f6100b236600461047e565b610195565b6100ca6100c5366004610460565b6101dd565b60405161008691906105bd565b61006f6100e536600461043a565b61027d565b6100f2610171565b6101175760405162461bcd60e51b815260040161010e906105e5565b60405180910390fd5b600080546040516001600160a01b03909116907f8be0079c531659141344cd1fd0a4f28419497f9722a3daafe3b4186f6b6457e0908390a3600080546001600160a01b0319169055565b6000546001600160a01b03165b90565b600080546001600160a01b03166101866102ad565b6001600160a01b031614905090565b61019d610171565b6101b95760405162461bcd60e51b815260040161010e906105e5565b600082815260016020908152604090912082516101d892840190610332565b505050565b60008181526001602081815260409283902080548451600294821615610100026000190190911693909304601f810183900483028401830190945283835260609390918301828280156102715780601f1061024657610100808354040283529160200191610271565b820191906000526020600020905b81548152906001019060200180831161025457829003601f168201915b50505050509050919050565b610285610171565b6102a15760405162461bcd60e51b815260040161010e906105e5565b6102aa816102b1565b50565b3390565b6001600160a01b0381166102d75760405162461bcd60e51b815260040161010e906105d5565b600080546040516001600160a01b03808516939216917f8be0079c531659141344cd1fd0a4f28419497f9722a3daafe3b4186f6b6457e091a3600080546001600160a01b0319166001600160a01b0392909216919091179055565b828054600181600116156101000203166002900490600052602060002090601f016020900481019282601f1061037357805160ff19168380011785556103a0565b828001600101855582156103a0579182015b828111156103a0578251825591602001919060010190610385565b506103ac9291506103b0565b5090565b61016e91905b808211156103ac57600081556001016103b6565b80356103d5816106b3565b92915050565b80356103d5816106c7565b600082601f8301126103f757600080fd5b813561040a6104058261061c565b6105f5565b9150808252602083016020830185838301111561042657600080fd5b61043183828461066d565b50505092915050565b60006020828403121561044c57600080fd5b600061045884846103ca565b949350505050565b60006020828403121561047257600080fd5b600061045884846103db565b6000806040838503121561049157600080fd5b600061049d85856103db565b925050602083013567ffffffffffffffff8111156104ba57600080fd5b6104c6858286016103e6565b9150509250929050565b6104d981610651565b82525050565b6104d98161065c565b60006104f382610644565b6104fd8185610648565b935061050d818560208601610679565b610516816106a9565b9093019392505050565b600061052d602683610648565b7f4f776e61626c653a206e6577206f776e657220697320746865207a65726f206181526564647265737360d01b602082015260400192915050565b6000610575602083610648565b7f4f776e61626c653a2063616c6c6572206973206e6f7420746865206f776e6572815260200192915050565b602081016103d582846104d0565b602081016103d582846104df565b602080825281016105ce81846104e8565b9392505050565b602080825281016103d581610520565b602080825281016103d581610568565b60405181810167ffffffffffffffff8111828210171561061457600080fd5b604052919050565b600067ffffffffffffffff82111561063357600080fd5b506020601f91909101601f19160190565b5190565b90815260200190565b60006103d582610661565b151590565b6001600160a01b031690565b82818337506000910152565b60005b8381101561069457818101518382015260200161067c565b838111156106a3576000848401525b50505050565b601f01601f191690565b6106bc81610651565b81146102aa57600080fd5b6106bc8161016e56fea365627a7a72315820c69044c68247aab4cb50edea03c5e8f93fa41cdcd2278a40561fabc805bfce376c6578706572696d656e74616cf564736f6c63430005100040",
  "source": "pragma solidity >=0.5.0 <0.6.0;\npragma experimental ABIEncoderV2;\n\nimport \"./Ownable.sol\";\n\n/** holds a group of UPR mappings */\ncontract UPRRegistry is Ownable {\n\n    mapping(bytes32 => string) uprs;\n\n    function setUPR(bytes32 contextHash, string memory value) public onlyOwner {\n        uprs[contextHash] = value;\n    }\n\n    function getUPR(bytes32 contextHash) public view returns (string memory value) {\n        return uprs[contextHash];\n    }\n\n}",
  "sourcePath": "/home/pepo/pr/uprtcl/eth-uprtcl/contracts/UPRRegistry.sol",
  "compiler": {
    "name": "solc",
    "version": "0.5.16+commit.9c3226ce.Emscripten.clang"
  },
  "schemaVersion": "3.0.23",
  "updatedAt": "2020-03-16T21:21:42.109Z",
  "devdoc": {
    "methods": {
      "isOwner()": {
        "details": "Returns true if the caller is the current owner."
      },
      "owner()": {
        "details": "Returns the address of the current owner."
      },
      "renounceOwnership()": {
        "details": "Leaves the contract without owner. It will not be possible to call `onlyOwner` functions anymore. Can only be called by the current owner.     * NOTE: Renouncing ownership will leave the contract without an owner, thereby removing any functionality that is only available to the owner."
      },
      "transferOwnership(address)": {
        "details": "Transfers ownership of the contract to a new account (`newOwner`). Can only be called by the current owner."
      }
    }
  },
  "userdoc": {
    "methods": {},
    "notice": "holds a group of UPR mappings "
  }
}