{
  "contractName": "UPRRegistry",
  "abi": [
    {
      "constant": false,
      "inputs": [],
      "name": "renounceOwnership",
      "outputs": [],
      "payable": false,
      "stateMutability": "nonpayable",
      "type": "function"
    },
    {
      "constant": true,
      "inputs": [],
      "name": "owner",
      "outputs": [
        {
          "name": "",
          "type": "address"
        }
      ],
      "payable": false,
      "stateMutability": "view",
      "type": "function"
    },
    {
      "constant": true,
      "inputs": [],
      "name": "isOwner",
      "outputs": [
        {
          "name": "",
          "type": "bool"
        }
      ],
      "payable": false,
      "stateMutability": "view",
      "type": "function"
    },
    {
      "constant": false,
      "inputs": [
        {
          "name": "newOwner",
          "type": "address"
        }
      ],
      "name": "transferOwnership",
      "outputs": [],
      "payable": false,
      "stateMutability": "nonpayable",
      "type": "function"
    },
    {
      "anonymous": false,
      "inputs": [
        {
          "indexed": true,
          "name": "previousOwner",
          "type": "address"
        },
        {
          "indexed": true,
          "name": "newOwner",
          "type": "address"
        }
      ],
      "name": "OwnershipTransferred",
      "type": "event"
    },
    {
      "constant": false,
      "inputs": [
        {
          "name": "contextHash",
          "type": "bytes32"
        },
        {
          "name": "value",
          "type": "string"
        }
      ],
      "name": "setUPR",
      "outputs": [],
      "payable": false,
      "stateMutability": "nonpayable",
      "type": "function"
    },
    {
      "constant": true,
      "inputs": [
        {
          "name": "contextHash",
          "type": "bytes32"
        }
      ],
      "name": "getUPR",
      "outputs": [
        {
          "name": "value",
          "type": "string"
        }
      ],
      "payable": false,
      "stateMutability": "view",
      "type": "function"
    }
  ],
  "bytecode": "0x608060405261001261005f60201b60201c565b600080546001600160a01b0319166001600160a01b03928316178082556040519216917f8be0079c531659141344cd1fd0a4f28419497f9722a3daafe3b4186f6b6457e0908290a3610063565b3390565b610719806100726000396000f3fe608060405234801561001057600080fd5b50600436106100625760003560e01c8063715018a6146100675780638da5cb5b146100715780638f32d59b1461008f5780638f6dd793146100a4578063d8c60111146100b7578063f2fde38b146100d7575b600080fd5b61006f6100ea565b005b610079610164565b60405161008691906105b0565b60405180910390f35b610097610174565b60405161008691906105be565b61006f6100b236600461048a565b610198565b6100ca6100c536600461046c565b6101e3565b60405161008691906105cc565b61006f6100e5366004610446565b610283565b6100f2610174565b61011a57604051600160e51b62461bcd028152600401610111906105f4565b60405180910390fd5b600080546040516001600160a01b03909116907f8be0079c531659141344cd1fd0a4f28419497f9722a3daafe3b4186f6b6457e0908390a3600080546001600160a01b0319169055565b6000546001600160a01b03165b90565b600080546001600160a01b03166101896102b6565b6001600160a01b031614905090565b6101a0610174565b6101bf57604051600160e51b62461bcd028152600401610111906105f4565b600082815260016020908152604090912082516101de9284019061033e565b505050565b60008181526001602081815260409283902080548451600294821615610100026000190190911693909304601f810183900483028401830190945283835260609390918301828280156102775780601f1061024c57610100808354040283529160200191610277565b820191906000526020600020905b81548152906001019060200180831161025a57829003601f168201915b50505050509050919050565b61028b610174565b6102aa57604051600160e51b62461bcd028152600401610111906105f4565b6102b3816102ba565b50565b3390565b6001600160a01b0381166102e357604051600160e51b62461bcd028152600401610111906105e4565b600080546040516001600160a01b03808516939216917f8be0079c531659141344cd1fd0a4f28419497f9722a3daafe3b4186f6b6457e091a3600080546001600160a01b0319166001600160a01b0392909216919091179055565b828054600181600116156101000203166002900490600052602060002090601f016020900481019282601f1061037f57805160ff19168380011785556103ac565b828001600101855582156103ac579182015b828111156103ac578251825591602001919060010190610391565b506103b89291506103bc565b5090565b61017191905b808211156103b857600081556001016103c2565b80356103e1816106c2565b92915050565b80356103e1816106d6565b600082601f83011261040357600080fd5b81356104166104118261062b565b610604565b9150808252602083016020830185838301111561043257600080fd5b61043d83828461067c565b50505092915050565b60006020828403121561045857600080fd5b600061046484846103d6565b949350505050565b60006020828403121561047e57600080fd5b600061046484846103e7565b6000806040838503121561049d57600080fd5b60006104a985856103e7565b925050602083013567ffffffffffffffff8111156104c657600080fd5b6104d2858286016103f2565b9150509250929050565b6104e581610660565b82525050565b6104e58161066b565b60006104ff82610653565b6105098185610657565b9350610519818560208601610688565b610522816106b8565b9093019392505050565b6000610539602683610657565b7f4f776e61626c653a206e6577206f776e657220697320746865207a65726f20618152600160d01b6564647265737302602082015260400192915050565b6000610584602083610657565b7f4f776e61626c653a2063616c6c6572206973206e6f7420746865206f776e6572815260200192915050565b602081016103e182846104dc565b602081016103e182846104eb565b602080825281016105dd81846104f4565b9392505050565b602080825281016103e18161052c565b602080825281016103e181610577565b60405181810167ffffffffffffffff8111828210171561062357600080fd5b604052919050565b600067ffffffffffffffff82111561064257600080fd5b506020601f91909101601f19160190565b5190565b90815260200190565b60006103e182610670565b151590565b6001600160a01b031690565b82818337506000910152565b60005b838110156106a357818101518382015260200161068b565b838111156106b2576000848401525b50505050565b601f01601f191690565b6106cb81610660565b81146102b357600080fd5b6106cb8161017156fea265627a7a7230582096c1654b900e918e11a729250d284554babdbc5d625a5123189cd7ea1be79dd56c6578706572696d656e74616cf50037",
  "source": "pragma solidity >=0.5.0 <0.6.0;\npragma experimental ABIEncoderV2;\n\nimport \"./Ownable.sol\";\n\n/** holds a group of UPR mappings */\ncontract UPRRegistry is Ownable {\n\n    mapping(bytes32 => string) uprs;\n\n    function setUPR(bytes32 contextHash, string memory value) public onlyOwner {\n        uprs[contextHash] = value;\n    }\n\n    function getUPR(bytes32 contextHash) public view returns (string memory value) {\n        return uprs[contextHash];\n    }\n\n}",
  "sourcePath": "/Users/Cesar/apps/dorg/uptrcl/eth-provider/contracts/UPRRegistry.sol",
  "compiler": {
    "name": "solc",
    "version": "0.5.8+commit.23d335f2.Emscripten.clang"
  },
  "schemaVersion": "3.0.11",
  "updatedAt": "2020-03-23T17:18:59.420Z",
  "devdoc": {
    "methods": {
      "isOwner()": {
        "details": "Returns true if the caller is the current owner."
      },
      "owner()": {
        "details": "Returns the address of the current owner."
      },
      "renounceOwnership()": {
        "details": "Leaves the contract without owner. It will not be possible to call `onlyOwner` functions anymore. Can only be called by the current owner.     * NOTE: Renouncing ownership will leave the contract without an owner, thereby removing any functionality that is only available to the owner."
      },
      "transferOwnership(address)": {
        "details": "Transfers ownership of the contract to a new account (`newOwner`). Can only be called by the current owner."
      }
    }
  },
  "userdoc": {
    "methods": {},
    "notice": "holds a group of UPR mappings "
  }
}