{
  "contractName": "UprtclProposals",
  "abi": [
    {
      "anonymous": false,
      "inputs": [
        {
          "indexed": true,
          "internalType": "address",
          "name": "previousOwner",
          "type": "address"
        },
        {
          "indexed": true,
          "internalType": "address",
          "name": "newOwner",
          "type": "address"
        }
      ],
      "name": "OwnershipTransferred",
      "type": "event"
    },
    {
      "anonymous": false,
      "inputs": [
        {
          "indexed": true,
          "internalType": "bytes32",
          "name": "toPerspectiveIdHash",
          "type": "bytes32"
        },
        {
          "indexed": true,
          "internalType": "bytes32",
          "name": "fromPerspectiveIdHash",
          "type": "bytes32"
        },
        {
          "indexed": true,
          "internalType": "bytes32",
          "name": "proposalId",
          "type": "bytes32"
        },
        {
          "indexed": false,
          "internalType": "address",
          "name": "creator",
          "type": "address"
        }
      ],
      "name": "ProposalCreated",
      "type": "event"
    },
    {
      "constant": true,
      "inputs": [],
      "name": "factor_den",
      "outputs": [
        {
          "internalType": "uint256",
          "name": "",
          "type": "uint256"
        }
      ],
      "payable": false,
      "stateMutability": "view",
      "type": "function"
    },
    {
      "constant": true,
      "inputs": [],
      "name": "factor_num",
      "outputs": [
        {
          "internalType": "uint256",
          "name": "",
          "type": "uint256"
        }
      ],
      "payable": false,
      "stateMutability": "view",
      "type": "function"
    },
    {
      "constant": true,
      "inputs": [
        {
          "internalType": "address",
          "name": "",
          "type": "address"
        }
      ],
      "name": "fees",
      "outputs": [
        {
          "internalType": "uint256",
          "name": "fee",
          "type": "uint256"
        },
        {
          "internalType": "uint256",
          "name": "balance",
          "type": "uint256"
        }
      ],
      "payable": false,
      "stateMutability": "view",
      "type": "function"
    },
    {
      "constant": true,
      "inputs": [],
      "name": "isOwner",
      "outputs": [
        {
          "internalType": "bool",
          "name": "",
          "type": "bool"
        }
      ],
      "payable": false,
      "stateMutability": "view",
      "type": "function"
    },
    {
      "constant": true,
      "inputs": [],
      "name": "minFee",
      "outputs": [
        {
          "internalType": "uint256",
          "name": "",
          "type": "uint256"
        }
      ],
      "payable": false,
      "stateMutability": "view",
      "type": "function"
    },
    {
      "constant": true,
      "inputs": [],
      "name": "owner",
      "outputs": [
        {
          "internalType": "address payable",
          "name": "",
          "type": "address"
        }
      ],
      "payable": false,
      "stateMutability": "view",
      "type": "function"
    },
    {
      "constant": true,
      "inputs": [
        {
          "internalType": "bytes32",
          "name": "",
          "type": "bytes32"
        }
      ],
      "name": "proposals",
      "outputs": [
        {
          "internalType": "string",
          "name": "toPerspectiveId",
          "type": "string"
        },
        {
          "internalType": "string",
          "name": "fromPerspectiveId",
          "type": "string"
        },
        {
          "internalType": "address",
          "name": "owner",
          "type": "address"
        },
        {
          "internalType": "uint256",
          "name": "nonce",
          "type": "uint256"
        },
        {
          "internalType": "uint8",
          "name": "status",
          "type": "uint8"
        },
        {
          "internalType": "uint8",
          "name": "authorized",
          "type": "uint8"
        }
      ],
      "payable": false,
      "stateMutability": "view",
      "type": "function"
    },
    {
      "constant": false,
      "inputs": [],
      "name": "renounceOwnership",
      "outputs": [],
      "payable": false,
      "stateMutability": "nonpayable",
      "type": "function"
    },
    {
      "constant": false,
      "inputs": [
        {
          "internalType": "address payable",
          "name": "newOwner",
          "type": "address"
        }
      ],
      "name": "transferOwnership",
      "outputs": [],
      "payable": false,
      "stateMutability": "nonpayable",
      "type": "function"
    },
    {
      "constant": false,
      "inputs": [
        {
          "internalType": "contract UprtclRoot",
          "name": "_uprtclRoot",
          "type": "address"
        }
      ],
      "name": "setUprtclRoot",
      "outputs": [],
      "payable": false,
      "stateMutability": "nonpayable",
      "type": "function"
    },
    {
      "constant": true,
      "inputs": [
        {
          "internalType": "string",
          "name": "toPerspectiveId",
          "type": "string"
        },
        {
          "internalType": "string",
          "name": "fromPerspectiveId",
          "type": "string"
        },
        {
          "internalType": "uint256",
          "name": "nonce",
          "type": "uint256"
        }
      ],
      "name": "getProposalId",
      "outputs": [
        {
          "internalType": "bytes32",
          "name": "proposalId",
          "type": "bytes32"
        }
      ],
      "payable": false,
      "stateMutability": "pure",
      "type": "function"
    },
    {
      "constant": false,
      "inputs": [
        {
          "internalType": "uint256",
          "name": "_minFee",
          "type": "uint256"
        }
      ],
      "name": "setMinFee",
      "outputs": [],
      "payable": false,
      "stateMutability": "nonpayable",
      "type": "function"
    },
    {
      "constant": false,
      "inputs": [
        {
          "internalType": "uint256",
          "name": "_factor_num",
          "type": "uint256"
        }
      ],
      "name": "setFactorNum",
      "outputs": [],
      "payable": false,
      "stateMutability": "nonpayable",
      "type": "function"
    },
    {
      "constant": false,
      "inputs": [
        {
          "internalType": "uint256",
          "name": "_factor_den",
          "type": "uint256"
        }
      ],
      "name": "setFactorDen",
      "outputs": [],
      "payable": false,
      "stateMutability": "nonpayable",
      "type": "function"
    },
    {
      "constant": false,
      "inputs": [
        {
          "components": [
            {
              "internalType": "string",
              "name": "toPerspectiveId",
              "type": "string"
            },
            {
              "internalType": "string",
              "name": "fromPerspectiveId",
              "type": "string"
            },
            {
              "internalType": "address",
              "name": "owner",
              "type": "address"
            },
            {
              "internalType": "uint256",
              "name": "nonce",
              "type": "uint256"
            },
            {
              "components": [
                {
                  "internalType": "bytes32",
                  "name": "perspectiveIdHash",
                  "type": "bytes32"
                },
                {
                  "internalType": "bytes32",
                  "name": "headCid0",
                  "type": "bytes32"
                },
                {
                  "internalType": "bytes32",
                  "name": "headCid1",
                  "type": "bytes32"
                },
                {
                  "internalType": "uint8",
                  "name": "executed",
                  "type": "uint8"
                }
              ],
              "internalType": "struct UprtclProposals.HeadUpdate[]",
              "name": "headUpdates",
              "type": "tuple[]"
            },
            {
              "internalType": "address[]",
              "name": "approvedAddresses",
              "type": "address[]"
            }
          ],
          "internalType": "struct UprtclProposals.NewProposal",
          "name": "newProposal",
          "type": "tuple"
        },
        {
          "internalType": "address",
          "name": "account",
          "type": "address"
        }
      ],
      "name": "initProposal",
      "outputs": [],
      "payable": false,
      "stateMutability": "nonpayable",
      "type": "function"
    },
    {
      "constant": false,
      "inputs": [
        {
          "internalType": "bytes32",
          "name": "proposalId",
          "type": "bytes32"
        },
        {
          "components": [
            {
              "internalType": "bytes32",
              "name": "perspectiveIdHash",
              "type": "bytes32"
            },
            {
              "internalType": "bytes32",
              "name": "headCid0",
              "type": "bytes32"
            },
            {
              "internalType": "bytes32",
              "name": "headCid1",
              "type": "bytes32"
            },
            {
              "internalType": "uint8",
              "name": "executed",
              "type": "uint8"
            }
          ],
          "internalType": "struct UprtclProposals.HeadUpdate[]",
          "name": "headUpdates",
          "type": "tuple[]"
        }
      ],
      "name": "addUpdatesToProposal",
      "outputs": [],
      "payable": false,
      "stateMutability": "nonpayable",
      "type": "function"
    },
    {
      "constant": false,
      "inputs": [
        {
          "internalType": "bytes32",
          "name": "proposalId",
          "type": "bytes32"
        },
        {
          "internalType": "uint8",
          "name": "status",
          "type": "uint8"
        }
      ],
      "name": "setProposalStatus",
      "outputs": [],
      "payable": false,
      "stateMutability": "nonpayable",
      "type": "function"
    },
    {
      "constant": false,
      "inputs": [
        {
          "internalType": "bytes32",
          "name": "proposalId",
          "type": "bytes32"
        },
        {
          "internalType": "uint8",
          "name": "authorized",
          "type": "uint8"
        }
      ],
      "name": "setProposalAuthorized",
      "outputs": [],
      "payable": false,
      "stateMutability": "nonpayable",
      "type": "function"
    },
    {
      "constant": false,
      "inputs": [
        {
          "internalType": "bytes32",
          "name": "proposalId",
          "type": "bytes32"
        },
        {
          "internalType": "address",
          "name": "account",
          "type": "address"
        }
      ],
      "name": "executeProposal",
      "outputs": [],
      "payable": false,
      "stateMutability": "nonpayable",
      "type": "function"
    },
    {
      "constant": false,
      "inputs": [
        {
          "internalType": "bytes32",
          "name": "proposalId",
          "type": "bytes32"
        },
        {
          "internalType": "uint256[]",
          "name": "indexes",
          "type": "uint256[]"
        },
        {
          "internalType": "address",
          "name": "account",
          "type": "address"
        }
      ],
      "name": "executeProposalPartially",
      "outputs": [],
      "payable": false,
      "stateMutability": "nonpayable",
      "type": "function"
    },
    {
      "constant": true,
      "inputs": [
        {
          "internalType": "bytes32",
          "name": "proposalId",
          "type": "bytes32"
        }
      ],
      "name": "getProposal",
      "outputs": [
        {
          "components": [
            {
              "internalType": "string",
              "name": "toPerspectiveId",
              "type": "string"
            },
            {
              "internalType": "string",
              "name": "fromPerspectiveId",
              "type": "string"
            },
            {
              "internalType": "address",
              "name": "owner",
              "type": "address"
            },
            {
              "internalType": "uint256",
              "name": "nonce",
              "type": "uint256"
            },
            {
              "components": [
                {
                  "internalType": "bytes32",
                  "name": "perspectiveIdHash",
                  "type": "bytes32"
                },
                {
                  "internalType": "bytes32",
                  "name": "headCid0",
                  "type": "bytes32"
                },
                {
                  "internalType": "bytes32",
                  "name": "headCid1",
                  "type": "bytes32"
                },
                {
                  "internalType": "uint8",
                  "name": "executed",
                  "type": "uint8"
                }
              ],
              "internalType": "struct UprtclProposals.HeadUpdate[]",
              "name": "headUpdates",
              "type": "tuple[]"
            },
            {
              "internalType": "address[]",
              "name": "approvedAddresses",
              "type": "address[]"
            },
            {
              "internalType": "uint8",
              "name": "status",
              "type": "uint8"
            },
            {
              "internalType": "uint8",
              "name": "authorized",
              "type": "uint8"
            }
          ],
          "internalType": "struct UprtclProposals.Proposal",
          "name": "proposal",
          "type": "tuple"
        }
      ],
      "payable": false,
      "stateMutability": "view",
      "type": "function"
    }
  ],
  "bytecode": "0x60806040526100156001600160e01b0361006216565b600080546001600160a01b0319166001600160a01b03928316178082556040519216917f8be0079c531659141344cd1fd0a4f28419497f9722a3daafe3b4186f6b6457e0908290a3610066565b3390565b612bb3806100756000396000f3fe608060405234801561001057600080fd5b50600436106101375760003560e01c8063715018a6116100b857806395f720a41161007c57806395f720a414610268578063971a294f1461027b5780639eb788c51461028e578063f18251f1146102a1578063f2fde38b146102b4578063faaebd21146102c757610137565b8063715018a6146102105780637cce0117146102185780638517f68a1461022b5780638da5cb5b1461023e5780638f32d59b1461025357610137565b806331ac9920116100ff57806331ac99201461019d57806332ed5b12146101b057806339eacf34146101d5578063430694cf146101e857806352f386cb1461020857610137565b806305196b9d1461013c5780630de4cb191461015a57806324ec75901461016f57806326d50df1146101775780632bc3ed3a1461018a575b600080fd5b6101446102e8565b6040516101519190612889565b60405180910390f35b61016d610168366004611fd6565b6102ee565b005b610144610320565b61016d61018536600461204c565b610326565b610144610198366004612147565b61078d565b61016d6101ab366004611fd6565b6107c3565b6101c36101be366004611fd6565b6107ec565b604051610151969594939291906128dd565b61016d6101e33660046120f9565b610950565b6101fb6101f6366004611fd6565b6109a2565b6040516101519190612a13565b610144610c37565b61016d610c3d565b61016d610226366004612129565b610cab565b61016d610239366004612094565b610cf1565b610246610d02565b6040516101519190612807565b61025b610d12565b604051610151919061287b565b61016d6102763660046121b9565b610d36565b61016d610289366004611fd6565b61123c565b61016d61029c366004612012565b611265565b61016d6102af3660046120f9565b61136f565b61016d6102c2366004611f92565b6113dd565b6102da6102d5366004611f92565b61140d565b604051610151929190612a24565b60045481565b6102f6610d12565b61031b5760405162461bcd60e51b8152600401610312906129f3565b60405180910390fd5b600455565b60035481565b600082815260016020526040902060028101546001600160a01b031661035e5760405162461bcd60e51b815260040161031290612993565b600681015460ff166103825760405162461bcd60e51b815260040161031290612a03565b60408051825460206002610100600184161581026000190190931604601f810182900490910283016101209081019094529082018181526000936106079392869284929091849184018282801561041a5780601f106103ef5761010080835404028352916020019161041a565b820191906000526020600020905b8154815290600101906020018083116103fd57829003601f168201915b50505050508152602001600182018054600181600116156101000203166002900480601f0160208091040260200160405190810160405280929190818152602001828054600181600116156101000203166002900480156104bc5780601f10610491576101008083540402835291602001916104bc565b820191906000526020600020905b81548152906001019060200180831161049f57829003601f168201915b505050505081526020016002820160009054906101000a90046001600160a01b03166001600160a01b03166001600160a01b031681526020016003820154815260200160048201805480602002602001604051908101604052809291908181526020016000905b8282101561057a576000848152602090819020604080516080810182526004860290920180548352600180820154848601526002820154928401929092526003015460ff1660608301529083529092019101610523565b505050508152602001600582018054806020026020016040519081016040528092919081815260200182805480156105db57602002820191906000526020600020905b81546001600160a01b031681526001909101906020018083116105bd575b50505091835250506006919091015460ff80821660208401526101009091041660409091015233611426565b60ff16116106275760405162461bcd60e51b8152600401610312906129b3565b60005b82518160ff1610156107875761063e611a31565b838260ff168151811061064d57fe5b60200260200101519050806060015160ff1660001461067e5760405162461bcd60e51b815260040161031290612963565b60028301546006548251604051631393bbf560e01b81526001600160a01b039384169390921691631393bbf5916106b791600401612889565b60206040518083038186803b1580156106cf57600080fd5b505afa1580156106e3573d6000803e3d6000fd5b505050506040513d601f19601f820116820180604052506107079190810190611fb8565b6001600160a01b03161461072d5760405162461bcd60e51b815260040161031290612953565b600483810180546001808201835560009283526020928390208551929094029093019081559083015181830155604083015160028201556060909201516003909201805460ff191660ff909316929092179091550161062a565b50505050565b60008383836040516020016107a4939291906127ca565b6040516020818303038152906040528051906020012090509392505050565b6107cb610d12565b6107e75760405162461bcd60e51b8152600401610312906129f3565b600355565b60016020818152600092835260409283902080548451600294821615610100026000190190911693909304601f810183900483028401830190945283835292839183018282801561087e5780601f106108535761010080835404028352916020019161087e565b820191906000526020600020905b81548152906001019060200180831161086157829003601f168201915b505050505090806001018054600181600116156101000203166002900480601f01602080910402602001604051908101604052809291908181526020018280546001816001161561010002031660029004801561091c5780601f106108f15761010080835404028352916020019161091c565b820191906000526020600020905b8154815290600101906020018083116108ff57829003601f168201915b505050506002830154600384015460069094015492936001600160a01b039091169290915060ff8082169161010090041686565b600082815260016020526040902060028101546001600160a01b0316331461098a5760405162461bcd60e51b815260040161031290612943565b600601805460ff191660ff9290921691909117905550565b6109aa611a58565b6000828152600160208181526040928390208351815460026101009582161586026000190190911604601f810184900490930281016101209081019095529283018281529293909284929091849190840182828015610a4a5780601f10610a1f57610100808354040283529160200191610a4a565b820191906000526020600020905b815481529060010190602001808311610a2d57829003601f168201915b50505050508152602001600182018054600181600116156101000203166002900480601f016020809104026020016040519081016040528092919081815260200182805460018160011615610100020316600290048015610aec5780601f10610ac157610100808354040283529160200191610aec565b820191906000526020600020905b815481529060010190602001808311610acf57829003601f168201915b505050505081526020016002820160009054906101000a90046001600160a01b03166001600160a01b03166001600160a01b031681526020016003820154815260200160048201805480602002602001604051908101604052809291908181526020016000905b82821015610baa576000848152602090819020604080516080810182526004860290920180548352600180820154848601526002820154928401929092526003015460ff1660608301529083529092019101610b53565b50505050815260200160058201805480602002602001604051908101604052809291908181526020018280548015610c0b57602002820191906000526020600020905b81546001600160a01b03168152600190910190602001808311610bed575b50505091835250506006919091015460ff80821660208401526101009091041660409091015292915050565b60055481565b610c45610d12565b610c615760405162461bcd60e51b8152600401610312906129f3565b600080546040516001600160a01b03909116907f8be0079c531659141344cd1fd0a4f28419497f9722a3daafe3b4186f6b6457e0908390a3600080546001600160a01b0319169055565b610cb3610d12565b610ccf5760405162461bcd60e51b8152600401610312906129f3565b600680546001600160a01b0319166001600160a01b0392909216919091179055565b610cfd838333846114a9565b505050565b6000546001600160a01b03165b90565b600080546001600160a01b0316610d27611884565b6001600160a01b031614905090565b600654825160405163fc87de3960e01b81526000926001600160a01b031691631393bbf591839163fc87de3991610d7091906004016128cc565b60206040518083038186803b158015610d8857600080fd5b505afa158015610d9c573d6000803e3d6000fd5b505050506040513d601f19601f82011682018060405250610dc09190810190611ff4565b6040518263ffffffff1660e01b8152600401610ddc9190612889565b60206040518083038186803b158015610df457600080fd5b505afa158015610e08573d6000803e3d6000fd5b505050506040513d601f19601f82011682018060405250610e2c9190810190611fb8565b6001600160a01b03811660009081526002602052604090205490915080610ec25760035415610ebd576006546003546040516302654acd60e51b81526001600160a01b0390921691634ca959a091610e8a9187913391600401612853565b600060405180830381600087803b158015610ea457600080fd5b505af1158015610eb8573d6000803e3d6000fd5b505050505b611002565b6000610eeb600554610edf6004548561188890919063ffffffff16565b9063ffffffff6118c916565b90506000610f1c600554610edf610f0f60045460055461190b90919063ffffffff16565b869063ffffffff61188816565b6003549091508290811015610f3057506003545b600654604051636556cd0560e01b81526001600160a01b0390911690636556cd0590610f6690899033908a908890600401612815565b600060405180830381600087803b158015610f8057600080fd5b505af1158015610f94573d6000803e3d6000fd5b50506006546040516302654acd60e51b81526001600160a01b039091169250634ca959a09150610fcc90899033908690600401612853565b600060405180830381600087803b158015610fe657600080fd5b505af1158015610ffa573d6000803e3d6000fd5b505050505050505b600061101b85600001518660200151876060015161078d565b60008181526001602052604090206002810154919250906001600160a01b0316156110585760405162461bcd60e51b8152600401610312906129c3565b8551805161106d918391602090910190611aac565b5060208087015180516110869260018501920190611aac565b5060408601516002820180546001600160a01b0319166001600160a01b039092169190911790556060860151600382015560a086015180516110d2916005840191602090910190611b2a565b5060068101805461ff001960ff1990911660011716905560808601516110f9908390610326565b600654602087015160405163fc87de3960e01b815284926001600160a01b03169163fc87de399161112d91906004016128cc565b60206040518083038186803b15801561114557600080fd5b505afa158015611159573d6000803e3d6000fd5b505050506040513d601f19601f8201168201806040525061117d9190810190611ff4565b600654885160405163fc87de3960e01b81526001600160a01b039092169163fc87de39916111ad916004016128cc565b60206040518083038186803b1580156111c557600080fd5b505afa1580156111d9573d6000803e3d6000fd5b505050506040513d601f19601f820116820180604052506111fd9190810190611ff4565b7f7172667a4024e27a0d3a896c8ba72947ebed1a0bb37d5c6aaff808c4f6b574ef3360405161122c91906127f9565b60405180910390a4505050505050565b611244610d12565b6112605760405162461bcd60e51b8152600401610312906129f3565b600555565b60008281526001602081815260408084208151815460026101009682161587026000190190911604601f810185900490940281016101209081019093529384018381529094936112e093909286928492909184919084018282801561041a5780601f106103ef5761010080835404028352916020019161041a565b60ff16116113005760405162461bcd60e51b8152600401610312906129b3565b60048101546040805182815260208084028201019091526060918015611330578160200160208202803883390190505b50905060005b6004830154811015611362578082828151811061134f57fe5b6020908102919091010152600101611336565b50610787848233866114a9565b600082815260016020526040902060028101546001600160a01b031633146113a95760405162461bcd60e51b815260040161031290612983565b60ff8216156113bf5760068101805460ff191690555b600601805460ff9092166101000261ff001990921691909117905550565b6113e5610d12565b6114015760405162461bcd60e51b8152600401610312906129f3565b61140a8161194d565b50565b6002602052600090815260409020805460019091015482565b60008260a00151516000141561143e575060016114a3565b60005b8360a00151518163ffffffff16101561149d578360a001518163ffffffff168151811061146a57fe5b60200260200101516001600160a01b0316836001600160a01b031614156114955750600190506114a3565b600101611441565b50600090505b92915050565b60008481526001602052604090206006810154610100900460ff166114e05760405162461bcd60e51b8152600401610312906129e3565b60408051825460206002610100600184161581026000190190931604601f81018290049091028301610120908101909452908201818152600093611765939286928492909184918401828280156115785780601f1061154d57610100808354040283529160200191611578565b820191906000526020600020905b81548152906001019060200180831161155b57829003601f168201915b50505050508152602001600182018054600181600116156101000203166002900480601f01602080910402602001604051908101604052809291908181526020018280546001816001161561010002031660029004801561161a5780601f106115ef5761010080835404028352916020019161161a565b820191906000526020600020905b8154815290600101906020018083116115fd57829003601f168201915b505050505081526020016002820160009054906101000a90046001600160a01b03166001600160a01b03166001600160a01b031681526020016003820154815260200160048201805480602002602001604051908101604052809291908181526020016000905b828210156116d8576000848152602090819020604080516080810182526004860290920180548352600180820154848601526002820154928401929092526003015460ff1660608301529083529092019101611681565b5050505081526020016005820180548060200260200160405190810160405280929190818152602001828054801561173957602002820191906000526020600020905b81546001600160a01b0316815260019091019060200180831161171b575b50505091835250506006919091015460ff80821660208401526101009091041660409091015285611426565b60ff16116117855760405162461bcd60e51b8152600401610312906129b3565b60005b845181101561187c576000826004018683815181106117a357fe5b6020026020010151815481106117b557fe5b60009182526020909120600490910201600381015490915060ff16156117ed5760405162461bcd60e51b8152600401610312906129a3565b60038101805460ff1916600190811790915560065482549183015460028401546040516301d4f0fd60e31b81526001600160a01b0390931693630ea787e89361183d939192908a90600401612897565b600060405180830381600087803b15801561185757600080fd5b505af115801561186b573d6000803e3d6000fd5b505060019093019250611788915050565b505050505050565b3390565b600082611897575060006114a3565b828202828482816118a457fe5b04146118c25760405162461bcd60e51b8152600401610312906129d3565b9392505050565b60006118c283836040518060400160405280601a81526020017f536166654d6174683a206469766973696f6e206279207a65726f0000000000008152506119ce565b60006118c283836040518060400160405280601e81526020017f536166654d6174683a207375627472616374696f6e206f766572666c6f770000815250611a05565b6001600160a01b0381166119735760405162461bcd60e51b815260040161031290612973565b600080546040516001600160a01b03808516939216917f8be0079c531659141344cd1fd0a4f28419497f9722a3daafe3b4186f6b6457e091a3600080546001600160a01b0319166001600160a01b0392909216919091179055565b600081836119ef5760405162461bcd60e51b815260040161031291906128cc565b5060008385816119fb57fe5b0495945050505050565b60008184841115611a295760405162461bcd60e51b815260040161031291906128cc565b505050900390565b60408051608081018252600080825260208201819052918101829052606081019190915290565b604051806101000160405280606081526020016060815260200160006001600160a01b03168152602001600081526020016060815260200160608152602001600060ff168152602001600060ff1681525090565b828054600181600116156101000203166002900490600052602060002090601f016020900481019282601f10611aed57805160ff1916838001178555611b1a565b82800160010185558215611b1a579182015b82811115611b1a578251825591602001919060010190611aff565b50611b26929150611b8b565b5090565b828054828255906000526020600020908101928215611b7f579160200282015b82811115611b7f57825182546001600160a01b0319166001600160a01b03909116178255602090920191600190910190611b4a565b50611b26929150611ba5565b610d0f91905b80821115611b265760008155600101611b91565b610d0f91905b80821115611b265780546001600160a01b0319168155600101611bab565b80356114a381612b41565b80516114a381612b41565b600082601f830112611bf057600080fd5b8135611c03611bfe82612a66565b612a3f565b91508181835260208401935060208101905083856020840282011115611c2857600080fd5b60005b83811015611c545781611c3e8882611bc9565b8452506020928301929190910190600101611c2b565b5050505092915050565b600082601f830112611c6f57600080fd5b8135611c7d611bfe82612a66565b91508181835260208401935060208101905083856080840282011115611ca257600080fd5b60005b83811015611c545781611cb88882611e22565b84525060209092019160809190910190600101611ca5565b600082601f830112611ce157600080fd5b8135611cef611bfe82612a66565b91508181835260208401935060208101905083856080840282011115611d1457600080fd5b60005b83811015611c545781611d2a8882611e22565b84525060209092019160809190910190600101611d17565b600082601f830112611d5357600080fd5b8135611d61611bfe82612a66565b91508181835260208401935060208101905083856020840282011115611d8657600080fd5b60005b83811015611c545781611d9c8882611db2565b8452506020928301929190910190600101611d89565b80356114a381612b55565b80516114a381612b55565b80356114a381612b5e565b600082601f830112611de457600080fd5b8135611df2611bfe82612a87565b91508082526020830160208301858383011115611e0e57600080fd5b611e19838284612aff565b50505092915050565b600060808284031215611e3457600080fd5b611e3e6080612a3f565b90506000611e4c8484611db2565b8252506020611e5d84848301611db2565b6020830152506040611e7184828501611db2565b6040830152506060611e8584828501611f87565b60608301525092915050565b600060c08284031215611ea357600080fd5b611ead60c0612a3f565b9050813567ffffffffffffffff811115611ec657600080fd5b611ed284828501611dd3565b825250602082013567ffffffffffffffff811115611eef57600080fd5b611efb84828501611dd3565b6020830152506040611f0f84828501611bc9565b6040830152506060611f2384828501611db2565b606083015250608082013567ffffffffffffffff811115611f4357600080fd5b611f4f84828501611c5e565b60808301525060a082013567ffffffffffffffff811115611f6f57600080fd5b611f7b84828501611bdf565b60a08301525092915050565b80356114a381612b67565b600060208284031215611fa457600080fd5b6000611fb08484611bc9565b949350505050565b600060208284031215611fca57600080fd5b6000611fb08484611bd4565b600060208284031215611fe857600080fd5b6000611fb08484611db2565b60006020828403121561200657600080fd5b6000611fb08484611dbd565b6000806040838503121561202557600080fd5b60006120318585611db2565b925050602061204285828601611bc9565b9150509250929050565b6000806040838503121561205f57600080fd5b600061206b8585611db2565b925050602083013567ffffffffffffffff81111561208857600080fd5b61204285828601611cd0565b6000806000606084860312156120a957600080fd5b60006120b58686611db2565b935050602084013567ffffffffffffffff8111156120d257600080fd5b6120de86828701611d42565b92505060406120ef86828701611bc9565b9150509250925092565b6000806040838503121561210c57600080fd5b60006121188585611db2565b925050602061204285828601611f87565b60006020828403121561213b57600080fd5b6000611fb08484611dc8565b60008060006060848603121561215c57600080fd5b833567ffffffffffffffff81111561217357600080fd5b61217f86828701611dd3565b935050602084013567ffffffffffffffff81111561219c57600080fd5b6121a886828701611dd3565b92505060406120ef86828701611db2565b600080604083850312156121cc57600080fd5b823567ffffffffffffffff8111156121e357600080fd5b61203185828601611e91565b60006121fb8383612226565b505060200190565b600061220f83836126a9565b505060800190565b61222081612af4565b82525050565b61222081612ac7565b600061223a82612ab5565b6122448185612ab9565b935061224f83612aaf565b8060005b8381101561227d57815161226788826121ef565b975061227283612aaf565b925050600101612253565b509495945050505050565b600061229382612ab5565b61229d8185612ab9565b93506122a883612aaf565b8060005b8381101561227d5781516122c08882612203565b97506122cb83612aaf565b9250506001016122ac565b61222081612ad2565b61222081610d0f565b60006122f382612ab5565b6122fd8185612ab9565b935061230d818560208601612b0b565b61231681612b37565b9093019392505050565b600061232b82612ab5565b6123358185612ac2565b9350612345818560208601612b0b565b9290920192915050565b600061235c602c83612ab9565b7f50726f706f73616c207374617475732063616e206f6e6c79206279207365742081526b313c9034ba399037bbb732b960a11b602082015260400192915050565b60006123aa603783612ab9565b7f70726f706f73616c2063616e206f6e6c792073746f726520706572737065637481527f69766573206f776e656420627920697473206f776e6572000000000000000000602082015260400192915050565b6000612409602a83612ab9565b7f68656164207570646174652065786563757465642070726f7065727479206d758152697374206265207a65726f60b01b602082015260400192915050565b6000612455602683612ab9565b7f4f776e61626c653a206e6577206f776e657220697320746865207a65726f206181526564647265737360d01b602082015260400192915050565b600061249d602c83612ab9565b7f50726f706f73616c2063616e206f6e6c7920627920617574686f72697a65642081526b313c9034ba399037bbb732b960a11b602082015260400192915050565b60006124eb601283612ab9565b711c1c9bdc1bdcd85b081b9bdd08199bdd5b9960721b815260200192915050565b6000612519601c83612ab9565b7f686561642075706461746520616c726561647920657865637574656400000000815260200192915050565b6000612552602283612ab9565b7f6d73672e73656e646572206e6f7420616e20617070726f766564206164647265815261737360f01b602082015260400192915050565b6000612596601683612ab9565b751c1c9bdc1bdcd85b08185b1c9958591e48195e1a5cdd60521b815260200192915050565b60006125c8602183612ab9565b7f536166654d6174683a206d756c7469706c69636174696f6e206f766572666c6f8152607760f81b602082015260400192915050565b600061260b601783612ab9565b7f50726f706f73616c206e6f7420617574686f72697a6564000000000000000000815260200192915050565b6000612644602083612ab9565b7f4f776e61626c653a2063616c6c6572206973206e6f7420746865206f776e6572815260200192915050565b600061267d601b83612ab9565b7f70726f706f73616c207374617475732069732064697361626c65640000000000815260200192915050565b805160808301906126ba84826122df565b5060208201516126cd60208501826122df565b5060408201516126e060408501826122df565b50606082015161078760608501826127c1565b80516101008084526000919084019061270c82826122e8565b9150506020830151848203602086015261272682826122e8565b915050604083015161273b6040860182612226565b50606083015161274e60608601826122df565b50608083015184820360808601526127668282612288565b91505060a083015184820360a0860152612780828261222f565b91505060c083015161279560c08601826127c1565b5060e08301516127a860e08601826127c1565b509392505050565b6122206127bc82610d0f565b610d0f565b61222081612aee565b60006127d68286612320565b91506127e28285612320565b91506127ee82846127b0565b506020019392505050565b602081016114a38284612217565b602081016114a38284612226565b608081016128238287612226565b6128306020830186612217565b61283d6040830185612226565b61284a60608301846122df565b95945050505050565b606081016128618286612226565b61286e6020830185612217565b611fb060408301846122df565b602081016114a382846122d6565b602081016114a382846122df565b608081016128a582876122df565b6128b260208301866122df565b6128bf60408301856122df565b61284a6060830184612226565b602080825281016118c281846122e8565b60c080825281016128ee81896122e8565b9050818103602083015261290281886122e8565b90506129116040830187612226565b61291e60608301866122df565b61292b60808301856127c1565b61293860a08301846127c1565b979650505050505050565b602080825281016114a38161234f565b602080825281016114a38161239d565b602080825281016114a3816123fc565b602080825281016114a381612448565b602080825281016114a381612490565b602080825281016114a3816124de565b602080825281016114a38161250c565b602080825281016114a381612545565b602080825281016114a381612589565b602080825281016114a3816125bb565b602080825281016114a3816125fe565b602080825281016114a381612637565b602080825281016114a381612670565b602080825281016118c281846126f3565b60408101612a3282856122df565b6118c260208301846122df565b60405181810167ffffffffffffffff81118282101715612a5e57600080fd5b604052919050565b600067ffffffffffffffff821115612a7d57600080fd5b5060209081020190565b600067ffffffffffffffff821115612a9e57600080fd5b506020601f91909101601f19160190565b60200190565b5190565b90815260200190565b919050565b60006114a382612ae2565b151590565b60006114a382612ac7565b6001600160a01b031690565b60ff1690565b60006114a382612ad7565b82818337506000910152565b60005b83811015612b26578181015183820152602001612b0e565b838111156107875750506000910152565b601f01601f191690565b612b4a81612ac7565b811461140a57600080fd5b612b4a81610d0f565b612b4a81612ad7565b612b4a81612aee56fea365627a7a723158205305d588477fccaa09778582daa7053e5a7c9ce83da9742f244c33d2356d992f6c6578706572696d656e74616cf564736f6c63430005100040",
  "source": "pragma solidity >=0.5.0 <0.6.0;\npragma experimental ABIEncoderV2;\n\nimport \"./UprtclRoot.sol\";\nimport \"./SafeMath.sol\";\n\ncontract UprtclProposals is Ownable {\n\n    using SafeMath for uint256;\n\n    struct HeadUpdate {\n        bytes32 perspectiveIdHash;\n        bytes32 headCid0;\n        bytes32 headCid1;\n        uint8 executed;\n    }\n\n    struct NewProposal {\n        string toPerspectiveId;\n        string fromPerspectiveId;\n        address owner;\n        uint256 nonce;\n        HeadUpdate[] headUpdates;\n        address[] approvedAddresses;\n    }\n\n    struct Proposal {\n        string toPerspectiveId;\n        string fromPerspectiveId;\n        address owner;\n        uint256 nonce;\n        HeadUpdate[] headUpdates;\n        address[] approvedAddresses;\n        uint8 status;\n        uint8 authorized;\n    }\n\n    struct OwnerFees {\n        uint256 fee;\n        uint256 balance;\n    }\n\n    mapping(bytes32 => Proposal) public proposals;\n    mapping(address => OwnerFees) public fees;\n    \n    uint256 public minFee;\n    uint256 public factor_num;\n    uint256 public factor_den;\n\n    UprtclRoot uprtclRoot;\n\n    event ProposalCreated(\n        bytes32 indexed toPerspectiveIdHash,\n        bytes32 indexed fromPerspectiveIdHash,\n        bytes32 indexed proposalId,\n        address creator\n    );\n\n    function setUprtclRoot(UprtclRoot _uprtclRoot) public onlyOwner {\n        uprtclRoot = _uprtclRoot;\n    }\n\n    function getProposalId(\n        string memory toPerspectiveId,\n        string memory fromPerspectiveId,\n        uint256 nonce\n    ) public pure returns (bytes32 proposalId) {\n        proposalId = keccak256(\n            abi.encodePacked(toPerspectiveId, fromPerspectiveId, nonce)\n        );\n    }\n\n    function setMinFee(uint256 _minFee) public onlyOwner {\n        minFee = _minFee;\n    }\n\n    function setFactorNum(uint256 _factor_num) public onlyOwner {\n        factor_num = _factor_num;\n    }\n\n    function setFactorDen(uint256 _factor_den) public onlyOwner {\n        factor_den = _factor_den;\n    }\n\n    function initProposal(\n        NewProposal memory newProposal,\n        address account\n    ) public {\n        \n        address perspOwner = uprtclRoot.getPerspectiveOwner(\n            uprtclRoot.getPerspectiveIdHash(newProposal.toPerspectiveId)\n        );\n        uint256 perspFee = fees[perspOwner].fee;\n\n        if (perspFee == 0) {\n            /** charge only min fee */\n            if (minFee > 0) {\n                uprtclRoot.consume(account, msg.sender, minFee);\n            }\n        } else {\n            /** charge fee and transfer to perspOwner, keep a fraction to us */\n            uint256 feeUprtcl = perspFee.mul(factor_num).div(factor_den);\n            uint256 feeOwner = perspFee.mul(factor_den.sub(factor_num)).div(factor_den);\n\n            uint256 feeUprtclActual = feeUprtcl;\n            if (feeUprtcl < minFee) {\n                feeUprtclActual = minFee;\n            }\n\n            uprtclRoot.transferTo(account, msg.sender, perspOwner, feeOwner);\n            uprtclRoot.consume(account, msg.sender, feeUprtclActual);\n        }\n\n        bytes32 proposalId = getProposalId(\n            newProposal.toPerspectiveId,\n            newProposal.fromPerspectiveId,\n            newProposal.nonce\n        );\n\n        /** make sure the proposal does not exist */\n        Proposal storage proposal = proposals[proposalId];\n        require(proposal.owner == address(0), \"proposal already exist\");\n\n        proposal.toPerspectiveId = newProposal.toPerspectiveId;\n        proposal.fromPerspectiveId = newProposal.fromPerspectiveId;\n        proposal.owner = newProposal.owner;\n        proposal.nonce = newProposal.nonce;\n        proposal.approvedAddresses = newProposal.approvedAddresses;\n        proposal.status = 1;\n        proposal.authorized = 0;\n\n        addUpdatesToProposal(proposalId, newProposal.headUpdates);\n\n        emit ProposalCreated(\n            uprtclRoot.getPerspectiveIdHash(newProposal.toPerspectiveId),\n            uprtclRoot.getPerspectiveIdHash(newProposal.fromPerspectiveId),\n            proposalId,\n            msg.sender\n        );\n    }\n\n    function isApproved(Proposal memory proposal, address value)\n        private\n        pure\n        returns (uint8 approved)\n    {\n\t\tif (proposal.approvedAddresses.length == 0) {\n\t\t\tapproved = 1;\n\t\t\treturn approved;\n\t\t}\n\n        for (uint32 ix = 0; ix < proposal.approvedAddresses.length; ix++) {\n            if (value == proposal.approvedAddresses[ix]) {\n                approved = 1;\n                return approved;\n            }\n        }\n        approved = 0;\n    }\n\n    /** Add one or more headUpdate elements to an existing proposal */\n    function addUpdatesToProposal(\n        bytes32 proposalId,\n        HeadUpdate[] memory headUpdates\n    ) public {\n        Proposal storage proposal = proposals[proposalId];\n\n        /** make sure the proposal is open for new elements */\n        require(proposal.owner != address(0), \"proposal not found\");\n        require(proposal.status != 0, \"proposal status is disabled\");\n        require(\n            isApproved(proposal, msg.sender) > 0,\n            \"msg.sender not an approved address\"\n        );\n\n        for (uint8 ix = 0; ix < headUpdates.length; ix++) {\n            HeadUpdate memory headUpdate = headUpdates[ix];\n            require(\n                headUpdate.executed == 0,\n                \"head update executed property must be zero\"\n            );\n            require(\n                uprtclRoot.getPerspectiveOwner(headUpdate.perspectiveIdHash) == proposal.owner,\n                \"proposal can only store perspectives owned by its owner\"\n            );\n            proposal.headUpdates.push(headUpdate);\n        }\n    }\n\n    function setProposalStatus(bytes32 proposalId, uint8 status) public {\n        Proposal storage proposal = proposals[proposalId];\n        require(\n            msg.sender == proposal.owner,\n            \"Proposal status can only by set by its owner\"\n        );\n        proposal.status = status;\n    }\n\n    function setProposalAuthorized(bytes32 proposalId, uint8 authorized) public {\n        Proposal storage proposal = proposals[proposalId];\n        require(\n            msg.sender == proposal.owner,\n            \"Proposal can only by authorized by its owner\"\n        );\n        /** by default the proposal is closed once it is authorized. */\n        if (authorized > 0) proposal.status = 0;\n        proposal.authorized = authorized;\n    }\n\n    function executeProposal(bytes32 proposalId, address account) public {\n        Proposal storage proposal = proposals[proposalId];\n\n        /** Check the msg.sender is an approved address */\n        require(\n            isApproved(proposal, msg.sender) > 0,\n            \"msg.sender not an approved address\"\n        );\n\n        uint256[] memory indexes = new uint256[](proposal.headUpdates.length);\n        for (uint256 ix = 0; ix < proposal.headUpdates.length; ix++) {\n            indexes[ix] = ix;\n        }\n\n        executeProposalPartiallyInternal(proposalId, indexes, msg.sender, account);\n    }\n\n    function executeProposalPartially(\n        bytes32 proposalId,\n        uint256[] memory indexes,\n        address account\n    ) public {\n        executeProposalPartiallyInternal(proposalId, indexes, msg.sender, account);\n    }\n\n    function executeProposalPartiallyInternal(\n        bytes32 proposalId,\n        uint256[] memory indexes,\n        address msgSender,\n        address account\n    ) private {\n        Proposal storage proposal = proposals[proposalId];\n        require(proposal.authorized != 0, \"Proposal not authorized\");\n\n        require(\n            isApproved(proposal, msgSender) > 0,\n            \"msg.sender not an approved address\"\n        );\n\n        for (uint256 ix = 0; ix < indexes.length; ix++) {\n            HeadUpdate storage headUpdate = proposal.headUpdates[indexes[ix]];\n\n            require(headUpdate.executed == 0, \"head update already executed\");\n            headUpdate.executed = 1;\n\n            uprtclRoot.updateHead(headUpdate.perspectiveIdHash, headUpdate.headCid0, headUpdate.headCid1, account);\n        }\n    }\n\n    function getProposal(bytes32 proposalId)\n        public\n        view\n        returns (Proposal memory proposal)\n    {\n        return (proposals[proposalId]);\n    }\n}\n",
  "sourcePath": "/home/pepo/pr/uprtcl/eth-uprtcl/contracts/UprtclProposals.sol",
  "compiler": {
    "name": "solc",
    "version": "0.5.16+commit.9c3226ce.Emscripten.clang"
  },
  "schemaVersion": "3.0.11",
  "updatedAt": "2020-02-28T17:15:41.503Z",
  "devdoc": {
    "methods": {
      "isOwner()": {
        "details": "Returns true if the caller is the current owner."
      },
      "owner()": {
        "details": "Returns the address of the current owner."
      },
      "renounceOwnership()": {
        "details": "Leaves the contract without owner. It will not be possible to call `onlyOwner` functions anymore. Can only be called by the current owner.     * NOTE: Renouncing ownership will leave the contract without an owner, thereby removing any functionality that is only available to the owner."
      },
      "transferOwnership(address)": {
        "details": "Transfers ownership of the contract to a new account (`newOwner`). Can only be called by the current owner."
      }
    }
  },
  "userdoc": {
    "methods": {
      "addUpdatesToProposal(bytes32,(bytes32,bytes32,bytes32,uint8)[])": {
        "notice": "Add one or more headUpdate elements to an existing proposal "
      }
    }
  }
}