{
  "contractName": "Uprtcl",
  "abi": [
    {
      "constant": true,
      "inputs": [
        {
          "name": "",
          "type": "bytes32"
        }
      ],
      "name": "perspectives",
      "outputs": [
        {
          "name": "owner",
          "type": "address"
        },
        {
          "name": "headId",
          "type": "string"
        }
      ],
      "payable": false,
      "stateMutability": "view",
      "type": "function"
    },
    {
      "constant": true,
      "inputs": [
        {
          "name": "",
          "type": "bytes32"
        }
      ],
      "name": "batches",
      "outputs": [
        {
          "name": "owner",
          "type": "address"
        },
        {
          "name": "status",
          "type": "uint8"
        },
        {
          "name": "authorized",
          "type": "uint8"
        }
      ],
      "payable": false,
      "stateMutability": "view",
      "type": "function"
    },
    {
      "anonymous": false,
      "inputs": [
        {
          "indexed": true,
          "name": "perspectiveIdHash",
          "type": "bytes32"
        },
        {
          "indexed": true,
          "name": "contextHash",
          "type": "bytes32"
        },
        {
          "indexed": false,
          "name": "head",
          "type": "string"
        },
        {
          "indexed": false,
          "name": "owner",
          "type": "address"
        },
        {
          "indexed": false,
          "name": "perspectiveId",
          "type": "string"
        }
      ],
      "name": "PerspectiveAdded",
      "type": "event"
    },
    {
      "anonymous": false,
      "inputs": [
        {
          "indexed": true,
          "name": "perspectiveIdHash",
          "type": "bytes32"
        },
        {
          "indexed": false,
          "name": "author",
          "type": "address"
        },
        {
          "indexed": false,
          "name": "previousHeadId",
          "type": "string"
        },
        {
          "indexed": false,
          "name": "newHeadId",
          "type": "string"
        }
      ],
      "name": "PerspectiveHeadUpdated",
      "type": "event"
    },
    {
      "anonymous": false,
      "inputs": [
        {
          "indexed": true,
          "name": "perspectiveIdHash",
          "type": "bytes32"
        },
        {
          "indexed": false,
          "name": "newOwner",
          "type": "address"
        },
        {
          "indexed": false,
          "name": "previousOwner",
          "type": "address"
        }
      ],
      "name": "PerspectiveOwnerUpdated",
      "type": "event"
    },
    {
      "anonymous": false,
      "inputs": [
        {
          "indexed": true,
          "name": "batchId",
          "type": "bytes32"
        },
        {
          "indexed": true,
          "name": "owner",
          "type": "address"
        },
        {
          "indexed": false,
          "name": "nonce",
          "type": "uint32"
        }
      ],
      "name": "BatchCreated",
      "type": "event"
    },
    {
      "anonymous": false,
      "inputs": [
        {
          "indexed": true,
          "name": "batchId",
          "type": "bytes32"
        }
      ],
      "name": "AddedUpdatesToBatch",
      "type": "event"
    },
    {
      "constant": false,
      "inputs": [
        {
          "name": "perspectiveIdHash",
          "type": "bytes32"
        },
        {
          "name": "contextHash",
          "type": "bytes32"
        },
        {
          "name": "head",
          "type": "string"
        },
        {
          "name": "owner",
          "type": "address"
        },
        {
          "name": "perspectiveId",
          "type": "string"
        }
      ],
      "name": "addPerspective",
      "outputs": [],
      "payable": false,
      "stateMutability": "nonpayable",
      "type": "function"
    },
    {
      "constant": false,
      "inputs": [
        {
          "name": "perspectiveIdHash",
          "type": "bytes32"
        },
        {
          "name": "newOwner",
          "type": "address"
        }
      ],
      "name": "changeOwner",
      "outputs": [],
      "payable": false,
      "stateMutability": "nonpayable",
      "type": "function"
    },
    {
      "constant": true,
      "inputs": [
        {
          "name": "perspectiveIdHash",
          "type": "bytes32"
        }
      ],
      "name": "getPerspective",
      "outputs": [
        {
          "name": "owner",
          "type": "address"
        },
        {
          "name": "headId",
          "type": "string"
        }
      ],
      "payable": false,
      "stateMutability": "view",
      "type": "function"
    },
    {
      "constant": false,
      "inputs": [
        {
          "components": [
            {
              "name": "perspectiveIdHash",
              "type": "bytes32"
            },
            {
              "name": "headId",
              "type": "string"
            },
            {
              "name": "executed",
              "type": "uint8"
            }
          ],
          "name": "headUpdates",
          "type": "tuple[]"
        }
      ],
      "name": "updateHeads",
      "outputs": [],
      "payable": false,
      "stateMutability": "nonpayable",
      "type": "function"
    },
    {
      "constant": false,
      "inputs": [
        {
          "name": "owner",
          "type": "address"
        },
        {
          "name": "nonce",
          "type": "uint32"
        },
        {
          "components": [
            {
              "name": "perspectiveIdHash",
              "type": "bytes32"
            },
            {
              "name": "headId",
              "type": "string"
            },
            {
              "name": "executed",
              "type": "uint8"
            }
          ],
          "name": "headUpdates",
          "type": "tuple[]"
        },
        {
          "name": "approvedAddresses",
          "type": "address[]"
        }
      ],
      "name": "initBatch",
      "outputs": [],
      "payable": false,
      "stateMutability": "nonpayable",
      "type": "function"
    },
    {
      "constant": false,
      "inputs": [
        {
          "name": "batchId",
          "type": "bytes32"
        },
        {
          "components": [
            {
              "name": "perspectiveIdHash",
              "type": "bytes32"
            },
            {
              "name": "headId",
              "type": "string"
            },
            {
              "name": "executed",
              "type": "uint8"
            }
          ],
          "name": "headUpdates",
          "type": "tuple[]"
        }
      ],
      "name": "addUpdatesToBatch",
      "outputs": [],
      "payable": false,
      "stateMutability": "nonpayable",
      "type": "function"
    },
    {
      "constant": false,
      "inputs": [
        {
          "name": "batchId",
          "type": "bytes32"
        },
        {
          "name": "authorized",
          "type": "uint8"
        }
      ],
      "name": "setBatchAuthorized",
      "outputs": [],
      "payable": false,
      "stateMutability": "nonpayable",
      "type": "function"
    },
    {
      "constant": false,
      "inputs": [
        {
          "name": "batchId",
          "type": "bytes32"
        },
        {
          "name": "status",
          "type": "uint8"
        }
      ],
      "name": "setBatchStatus",
      "outputs": [],
      "payable": false,
      "stateMutability": "nonpayable",
      "type": "function"
    },
    {
      "constant": false,
      "inputs": [
        {
          "name": "batchId",
          "type": "bytes32"
        }
      ],
      "name": "executeBatch",
      "outputs": [],
      "payable": false,
      "stateMutability": "nonpayable",
      "type": "function"
    },
    {
      "constant": false,
      "inputs": [
        {
          "name": "batchId",
          "type": "bytes32"
        },
        {
          "name": "indexes",
          "type": "uint256[]"
        }
      ],
      "name": "executeBatchPartially",
      "outputs": [],
      "payable": false,
      "stateMutability": "nonpayable",
      "type": "function"
    },
    {
      "constant": true,
      "inputs": [
        {
          "name": "batchId",
          "type": "bytes32"
        }
      ],
      "name": "getBatch",
      "outputs": [
        {
          "components": [
            {
              "components": [
                {
                  "name": "perspectiveIdHash",
                  "type": "bytes32"
                },
                {
                  "name": "headId",
                  "type": "string"
                },
                {
                  "name": "executed",
                  "type": "uint8"
                }
              ],
              "name": "headUpdates",
              "type": "tuple[]"
            },
            {
              "name": "owner",
              "type": "address"
            },
            {
              "name": "approvedAddresses",
              "type": "address[]"
            },
            {
              "name": "status",
              "type": "uint8"
            },
            {
              "name": "authorized",
              "type": "uint8"
            }
          ],
          "name": "batch",
          "type": "tuple"
        }
      ],
      "payable": false,
      "stateMutability": "view",
      "type": "function"
    }
  ],
  "bytecode": "0x608060405234801561001057600080fd5b50612093806100206000396000f3fe6080604052600436106100c45763ffffffff7c0100000000000000000000000000000000000000000000000000000000600035041663133075d281146100c95780631ff3423d146101005780632328df24146101225780632e8aa703146101425780635d6e62b2146101625780637013049414610182578063810d40e8146101a257806384a8e49f146101c25780638a62fe45146101e2578063b92d30dc14610202578063c81e25ab14610222578063d3a5b10714610251578063ed42136f14610271575b600080fd5b3480156100d557600080fd5b506100e96100e4366004611626565b61029e565b6040516100f7929190611de1565b60405180910390f35b34801561010c57600080fd5b5061012061011b3660046117b3565b61037d565b005b34801561012e57600080fd5b5061012061013d3660046115e9565b6103dd565b34801561014e57600080fd5b5061012061015d36600461167e565b610471565b34801561016e57600080fd5b5061012061017d366004611626565b610665565b34801561018e57600080fd5b5061012061019d36600461170e565b6107c2565b3480156101ae57600080fd5b506101206101bd3660046117b3565b610921565b3480156101ce57600080fd5b506101206101dd366004611558565b61097f565b3480156101ee57600080fd5b506101206101fd3660046116c6565b610ac7565b34801561020e57600080fd5b506100e961021d366004611626565b610cb1565b34801561022e57600080fd5b5061024261023d366004611626565b610d62565b6040516100f793929190611e01565b34801561025d57600080fd5b5061012061026c366004611644565b610d98565b34801561027d57600080fd5b5061029161028c366004611626565b610e42565b6040516100f79190611f41565b600060606102aa6110fc565b60008481526020818152604091829020825180840184528154600160a060020a03168152600180830180548651600261010094831615949094026000190190911692909204601f810186900486028301860190965285825291949293858101939192919083018282801561035f5780601f106103345761010080835404028352916020019161035f565b820191906000526020600020905b81548152906001019060200180831161034257829003601f168201915b50505091909252505081516020909201519194509092505050915091565b600082815260016020819052604090912090810154600160a060020a031633146103c55760405160e560020a62461bcd0281526004016103bc90611f21565b60405180910390fd5b600301805460ff191660ff9290921691909117905550565b60005b81518160ff16101561046d576103f4611114565b828260ff1681518110151561040557fe5b60209081029190910181015180516000908152918290526040909120805491925090600160a060020a031633146104515760405160e560020a62461bcd0281526004016103bc90611ef1565b6104638260000151836020015161100c565b50506001016103e0565b5050565b6000828152600160205260409020600381015460ff1615156104a85760405160e560020a62461bcd0281526004016103bc90611f31565b33301461052d576000805b600283015463ffffffff821610156105045760028301805463ffffffff83169081106104db57fe5b600091825260209091200154600160a060020a03163314156104fc57600191505b6001016104b3565b50600060ff82161161052b5760405160e560020a62461bcd0281526004016103bc90611ec1565b505b60005b82518160ff16101561063457610544611114565b838260ff1681518110151561055557fe5b60209081029091010151604081015190915060ff161561058a5760405160e560020a62461bcd0281526004016103bc90611e91565b8051600090815260208190526040902060018401548154600160a060020a039081169116146105ce5760405160e560020a62461bcd0281526004016103bc90611ed1565b835460018181018087556000878152602090819020865160039095020193845580860151805192948794909361060b939185019290910190611136565b50604091909101516002909101805460ff191660ff909216919091179055505050600101610530565b5060405183907f5c6c575a7c13733a1bba77b2d4f4a5e8c8defec625ab8a7c8ad94fb9d8291fd790600090a2505050565b600081815260016020526040812090805b600283015463ffffffff821610156106c75760028301805463ffffffff831690811061069e57fe5b600091825260209091200154600160a060020a03163314156106bf57600191505b600101610676565b50600060ff8216116106ee5760405160e560020a62461bcd0281526004016103bc90611ec1565b8154604080518281526020808402820101909152606091801561071b578160200160208202803883390190505b50905060005b835481101561074b5780828281518110151561073957fe5b60209081029091010152600101610721565b506040517f8a62fe450000000000000000000000000000000000000000000000000000000081523090638a62fe459061078a9087908590600401611e29565b600060405180830381600087803b1580156107a457600080fd5b505af11580156107b8573d6000803e3d6000fd5b5050505050505050565b6000858152602081905260409020600160a060020a03831615156107fb5760405160e560020a62461bcd0281526004016103bc90611ea1565b8054600160a060020a0316156108265760405160e560020a62461bcd0281526004016103bc90611e7b565b805473ffffffffffffffffffffffffffffffffffffffff1916600160a060020a03841617815583516108619060018301906020870190611136565b5060008681526020819052604090208154815473ffffffffffffffffffffffffffffffffffffffff1916600160a060020a03909116178155600180830180548493926108c7928185019290916002600019918316156101000291909101909116046111b4565b5050815460405187925088917f5bf81d9123c74aaa380e3baec6db8c37513f385ce8f486b1fef9fffd156e4c6291610911916001870191600160a060020a03909116908890611e49565b60405180910390a3505050505050565b600082815260016020819052604090912090810154600160a060020a031633146109605760405160e560020a62461bcd0281526004016103bc90611ee1565b600301805460ff929092166101000261ffff1990921691909117905550565b604080516c0100000000000000000000000033026020808301919091527c010000000000000000000000000000000000000000000000000000000063ffffffff871602603483015282516018818403018152603890920183528151918101919091206000818152600192839052929092200154600160a060020a031615610a1b5760405160e560020a62461bcd0281526004016103bc90611f01565b6000818152600160208181526040909220908101805473ffffffffffffffffffffffffffffffffffffffff1916600160a060020a03891617905583519091610a6a916002840191860190611229565b5060038101805460ff19166001179055610a848285610471565b6001810154604051600160a060020a039091169083907fa1e760072eb5baba4c0342242f06860e36ac55ee01e1d0fcc8c6459f10e4439290610911908990611f52565b60008281526001602052604090206003810154610100900460ff161515610b035760405160e560020a62461bcd0281526004016103bc90611f11565b333014610b88576000805b600283015463ffffffff82161015610b5f5760028301805463ffffffff8316908110610b3657fe5b600091825260209091200154600160a060020a0316331415610b5757600191505b600101610b0e565b50600060ff821611610b865760405160e560020a62461bcd0281526004016103bc90611ec1565b505b60005b8251811015610cab576000826000018483815181101515610ba857fe5b6020908102909101015181548110610bbc57fe5b60009182526020909120600390910201600281015490915060ff1615610bf75760405160e560020a62461bcd0281526004016103bc90611eb1565b6002808201805460ff1916600190811790915582548382018054604080516020601f600019978516156101000297909701909316969096049485018290048202860182019052838552610ca294929390830182828015610c985780601f10610c6d57610100808354040283529160200191610c98565b820191906000526020600020905b815481529060010190602001808311610c7b57829003601f168201915b505050505061100c565b50600101610b8b565b50505050565b600060208181529181526040908190208054600180830180548551600261010094831615949094026000190190911692909204601f8101879004870283018701909552848252600160a060020a039092169492939092830182828015610d585780601f10610d2d57610100808354040283529160200191610d58565b820191906000526020600020905b815481529060010190602001808311610d3b57829003601f168201915b5050505050905082565b600160208190526000918252604090912090810154600390910154600160a060020a039091169060ff8082169161010090041683565b60008281526020819052604090208054600160a060020a03163314610dd25760405160e560020a62461bcd0281526004016103bc90611ef1565b8054600160a060020a0383811673ffffffffffffffffffffffffffffffffffffffff198316178084556040519282169286927f4d2778d25f224a7981314f90e4cf321a226f16d8b8a31ea04a6f191e88151b6892610e34929116908590611dc6565b60405180910390a250505050565b610e4a611297565b60008281526001602090815260408083208151815460c09481028201850190935260a08101838152909491938593919285929185015b82821015610f6f57838290600052602060002090600302016060604051908101604052908160008201548152602001600182018054600181600116156101000203166002900480601f016020809104026020016040519081016040528092919081815260200182805460018160011615610100020316600290048015610f475780601f10610f1c57610100808354040283529160200191610f47565b820191906000526020600020905b815481529060010190602001808311610f2a57829003601f168201915b50505091835250506002919091015460ff166020918201529082526001929092019101610e80565b505050908252506001820154600160a060020a03166020808301919091526002830180546040805182850281018501825282815294019392830182828015610fe057602002820191906000526020600020905b8154600160a060020a03168152600190910190602001808311610fc2575b50505091835250506003919091015460ff80821660208401526101009091041660409091015292915050565b60008281526020818152604091829020600180820180548551600293821615610100026000190190911692909204601f810185900485028301850190955284825291936060939192918301828280156110a65780601f1061107b576101008083540402835291602001916110a6565b820191906000526020600020905b81548152906001019060200180831161108957829003601f168201915b505086519394506110c4936001870193506020880192509050611136565b50837f77be61219b420fd0b111842a19b94a83a18c098de15583905c239ced157942de338385600101604051610e3493929190611d89565b60408051808201909152600081526060602082015290565b6040805160608181018352600080835260208301919091529181019190915290565b828054600181600116156101000203166002900490600052602060002090601f016020900481019282601f1061117757805160ff19168380011785556111a4565b828001600101855582156111a4579182015b828111156111a4578251825591602001919060010190611189565b506111b09291506112c5565b5090565b828054600181600116156101000203166002900490600052602060002090601f016020900481019282601f106111ed57805485556111a4565b828001600101855582156111a457600052602060002091601f016020900482015b828111156111a457825482559160010191906001019061120e565b82805482825590600052602060002090810192821561128b579160200282015b8281111561128b578251825473ffffffffffffffffffffffffffffffffffffffff1916600160a060020a03909116178255602090920191600190910190611249565b506111b09291506112e2565b6040805160a08101825260608082526000602083018190529282018190528101829052608081019190915290565b6112df91905b808211156111b057600081556001016112cb565b90565b6112df91905b808211156111b057805473ffffffffffffffffffffffffffffffffffffffff191681556001016112e8565b600061131f8235611fe6565b9392505050565b6000601f8201831361133757600080fd5b813561134a61134582611f87565b611f60565b9150818183526020840193506020810190508385602084028201111561136f57600080fd5b60005b8381101561139b57816113858882611313565b8452506020928301929190910190600101611372565b5050505092915050565b6000601f820183136113b657600080fd5b81356113c461134582611f87565b81815260209384019390925082018360005b8381101561139b57813586016113ec88826114cd565b84525060209283019291909101906001016113d6565b6000601f8201831361141357600080fd5b813561142161134582611f87565b9150818183526020840193506020810190508385602084028201111561144657600080fd5b60005b8381101561139b578161145c8882611472565b8452506020928301929190910190600101611449565b600061131f82356112df565b6000601f8201831361148f57600080fd5b813561149d61134582611fa8565b915080825260208301602083018583830111156114b957600080fd5b6114c4838284612017565b50505092915050565b6000606082840312156114df57600080fd5b6114e96060611f60565b905060006114f78484611472565b825250602082013567ffffffffffffffff81111561151457600080fd5b6115208482850161147e565b60208301525060406115348482850161154c565b60408301525092915050565b600061131f8235611ff7565b600061131f8235612000565b6000806000806080858703121561156e57600080fd5b600061157a8787611313565b945050602061158b87828801611540565b935050604085013567ffffffffffffffff8111156115a857600080fd5b6115b4878288016113a5565b925050606085013567ffffffffffffffff8111156115d157600080fd5b6115dd87828801611326565b91505092959194509250565b6000602082840312156115fb57600080fd5b813567ffffffffffffffff81111561161257600080fd5b61161e848285016113a5565b949350505050565b60006020828403121561163857600080fd5b600061161e8484611472565b6000806040838503121561165757600080fd5b60006116638585611472565b925050602061167485828601611313565b9150509250929050565b6000806040838503121561169157600080fd5b600061169d8585611472565b925050602083013567ffffffffffffffff8111156116ba57600080fd5b611674858286016113a5565b600080604083850312156116d957600080fd5b60006116e58585611472565b925050602083013567ffffffffffffffff81111561170257600080fd5b61167485828601611402565b600080600080600060a0868803121561172657600080fd5b60006117328888611472565b955050602061174388828901611472565b945050604086013567ffffffffffffffff81111561176057600080fd5b61176c8882890161147e565b935050606061177d88828901611313565b925050608086013567ffffffffffffffff81111561179a57600080fd5b6117a68882890161147e565b9150509295509295909350565b600080604083850312156117c657600080fd5b60006117d28585611472565b92505060206116748582860161154c565b6117ec81612006565b82525050565b6117ec81611fe6565b600061180682611fe2565b80845260208401935061181883611fd0565b60005b828110156118485761182e8683516117f2565b61183782611fd0565b60209690960195915060010161181b565b5093949350505050565b600061185d82611fe2565b8084526020840193508360208202850161187685611fd0565b60005b848110156118ad578383038852611891838351611d36565b925061189c82611fd0565b602098909801979150600101611879565b50909695505050505050565b60006118c482611fe2565b8084526020840193506118d683611fd0565b60005b82811015611848576118ec868351611906565b6118f582611fd0565b6020969096019591506001016118d9565b6117ec816112df565b600061191a82611fe2565b80845261192e816020860160208601612023565b6119378161204f565b9093016020019392505050565b600081546001811660008114611961576001811461197f576119bb565b60028204607f16855260ff19821660208601526040850192506119bb565b6002820480865260208601955061199585611fd6565b60005b828110156119b457815488820152600190910190602001611998565b8701945050505b505092915050565b601481527f6578697374696e67207065727370656374697665000000000000000000000000602082015260400190565b602a81527f68656164207570646174652065786563757465642070726f7065727479206d7560208201527f7374206265207a65726f00000000000000000000000000000000000000000000604082015260600190565b601381527f6f776e65722063616e7420626520656d70747900000000000000000000000000602082015260400190565b601c81527f686561642075706461746520616c726561647920657865637574656400000000602082015260400190565b602281527f6d73672e73656e646572206e6f7420616e20617070726f76656420616464726560208201527f7373000000000000000000000000000000000000000000000000000000000000604082015260600190565b603481527f42617463682063616e206f6e6c792073746f726520706572737065637469766560208201527f73206f776e657220627920697473206f776e6572000000000000000000000000604082015260600190565b602881527f42617463682063616e206f6e6c79206279206174686f72697a6564206279206960208201527f7473206f776e6572000000000000000000000000000000000000000000000000604082015260600190565b601381527f756e617574686f72697a65642061636365737300000000000000000000000000602082015260400190565b601381527f626174636820616c726561647920657869737400000000000000000000000000602082015260400190565b601481527f4261746368206e6f7420617574686f72697a6564000000000000000000000000602082015260400190565b602981527f4261746368207374617475732063616e206f6e6c79206279207365742062792060208201527f697473206f776e65720000000000000000000000000000000000000000000000604082015260600190565b601881527f4261746368207374617475732069732064697361626c65640000000000000000602082015260400190565b805160a080845260009190840190611cd98282611852565b9150506020830151611cee60208601826117f2565b5060408301518482036040860152611d0682826117fb565b9150506060830151611d1b6060860182611d80565b506080830151611d2e6080860182611d80565b509392505050565b80516000906060840190611d4a8582611906565b5060208301518482036020860152611d62828261190f565b9150506040830151611d2e6040860182611d80565b6117ec81611ff7565b6117ec81612000565b60608101611d9782866117e3565b8181036020830152611da9818561190f565b90508181036040830152611dbd8184611944565b95945050505050565b60408101611dd482856117f2565b61131f60208301846117f2565b60408101611def82856117f2565b818103602083015261161e818461190f565b60608101611e0f82866117f2565b611e1c6020830185611d80565b61161e6040830184611d80565b60408101611e378285611906565b818103602083015261161e81846118b9565b60608082528101611e5a8186611944565b9050611e6960208301856117f2565b8181036040830152611dbd818461190f565b60208082528101611e8b816119c3565b92915050565b60208082528101611e8b816119f3565b60208082528101611e8b81611a49565b60208082528101611e8b81611a79565b60208082528101611e8b81611aa9565b60208082528101611e8b81611aff565b60208082528101611e8b81611b55565b60208082528101611e8b81611bab565b60208082528101611e8b81611bdb565b60208082528101611e8b81611c0b565b60208082528101611e8b81611c3b565b60208082528101611e8b81611c91565b6020808252810161131f8184611cc1565b60208101611e8b8284611d77565b60405181810167ffffffffffffffff81118282101715611f7f57600080fd5b604052919050565b600067ffffffffffffffff821115611f9e57600080fd5b5060209081020190565b600067ffffffffffffffff821115611fbf57600080fd5b506020601f91909101601f19160190565b60200190565b60009081526020902090565b5190565b6000600160a060020a038216611e8b565b63ffffffff1690565b60ff1690565b6000611e8b826000611e8b82611fe6565b82818337506000910152565b60005b8381101561203e578181015183820152602001612026565b83811115610cab5750506000910152565b601f01601f19169056fea265627a7a7230582036181d1690f48df5089a08b095ec3b90b5a1ec8c37c4e666dc68e69ddbc4d44c6c6578706572696d656e74616cf50037",
  "source": "pragma solidity >=0.4.25 <0.6.0;\npragma experimental ABIEncoderV2;\n\n/** Underscore Protocol Ethereum Service used to store the content of\n* _Prtcl perspectives */\ncontract Uprtcl {\n\n\tstruct Perspective {\n\t\taddress owner;\n\t\tstring headId;\n\t}\n\n\tstruct HeadUpdate {\n\t\tbytes32 perspectiveIdHash;\n\t\tstring headId;\n\t\tuint8 executed;\n\t}\n\n\tstruct Batch {\n\n\t\t/** Approved addresses can add new HeadUpdate elements to this\n\t\tlist as long as they are all from the same owner and this owner is\n\t\tthe same as the one of existing HeadUpdates. */\n\t\tHeadUpdate[] headUpdates;\n\n\t\t/** store the owner of this batch. All perspectives in the headUpdates\n\t\tmust be owner by this owner. */\n\t\taddress owner;\n\n\t\taddress[] approvedAddresses;\n\n\t\t/** Status of the batch. New headUpdates can be added by approved\n\t\taddreses as long as status != 0. */\n\t\tuint8 status;\n\n\t\t/** Authorizing the batch lets anyone run one or more of\n\t\tthe head updates in the batch in any order. It can only be called\n\t\tby the owner of all the perspectives in the batch. */\n\t\tuint8 authorized;\n\t}\n\n\tmapping (bytes32 => Perspective) public perspectives;\n\tmapping (bytes32 => Batch) public batches;\n\n\tevent PerspectiveAdded(\n\t\tbytes32 indexed perspectiveIdHash,\n\t\tbytes32 indexed contextHash,\n\t\tstring head,\n\t\taddress owner,\n\t\tstring perspectiveId);\n\n\tevent PerspectiveHeadUpdated(\n\t\tbytes32 indexed perspectiveIdHash,\n\t\taddress author,\n\t\tstring previousHeadId,\n\t\tstring newHeadId);\n\n\tevent PerspectiveOwnerUpdated(\n\t\tbytes32 indexed perspectiveIdHash,\n\t\taddress newOwner,\n\t\taddress previousOwner);\n\n\tevent BatchCreated(\n\t\tbytes32 indexed batchId,\n\t\taddress indexed owner,\n\t\tuint32 nonce);\n\n\tevent AddedUpdatesToBatch(\n\t\tbytes32 indexed batchId);\n\n\t/** Adds a new perspective to the mapping and sets the owner. The head pointer is initialized as null and should\n\t *  be updated independently using updateHead(). The contextHash is not persisted but emited in the PerspectiveAdded\n\t *  event to enable filtering. Validation of the perspectiveId to contextHash should be done externally using any\n\t * \tcontent addressable\tstorage solution for the perspectiveId. The perspectiveId is emited to help perspectiveHash\n\t *  reverse mapping */\n\tfunction addPerspective(\n\t\tbytes32 perspectiveIdHash,\n\t\tbytes32 contextHash,\n\t\tstring memory head,\n\t\taddress owner,\n\t\tstring memory perspectiveId) /** LSB */\n\t\tpublic {\n\n\t\tPerspective storage perspective = perspectives[perspectiveIdHash];\n\t\trequire(address(0) != owner, \"owner cant be empty\");\n\t\trequire(address(0) == perspective.owner, \"existing perspective\");\n\n\t\tperspective.owner = owner;\n\t\tperspective.headId = head;\n\n\t\tperspectives[perspectiveIdHash] = perspective;\n\n\t\temit PerspectiveAdded(\n\t\t\tperspectiveIdHash,\n\t\t\tcontextHash,\n\t\t\tperspective.headId,\n\t\t\tperspective.owner,\n\t\t\tperspectiveId);\n\t}\n\n\t/** internal function that updates the head pointer of a given perspective. It dont\n\t\tcheck the owner to let the batch functionality do it. Its internal\n\t\tso user should use updateHeads instead. */\n\tfunction updateHead(\n\t\tbytes32 perspectiveIdHash,\n\t\tstring memory newHead) internal {\n\n\t\tPerspective storage perspective = perspectives[perspectiveIdHash];\n\n\t\tstring memory parentHead = perspective.headId;\n\t\tperspective.headId = newHead;\n\n\t\temit PerspectiveHeadUpdated(\n\t\t\tperspectiveIdHash,\n\t\t\tmsg.sender,\n\t\t\tparentHead,\n\t\t\tperspective.headId);\n\t}\n\n\t/** Changes the owner of a given perspective. Available only to the current owner of that perspective. */\n\tfunction changeOwner(bytes32 perspectiveIdHash, address newOwner) public {\n\n    \tPerspective storage perspective = perspectives[perspectiveIdHash];\n\t\trequire(msg.sender == perspective.owner, \"unauthorized access\");\n\n    \taddress previousOwner = perspective.owner;\n\t\tperspective.owner = newOwner;\n\n\t\temit PerspectiveOwnerUpdated(perspectiveIdHash, perspective.owner, previousOwner);\n\t}\n\n\t/** Get the perspective owner and head from its ID */\n\tfunction getPerspective(bytes32 perspectiveIdHash)\n\t\tpublic view\n\t\treturns(\n\t\t\taddress owner,\n\t\t\tstring memory headId) {\n\n\t\tPerspective memory perspective = perspectives[perspectiveIdHash];\n\n\t\treturn (\n\t\t\tperspective.owner,\n\t\t\tperspective.headId);\n\t}\n\n\t/** One method to execute the head updates directly, without creating the batch. Useful\n\t\tif the owner dont want to use the batch authorization feature.\n\t\tIt also works for updating one single perspective */\n\tfunction updateHeads(HeadUpdate[] memory headUpdates) public {\n\t\tfor (uint8 ix = 0; ix < headUpdates.length; ix++) {\n\t\t\tHeadUpdate memory headUpdate = headUpdates[ix];\n\n\t\t\t/** Check the msg.sender is the owner */\n\t\t\tPerspective storage perspective = perspectives[headUpdate.perspectiveIdHash];\n\t\t\trequire(msg.sender == perspective.owner, \"unauthorized access\");\n\n\t\t\t/** Update the head */\n\t\t\tupdateHead(headUpdate.perspectiveIdHash, headUpdate.headId);\n\t\t}\n\t}\n\n\t/** Creates a new batch owned and initialize its properties.\n\t\tThe id of the batch is derived from the message sender to prevent frontrunning attacks. */\n\tfunction initBatch(\n\t\taddress owner,\n\t\tuint32 nonce,\n\t\tHeadUpdate[] memory headUpdates,\n\t\taddress[] memory approvedAddresses) public {\n\n\t\tbytes32 batchId = keccak256(abi.encodePacked(msg.sender, nonce));\n\n\t\t/** make sure the batch does not exist */\n\t\trequire(batches[batchId].owner == address(0), \"batch already exist\");\n\t\tBatch storage batch = batches[batchId];\n\n\t\tbatch.owner = owner;\n\t\tbatch.approvedAddresses = approvedAddresses;\n\t\tbatch.status = 1;\n\n\t\taddUpdatesToBatch(batchId, headUpdates);\n\n\t\temit BatchCreated(\n\t\t\tbatchId,\n\t\t\tbatch.owner,\n\t\t\tnonce\n\t\t);\n\t}\n\n\t/** Add one or more headUpdate elements to an existing batch */\n\tfunction addUpdatesToBatch(\n\t\tbytes32 batchId,\n\t\tHeadUpdate[] memory headUpdates) public {\n\n\t\tBatch storage batch = batches[batchId];\n\n\t\t/** make sure the batch is open for new elements */\n\t\trequire(batch.status != 0, \"Batch status is disabled\");\n\n\t\t/** check msg sender is approved address unless is this contract */\n\t\tif (msg.sender != address(this)) {\n\t\t\tuint8 approved = 0;\n\t\t\tfor (uint32 ix = 0; ix < batch.approvedAddresses.length; ix++) {\n\t\t\t\tif (msg.sender == batch.approvedAddresses[ix]) {\n\t\t\t\t\tapproved = 1;\n\t\t\t\t}\n\t\t\t}\n\n\t\t\trequire(approved > 0, \"msg.sender not an approved address\");\n\t\t}\n\n\t\t/** initialize */\n\t\tfor (uint8 ix = 0; ix < headUpdates.length; ix++) {\n\t\t\tHeadUpdate memory headUpdate = headUpdates[ix];\n\t\t\t/** head update executed property must be zero */\n\t\t\trequire(headUpdate.executed == 0, \"head update executed property must be zero\");\n\t\t\t/** Only add perspectives of the same owner! */\n\t\t\tPerspective storage newPerspective = perspectives[headUpdate.perspectiveIdHash];\n\t\t\trequire(newPerspective.owner == batch.owner, \"Batch can only store perspectives owner by its owner\");\n\t\t\tbatch.headUpdates.push(headUpdate);\n\t\t}\n\n\t\temit AddedUpdatesToBatch(batchId);\n\t}\n\n\tfunction setBatchAuthorized(bytes32 batchId, uint8 authorized) public {\n\t\tBatch storage batch = batches[batchId];\n\t\trequire(msg.sender == batch.owner, \"Batch can only by athorized by its owner\");\n\t\t/** by default the batch is closed once it is authorized. */\n\t\tbatch.status = 0;\n\t\tbatch.authorized = authorized;\n\t}\n\n\tfunction setBatchStatus(bytes32 batchId, uint8 status) public {\n\t\tBatch storage batch = batches[batchId];\n\t\trequire(msg.sender == batch.owner, \"Batch status can only by set by its owner\");\n\t\tbatch.status = status;\n\t}\n\n\tfunction executeBatch(bytes32 batchId) public {\n\t\tBatch storage batch = batches[batchId];\n\n\t\t/** Check the msg.sender is an approved address */\n\t\tuint8 approved = 0;\n\t\tfor (uint32 ix = 0; ix < batch.approvedAddresses.length; ix++) {\n\t\t\tif (msg.sender == batch.approvedAddresses[ix]) {\n\t\t\t\tapproved = 1;\n\t\t\t}\n\t\t}\n\n\t\trequire(approved > 0, \"msg.sender not an approved address\");\n\t\tuint256[] memory indexes = new uint256[](batch.headUpdates.length);\n\n\t\tfor (uint256 ix = 0; ix < batch.headUpdates.length; ix++) {\n\t\t\tindexes[ix] = ix;\n\t\t}\n\n\t\tthis.executeBatchPartially(batchId, indexes);\n\t}\n\n\tfunction executeBatchPartially(bytes32 batchId, uint256[] memory indexes) public {\n\t\tBatch storage batch = batches[batchId];\n\t\trequire(batch.authorized != 0, \"Batch not authorized\");\n\n\t\t/** check msg sender is approved address unless is this contract */\n\t\tif (msg.sender != address(this)) {\n\t\t\tuint8 approved = 0;\n\t\t\tfor (uint32 ix = 0; ix < batch.approvedAddresses.length; ix++) {\n\t\t\t\tif (msg.sender == batch.approvedAddresses[ix]) {\n\t\t\t\t\tapproved = 1;\n\t\t\t\t}\n\t\t\t}\n\n\t\t\trequire(approved > 0, \"msg.sender not an approved address\");\n\t\t}\n\n\t\tfor (uint256 ix = 0; ix < indexes.length; ix++) {\n\t\t\tHeadUpdate storage headUpdate = batch.headUpdates[indexes[ix]];\n\n\t\t\trequire(headUpdate.executed == 0, \"head update already executed\");\n\n\t\t\t/** mark the update as executed */\n\t\t\theadUpdate.executed = 1;\n\t\t\t/** Update the head */\n\t\t\tupdateHead(headUpdate.perspectiveIdHash, headUpdate.headId);\n\t\t}\n\t}\n\n\t/** Get the perspective owner and head from its ID */\n\tfunction getBatch(bytes32 batchId)\n\t\tpublic view\n\t\treturns(Batch memory batch) {\n\t\treturn (batches[batchId]);\n\t}\n}\n",
  "sourcePath": "/home/pepo/projects/uprtcl/uprtcl-eth/contracts/Uprtcl.sol",
  "compiler": {
    "name": "solc",
    "version": "0.5.0+commit.1d4f565a.Emscripten.clang"
  },
  "schemaVersion": "3.0.9",
  "updatedAt": "2019-09-19T09:20:26.107Z",
  "devdoc": {
    "methods": {}
  },
  "userdoc": {
    "methods": {
      "addPerspective(bytes32,bytes32,string,address,string)": {
        "notice": "Adds a new perspective to the mapping and sets the owner. The head pointer is initialized as null and should be updated independently using updateHead(). The contextHash is not persisted but emited in the PerspectiveAdded event to enable filtering. Validation of the perspectiveId to contextHash should be done externally using any\tcontent addressable\tstorage solution for the perspectiveId. The perspectiveId is emited to help perspectiveHash reverse mapping "
      },
      "addUpdatesToBatch(bytes32,(bytes32,string,uint8)[])": {
        "notice": "Add one or more headUpdate elements to an existing batch "
      },
      "changeOwner(bytes32,address)": {
        "notice": "Changes the owner of a given perspective. Available only to the current owner of that perspective. "
      },
      "getBatch(bytes32)": {
        "notice": "Get the perspective owner and head from its ID "
      },
      "getPerspective(bytes32)": {
        "notice": "Get the perspective owner and head from its ID "
      },
      "initBatch(address,uint32,(bytes32,string,uint8)[],address[])": {
        "notice": "Creates a new batch owned and initialize its properties. The id of the batch is derived from the message sender to prevent frontrunning attacks. "
      },
      "updateHeads((bytes32,string,uint8)[])": {
        "notice": "One method to execute the head updates directly, without creating the batch. Useful if the owner dont want to use the batch authorization feature. It also works for updating one single perspective "
      }
    },
    "notice": "Underscore Protocol Ethereum Service used to store the content of _Prtcl perspectives "
  }
}