{
  "contractName": "UprtclDetails",
  "abi": [
    {
      "inputs": [
        {
          "internalType": "contract UprtclRoot",
          "name": "_uprtclRoot",
          "type": "address"
        }
      ],
      "payable": false,
      "stateMutability": "nonpayable",
      "type": "constructor"
    },
    {
      "anonymous": false,
      "inputs": [
        {
          "indexed": true,
          "internalType": "bytes32",
          "name": "perspectiveIdHash",
          "type": "bytes32"
        },
        {
          "indexed": true,
          "internalType": "bytes32",
          "name": "contextHash",
          "type": "bytes32"
        }
      ],
      "name": "PerspectiveDetailsSet",
      "type": "event"
    },
    {
      "constant": true,
      "inputs": [
        {
          "internalType": "bytes32",
          "name": "",
          "type": "bytes32"
        }
      ],
      "name": "perspectivesDetails",
      "outputs": [
        {
          "internalType": "string",
          "name": "name",
          "type": "string"
        },
        {
          "internalType": "string",
          "name": "context",
          "type": "string"
        }
      ],
      "payable": false,
      "stateMutability": "view",
      "type": "function"
    },
    {
      "constant": false,
      "inputs": [
        {
          "internalType": "bytes32",
          "name": "perspectiveIdHash",
          "type": "bytes32"
        },
        {
          "components": [
            {
              "internalType": "string",
              "name": "name",
              "type": "string"
            },
            {
              "internalType": "string",
              "name": "context",
              "type": "string"
            }
          ],
          "internalType": "struct UprtclDetails.PerspectiveDetails",
          "name": "newDetails",
          "type": "tuple"
        }
      ],
      "name": "setPerspectiveDetails",
      "outputs": [],
      "payable": false,
      "stateMutability": "nonpayable",
      "type": "function"
    },
    {
      "constant": true,
      "inputs": [
        {
          "internalType": "bytes32",
          "name": "perspectiveIdHash",
          "type": "bytes32"
        }
      ],
      "name": "getPerspectiveDetails",
      "outputs": [
        {
          "internalType": "string",
          "name": "name",
          "type": "string"
        },
        {
          "internalType": "string",
          "name": "context",
          "type": "string"
        }
      ],
      "payable": false,
      "stateMutability": "view",
      "type": "function"
    },
    {
      "constant": false,
      "inputs": [
        {
          "components": [
            {
              "internalType": "bytes32",
              "name": "perspectiveIdHash",
              "type": "bytes32"
            },
            {
              "internalType": "bytes32",
              "name": "headCid1",
              "type": "bytes32"
            },
            {
              "internalType": "bytes32",
              "name": "headCid0",
              "type": "bytes32"
            },
            {
              "internalType": "address",
              "name": "owner",
              "type": "address"
            }
          ],
          "internalType": "struct UprtclRoot.NewPerspective",
          "name": "newPerspective",
          "type": "tuple"
        },
        {
          "components": [
            {
              "internalType": "string",
              "name": "name",
              "type": "string"
            },
            {
              "internalType": "string",
              "name": "context",
              "type": "string"
            }
          ],
          "internalType": "struct UprtclDetails.PerspectiveDetails",
          "name": "newDetails",
          "type": "tuple"
        },
        {
          "internalType": "address",
          "name": "account",
          "type": "address"
        }
      ],
      "name": "initPerspective",
      "outputs": [],
      "payable": false,
      "stateMutability": "nonpayable",
      "type": "function"
    }
  ],
  "bytecode": "0x608060405234801561001057600080fd5b50604051610cd6380380610cd683398101604081905261002f91610065565b600180546001600160a01b0319166001600160a01b03929092169190911790556100c4565b805161005f816100ad565b92915050565b60006020828403121561007757600080fd5b60006100838484610054565b949350505050565b600061005f826100a1565b600061005f8261008b565b6001600160a01b031690565b6100b681610096565b81146100c157600080fd5b50565b610c03806100d36000396000f3fe608060405234801561001057600080fd5b506004361061004c5760003560e01c806376914ecf14610051578063a5503f371461007b578063c08b985d14610090578063cf29e969146100a3575b600080fd5b61006461005f366004610825565b6100b6565b604051610072929190610a90565b60405180910390f35b61008e610089366004610895565b61021b565b005b61008e61009e366004610843565b610292565b6100646100b1366004610825565b610439565b6060806100c1610575565b600084815260208181526040918290208251815460026001821615610100026000190190911604601f810184900490930281016060908101855293810183815290939192849284919084018282801561015b5780601f106101305761010080835404028352916020019161015b565b820191906000526020600020905b81548152906001019060200180831161013e57829003601f168201915b50505050508152602001600182018054600181600116156101000203166002900480601f0160208091040260200160405190810160405280929190818152602001828054600181600116156101000203166002900480156101fd5780601f106101d2576101008083540402835291602001916101fd565b820191906000526020600020905b8154815290600101906020018083116101e057829003601f168201915b50505091909252505081516020909201519194509092505050915091565b6001546040516372d50cc560e01b81526001600160a01b03909116906372d50cc59061024d9086908590600401610ac5565b600060405180830381600087803b15801561026757600080fd5b505af115801561027b573d6000803e3d6000fd5b5050505061028d836000015183610292565b505050565b600154604051631393bbf560e01b815233916001600160a01b031690631393bbf5906102c2908690600401610a82565b60206040518083038186803b1580156102da57600080fd5b505afa1580156102ee573d6000803e3d6000fd5b505050506040513d601f19601f8201168201806040525061031291908101906107ff565b6001600160a01b0316146103415760405162461bcd60e51b815260040161033890610ab5565b60405180910390fd5b6000828152602081815260409091208251805191926103659284929091019061058f565b50602080830151805161037e926001850192019061058f565b50600083815260208190526040902081548291906103b290829084906002600019610100600184161502019091160461060d565b50600182018160010190805460018160011615610100020316600290046103da92919061060d565b50506040516103f191506001830190602001610a6f565b60405160208183030381529060405280519060200120837f54d694087b2b7af3574607f1c7957f264e43dae2cd138a793dc22d407fac002b60405160405180910390a3505050565b6000602081815291815260409081902080548251601f6002600019610100600186161502019093169290920491820185900485028101850190935280835290928391908301828280156104cd5780601f106104a2576101008083540402835291602001916104cd565b820191906000526020600020905b8154815290600101906020018083116104b057829003601f168201915b505050505090806001018054600181600116156101000203166002900480601f01602080910402602001604051908101604052809291908181526020018280546001816001161561010002031660029004801561056b5780601f106105405761010080835404028352916020019161056b565b820191906000526020600020905b81548152906001019060200180831161054e57829003601f168201915b5050505050905082565b604051806040016040528060608152602001606081525090565b828054600181600116156101000203166002900490600052602060002090601f016020900481019282601f106105d057805160ff19168380011785556105fd565b828001600101855582156105fd579182015b828111156105fd5782518255916020019190600101906105e2565b50610609929150610682565b5090565b828054600181600116156101000203166002900490600052602060002090601f016020900481019282601f1061064657805485556105fd565b828001600101855582156105fd57600052602060002091601f016020900482015b828111156105fd578254825591600101919060010190610667565b61069c91905b808211156106095760008155600101610688565b90565b80356106aa81610ba0565b92915050565b80516106aa81610ba0565b80356106aa81610bb7565b600082601f8301126106d757600080fd5b81356106ea6106e582610b07565b610ae0565b9150808252602083016020830185838301111561070657600080fd5b610711838284610b5e565b50505092915050565b60006080828403121561072c57600080fd5b6107366080610ae0565b9050600061074484846106bb565b8252506020610755848483016106bb565b6020830152506040610769848285016106bb565b604083015250606061077d8482850161069f565b60608301525092915050565b60006040828403121561079b57600080fd5b6107a56040610ae0565b9050813567ffffffffffffffff8111156107be57600080fd5b6107ca848285016106c6565b825250602082013567ffffffffffffffff8111156107e757600080fd5b6107f3848285016106c6565b60208301525092915050565b60006020828403121561081157600080fd5b600061081d84846106b0565b949350505050565b60006020828403121561083757600080fd5b600061081d84846106bb565b6000806040838503121561085657600080fd5b600061086285856106bb565b925050602083013567ffffffffffffffff81111561087f57600080fd5b61088b85828601610789565b9150509250929050565b600080600060c084860312156108aa57600080fd5b60006108b6868661071a565b935050608084013567ffffffffffffffff8111156108d357600080fd5b6108df86828701610789565b92505060a06108f08682870161069f565b9150509250925092565b61090381610b4d565b82525050565b6109038161069c565b600061091d82610b3b565b6109278185610b3f565b9350610937818560208601610b6a565b61094081610b96565b9093019392505050565b600081546001811660008114610967576001811461098a576109c9565b607f60028304166109788187610b48565b60ff19841681529550850192506109c9565b600282046109988187610b48565b95506109a385610b2f565b60005b828110156109c2578154888201526001909101906020016109a6565b5050850192505b505092915050565b60006109de602c83610b3f565b7f64657461696c732063616e206f6e6c792062792073657420627920706572737081526b32b1ba34bb329037bbb732b960a11b602082015260400192915050565b80516080830190610a308482610909565b506020820151610a436020850182610909565b506040820151610a566040850182610909565b506060820151610a6960608501826108fa565b50505050565b6000610a7b828461094a565b9392505050565b602081016106aa8284610909565b60408082528101610aa18185610912565b9050818103602083015261081d8184610912565b602080825281016106aa816109d1565b60a08101610ad38285610a1f565b610a7b60808301846108fa565b60405181810167ffffffffffffffff81118282101715610aff57600080fd5b604052919050565b600067ffffffffffffffff821115610b1e57600080fd5b506020601f91909101601f19160190565b60009081526020902090565b5190565b90815260200190565b919050565b60006001600160a01b0382166106aa565b82818337506000910152565b60005b83811015610b85578181015183820152602001610b6d565b83811115610a695750506000910152565b601f01601f191690565b610ba981610b4d565b8114610bb457600080fd5b50565b610ba98161069c56fea365627a7a723158204494d8994100b6cd64622fb5608b6455c86489cd8317a4da3c227b235176b2056c6578706572696d656e74616cf564736f6c63430005100040",
  "source": "pragma solidity >=0.5.0 <0.6.0;\npragma experimental ABIEncoderV2;\n\nimport \"./UprtclRoot.sol\";\n\ncontract UprtclDetails {\n\n    struct PerspectiveDetails {\n        string name;\n        string context;\n    }\n\n    event PerspectiveDetailsSet (\n        bytes32 indexed perspectiveIdHash,\n        bytes32 indexed contextHash\n    );\n\n    mapping(bytes32 => PerspectiveDetails) public perspectivesDetails;\n\n    UprtclRoot uprtclRoot;\n\n    constructor(UprtclRoot _uprtclRoot) public {\n        uprtclRoot = _uprtclRoot;\n    }\n\n    /** Adds a new perspective to the mapping and sets the owner. The head pointer and the context. */\n    function setPerspectiveDetails(\n        bytes32 perspectiveIdHash,\n        PerspectiveDetails memory newDetails\n    ) public {\n        require(uprtclRoot.getPerspectiveOwner(perspectiveIdHash) == msg.sender, \"details can only by set by perspective owner\");\n\n        PerspectiveDetails storage details = perspectivesDetails[perspectiveIdHash];\n\n        details.name = newDetails.name;\n        details.context = newDetails.context;\n\n        perspectivesDetails[perspectiveIdHash] = details;\n\n        emit PerspectiveDetailsSet(\n            perspectiveIdHash,\n            keccak256(abi.encodePacked(details.context))\n        );\n    }\n\n    function getPerspectiveDetails(bytes32 perspectiveIdHash) public view returns (string memory name, string memory context) {\n        PerspectiveDetails memory details = perspectivesDetails[perspectiveIdHash];\n        return (details.name, details.context);\n    }\n\n    function initPerspective(\n        UprtclRoot.NewPerspective memory newPerspective,\n        PerspectiveDetails memory newDetails,\n        address account) public {\n\n        uprtclRoot.addPerspective(newPerspective, account);\n        setPerspectiveDetails(newPerspective.perspectiveIdHash, newDetails);\n    }\n\n}\n",
  "sourcePath": "/home/pepo/pr/uprtcl/eth-uprtcl/contracts/UprtclDetails.sol",
  "compiler": {
    "name": "solc",
    "version": "0.5.16+commit.9c3226ce.Emscripten.clang"
  },
  "schemaVersion": "3.0.23",
  "updatedAt": "2020-02-25T11:37:23.375Z",
  "devdoc": {
    "methods": {}
  },
  "userdoc": {
    "methods": {
      "setPerspectiveDetails(bytes32,(string,string))": {
        "notice": "Adds a new perspective to the mapping and sets the owner. The head pointer and the context. "
      }
    }
  }
}