{
  "contractName": "UprtclProposals",
  "abi": [
    {
      "anonymous": false,
      "inputs": [
        {
          "indexed": true,
          "internalType": "address",
          "name": "previousOwner",
          "type": "address"
        },
        {
          "indexed": true,
          "internalType": "address",
          "name": "newOwner",
          "type": "address"
        }
      ],
      "name": "OwnershipTransferred",
      "type": "event"
    },
    {
      "anonymous": false,
      "inputs": [
        {
          "indexed": true,
          "internalType": "bytes32",
          "name": "toPerspectiveIdHash",
          "type": "bytes32"
        },
        {
          "indexed": true,
          "internalType": "bytes32",
          "name": "fromPerspectiveIdHash",
          "type": "bytes32"
        },
        {
          "indexed": false,
          "internalType": "uint32",
          "name": "nonce",
          "type": "uint32"
        },
        {
          "indexed": true,
          "internalType": "bytes32",
          "name": "proposalId",
          "type": "bytes32"
        }
      ],
      "name": "ProposalCreated",
      "type": "event"
    },
    {
      "constant": true,
      "inputs": [],
      "name": "factor_den",
      "outputs": [
        {
          "internalType": "uint256",
          "name": "",
          "type": "uint256"
        }
      ],
      "payable": false,
      "stateMutability": "view",
      "type": "function"
    },
    {
      "constant": true,
      "inputs": [],
      "name": "factor_num",
      "outputs": [
        {
          "internalType": "uint256",
          "name": "",
          "type": "uint256"
        }
      ],
      "payable": false,
      "stateMutability": "view",
      "type": "function"
    },
    {
      "constant": true,
      "inputs": [
        {
          "internalType": "address",
          "name": "",
          "type": "address"
        }
      ],
      "name": "fees",
      "outputs": [
        {
          "internalType": "uint256",
          "name": "fee",
          "type": "uint256"
        },
        {
          "internalType": "uint256",
          "name": "balance",
          "type": "uint256"
        }
      ],
      "payable": false,
      "stateMutability": "view",
      "type": "function"
    },
    {
      "constant": true,
      "inputs": [],
      "name": "isOwner",
      "outputs": [
        {
          "internalType": "bool",
          "name": "",
          "type": "bool"
        }
      ],
      "payable": false,
      "stateMutability": "view",
      "type": "function"
    },
    {
      "constant": true,
      "inputs": [],
      "name": "minFee",
      "outputs": [
        {
          "internalType": "uint256",
          "name": "",
          "type": "uint256"
        }
      ],
      "payable": false,
      "stateMutability": "view",
      "type": "function"
    },
    {
      "constant": true,
      "inputs": [],
      "name": "owner",
      "outputs": [
        {
          "internalType": "address payable",
          "name": "",
          "type": "address"
        }
      ],
      "payable": false,
      "stateMutability": "view",
      "type": "function"
    },
    {
      "constant": true,
      "inputs": [
        {
          "internalType": "bytes32",
          "name": "",
          "type": "bytes32"
        }
      ],
      "name": "proposals",
      "outputs": [
        {
          "internalType": "bytes32",
          "name": "toPerspectiveIdHash",
          "type": "bytes32"
        },
        {
          "internalType": "bytes32",
          "name": "fromPerspectiveIdHash",
          "type": "bytes32"
        },
        {
          "internalType": "address",
          "name": "owner",
          "type": "address"
        },
        {
          "internalType": "uint8",
          "name": "status",
          "type": "uint8"
        },
        {
          "internalType": "uint8",
          "name": "authorized",
          "type": "uint8"
        }
      ],
      "payable": false,
      "stateMutability": "view",
      "type": "function"
    },
    {
      "constant": false,
      "inputs": [],
      "name": "renounceOwnership",
      "outputs": [],
      "payable": false,
      "stateMutability": "nonpayable",
      "type": "function"
    },
    {
      "constant": false,
      "inputs": [
        {
          "internalType": "address payable",
          "name": "newOwner",
          "type": "address"
        }
      ],
      "name": "transferOwnership",
      "outputs": [],
      "payable": false,
      "stateMutability": "nonpayable",
      "type": "function"
    },
    {
      "constant": false,
      "inputs": [
        {
          "internalType": "contract UprtclRoot",
          "name": "_uprtclRoot",
          "type": "address"
        }
      ],
      "name": "setUprtclRoot",
      "outputs": [],
      "payable": false,
      "stateMutability": "nonpayable",
      "type": "function"
    },
    {
      "constant": true,
      "inputs": [
        {
          "internalType": "bytes32",
          "name": "toPerspectiveIdHash",
          "type": "bytes32"
        },
        {
          "internalType": "bytes32",
          "name": "fromPerspectiveIdHash",
          "type": "bytes32"
        },
        {
          "internalType": "uint32",
          "name": "nonce",
          "type": "uint32"
        }
      ],
      "name": "getProposalId",
      "outputs": [
        {
          "internalType": "bytes32",
          "name": "proposalId",
          "type": "bytes32"
        }
      ],
      "payable": false,
      "stateMutability": "pure",
      "type": "function"
    },
    {
      "constant": false,
      "inputs": [
        {
          "internalType": "uint256",
          "name": "_minFee",
          "type": "uint256"
        }
      ],
      "name": "setMinFee",
      "outputs": [],
      "payable": false,
      "stateMutability": "nonpayable",
      "type": "function"
    },
    {
      "constant": false,
      "inputs": [
        {
          "internalType": "uint256",
          "name": "_factor_num",
          "type": "uint256"
        }
      ],
      "name": "setFactorNum",
      "outputs": [],
      "payable": false,
      "stateMutability": "nonpayable",
      "type": "function"
    },
    {
      "constant": false,
      "inputs": [
        {
          "internalType": "uint256",
          "name": "_factor_den",
          "type": "uint256"
        }
      ],
      "name": "setFactorDen",
      "outputs": [],
      "payable": false,
      "stateMutability": "nonpayable",
      "type": "function"
    },
    {
      "constant": false,
      "inputs": [
        {
          "internalType": "bytes32",
          "name": "toPerspectiveIdHash",
          "type": "bytes32"
        },
        {
          "internalType": "bytes32",
          "name": "fromPerspectiveIdHash",
          "type": "bytes32"
        },
        {
          "internalType": "address",
          "name": "owner",
          "type": "address"
        },
        {
          "internalType": "uint32",
          "name": "nonce",
          "type": "uint32"
        },
        {
          "components": [
            {
              "internalType": "bytes32",
              "name": "perspectiveIdHash",
              "type": "bytes32"
            },
            {
              "internalType": "bytes32",
              "name": "headCid0",
              "type": "bytes32"
            },
            {
              "internalType": "bytes32",
              "name": "headCid1",
              "type": "bytes32"
            },
            {
              "internalType": "uint8",
              "name": "executed",
              "type": "uint8"
            }
          ],
          "internalType": "struct UprtclProposals.HeadUpdate[]",
          "name": "headUpdates",
          "type": "tuple[]"
        },
        {
          "internalType": "address[]",
          "name": "approvedAddresses",
          "type": "address[]"
        },
        {
          "internalType": "address",
          "name": "account",
          "type": "address"
        }
      ],
      "name": "initProposal",
      "outputs": [],
      "payable": false,
      "stateMutability": "nonpayable",
      "type": "function"
    },
    {
      "constant": false,
      "inputs": [
        {
          "internalType": "bytes32",
          "name": "proposalId",
          "type": "bytes32"
        },
        {
          "components": [
            {
              "internalType": "bytes32",
              "name": "perspectiveIdHash",
              "type": "bytes32"
            },
            {
              "internalType": "bytes32",
              "name": "headCid0",
              "type": "bytes32"
            },
            {
              "internalType": "bytes32",
              "name": "headCid1",
              "type": "bytes32"
            },
            {
              "internalType": "uint8",
              "name": "executed",
              "type": "uint8"
            }
          ],
          "internalType": "struct UprtclProposals.HeadUpdate[]",
          "name": "headUpdates",
          "type": "tuple[]"
        }
      ],
      "name": "addUpdatesToProposal",
      "outputs": [],
      "payable": false,
      "stateMutability": "nonpayable",
      "type": "function"
    },
    {
      "constant": false,
      "inputs": [
        {
          "internalType": "bytes32",
          "name": "proposalId",
          "type": "bytes32"
        },
        {
          "internalType": "uint8",
          "name": "status",
          "type": "uint8"
        }
      ],
      "name": "setProposalStatus",
      "outputs": [],
      "payable": false,
      "stateMutability": "nonpayable",
      "type": "function"
    },
    {
      "constant": false,
      "inputs": [
        {
          "internalType": "bytes32",
          "name": "proposalId",
          "type": "bytes32"
        },
        {
          "internalType": "uint8",
          "name": "authorized",
          "type": "uint8"
        }
      ],
      "name": "setProposalAuthorized",
      "outputs": [],
      "payable": false,
      "stateMutability": "nonpayable",
      "type": "function"
    },
    {
      "constant": false,
      "inputs": [
        {
          "internalType": "bytes32",
          "name": "proposalId",
          "type": "bytes32"
        },
        {
          "internalType": "address",
          "name": "account",
          "type": "address"
        }
      ],
      "name": "executeProposal",
      "outputs": [],
      "payable": false,
      "stateMutability": "nonpayable",
      "type": "function"
    },
    {
      "constant": false,
      "inputs": [
        {
          "internalType": "bytes32",
          "name": "proposalId",
          "type": "bytes32"
        },
        {
          "internalType": "uint256[]",
          "name": "indexes",
          "type": "uint256[]"
        },
        {
          "internalType": "address",
          "name": "account",
          "type": "address"
        }
      ],
      "name": "executeProposalPartially",
      "outputs": [],
      "payable": false,
      "stateMutability": "nonpayable",
      "type": "function"
    },
    {
      "constant": true,
      "inputs": [
        {
          "internalType": "bytes32",
          "name": "proposalId",
          "type": "bytes32"
        }
      ],
      "name": "getProposal",
      "outputs": [
        {
          "components": [
            {
              "internalType": "bytes32",
              "name": "toPerspectiveIdHash",
              "type": "bytes32"
            },
            {
              "internalType": "bytes32",
              "name": "fromPerspectiveIdHash",
              "type": "bytes32"
            },
            {
              "internalType": "address",
              "name": "owner",
              "type": "address"
            },
            {
              "components": [
                {
                  "internalType": "bytes32",
                  "name": "perspectiveIdHash",
                  "type": "bytes32"
                },
                {
                  "internalType": "bytes32",
                  "name": "headCid0",
                  "type": "bytes32"
                },
                {
                  "internalType": "bytes32",
                  "name": "headCid1",
                  "type": "bytes32"
                },
                {
                  "internalType": "uint8",
                  "name": "executed",
                  "type": "uint8"
                }
              ],
              "internalType": "struct UprtclProposals.HeadUpdate[]",
              "name": "headUpdates",
              "type": "tuple[]"
            },
            {
              "internalType": "address[]",
              "name": "approvedAddresses",
              "type": "address[]"
            },
            {
              "internalType": "uint8",
              "name": "status",
              "type": "uint8"
            },
            {
              "internalType": "uint8",
              "name": "authorized",
              "type": "uint8"
            }
          ],
          "internalType": "struct UprtclProposals.Proposal",
          "name": "proposal",
          "type": "tuple"
        }
      ],
      "payable": false,
      "stateMutability": "view",
      "type": "function"
    }
  ],
  "bytecode": "0x60806040526100156001600160e01b0361006216565b600080546001600160a01b0319166001600160a01b03928316178082556040519216917f8be0079c531659141344cd1fd0a4f28419497f9722a3daafe3b4186f6b6457e0908290a3610066565b3390565b6122a9806100756000396000f3fe608060405234801561001057600080fd5b50600436106101375760003560e01c8063715018a6116100b8578063971a294f1161007c578063971a294f146102675780639eb788c51461027a578063f18251f11461028d578063f2fde38b146102a0578063faaebd21146102b3578063ff3433d4146102d457610137565b8063715018a61461020f5780637cce0117146102175780638517f68a1461022a5780638da5cb5b1461023d5780638f32d59b1461025257610137565b806331ac9920116100ff57806331ac99201461019d57806332ed5b12146101b057806339eacf34146101d4578063430694cf146101e757806352f386cb1461020757610137565b806305196b9d1461013c5780630de4cb191461015a57806314a3d07e1461016f57806324ec75901461018257806326d50df11461018a575b600080fd5b6101446102e7565b6040516101519190611fa1565b60405180910390f35b61016d6101683660046116e1565b6102ed565b005b61016d61017d3660046117e6565b61031f565b61014461065d565b61016d610198366004611739565b610663565b61016d6101ab3660046116e1565b610980565b6101c36101be3660046116e1565b6109a9565b604051610151959493929190611faf565b61016d6101e23660046118f5565b6109e6565b6101fa6101f53660046116e1565b610a38565b6040516101519190612111565b610144610b80565b61016d610b86565b61016d610225366004611925565b610bf4565b61016d610238366004611781565b610c3a565b610245610c4b565b6040516101519190611f1f565b61025a610c5b565b6040516101519190611f93565b61016d6102753660046116e1565b610c7f565b61016d6102883660046116ff565b610ca8565b61016d61029b3660046118f5565b610dee565b61016d6102ae36600461169d565b610e5c565b6102c66102c136600461169d565b610e8c565b604051610151929190612122565b6101446102e23660046118b2565b610ea5565b60045481565b6102f5610c5b565b61031a5760405162461bcd60e51b8152600401610311906120f1565b60405180910390fd5b600455565b600654604051631393bbf560e01b81526000916001600160a01b031690631393bbf590610350908b90600401611fa1565b60206040518083038186803b15801561036857600080fd5b505afa15801561037c573d6000803e3d6000fd5b505050506040513d601f19601f820116820180604052506103a091908101906116c3565b6001600160a01b038116600090815260026020526040902054909150806104365760035415610431576006546003546040516302654acd60e51b81526001600160a01b0390921691634ca959a0916103fe9187913391600401611f6b565b600060405180830381600087803b15801561041857600080fd5b505af115801561042c573d6000803e3d6000fd5b505050505b610576565b600061045f60055461045360045485610edb90919063ffffffff16565b9063ffffffff610f1e16565b90506000610490600554610453610483600454600554610f6090919063ffffffff16565b869063ffffffff610edb16565b60035490915082908110156104a457506003545b600654604051636556cd0560e01b81526001600160a01b0390911690636556cd05906104da90899033908a908890600401611f2d565b600060405180830381600087803b1580156104f457600080fd5b505af1158015610508573d6000803e3d6000fd5b50506006546040516302654acd60e51b81526001600160a01b039091169250634ca959a0915061054090899033908690600401611f6b565b600060405180830381600087803b15801561055a57600080fd5b505af115801561056e573d6000803e3d6000fd5b505050505050505b60006105838a8a89610ea5565b60008181526001602052604090206002810154919250906001600160a01b0316156105c05760405162461bcd60e51b8152600401610311906120c1565b8a8155600181018a90556002810180546001600160a01b0319166001600160a01b038b1617905585516105fc90600483019060208901906113a0565b5060058101805460ff191660011790556106168288610663565b818a8c7f4e4f243275b3821e2e3408990d60d6fc7d067a530f86ae67627a25ec835b01ec8b604051610648919061213d565b60405180910390a45050505050505050505050565b60035481565b600082815260016020526040902060028101546001600160a01b031661069b5760405162461bcd60e51b815260040161031190612091565b600581015460ff166106bf5760405162461bcd60e51b815260040161031190612101565b6040805160e08101825282548152600183015460208083019190915260028401546001600160a01b0316828401526003840180548451818402810184019095528085526000946107fc9493879360608601939091889084015b8282101561076f576000848152602090819020604080516080810182526004860290920180548352600180820154848601526002820154928401929092526003015460ff1660608301529083529092019101610718565b505050508152602001600482018054806020026020016040519081016040528092919081815260200182805480156107d057602002820191906000526020600020905b81546001600160a01b031681526001909101906020018083116107b2575b50505091835250506005919091015460ff80821660208401526101009091041660409091015233610fa2565b60ff161161081c5760405162461bcd60e51b8152600401610311906120b1565b60005b82518160ff16101561097a57610833611405565b838260ff168151811061084257fe5b60200260200101519050806060015160ff166000146108735760405162461bcd60e51b815260040161031190612061565b60028301546006548251604051631393bbf560e01b81526001600160a01b039384169390921691631393bbf5916108ac91600401611fa1565b60206040518083038186803b1580156108c457600080fd5b505afa1580156108d8573d6000803e3d6000fd5b505050506040513d601f19601f820116820180604052506108fc91908101906116c3565b6001600160a01b0316146109225760405162461bcd60e51b815260040161031190612051565b60038381018054600180820183556000928352602092839020855160049093020191825591840151818301556040840151600282015560609093015192909101805460ff191660ff909316929092179091550161081f565b50505050565b610988610c5b565b6109a45760405162461bcd60e51b8152600401610311906120f1565b600355565b6001602081905260009182526040909120805491810154600282015460059092015490916001600160a01b03169060ff8082169161010090041685565b600082815260016020526040902060028101546001600160a01b03163314610a205760405162461bcd60e51b815260040161031190612041565b600501805460ff191660ff9290921691909117905550565b610a4061142c565b6000828152600160208181526040808420815160e08101835281548152938101548484015260028101546001600160a01b0316848301526003810180548351818602810186019094528084529495919460608701949192909184015b82821015610af3576000848152602090819020604080516080810182526004860290920180548352600180820154848601526002820154928401929092526003015460ff1660608301529083529092019101610a9c565b50505050815260200160048201805480602002602001604051908101604052809291908181526020018280548015610b5457602002820191906000526020600020905b81546001600160a01b03168152600190910190602001808311610b36575b50505091835250506005919091015460ff80821660208401526101009091041660409091015292915050565b60055481565b610b8e610c5b565b610baa5760405162461bcd60e51b8152600401610311906120f1565b600080546040516001600160a01b03909116907f8be0079c531659141344cd1fd0a4f28419497f9722a3daafe3b4186f6b6457e0908390a3600080546001600160a01b0319169055565b610bfc610c5b565b610c185760405162461bcd60e51b8152600401610311906120f1565b600680546001600160a01b0319166001600160a01b0392909216919091179055565b610c4683833384611023565b505050565b6000546001600160a01b03165b90565b600080546001600160a01b0316610c706112b6565b6001600160a01b031614905090565b610c87610c5b565b610ca35760405162461bcd60e51b8152600401610311906120f1565b600555565b6000828152600160208181526040808420815160e08101835281548152938101548484015260028101546001600160a01b031684830152600381018054835181860281018601909452808452919594610d5f94909387936060860193919288908401821561076f576000848152602090819020604080516080810182526004860290920180548352600180820154848601526002820154928401929092526003015460ff1660608301529083529092019101610718565b60ff1611610d7f5760405162461bcd60e51b8152600401610311906120b1565b60038101546040805182815260208084028201019091526060918015610daf578160200160208202803883390190505b50905060005b6003830154811015610de15780828281518110610dce57fe5b6020908102919091010152600101610db5565b5061097a84823386611023565b600082815260016020526040902060028101546001600160a01b03163314610e285760405162461bcd60e51b815260040161031190612081565b60ff821615610e3e5760058101805460ff191690555b600501805460ff9092166101000261ff001990921691909117905550565b610e64610c5b565b610e805760405162461bcd60e51b8152600401610311906120f1565b610e89816112ba565b50565b6002602052600090815260409020805460019091015482565b6000838383604051602001610ebc93929190611ee8565b6040516020818303038152906040528051906020012090509392505050565b600082610eea57506000610f18565b82820282848281610ef757fe5b0414610f155760405162461bcd60e51b8152600401610311906120d1565b90505b92915050565b6000610f1583836040518060400160405280601a81526020017f536166654d6174683a206469766973696f6e206279207a65726f00000000000081525061133b565b6000610f1583836040518060400160405280601e81526020017f536166654d6174683a207375627472616374696f6e206f766572666c6f770000815250611374565b600082608001515160001415610fba57506001610f18565b60005b8360800151518163ffffffff1610156110195783608001518163ffffffff1681518110610fe657fe5b60200260200101516001600160a01b0316836001600160a01b03161415611011575060019050610f18565b600101610fbd565b5060009392505050565b60008481526001602052604090206005810154610100900460ff1661105a5760405162461bcd60e51b8152600401610311906120e1565b6040805160e08101825282548152600183015460208083019190915260028401546001600160a01b0316828401526003840180548451818402810184019095528085526000946111979493879360608601939091889084015b8282101561110a576000848152602090819020604080516080810182526004860290920180548352600180820154848601526002820154928401929092526003015460ff16606083015290835290920191016110b3565b5050505081526020016004820180548060200260200160405190810160405280929190818152602001828054801561116b57602002820191906000526020600020905b81546001600160a01b0316815260019091019060200180831161114d575b50505091835250506005919091015460ff80821660208401526101009091041660409091015285610fa2565b60ff16116111b75760405162461bcd60e51b8152600401610311906120b1565b60005b84518110156112ae576000826003018683815181106111d557fe5b6020026020010151815481106111e757fe5b60009182526020909120600490910201600381015490915060ff161561121f5760405162461bcd60e51b8152600401610311906120a1565b60038101805460ff1916600190811790915560065482549183015460028401546040516301d4f0fd60e31b81526001600160a01b0390931693630ea787e89361126f939192908a90600401611ffb565b600060405180830381600087803b15801561128957600080fd5b505af115801561129d573d6000803e3d6000fd5b5050600190930192506111ba915050565b505050505050565b3390565b6001600160a01b0381166112e05760405162461bcd60e51b815260040161031190612071565b600080546040516001600160a01b03808516939216917f8be0079c531659141344cd1fd0a4f28419497f9722a3daafe3b4186f6b6457e091a3600080546001600160a01b0319166001600160a01b0392909216919091179055565b6000818361135c5760405162461bcd60e51b81526004016103119190612030565b50600083858161136857fe5b049150505b9392505050565b600081848411156113985760405162461bcd60e51b81526004016103119190612030565b505050900390565b8280548282559060005260206000209081019282156113f5579160200282015b828111156113f557825182546001600160a01b0319166001600160a01b039091161782556020909201916001909101906113c0565b50611401929150611467565b5090565b60408051608081018252600080825260208201819052918101829052606081019190915290565b6040805160e0810182526000808252602082018190529181018290526060808201819052608082015260a0810182905260c081019190915290565b610c5891905b808211156114015780546001600160a01b031916815560010161146d565b8035610f188161222e565b8051610f188161222e565b600082601f8301126114b257600080fd5b81356114c56114c082612172565b61214b565b915081818352602084019350602081019050838560208402820111156114ea57600080fd5b60005b838110156115165781611500888261148b565b84525060209283019291909101906001016114ed565b5050505092915050565b600082601f83011261153157600080fd5b813561153f6114c082612172565b9150818183526020840193506020810190508385608084028201111561156457600080fd5b60005b83811015611516578161157a8882611618565b84525060209092019160809190910190600101611567565b600082601f8301126115a357600080fd5b81356115b16114c082612172565b915081818352602084019350602081019050838560208402820111156115d657600080fd5b60005b8381101561151657816115ec8882611602565b84525060209283019291909101906001016115d9565b8035610f1881612242565b8035610f188161224b565b60006080828403121561162a57600080fd5b611634608061214b565b905060006116428484611602565b825250602061165384848301611602565b602083015250604061166784828501611602565b604083015250606061167b84828501611692565b60608301525092915050565b8035610f1881612254565b8035610f188161225d565b6000602082840312156116af57600080fd5b60006116bb848461148b565b949350505050565b6000602082840312156116d557600080fd5b60006116bb8484611496565b6000602082840312156116f357600080fd5b60006116bb8484611602565b6000806040838503121561171257600080fd5b600061171e8585611602565b925050602061172f8582860161148b565b9150509250929050565b6000806040838503121561174c57600080fd5b60006117588585611602565b925050602083013567ffffffffffffffff81111561177557600080fd5b61172f85828601611520565b60008060006060848603121561179657600080fd5b60006117a28686611602565b935050602084013567ffffffffffffffff8111156117bf57600080fd5b6117cb86828701611592565b92505060406117dc8682870161148b565b9150509250925092565b600080600080600080600060e0888a03121561180157600080fd5b600061180d8a8a611602565b975050602061181e8a828b01611602565b965050604061182f8a828b0161148b565b95505060606118408a828b01611687565b945050608088013567ffffffffffffffff81111561185d57600080fd5b6118698a828b01611520565b93505060a088013567ffffffffffffffff81111561188657600080fd5b6118928a828b016114a1565b92505060c06118a38a828b0161148b565b91505092959891949750929550565b6000806000606084860312156118c757600080fd5b60006118d38686611602565b93505060206118e486828701611602565b92505060406117dc86828701611687565b6000806040838503121561190857600080fd5b60006119148585611602565b925050602061172f85828601611692565b60006020828403121561193757600080fd5b60006116bb848461160d565b600061194f838361197a565b505060200190565b60006119638383611ddf565b505060800190565b611974816121dc565b82525050565b611974816121a6565b600061198e82612199565b611998818561219d565b93506119a383612193565b8060005b838110156119d15781516119bb8882611943565b97506119c683612193565b9250506001016119a7565b509495945050505050565b60006119e782612199565b6119f1818561219d565b93506119fc83612193565b8060005b838110156119d1578151611a148882611957565b9750611a1f83612193565b925050600101611a00565b611974816121b1565b61197481610c58565b611974611a4882610c58565b610c58565b6000611a5882612199565b611a62818561219d565b9350611a728185602086016121e7565b611a7b8161221e565b9093019392505050565b6000611a92602c8361219d565b7f50726f706f73616c207374617475732063616e206f6e6c79206279207365742081526b313c9034ba399037bbb732b960a11b602082015260400192915050565b6000611ae060378361219d565b7f70726f706f73616c2063616e206f6e6c792073746f726520706572737065637481527f69766573206f776e656420627920697473206f776e6572000000000000000000602082015260400192915050565b6000611b3f602a8361219d565b7f68656164207570646174652065786563757465642070726f7065727479206d758152697374206265207a65726f60b01b602082015260400192915050565b6000611b8b60268361219d565b7f4f776e61626c653a206e6577206f776e657220697320746865207a65726f206181526564647265737360d01b602082015260400192915050565b6000611bd3602c8361219d565b7f50726f706f73616c2063616e206f6e6c7920627920617574686f72697a65642081526b313c9034ba399037bbb732b960a11b602082015260400192915050565b6000611c2160128361219d565b711c1c9bdc1bdcd85b081b9bdd08199bdd5b9960721b815260200192915050565b6000611c4f601c8361219d565b7f686561642075706461746520616c726561647920657865637574656400000000815260200192915050565b6000611c8860228361219d565b7f6d73672e73656e646572206e6f7420616e20617070726f766564206164647265815261737360f01b602082015260400192915050565b6000611ccc60168361219d565b751c1c9bdc1bdcd85b08185b1c9958591e48195e1a5cdd60521b815260200192915050565b6000611cfe60218361219d565b7f536166654d6174683a206d756c7469706c69636174696f6e206f766572666c6f8152607760f81b602082015260400192915050565b6000611d4160178361219d565b7f50726f706f73616c206e6f7420617574686f72697a6564000000000000000000815260200192915050565b6000611d7a60208361219d565b7f4f776e61626c653a2063616c6c6572206973206e6f7420746865206f776e6572815260200192915050565b6000611db3601b8361219d565b7f70726f706f73616c207374617475732069732064697361626c65640000000000815260200192915050565b80516080830190611df08482611a33565b506020820151611e036020850182611a33565b506040820151611e166040850182611a33565b50606082015161097a6060850182611edf565b805160009060e0840190611e3d8582611a33565b506020830151611e506020860182611a33565b506040830151611e63604086018261197a565b5060608301518482036060860152611e7b82826119dc565b91505060808301518482036080860152611e958282611983565b91505060a0830151611eaa60a0860182611edf565b5060c0830151611ebd60c0860182611edf565b509392505050565b611974816121cd565b611974611eda826121cd565b612213565b611974816121d6565b6000611ef48286611a3c565b602082019150611f048285611a3c565b602082019150611f148284611ece565b506004019392505050565b60208101610f18828461197a565b60808101611f3b828761197a565b611f48602083018661196b565b611f55604083018561197a565b611f626060830184611a33565b95945050505050565b60608101611f79828661197a565b611f86602083018561196b565b6116bb6040830184611a33565b60208101610f188284611a2a565b60208101610f188284611a33565b60a08101611fbd8288611a33565b611fca6020830187611a33565b611fd7604083018661197a565b611fe46060830185611edf565b611ff16080830184611edf565b9695505050505050565b608081016120098287611a33565b6120166020830186611a33565b6120236040830185611a33565b611f62606083018461197a565b60208082528101610f158184611a4d565b60208082528101610f1881611a85565b60208082528101610f1881611ad3565b60208082528101610f1881611b32565b60208082528101610f1881611b7e565b60208082528101610f1881611bc6565b60208082528101610f1881611c14565b60208082528101610f1881611c42565b60208082528101610f1881611c7b565b60208082528101610f1881611cbf565b60208082528101610f1881611cf1565b60208082528101610f1881611d34565b60208082528101610f1881611d6d565b60208082528101610f1881611da6565b60208082528101610f158184611e29565b604081016121308285611a33565b61136d6020830184611a33565b60208101610f188284611ec5565b60405181810167ffffffffffffffff8111828210171561216a57600080fd5b604052919050565b600067ffffffffffffffff82111561218957600080fd5b5060209081020190565b60200190565b5190565b90815260200190565b6000610f18826121c1565b151590565b6000610f18826121a6565b6001600160a01b031690565b63ffffffff1690565b60ff1690565b6000610f18826121b6565b60005b838110156122025781810151838201526020016121ea565b8381111561097a5750506000910152565b6000610f1882612228565b601f01601f191690565b60e01b90565b612237816121a6565b8114610e8957600080fd5b61223781610c58565b612237816121b6565b612237816121cd565b612237816121d656fea365627a7a72315820bcac9314ba9e16fc17f2e588241ade3105b1ece7996410a3c66cd81846c0df406c6578706572696d656e74616cf564736f6c63430005100040",
  "source": "pragma solidity >=0.5.0 <0.6.0;\npragma experimental ABIEncoderV2;\n\nimport \"./UprtclRoot.sol\";\nimport \"./SafeMath.sol\";\n\ncontract UprtclProposals is Ownable {\n\n    using SafeMath for uint256;\n\n    struct HeadUpdate {\n        bytes32 perspectiveIdHash;\n        bytes32 headCid0;\n        bytes32 headCid1;\n        uint8 executed;\n    }\n\n    struct Proposal {\n        bytes32 toPerspectiveIdHash;\n        bytes32 fromPerspectiveIdHash;\n        address owner;\n        HeadUpdate[] headUpdates;\n        address[] approvedAddresses;\n        uint8 status;\n        uint8 authorized;\n    }\n\n    struct OwnerFees {\n        uint256 fee;\n        uint256 balance;\n    }\n\n    mapping(bytes32 => Proposal) public proposals;\n    mapping(address => OwnerFees) public fees;\n    \n    uint256 public minFee;\n    uint256 public factor_num;\n    uint256 public factor_den;\n\n    UprtclRoot uprtclRoot;\n\n    event ProposalCreated(\n        bytes32 indexed toPerspectiveIdHash,\n        bytes32 indexed fromPerspectiveIdHash,\n        uint32 nonce,\n        bytes32 indexed proposalId\n    );\n\n    function setUprtclRoot(UprtclRoot _uprtclRoot) public onlyOwner {\n        uprtclRoot = _uprtclRoot;\n    }\n\n    function getProposalId(\n        bytes32 toPerspectiveIdHash,\n        bytes32 fromPerspectiveIdHash,\n        uint32 nonce\n    ) public pure returns (bytes32 proposalId) {\n        proposalId = keccak256(\n            abi.encodePacked(toPerspectiveIdHash, fromPerspectiveIdHash, nonce)\n        );\n    }\n\n    function setMinFee(uint256 _minFee) public onlyOwner {\n        minFee = _minFee;\n    }\n\n    function setFactorNum(uint256 _factor_num) public onlyOwner {\n        factor_num = _factor_num;\n    }\n\n    function setFactorDen(uint256 _factor_den) public onlyOwner {\n        factor_den = _factor_den;\n    }\n\n    function initProposal(\n        bytes32 toPerspectiveIdHash,\n        bytes32 fromPerspectiveIdHash,\n        address owner,\n        uint32 nonce,\n        HeadUpdate[] memory headUpdates,\n        address[] memory approvedAddresses,\n        address account\n    ) public {\n        \n        address perspOwner = uprtclRoot.getPerspectiveOwner(toPerspectiveIdHash);\n        uint256 perspFee = fees[perspOwner].fee;\n\n        if (perspFee == 0) {\n            /** charge only min fee */\n            if (minFee > 0) {\n                uprtclRoot.consume(account, msg.sender, minFee);\n            }\n        } else {\n            /** charge fee and transfer to perspOwner, keep a fraction to us */\n            uint256 feeUprtcl = perspFee.mul(factor_num).div(factor_den);\n            uint256 feeOwner = perspFee.mul(factor_den.sub(factor_num)).div(factor_den);\n\n            uint256 feeUprtclActual = feeUprtcl;\n            if (feeUprtcl < minFee) {\n                feeUprtclActual = minFee;\n            }\n\n            uprtclRoot.transferTo(account, msg.sender, perspOwner, feeOwner);\n            uprtclRoot.consume(account, msg.sender, feeUprtclActual);\n        }\n\n        bytes32 proposalId = getProposalId(\n            toPerspectiveIdHash,\n            fromPerspectiveIdHash,\n            nonce\n        );\n\n        /** make sure the proposal does not exist */\n        Proposal storage proposal = proposals[proposalId];\n        require(proposal.owner == address(0), \"proposal already exist\");\n\n        proposal.toPerspectiveIdHash = toPerspectiveIdHash;\n        proposal.fromPerspectiveIdHash = fromPerspectiveIdHash;\n        proposal.owner = owner;\n        proposal.approvedAddresses = approvedAddresses;\n        proposal.status = 1;\n\n        addUpdatesToProposal(proposalId, headUpdates);\n\n        emit ProposalCreated(\n            toPerspectiveIdHash,\n            fromPerspectiveIdHash,\n            nonce,\n            proposalId\n        );\n    }\n\n    function isApproved(Proposal memory proposal, address value)\n        private\n        pure\n        returns (uint8 approved)\n    {\n\t\tif (proposal.approvedAddresses.length == 0) {\n\t\t\tapproved = 1;\n\t\t\treturn approved;\n\t\t}\n\n        for (uint32 ix = 0; ix < proposal.approvedAddresses.length; ix++) {\n            if (value == proposal.approvedAddresses[ix]) {\n                approved = 1;\n                return approved;\n            }\n        }\n        approved = 0;\n    }\n\n    /** Add one or more headUpdate elements to an existing proposal */\n    function addUpdatesToProposal(\n        bytes32 proposalId,\n        HeadUpdate[] memory headUpdates\n    ) public {\n        Proposal storage proposal = proposals[proposalId];\n\n        /** make sure the proposal is open for new elements */\n        require(proposal.owner != address(0), \"proposal not found\");\n        require(proposal.status != 0, \"proposal status is disabled\");\n        require(\n            isApproved(proposal, msg.sender) > 0,\n            \"msg.sender not an approved address\"\n        );\n\n        for (uint8 ix = 0; ix < headUpdates.length; ix++) {\n            HeadUpdate memory headUpdate = headUpdates[ix];\n            require(\n                headUpdate.executed == 0,\n                \"head update executed property must be zero\"\n            );\n            require(\n                uprtclRoot.getPerspectiveOwner(headUpdate.perspectiveIdHash) == proposal.owner,\n                \"proposal can only store perspectives owned by its owner\"\n            );\n            proposal.headUpdates.push(headUpdate);\n        }\n    }\n\n    function setProposalStatus(bytes32 proposalId, uint8 status) public {\n        Proposal storage proposal = proposals[proposalId];\n        require(\n            msg.sender == proposal.owner,\n            \"Proposal status can only by set by its owner\"\n        );\n        proposal.status = status;\n    }\n\n    function setProposalAuthorized(bytes32 proposalId, uint8 authorized) public {\n        Proposal storage proposal = proposals[proposalId];\n        require(\n            msg.sender == proposal.owner,\n            \"Proposal can only by authorized by its owner\"\n        );\n        /** by default the proposal is closed once it is authorized. */\n        if (authorized > 0) proposal.status = 0;\n        proposal.authorized = authorized;\n    }\n\n    function executeProposal(bytes32 proposalId, address account) public {\n        Proposal storage proposal = proposals[proposalId];\n\n        /** Check the msg.sender is an approved address */\n        require(\n            isApproved(proposal, msg.sender) > 0,\n            \"msg.sender not an approved address\"\n        );\n\n        uint256[] memory indexes = new uint256[](proposal.headUpdates.length);\n        for (uint256 ix = 0; ix < proposal.headUpdates.length; ix++) {\n            indexes[ix] = ix;\n        }\n\n        executeProposalPartiallyInternal(proposalId, indexes, msg.sender, account);\n    }\n\n    function executeProposalPartially(\n        bytes32 proposalId,\n        uint256[] memory indexes,\n        address account\n    ) public {\n        executeProposalPartiallyInternal(proposalId, indexes, msg.sender, account);\n    }\n\n    function executeProposalPartiallyInternal(\n        bytes32 proposalId,\n        uint256[] memory indexes,\n        address msgSender,\n        address account\n    ) private {\n        Proposal storage proposal = proposals[proposalId];\n        require(proposal.authorized != 0, \"Proposal not authorized\");\n\n        require(\n            isApproved(proposal, msgSender) > 0,\n            \"msg.sender not an approved address\"\n        );\n\n        for (uint256 ix = 0; ix < indexes.length; ix++) {\n            HeadUpdate storage headUpdate = proposal.headUpdates[indexes[ix]];\n\n            require(headUpdate.executed == 0, \"head update already executed\");\n            headUpdate.executed = 1;\n\n            uprtclRoot.updateHead(headUpdate.perspectiveIdHash, headUpdate.headCid0, headUpdate.headCid1, account);\n        }\n    }\n\n    function getProposal(bytes32 proposalId)\n        public\n        view\n        returns (Proposal memory proposal)\n    {\n        return (proposals[proposalId]);\n    }\n}\n",
  "sourcePath": "/home/pepo/pr/uprtcl/eth-uprtcl/contracts/UprtclProposals.sol",
  "compiler": {
    "name": "solc",
    "version": "0.5.16+commit.9c3226ce.Emscripten.clang"
  },
  "schemaVersion": "3.0.23",
  "updatedAt": "2020-02-27T14:47:08.561Z",
  "devdoc": {
    "methods": {
      "isOwner()": {
        "details": "Returns true if the caller is the current owner."
      },
      "owner()": {
        "details": "Returns the address of the current owner."
      },
      "renounceOwnership()": {
        "details": "Leaves the contract without owner. It will not be possible to call `onlyOwner` functions anymore. Can only be called by the current owner.     * NOTE: Renouncing ownership will leave the contract without an owner, thereby removing any functionality that is only available to the owner."
      },
      "transferOwnership(address)": {
        "details": "Transfers ownership of the contract to a new account (`newOwner`). Can only be called by the current owner."
      }
    }
  },
  "userdoc": {
    "methods": {
      "addUpdatesToProposal(bytes32,(bytes32,bytes32,bytes32,uint8)[])": {
        "notice": "Add one or more headUpdate elements to an existing proposal "
      }
    }
  }
}