{
  "contractName": "Uprtcl",
  "abi": [
    {
      "anonymous": false,
      "inputs": [
        {
          "indexed": true,
          "internalType": "address",
          "name": "previousOwner",
          "type": "address"
        },
        {
          "indexed": true,
          "internalType": "address",
          "name": "newOwner",
          "type": "address"
        }
      ],
      "name": "OwnershipTransferred",
      "type": "event"
    },
    {
      "anonymous": false,
      "inputs": [
        {
          "indexed": true,
          "internalType": "bytes32",
          "name": "perspectiveIdHash",
          "type": "bytes32"
        },
        {
          "indexed": false,
          "internalType": "address",
          "name": "newOwner",
          "type": "address"
        },
        {
          "indexed": false,
          "internalType": "address",
          "name": "previousOwner",
          "type": "address"
        }
      ],
      "name": "PerspectiveOwnerUpdated",
      "type": "event"
    },
    {
      "constant": true,
      "inputs": [],
      "name": "getAddFee",
      "outputs": [
        {
          "internalType": "uint256",
          "name": "",
          "type": "uint256"
        }
      ],
      "payable": false,
      "stateMutability": "view",
      "type": "function"
    },
    {
      "constant": true,
      "inputs": [],
      "name": "getUpdateFee",
      "outputs": [
        {
          "internalType": "uint256",
          "name": "",
          "type": "uint256"
        }
      ],
      "payable": false,
      "stateMutability": "view",
      "type": "function"
    },
    {
      "constant": true,
      "inputs": [],
      "name": "isOwner",
      "outputs": [
        {
          "internalType": "bool",
          "name": "",
          "type": "bool"
        }
      ],
      "payable": false,
      "stateMutability": "view",
      "type": "function"
    },
    {
      "constant": true,
      "inputs": [],
      "name": "owner",
      "outputs": [
        {
          "internalType": "address payable",
          "name": "",
          "type": "address"
        }
      ],
      "payable": false,
      "stateMutability": "view",
      "type": "function"
    },
    {
      "constant": true,
      "inputs": [
        {
          "internalType": "bytes32",
          "name": "",
          "type": "bytes32"
        }
      ],
      "name": "perspectives",
      "outputs": [
        {
          "internalType": "address",
          "name": "owner",
          "type": "address"
        },
        {
          "internalType": "bytes32",
          "name": "headCid1",
          "type": "bytes32"
        },
        {
          "internalType": "bytes32",
          "name": "headCid0",
          "type": "bytes32"
        }
      ],
      "payable": false,
      "stateMutability": "view",
      "type": "function"
    },
    {
      "constant": false,
      "inputs": [],
      "name": "renounceOwnership",
      "outputs": [],
      "payable": false,
      "stateMutability": "nonpayable",
      "type": "function"
    },
    {
      "constant": false,
      "inputs": [
        {
          "internalType": "uint256",
          "name": "addFee",
          "type": "uint256"
        },
        {
          "internalType": "uint256",
          "name": "updateFee",
          "type": "uint256"
        }
      ],
      "name": "setFees",
      "outputs": [],
      "payable": false,
      "stateMutability": "nonpayable",
      "type": "function"
    },
    {
      "constant": false,
      "inputs": [
        {
          "internalType": "uint256",
          "name": "amount",
          "type": "uint256"
        }
      ],
      "name": "transfer",
      "outputs": [],
      "payable": false,
      "stateMutability": "nonpayable",
      "type": "function"
    },
    {
      "constant": false,
      "inputs": [
        {
          "internalType": "address payable",
          "name": "newOwner",
          "type": "address"
        }
      ],
      "name": "transferOwnership",
      "outputs": [],
      "payable": false,
      "stateMutability": "nonpayable",
      "type": "function"
    },
    {
      "constant": false,
      "inputs": [
        {
          "components": [
            {
              "internalType": "bytes32",
              "name": "perspectiveIdHash",
              "type": "bytes32"
            },
            {
              "internalType": "bytes32",
              "name": "headCid1",
              "type": "bytes32"
            },
            {
              "internalType": "bytes32",
              "name": "headCid0",
              "type": "bytes32"
            },
            {
              "internalType": "address",
              "name": "owner",
              "type": "address"
            }
          ],
          "internalType": "struct Uprtcl.NewPerspective",
          "name": "newPerspective",
          "type": "tuple"
        }
      ],
      "name": "addPerspective",
      "outputs": [],
      "payable": true,
      "stateMutability": "payable",
      "type": "function"
    },
    {
      "constant": false,
      "inputs": [
        {
          "internalType": "bytes32",
          "name": "perspectiveIdHash",
          "type": "bytes32"
        },
        {
          "internalType": "bytes32",
          "name": "newHeadCid1",
          "type": "bytes32"
        },
        {
          "internalType": "bytes32",
          "name": "newHeadCid0",
          "type": "bytes32"
        }
      ],
      "name": "updatePerspectiveDetails",
      "outputs": [],
      "payable": true,
      "stateMutability": "payable",
      "type": "function"
    },
    {
      "constant": false,
      "inputs": [
        {
          "internalType": "bytes32",
          "name": "perspectiveIdHash",
          "type": "bytes32"
        },
        {
          "internalType": "address",
          "name": "newOwner",
          "type": "address"
        }
      ],
      "name": "changeOwner",
      "outputs": [],
      "payable": false,
      "stateMutability": "nonpayable",
      "type": "function"
    },
    {
      "constant": true,
      "inputs": [
        {
          "internalType": "bytes32",
          "name": "perspectiveIdHash",
          "type": "bytes32"
        }
      ],
      "name": "getPerspectiveDetails",
      "outputs": [
        {
          "internalType": "address",
          "name": "owner",
          "type": "address"
        },
        {
          "internalType": "bytes32",
          "name": "headCid1",
          "type": "bytes32"
        },
        {
          "internalType": "bytes32",
          "name": "headCid0",
          "type": "bytes32"
        }
      ],
      "payable": false,
      "stateMutability": "view",
      "type": "function"
    }
  ],
  "bytecode": "0x60806040526100156001600160e01b0361006216565b600080546001600160a01b0319166001600160a01b03928316178082556040519216917f8be0079c531659141344cd1fd0a4f28419497f9722a3daafe3b4186f6b6457e0908290a3610066565b3390565b610cca806100756000396000f3fe6080604052600436106100c25760003560e01c80638da5cb5b1161007f578063b7b0ccde11610059578063b7b0ccde146101e2578063b92d30dc146101f7578063d3a5b10714610217578063f2fde38b14610237576100c2565b80638da5cb5b1461018b5780638f32d59b146101ad578063a22ed7c3146101cf576100c2565b80630b78f9c0146100c757806312514bba146100e95780632d48464414610109578063715018a61461011c57806376914ecf1461013157806386830d5814610169575b600080fd5b3480156100d357600080fd5b506100e76100e236600461091d565b610257565b005b3480156100f557600080fd5b506100e761010436600461085a565b61028f565b6100e76101173660046108b2565b610360565b34801561012857600080fd5b506100e76103d9565b34801561013d57600080fd5b5061015161014c36600461085a565b610447565b60405161016093929190610b57565b60405180910390f35b34801561017557600080fd5b5061017e61049c565b6040516101609190610c0d565b34801561019757600080fd5b506101a06104a9565b6040516101609190610b27565b3480156101b957600080fd5b506101c26104b8565b6040516101609190610b7f565b6100e76101dd3660046108ff565b6104dc565b3480156101ee57600080fd5b5061017e6105cd565b34801561020357600080fd5b5061015161021236600461085a565b6105d7565b34801561022357600080fd5b506100e7610232366004610878565b610602565b34801561024357600080fd5b506100e7610252366004610816565b61060d565b61025f6104b8565b6102845760405162461bcd60e51b815260040161027b90610bbd565b60405180910390fd5b600191909155600255565b6102976104b8565b6102b35760405162461bcd60e51b815260040161027b90610bbd565b306001600160a01b0316638da5cb5b6040518163ffffffff1660e01b815260040160206040518083038186803b1580156102ec57600080fd5b505afa158015610300573d6000803e3d6000fd5b505050506040513d601f19601f82011682018060405250610324919081019061083c565b6001600160a01b03166108fc829081150290604051600060405180830381858888f1935050505015801561035c573d6000803e3d6000fd5b5050565b6103686105cd565b3410156103875760405162461bcd60e51b815260040161027b90610bdd565b600083815260036020526040902080546001600160a01b031633146103be5760405162461bcd60e51b815260040161027b90610bad565b81156103d35760028101829055600181018390555b50505050565b6103e16104b8565b6103fd5760405162461bcd60e51b815260040161027b90610bbd565b600080546040516001600160a01b03909116907f8be0079c531659141344cd1fd0a4f28419497f9722a3daafe3b4186f6b6457e0908390a3600080546001600160a01b0319169055565b6000806000610454610760565b50505060009182525060036020908152604091829020825160608101845281546001600160a01b03168082526001830154938201849052600290920154930183905292909190565b60006001815b0154905090565b6000546001600160a01b031690565b600080546001600160a01b03166104cd61063d565b6001600160a01b031614905090565b6104e461049c565b3410156105035760405162461bcd60e51b815260040161027b90610bed565b8051600081815260036020526040902060608301516001600160a01b031661053d5760405162461bcd60e51b815260040161027b90610bfd565b80546001600160a01b0316156105655760405162461bcd60e51b815260040161027b90610b8d565b606083015181546001600160a01b039182166001600160a01b0319918216178084556020808701516001808701918255604098890151600297880190815560009889526003909352979096208054909316919093161781559254938301939093559154910155565b60006001806104a2565b6003602052600090815260409020805460018201546002909201546001600160a01b03909116919083565b61035c828233610641565b6106156104b8565b6106315760405162461bcd60e51b815260040161027b90610bbd565b61063a816106df565b50565b3390565b600083815260036020526040902080546001600160a01b0383811691161461067b5760405162461bcd60e51b815260040161027b90610bcd565b80546001600160a01b038481166001600160a01b03198316178084556040519282169287927f4d2778d25f224a7981314f90e4cf321a226f16d8b8a31ea04a6f191e88151b68926106d0929116908590610b35565b60405180910390a25050505050565b6001600160a01b0381166107055760405162461bcd60e51b815260040161027b90610b9d565b600080546040516001600160a01b03808516939216917f8be0079c531659141344cd1fd0a4f28419497f9722a3daafe3b4186f6b6457e091a3600080546001600160a01b0319166001600160a01b0392909216919091179055565b604080516060810182526000808252602082018190529181019190915290565b803561078b81610c6a565b92915050565b805161078b81610c6a565b803561078b81610c7e565b6000608082840312156107b957600080fd5b6107c36080610c1b565b905060006107d1848461079c565b82525060206107e28484830161079c565b60208301525060406107f68482850161079c565b604083015250606061080a84828501610780565b60608301525092915050565b60006020828403121561082857600080fd5b60006108348484610780565b949350505050565b60006020828403121561084e57600080fd5b60006108348484610791565b60006020828403121561086c57600080fd5b6000610834848461079c565b6000806040838503121561088b57600080fd5b6000610897858561079c565b92505060206108a885828601610780565b9150509250929050565b6000806000606084860312156108c757600080fd5b60006108d3868661079c565b93505060206108e48682870161079c565b92505060406108f58682870161079c565b9150509250925092565b60006080828403121561091157600080fd5b600061083484846107a7565b6000806040838503121561093057600080fd5b600061093c858561079c565b92505060206108a88582860161079c565b61095681610c4b565b82525050565b61095681610c56565b61095681610c5b565b600061097b601483610c42565b736578697374696e6720706572737065637469766560601b815260200192915050565b60006109ab602683610c42565b7f4f776e61626c653a206e6577206f776e657220697320746865207a65726f206181526564647265737360d01b602082015260400192915050565b60006109f3602983610c42565b7f6f6e6c7920746865206f776e65722063616e207570646174652074686520706581526872737065637469766560b81b602082015260400192915050565b6000610a3e602083610c42565b7f4f776e61626c653a2063616c6c6572206973206e6f7420746865206f776e6572815260200192915050565b6000610a77601383610c42565b72756e617574686f72697a65642061636365737360681b815260200192915050565b6000610aa6601483610c42565b731d5c19185d1948199959481b9bdd08185919195960621b815260200192915050565b6000610ad6601183610c42565b7018591908199959481b9bdd081859191959607a1b815260200192915050565b6000610b03601583610c42565b746f776e65722063616e6e6f7420626520656d70747960581b815260200192915050565b6020810161078b828461094d565b60408101610b43828561094d565b610b50602083018461094d565b9392505050565b60608101610b65828661094d565b610b726020830185610965565b6108346040830184610965565b6020810161078b828461095c565b6020808252810161078b8161096e565b6020808252810161078b8161099e565b6020808252810161078b816109e6565b6020808252810161078b81610a31565b6020808252810161078b81610a6a565b6020808252810161078b81610a99565b6020808252810161078b81610ac9565b6020808252810161078b81610af6565b6020810161078b8284610965565b60405181810167ffffffffffffffff81118282101715610c3a57600080fd5b604052919050565b90815260200190565b600061078b82610c5e565b151590565b90565b6001600160a01b031690565b610c7381610c4b565b811461063a57600080fd5b610c7381610c5b56fea365627a7a72315820248f0bb1f156f456e3f774d7d0302ec1177f26ca2875d37e5d17b89e70286a736c6578706572696d656e74616cf564736f6c63430005100040",
  "source": "pragma solidity >=0.5.0 <0.6.0;\npragma experimental ABIEncoderV2;\n\nimport \"./Toll.sol\";\n\n/** Underscore Protocol Ethereum Service used to store the content of\n* _Prtcl perspectives */\ncontract Uprtcl is Toll {\n    struct Perspective {\n        address owner;\n        bytes32 headCid1;\n        bytes32 headCid0;\n    }\n\n    struct NewPerspective {\n        bytes32 perspectiveIdHash;\n        bytes32 headCid1;\n        bytes32 headCid0;\n        address owner;\n    }\n\n    mapping(bytes32 => Perspective) public perspectives;\n\n    event PerspectiveOwnerUpdated(\n        bytes32 indexed perspectiveIdHash,\n        address newOwner,\n        address previousOwner\n    );\n\n    /** Adds a new perspective to the mapping and sets the owner. The head pointer and the context. */\n    function addPerspective(\n        NewPerspective memory newPerspective\n    ) public payable {\n\n        require(msg.value >= getAddFee(), \"add fee not added\");\n\n        bytes32 perspectiveIdHash = newPerspective.perspectiveIdHash;\n\n        Perspective storage perspective = perspectives[perspectiveIdHash];\n        require(address(0) != newPerspective.owner, \"owner cannot be empty\");\n        require(address(0) == perspective.owner, \"existing perspective\");\n\n        perspective.owner = newPerspective.owner;\n        perspective.headCid1 = newPerspective.headCid1;\n        perspective.headCid0 = newPerspective.headCid0;\n\n        perspectives[perspectiveIdHash] = perspective;\n    }\n\n    function updatePerspectiveDetails(\n        bytes32 perspectiveIdHash,\n        bytes32 newHeadCid1,\n        bytes32 newHeadCid0\n    ) public payable {\n        require(msg.value >= getUpdateFee(), \"update fee not added\");\n\n        Perspective storage perspective = perspectives[perspectiveIdHash];\n\n        require(\n            perspective.owner == msg.sender,\n            \"only the owner can update the perspective\"\n        );\n\n        if (newHeadCid0 != bytes32(0)) {\n            perspective.headCid0 = newHeadCid0;\n            perspective.headCid1 = newHeadCid1;\n        }\n    }\n\n    function changeOwnerInternal(\n        bytes32 perspectiveIdHash,\n        address newOwner,\n        address sender) private {\n\n        Perspective storage perspective = perspectives[perspectiveIdHash];\n        require(sender == perspective.owner, \"unauthorized access\");\n\n        address previousOwner = perspective.owner;\n        perspective.owner = newOwner;\n\n        emit PerspectiveOwnerUpdated(\n            perspectiveIdHash,\n            perspective.owner,\n            previousOwner\n        );\n    }\n\n    /** Changes the owner of a given perspective. Available only to the current owner of that perspective. */\n    function changeOwner(\n        bytes32 perspectiveIdHash,\n        address newOwner) public {\n        changeOwnerInternal(perspectiveIdHash, newOwner, msg.sender);\n    }\n\n    /** Get the perspective owner and details from its ID */\n    function getPerspectiveDetails(\n        bytes32 perspectiveIdHash)\n        public\n        view\n        returns (\n            address owner,\n            bytes32 headCid1,\n            bytes32 headCid0\n        )\n    {\n        Perspective memory perspective = perspectives[perspectiveIdHash];\n\n        return (\n            perspective.owner,\n            perspective.headCid1,\n            perspective.headCid0\n        );\n    }\n\n}\n",
  "sourcePath": "/home/pepo/pr/uprtcl/eth-uprtcl/contracts/Uprtcl.sol",
  "compiler": {
    "name": "solc",
    "version": "0.5.16+commit.9c3226ce.Emscripten.clang"
  },
  "schemaVersion": "3.0.23",
  "updatedAt": "2020-02-20T13:01:56.751Z",
  "networkType": "ethereum",
  "devdoc": {
    "methods": {
      "isOwner()": {
        "details": "Returns true if the caller is the current owner."
      },
      "owner()": {
        "details": "Returns the address of the current owner."
      },
      "renounceOwnership()": {
        "details": "Leaves the contract without owner. It will not be possible to call `onlyOwner` functions anymore. Can only be called by the current owner.     * NOTE: Renouncing ownership will leave the contract without an owner, thereby removing any functionality that is only available to the owner."
      },
      "transferOwnership(address)": {
        "details": "Transfers ownership of the contract to a new account (`newOwner`). Can only be called by the current owner."
      }
    }
  },
  "userdoc": {
    "methods": {
      "addPerspective((bytes32,bytes32,bytes32,address))": {
        "notice": "Adds a new perspective to the mapping and sets the owner. The head pointer and the context. "
      },
      "changeOwner(bytes32,address)": {
        "notice": "Changes the owner of a given perspective. Available only to the current owner of that perspective. "
      },
      "getPerspectiveDetails(bytes32)": {
        "notice": "Get the perspective owner and details from its ID "
      }
    },
    "notice": "Underscore Protocol Ethereum Service used to store the content of _Prtcl perspectives "
  }
}