{
  "contractName": "Uprtcl",
  "abi": [
    {
      "constant": true,
      "inputs": [
        {
          "name": "",
          "type": "bytes32"
        }
      ],
      "name": "perspectives",
      "outputs": [
        {
          "name": "owner",
          "type": "address"
        },
        {
          "name": "headCid",
          "type": "string"
        }
      ],
      "payable": false,
      "stateMutability": "view",
      "type": "function"
    },
    {
      "constant": true,
      "inputs": [
        {
          "name": "",
          "type": "bytes32"
        }
      ],
      "name": "batches",
      "outputs": [
        {
          "name": "owner",
          "type": "address"
        },
        {
          "name": "status",
          "type": "uint8"
        },
        {
          "name": "authorized",
          "type": "uint8"
        }
      ],
      "payable": false,
      "stateMutability": "view",
      "type": "function"
    },
    {
      "anonymous": false,
      "inputs": [
        {
          "indexed": true,
          "name": "perspectiveIdHash",
          "type": "bytes32"
        },
        {
          "indexed": true,
          "name": "contextIdHash",
          "type": "bytes32"
        },
        {
          "indexed": false,
          "name": "head",
          "type": "string"
        },
        {
          "indexed": false,
          "name": "owner",
          "type": "address"
        },
        {
          "indexed": false,
          "name": "perspectiveCid",
          "type": "string"
        }
      ],
      "name": "PerspectiveAdded",
      "type": "event"
    },
    {
      "anonymous": false,
      "inputs": [
        {
          "indexed": true,
          "name": "perspectiveIdHash",
          "type": "bytes32"
        },
        {
          "indexed": false,
          "name": "author",
          "type": "address"
        },
        {
          "indexed": false,
          "name": "previousHeadCid",
          "type": "string"
        },
        {
          "indexed": false,
          "name": "newHeadCid",
          "type": "string"
        }
      ],
      "name": "PerspectiveHeadUpdated",
      "type": "event"
    },
    {
      "anonymous": false,
      "inputs": [
        {
          "indexed": true,
          "name": "perspectiveIdHash",
          "type": "bytes32"
        },
        {
          "indexed": false,
          "name": "newOwner",
          "type": "address"
        },
        {
          "indexed": false,
          "name": "previousOwner",
          "type": "address"
        }
      ],
      "name": "PerspectiveOwnerUpdated",
      "type": "event"
    },
    {
      "anonymous": false,
      "inputs": [
        {
          "indexed": true,
          "name": "batchId",
          "type": "bytes32"
        },
        {
          "indexed": true,
          "name": "owner",
          "type": "address"
        }
      ],
      "name": "BatchCreated",
      "type": "event"
    },
    {
      "constant": false,
      "inputs": [
        {
          "name": "perspectiveIdHash",
          "type": "bytes32"
        },
        {
          "name": "contextIdHash",
          "type": "bytes32"
        },
        {
          "name": "head",
          "type": "string"
        },
        {
          "name": "owner",
          "type": "address"
        },
        {
          "name": "perspectiveCid",
          "type": "string"
        }
      ],
      "name": "addPerspective",
      "outputs": [],
      "payable": false,
      "stateMutability": "nonpayable",
      "type": "function"
    },
    {
      "constant": false,
      "inputs": [
        {
          "name": "perspectiveIdHash",
          "type": "bytes32"
        },
        {
          "name": "newOwner",
          "type": "address"
        }
      ],
      "name": "changeOwner",
      "outputs": [],
      "payable": false,
      "stateMutability": "nonpayable",
      "type": "function"
    },
    {
      "constant": true,
      "inputs": [
        {
          "name": "perspectiveIdHash",
          "type": "bytes32"
        }
      ],
      "name": "getPerspective",
      "outputs": [
        {
          "name": "owner",
          "type": "address"
        },
        {
          "name": "headCid",
          "type": "string"
        }
      ],
      "payable": false,
      "stateMutability": "view",
      "type": "function"
    },
    {
      "constant": false,
      "inputs": [
        {
          "components": [
            {
              "name": "perspectiveIdHash",
              "type": "bytes32"
            },
            {
              "name": "headId",
              "type": "string"
            }
          ],
          "name": "headUpdates",
          "type": "tuple[]"
        }
      ],
      "name": "updateHeads",
      "outputs": [],
      "payable": false,
      "stateMutability": "nonpayable",
      "type": "function"
    },
    {
      "constant": false,
      "inputs": [
        {
          "name": "owner",
          "type": "address"
        },
        {
          "name": "nonce",
          "type": "uint16"
        },
        {
          "name": "headUpdates",
          "type": "tuple[]",
          "components": [
            {
              "name": "perspectiveIdHash",
              "type": "bytes32"
            },
            {
              "name": "headId",
              "type": "string"
            }
          ]
        },
        {
          "name": "approvedAddresses",
          "type": "address[]"
        }
      ],
      "name": "initBatch",
      "outputs": [],
      "payable": false,
      "stateMutability": "nonpayable",
      "type": "function"
    },
    {
      "constant": false,
      "inputs": [
        {
          "name": "batchId",
          "type": "bytes32"
        },
        {
          "components": [
            {
              "name": "perspectiveIdHash",
              "type": "bytes32"
            },
            {
              "name": "headId",
              "type": "string"
            }
          ],
          "name": "headUpdates",
          "type": "tuple[]"
        }
      ],
      "name": "addUpdatesToBatch",
      "outputs": [],
      "payable": false,
      "stateMutability": "nonpayable",
      "type": "function"
    },
    {
      "constant": false,
      "inputs": [
        {
          "name": "batchId",
          "type": "bytes32"
        },
        {
          "name": "authorized",
          "type": "uint8"
        }
      ],
      "name": "setBatchAuthorized",
      "outputs": [],
      "payable": false,
      "stateMutability": "nonpayable",
      "type": "function"
    },
    {
      "constant": false,
      "inputs": [
        {
          "name": "batchId",
          "type": "bytes32"
        },
        {
          "name": "status",
          "type": "uint8"
        }
      ],
      "name": "setBatchStatus",
      "outputs": [],
      "payable": false,
      "stateMutability": "nonpayable",
      "type": "function"
    },
    {
      "constant": false,
      "inputs": [
        {
          "name": "batchId",
          "type": "bytes32"
        }
      ],
      "name": "executeBatch",
      "outputs": [],
      "payable": false,
      "stateMutability": "nonpayable",
      "type": "function"
    },
    {
      "constant": false,
      "inputs": [
        {
          "name": "batchId",
          "type": "bytes32"
        },
        {
          "name": "fromIx",
          "type": "uint256"
        },
        {
          "name": "toIx",
          "type": "uint256"
        }
      ],
      "name": "executeBatchPartially",
      "outputs": [],
      "payable": false,
      "stateMutability": "nonpayable",
      "type": "function"
    },
    {
      "constant": true,
      "inputs": [
        {
          "name": "batchId",
          "type": "bytes32"
        }
      ],
      "name": "getBatch",
      "outputs": [
        {
          "components": [
            {
              "components": [
                {
                  "name": "perspectiveIdHash",
                  "type": "bytes32"
                },
                {
                  "name": "headId",
                  "type": "string"
                }
              ],
              "name": "headUpdates",
              "type": "tuple[]"
            },
            {
              "name": "owner",
              "type": "address"
            },
            {
              "name": "approvedAddresses",
              "type": "address[]"
            },
            {
              "name": "status",
              "type": "uint8"
            },
            {
              "name": "authorized",
              "type": "uint8"
            }
          ],
          "name": "batch",
          "type": "tuple"
        }
      ],
      "payable": false,
      "stateMutability": "view",
      "type": "function"
    }
  ],
  "bytecode": "0x608060405234801561001057600080fd5b50611c55806100206000396000f3fe6080604052600436106100c45763ffffffff7c010000000000000000000000000000000000000000000000000000000060003504166305c7fcac81146100c9578063133075d2146100eb5780631ff3423d146101225780634d8efd61146101425780635d6e62b2146101625780637013049414610182578063810d40e8146101a2578063b92d30dc146101c2578063c572c738146101e2578063c81e25ab14610202578063d3a5b10714610231578063ed42136f14610251578063ff953b7c1461027e575b600080fd5b3480156100d557600080fd5b506100e96100e436600461123b565b61029e565b005b3480156100f757600080fd5b5061010b610106366004611309565b6103f1565b6040516101199291906119bb565b60405180910390f35b34801561012e57600080fd5b506100e961013d36600461149b565b6104d0565b34801561014e57600080fd5b506100e961015d366004611361565b610527565b34801561016e57600080fd5b506100e961017d366004611309565b61062f565b34801561018e57600080fd5b506100e961019d3660046113a9565b6106b5565b3480156101ae57600080fd5b506100e96101bd36600461149b565b610814565b3480156101ce57600080fd5b5061010b6101dd366004611309565b610872565b3480156101ee57600080fd5b506100e96101fd3660046112cc565b610923565b34801561020e57600080fd5b5061022261021d366004611309565b6109b7565b604051610119939291906119db565b34801561023d57600080fd5b506100e961024c366004611327565b6109ed565b34801561025d57600080fd5b5061027161026c366004611309565b610a97565b6040516101199190611b03565b34801561028a57600080fd5b506100e961029936600461144e565b610c50565b604080516c0100000000000000000000000033026020808301919091527e0100000000000000000000000000000000000000000000000000000000000061ffff871602603483015282516016818403018152603690920183528151918101919091206000818152600192839052929092200154600160a060020a031615156103445760405160e560020a62461bcd02815260040161033b90611a83565b60405180910390fd5b6000818152600160208181526040909220908101805473ffffffffffffffffffffffffffffffffffffffff1916600160a060020a03891617905583519091610393916002840191860190610e85565b5060038101805460ff191660011790556103ad8285610527565b6001810154604051600160a060020a039091169083907ffbc2dadadfd96079ea76357782648329d552bf1a8cb3ba6f28f2af6f2fdf08bc90600090a3505050505050565b600060606103fd610ef7565b60008481526020818152604091829020825180840184528154600160a060020a03168152600180830180548651600261010094831615949094026000190190911692909204601f81018690048602830186019096528582529194929385810193919291908301828280156104b25780601f10610487576101008083540402835291602001916104b2565b820191906000526020600020905b81548152906001019060200180831161049557829003601f168201915b50505091909252505081516020909201519194509092505050915091565b600082815260016020819052604090912090810154600160a060020a0316331461050f5760405160e560020a62461bcd02815260040161033b90611af3565b600301805460ff191660ff9290921691909117905550565b6000828152600160205260409020600381015460ff16151561055e5760405160e560020a62461bcd02815260040161033b90611ad3565b60005b82518160ff16101561062957610575610ef7565b838260ff1681518110151561058657fe5b602090810290910181015180516000908152918290526040909120600185015481549293509091600160a060020a039081169116146105da5760405160e560020a62461bcd02815260040161033b90611a93565b8354600181810180875560008781526020908190208651600290950201938455808601518051929487949093610617939185019290910190610f0f565b50506001909401935061056192505050565b50505050565b600081815260016020526040808220805491517fff953b7c0000000000000000000000000000000000000000000000000000000081529092309263ff953b7c9261067f9287929091600401611a03565b600060405180830381600087803b15801561069957600080fd5b505af11580156106ad573d6000803e3d6000fd5b505050505050565b6000858152602081905260409020600160a060020a03831615156106ee5760405160e560020a62461bcd02815260040161033b90611a73565b8054600160a060020a0316156107195760405160e560020a62461bcd02815260040161033b90611a5d565b805473ffffffffffffffffffffffffffffffffffffffff1916600160a060020a03841617815583516107549060018301906020870190610f0f565b5060008681526020819052604090208154815473ffffffffffffffffffffffffffffffffffffffff1916600160a060020a03909116178155600180830180548493926107ba92818501929091600260001991831615610100029190910190911604610f89565b5050815460405187925088917f5bf81d9123c74aaa380e3baec6db8c37513f385ce8f486b1fef9fffd156e4c6291610804916001870191600160a060020a03909116908890611a2b565b60405180910390a3505050505050565b600082815260016020819052604090912090810154600160a060020a031633146108535760405160e560020a62461bcd02815260040161033b90611aa3565b600301805460ff929092166101000261ffff1990921691909117905550565b600060208181529181526040908190208054600180830180548551600261010094831615949094026000190190911692909204601f8101879004870283018701909552848252600160a060020a0390921694929390928301828280156109195780601f106108ee57610100808354040283529160200191610919565b820191906000526020600020905b8154815290600101906020018083116108fc57829003601f168201915b5050505050905082565b60005b81518160ff1610156109b35761093a610ef7565b828260ff1681518110151561094b57fe5b60209081029190910181015180516000908152918290526040909120805491925090600160a060020a031633146109975760405160e560020a62461bcd02815260040161033b90611ac3565b6109a982600001518360200151610d95565b5050600101610926565b5050565b600160208190526000918252604090912090810154600390910154600160a060020a039091169060ff8082169161010090041683565b60008281526020819052604090208054600160a060020a03163314610a275760405160e560020a62461bcd02815260040161033b90611ab3565b8054600160a060020a0383811673ffffffffffffffffffffffffffffffffffffffff198316178084556040519282169286927f4d2778d25f224a7981314f90e4cf321a226f16d8b8a31ea04a6f191e88151b6892610a899291169085906119a0565b60405180910390a250505050565b610a9f610ffe565b60008281526001602090815260408083208151815460c09481028201850190935260a08101838152909491938593919285929185015b82821015610bb3578382906000526020600020906002020160408051908101604052908160008201548152602001600182018054600181600116156101000203166002900480601f016020809104026020016040519081016040528092919081815260200182805460018160011615610100020316600290048015610b9b5780601f10610b7057610100808354040283529160200191610b9b565b820191906000526020600020905b815481529060010190602001808311610b7e57829003601f168201915b50505050508152505081526020019060010190610ad5565b505050908252506001820154600160a060020a03166020808301919091526002830180546040805182850281018501825282815294019392830182828015610c2457602002820191906000526020600020905b8154600160a060020a03168152600190910190602001808311610c06575b50505091835250506003919091015460ff80821660208401526101009091041660409091015292915050565b60008381526001602052604090206003810154610100900460ff161515610c8c5760405160e560020a62461bcd02815260040161033b90611ae3565b825b82811015610d8e57610c9e610ef7565b8254839083908110610cac57fe5b906000526020600020906002020160408051908101604052908160008201548152602001600182018054600181600116156101000203166002900480601f016020809104026020016040519081016040528092919081815260200182805460018160011615610100020316600290048015610d685780601f10610d3d57610100808354040283529160200191610d68565b820191906000526020600020905b815481529060010190602001808311610d4b57829003601f168201915b5050505050815250509050610d8581600001518260200151610d95565b50600101610c8e565b5050505050565b60008281526020818152604091829020600180820180548551600293821615610100026000190190911692909204601f81018590048502830185019095528482529193606093919291830182828015610e2f5780601f10610e0457610100808354040283529160200191610e2f565b820191906000526020600020905b815481529060010190602001808311610e1257829003601f168201915b50508651939450610e4d936001870193506020880192509050610f0f565b50837f77be61219b420fd0b111842a19b94a83a18c098de15583905c239ced157942de338385600101604051610a899392919061196c565b828054828255906000526020600020908101928215610ee7579160200282015b82811115610ee7578251825473ffffffffffffffffffffffffffffffffffffffff1916600160a060020a03909116178255602090920191600190910190610ea5565b50610ef392915061102c565b5090565b60408051808201909152600081526060602082015290565b828054600181600116156101000203166002900490600052602060002090601f016020900481019282601f10610f5057805160ff1916838001178555610f7d565b82800160010185558215610f7d579182015b82811115610f7d578251825591602001919060010190610f62565b50610ef3929150611060565b828054600181600116156101000203166002900490600052602060002090601f016020900481019282601f10610fc25780548555610f7d565b82800160010185558215610f7d57600052602060002091601f016020900482015b82811115610f7d578254825591600101919060010190610fe3565b6040805160a08101825260608082526000602083018190529282018190528101829052608081019190915290565b61105d91905b80821115610ef357805473ffffffffffffffffffffffffffffffffffffffff19168155600101611032565b90565b61105d91905b80821115610ef35760008155600101611066565b60006110868235611b9a565b9392505050565b6000601f8201831361109e57600080fd5b81356110b16110ac82611b3b565b611b14565b915081818352602084019350602081019050838560208402820111156110d657600080fd5b60005b8381101561110257816110ec888261107a565b84525060209283019291909101906001016110d9565b5050505092915050565b6000601f8201831361111d57600080fd5b813561112b6110ac82611b3b565b81815260209384019390925082018360005b83811015611102578135860161115388826111c4565b845250602092830192919091019060010161113d565b6000611086823561105d565b6000601f8201831361118657600080fd5b81356111946110ac82611b5c565b915080825260208301602083018583830111156111b057600080fd5b6111bb838284611bd9565b50505092915050565b6000604082840312156111d657600080fd5b6111e06040611b14565b905060006111ee8484611169565b825250602082013567ffffffffffffffff81111561120b57600080fd5b61121784828501611175565b60208301525092915050565b60006110868235611bb1565b60006110868235611bab565b6000806000806080858703121561125157600080fd5b600061125d878761107a565b945050602061126e87828801611223565b935050604085013567ffffffffffffffff81111561128b57600080fd5b6112978782880161110c565b925050606085013567ffffffffffffffff8111156112b457600080fd5b6112c08782880161108d565b91505092959194509250565b6000602082840312156112de57600080fd5b813567ffffffffffffffff8111156112f557600080fd5b6113018482850161110c565b949350505050565b60006020828403121561131b57600080fd5b60006113018484611169565b6000806040838503121561133a57600080fd5b60006113468585611169565b92505060206113578582860161107a565b9150509250929050565b6000806040838503121561137457600080fd5b60006113808585611169565b925050602083013567ffffffffffffffff81111561139d57600080fd5b6113578582860161110c565b600080600080600060a086880312156113c157600080fd5b60006113cd8888611169565b95505060206113de88828901611169565b945050604086013567ffffffffffffffff8111156113fb57600080fd5b61140788828901611175565b93505060606114188882890161107a565b925050608086013567ffffffffffffffff81111561143557600080fd5b61144188828901611175565b9150509295509295909350565b60008060006060848603121561146357600080fd5b600061146f8686611169565b935050602061148086828701611169565b925050604061149186828701611169565b9150509250925092565b600080604083850312156114ae57600080fd5b60006114ba8585611169565b92505060206113578582860161122f565b6114d481611bb8565b82525050565b6114d481611b9a565b60006114ee82611b96565b80845260208401935061150083611b84565b60005b82811015611530576115168683516114da565b61151f82611b84565b602096909601959150600101611503565b5093949350505050565b600061154582611b96565b8084526020840193508360208202850161155e85611b84565b60005b8481101561159557838303885261157983835161192e565b925061158482611b84565b602098909801979150600101611561565b50909695505050505050565b6114d48161105d565b6114d481611bc3565b60006115be82611b96565b8084526115d2816020860160208601611be5565b6115db81611c11565b9093016020019392505050565b60008154600181166000811461160557600181146116235761165f565b60028204607f16855260ff198216602086015260408501925061165f565b6002820480865260208601955061163985611b8a565b60005b828110156116585781548882015260019091019060200161163c565b8701945050505b505092915050565b601481527f6578697374696e67207065727370656374697665000000000000000000000000602082015260400190565b601381527f6f776e65722063616e7420626520656d70747900000000000000000000000000602082015260400190565b601381527f426174636820616c726561647920657869737400000000000000000000000000602082015260400190565b603481527f42617463682063616e206f6e6c792073746f726520706572737065637469766560208201527f73206f776e657220627920697473206f776e6572000000000000000000000000604082015260600190565b602881527f42617463682063616e206f6e6c79206279206174686f72697a6564206279206960208201527f7473206f776e6572000000000000000000000000000000000000000000000000604082015260600190565b601381527f756e617574686f72697a65642061636365737300000000000000000000000000602082015260400190565b602381527f5065727370656374697665206e6f74206f776e6564206279206d73672e73656e60208201527f6465720000000000000000000000000000000000000000000000000000000000604082015260600190565b6000815260200190565b601481527f4261746368206e6f7420617574686f72697a6564000000000000000000000000602082015260400190565b602981527f4261746368207374617475732063616e206f6e6c79206279207365742062792060208201527f697473206f776e65720000000000000000000000000000000000000000000000604082015260600190565b805160a0808452600091908401906118d1828261153a565b91505060208301516118e660208601826114da565b50604083015184820360408601526118fe82826114e3565b91505060608301516119136060860182611963565b5060808301516119266080860182611963565b509392505050565b8051600090604084019061194285826115a1565b506020830151848203602086015261195a82826115b3565b95945050505050565b6114d481611bab565b6060810161197a82866114cb565b818103602083015261198c81856115b3565b9050818103604083015261195a81846115e8565b604081016119ae82856114da565b61108660208301846114da565b604081016119c982856114da565b818103602083015261130181846115b3565b606081016119e982866114da565b6119f66020830185611963565b6113016040830184611963565b60608101611a1182866115a1565b611a1e60208301856115aa565b61130160408301846115a1565b60608082528101611a3c81866115e8565b9050611a4b60208301856114da565b818103604083015261195a81846115b3565b60208082528101611a6d81611667565b92915050565b60208082528101611a6d81611697565b60208082528101611a6d816116c7565b60208082528101611a6d816116f7565b60208082528101611a6d8161174d565b60208082528101611a6d816117a3565b60208082528101611a6d816117d3565b60208082528101611a6d81611829565b60208082528101611a6d81611833565b60208082528101611a6d81611863565b6020808252810161108681846118b9565b60405181810167ffffffffffffffff81118282101715611b3357600080fd5b604052919050565b600067ffffffffffffffff821115611b5257600080fd5b5060209081020190565b600067ffffffffffffffff821115611b7357600080fd5b506020601f91909101601f19160190565b60200190565b60009081526020902090565b5190565b6000600160a060020a038216611a6d565b60ff1690565b61ffff1690565b6000611a6d82611bce565b6000611a6d8261105d565b6000611a6d82611b9a565b82818337506000910152565b60005b83811015611c00578181015183820152602001611be8565b838111156106295750506000910152565b601f01601f19169056fea265627a7a723058206e3d650d3c041b973d4b139d2d0c9efd8452068992b64407848d1710f328f68f6c6578706572696d656e74616cf50037",
  "source": "pragma solidity >=0.4.25 <0.6.0;\npragma experimental ABIEncoderV2;\n\n/** Underscore Protocol Ethereum Service used to store the content of\n* _Prtcl perspectives */\ncontract Uprtcl {\n\n\tstruct Perspective {\n\t\taddress owner;\n\t\tstring headCid;\n\t}\n\n\tstruct HeadUpdate {\n\t\tbytes32 perspectiveIdHash;\n\t\tstring headId;\n\t}\n\n\tstruct Batch {\n\n\t\t/** Approved addresses can add new HeadUpdate elements to this\n\t\tlist as long as they are all from the same owner and this owner is\n\t\tthe same as the one of existing HeadUpdates. */\n\t\tHeadUpdate[] headUpdates;\n\n\t\t/** store the owner of this batch. All perspectives in the headUpdates\n\t\tmust be owner by this owner. */\n\t\taddress owner;\n\n\t\taddress[] approvedAddresses;\n\n\t\t/** Status of the batch. New headUpdates can be added by approved\n\t\taddreses as long as status != 0. */\n\t\tuint8 status;\n\n\t\t/** Authorizing the batch lets anyone run one or more of\n\t\tthe head updates in the batch in any order. It can only be called\n\t\tby the owner of all the perspectives in the batch. */\n\t\tuint8 authorized;\n\t}\n\n\tmapping (bytes32 => Perspective) public perspectives;\n\tmapping (bytes32 => Batch) public batches;\n\n\tevent PerspectiveAdded(\n\t\tbytes32 indexed perspectiveIdHash,\n\t\tbytes32 indexed contextIdHash,\n\t\tstring head,\n\t\taddress owner,\n\t\tstring perspectiveCid);\n\n\tevent PerspectiveHeadUpdated(\n\t\tbytes32 indexed perspectiveIdHash,\n\t\taddress author,\n\t\tstring previousHeadCid,\n\t\tstring newHeadCid);\n\n\tevent PerspectiveOwnerUpdated(\n\t\tbytes32 indexed perspectiveIdHash,\n\t\taddress newOwner,\n\t\taddress previousOwner);\n\n\tevent BatchCreated(\n\t\tbytes32 indexed batchId,\n\t\taddress indexed owner);\n\n\t/** Adds a new perspective to the mapping and sets the owner. The head pointer is initialized as null and should\n\t *  be updated independently using updateHead(). The contextId is not persisted but emited in the PerspectiveAdded\n\t *  event to enable filtering. Validation of the perspectiveId to contextId should be done externally using any\n\t * \tcontent addressable\tstorage solution for the perspectiveId. The perspectiveCid is emited to help perspectiveHash\n\t *  reverse mapping */\n\tfunction addPerspective(\n\t\tbytes32 perspectiveIdHash,\n\t\tbytes32 contextIdHash,\n\t\tstring memory head,\n\t\taddress owner,\n\t\tstring memory perspectiveCid) /** LSB */\n\t\tpublic {\n\n\t\tPerspective storage perspective = perspectives[perspectiveIdHash];\n\t\trequire(address(0) != owner, \"owner cant be empty\");\n\t\trequire(address(0) == perspective.owner, \"existing perspective\");\n\n\t\tperspective.owner = owner;\n\t\tperspective.headCid = head;\n\n\t\tperspectives[perspectiveIdHash] = perspective;\n\n\t\temit PerspectiveAdded(\n\t\t\tperspectiveIdHash,\n\t\t\tcontextIdHash,\n\t\t\tperspective.headCid,\n\t\t\tperspective.owner,\n\t\t\tperspectiveCid);\n\t}\n\n\t/** Updates the head pointer of a given perspective. It dont\n\t\tcheck the owner to let the batch functionality do it. Its internal\n\t\tso user should use updateHeads instead. */\n\tfunction updateHead(\n\t\tbytes32 perspectiveIdHash,\n\t\tstring memory newHead) private {\n\n\t\tPerspective storage perspective = perspectives[perspectiveIdHash];\n\n\t\tstring memory parentHead = perspective.headCid;\n\t\tperspective.headCid = newHead;\n\n\t\temit PerspectiveHeadUpdated(\n\t\t\tperspectiveIdHash,\n\t\t\tmsg.sender,\n\t\t\tparentHead,\n\t\t\tperspective.headCid);\n\t}\n\n\t/** Changes the owner of a given perspective. Available only to the current owner of that perspective. */\n\tfunction changeOwner(bytes32 perspectiveIdHash, address newOwner) public {\n\n    \tPerspective storage perspective = perspectives[perspectiveIdHash];\n\t\trequire(msg.sender == perspective.owner, \"unauthorized access\");\n\n    \taddress previousOwner = perspective.owner;\n\t\tperspective.owner = newOwner;\n\n\t\temit PerspectiveOwnerUpdated(perspectiveIdHash, perspective.owner, previousOwner);\n\t}\n\n\t/** Get the perspective owner and head from its ID */\n\tfunction getPerspective(bytes32 perspectiveIdHash)\n\t\tpublic view\n\t\treturns(\n\t\t\taddress owner,\n\t\t\tstring memory headCid) {\n\n\t\tPerspective memory perspective = perspectives[perspectiveIdHash];\n\n\t\treturn (\n\t\t\tperspective.owner,\n\t\t\tperspective.headCid);\n\t}\n\n\t/** One method to execute the head updates directly, without creating the batch. Useful\n\t\tif the owner dont want to use the batch authorization feature.\n\t\tIt also works for updating one single perspective */\n\tfunction updateHeads(HeadUpdate[] memory headUpdates) public {\n\t\tfor (uint8 ix = 0; ix < headUpdates.length; ix++) {\n\t\t\tHeadUpdate memory headUpdate = headUpdates[ix];\n\n\t\t\t/** Check the msg.sender is the owner */\n\t\t\tPerspective storage perspective = perspectives[headUpdate.perspectiveIdHash];\n\t\t\trequire(msg.sender == perspective.owner, \"Perspective not owned by msg.sender\");\n\n\t\t\t/** Update the head */\n\t\t\tupdateHead(headUpdate.perspectiveIdHash, headUpdate.headId);\n\t\t}\n\t}\n\n\t/** Creates a new batch owned and initialize its properties.\n\t\tThe id of the batch is derived from the message sender to prevent frontrunning attacks. */\n\tfunction initBatch(\n\t\taddress owner,\n\t\tuint16 nonce,\n\t\tHeadUpdate[] memory headUpdates,\n\t\taddress[] memory approvedAddresses) public {\n\n\t\tbytes32 batchId = keccak256(abi.encodePacked(msg.sender, nonce));\n\n\t\t/** make sure the batch does not exist */\n\t\trequire(batches[batchId].owner != address(0), \"Batch already exist\");\n\t\tBatch storage batch = batches[batchId];\n\n\t\tbatch.owner = owner;\n\t\tbatch.approvedAddresses = approvedAddresses;\n\t\tbatch.status = 1;\n\n\t\taddUpdatesToBatch(batchId, headUpdates);\n\n\t\temit BatchCreated(\n\t\t\tbatchId,\n\t\t\tbatch.owner\n\t\t);\n\t}\n\n\t/** Add one or more headUpdate elements to an existing batch */\n\tfunction addUpdatesToBatch(\n\t\tbytes32 batchId,\n\t\tHeadUpdate[] memory headUpdates) public {\n\n\t\tBatch storage batch = batches[batchId];\n\n\t\t/** make sure the batch is open for new elements */\n\t\trequire(batch.status != 0, \"\");\n\n\t\t/** initialize */\n\t\tfor (uint8 ix = 0; ix < headUpdates.length; ix++) {\n\t\t\tHeadUpdate memory headUpdate = headUpdates[ix];\n\t\t\t/** Only add perspectives of the same owner! */\n\t\t\tPerspective storage newPerspective = perspectives[headUpdate.perspectiveIdHash];\n\t\t\trequire(newPerspective.owner == batch.owner, \"Batch can only store perspectives owner by its owner\");\n\t\t\tbatch.headUpdates.push(headUpdate);\n\t\t}\n\t}\n\n\tfunction setBatchAuthorized(bytes32 batchId, uint8 authorized) public {\n\t\tBatch storage batch = batches[batchId];\n\t\trequire(msg.sender == batch.owner, \"Batch can only by athorized by its owner\");\n\t\t/** by default the batch is closed once it is authorized. */\n\t\tbatch.status = 0;\n\t\tbatch.authorized = authorized;\n\t}\n\n\tfunction setBatchStatus(bytes32 batchId, uint8 status) public {\n\t\tBatch storage batch = batches[batchId];\n\t\trequire(msg.sender == batch.owner, \"Batch status can only by set by its owner\");\n\t\tbatch.status = status;\n\t}\n\n\tfunction executeBatch(bytes32 batchId) public {\n\t\tBatch storage batch = batches[batchId];\n\t\tthis.executeBatchPartially(batchId, 0, batch.headUpdates.length);\n\t}\n\n\tfunction executeBatchPartially(bytes32 batchId, uint256 fromIx, uint256 toIx) public {\n\t\tBatch storage batch = batches[batchId];\n\t\trequire(batch.authorized != 0, \"Batch not authorized\");\n\n\t\tfor (uint256 ix = fromIx; ix < toIx; ix++) {\n\t\t\tHeadUpdate memory headUpdate = batch.headUpdates[ix];\n\t\t\t/** Update the head */\n\t\t\tupdateHead(headUpdate.perspectiveIdHash, headUpdate.headId);\n\t\t}\n\t}\n\n\t/** Get the perspective owner and head from its ID */\n\tfunction getBatch(bytes32 batchId)\n\t\tpublic view\n\t\treturns(Batch memory batch) {\n\t\treturn (batches[batchId]);\n\t}\n}\n",
  "sourcePath": "/home/pepo/projects/uprtcl/uprtcl-eth/contracts/Uprtcl.sol",
  "compiler": {
    "name": "solc",
    "version": "0.5.0+commit.1d4f565a.Emscripten.clang"
  },
  "schemaVersion": "3.0.9",
  "updatedAt": "2019-08-30T14:44:18.019Z",
  "devdoc": {
    "methods": {}
  },
  "userdoc": {
    "methods": {
      "addPerspective(bytes32,bytes32,string,address,string)": {
        "notice": "Adds a new perspective to the mapping and sets the owner. The head pointer is initialized as null and should be updated independently using updateHead(). The contextId is not persisted but emited in the PerspectiveAdded event to enable filtering. Validation of the perspectiveId to contextId should be done externally using any\tcontent addressable\tstorage solution for the perspectiveId. The perspectiveCid is emited to help perspectiveHash reverse mapping "
      },
      "addUpdatesToBatch(bytes32,(bytes32,string)[])": {
        "notice": "Add one or more headUpdate elements to an existing batch "
      },
      "changeOwner(bytes32,address)": {
        "notice": "Changes the owner of a given perspective. Available only to the current owner of that perspective. "
      },
      "getBatch(bytes32)": {
        "notice": "Get the perspective owner and head from its ID "
      },
      "getPerspective(bytes32)": {
        "notice": "Get the perspective owner and head from its ID "
      },
      "initBatch(address,uint16,address[])": {
        "notice": "Creates a new batch owned and initialize its properties. The id of the batch is derived from the message sender to prevent frontrunning attacks. "
      },
      "updateHeads((bytes32,string)[])": {
        "notice": "One method to execute the head updates directly, without creating the batch. Useful if the owner dont want to use the batch authorization feature. It also works for updating one single perspective "
      },
      "initBatch(address,uint16,(bytes32,string)[],address[])": {
        "notice": "Creates a new batch owned and initialize its properties. The id of the batch is derived from the message sender to prevent frontrunning attacks. "
      }
    },
    "notice": "Underscore Protocol Ethereum Service used to store the content of _Prtcl perspectives "
  }
}