{
  "contractName": "UprtclProposals",
  "abi": [
    {
      "anonymous": false,
      "inputs": [
        {
          "indexed": true,
          "internalType": "address",
          "name": "previousOwner",
          "type": "address"
        },
        {
          "indexed": true,
          "internalType": "address",
          "name": "newOwner",
          "type": "address"
        }
      ],
      "name": "OwnershipTransferred",
      "type": "event"
    },
    {
      "anonymous": false,
      "inputs": [
        {
          "indexed": true,
          "internalType": "bytes32",
          "name": "toPerspectiveIdHash",
          "type": "bytes32"
        },
        {
          "indexed": true,
          "internalType": "bytes32",
          "name": "fromPerspectiveIdHash",
          "type": "bytes32"
        },
        {
          "indexed": true,
          "internalType": "bytes32",
          "name": "proposalId",
          "type": "bytes32"
        }
      ],
      "name": "ProposalCreated",
      "type": "event"
    },
    {
      "constant": true,
      "inputs": [],
      "name": "factor_den",
      "outputs": [
        {
          "internalType": "uint256",
          "name": "",
          "type": "uint256"
        }
      ],
      "payable": false,
      "stateMutability": "view",
      "type": "function"
    },
    {
      "constant": true,
      "inputs": [],
      "name": "factor_num",
      "outputs": [
        {
          "internalType": "uint256",
          "name": "",
          "type": "uint256"
        }
      ],
      "payable": false,
      "stateMutability": "view",
      "type": "function"
    },
    {
      "constant": true,
      "inputs": [
        {
          "internalType": "address",
          "name": "",
          "type": "address"
        }
      ],
      "name": "fees",
      "outputs": [
        {
          "internalType": "uint256",
          "name": "fee",
          "type": "uint256"
        },
        {
          "internalType": "uint256",
          "name": "balance",
          "type": "uint256"
        }
      ],
      "payable": false,
      "stateMutability": "view",
      "type": "function"
    },
    {
      "constant": true,
      "inputs": [],
      "name": "isOwner",
      "outputs": [
        {
          "internalType": "bool",
          "name": "",
          "type": "bool"
        }
      ],
      "payable": false,
      "stateMutability": "view",
      "type": "function"
    },
    {
      "constant": true,
      "inputs": [],
      "name": "minFee",
      "outputs": [
        {
          "internalType": "uint256",
          "name": "",
          "type": "uint256"
        }
      ],
      "payable": false,
      "stateMutability": "view",
      "type": "function"
    },
    {
      "constant": true,
      "inputs": [],
      "name": "owner",
      "outputs": [
        {
          "internalType": "address payable",
          "name": "",
          "type": "address"
        }
      ],
      "payable": false,
      "stateMutability": "view",
      "type": "function"
    },
    {
      "constant": true,
      "inputs": [
        {
          "internalType": "bytes32",
          "name": "",
          "type": "bytes32"
        }
      ],
      "name": "proposals",
      "outputs": [
        {
          "internalType": "bytes32",
          "name": "toPerspectiveIdHash",
          "type": "bytes32"
        },
        {
          "internalType": "bytes32",
          "name": "fromPerspectiveIdHash",
          "type": "bytes32"
        },
        {
          "internalType": "address",
          "name": "owner",
          "type": "address"
        },
        {
          "internalType": "uint256",
          "name": "nonce",
          "type": "uint256"
        },
        {
          "internalType": "uint8",
          "name": "status",
          "type": "uint8"
        },
        {
          "internalType": "uint8",
          "name": "authorized",
          "type": "uint8"
        }
      ],
      "payable": false,
      "stateMutability": "view",
      "type": "function"
    },
    {
      "constant": false,
      "inputs": [],
      "name": "renounceOwnership",
      "outputs": [],
      "payable": false,
      "stateMutability": "nonpayable",
      "type": "function"
    },
    {
      "constant": false,
      "inputs": [
        {
          "internalType": "address payable",
          "name": "newOwner",
          "type": "address"
        }
      ],
      "name": "transferOwnership",
      "outputs": [],
      "payable": false,
      "stateMutability": "nonpayable",
      "type": "function"
    },
    {
      "constant": false,
      "inputs": [
        {
          "internalType": "contract UprtclRoot",
          "name": "_uprtclRoot",
          "type": "address"
        }
      ],
      "name": "setUprtclRoot",
      "outputs": [],
      "payable": false,
      "stateMutability": "nonpayable",
      "type": "function"
    },
    {
      "constant": true,
      "inputs": [
        {
          "internalType": "bytes32",
          "name": "toPerspectiveIdHash",
          "type": "bytes32"
        },
        {
          "internalType": "bytes32",
          "name": "fromPerspectiveIdHash",
          "type": "bytes32"
        },
        {
          "internalType": "uint256",
          "name": "nonce",
          "type": "uint256"
        }
      ],
      "name": "getProposalId",
      "outputs": [
        {
          "internalType": "bytes32",
          "name": "proposalId",
          "type": "bytes32"
        }
      ],
      "payable": false,
      "stateMutability": "pure",
      "type": "function"
    },
    {
      "constant": false,
      "inputs": [
        {
          "internalType": "uint256",
          "name": "_minFee",
          "type": "uint256"
        }
      ],
      "name": "setMinFee",
      "outputs": [],
      "payable": false,
      "stateMutability": "nonpayable",
      "type": "function"
    },
    {
      "constant": false,
      "inputs": [
        {
          "internalType": "uint256",
          "name": "_factor_num",
          "type": "uint256"
        }
      ],
      "name": "setFactorNum",
      "outputs": [],
      "payable": false,
      "stateMutability": "nonpayable",
      "type": "function"
    },
    {
      "constant": false,
      "inputs": [
        {
          "internalType": "uint256",
          "name": "_factor_den",
          "type": "uint256"
        }
      ],
      "name": "setFactorDen",
      "outputs": [],
      "payable": false,
      "stateMutability": "nonpayable",
      "type": "function"
    },
    {
      "constant": false,
      "inputs": [
        {
          "components": [
            {
              "internalType": "bytes32",
              "name": "toPerspectiveIdHash",
              "type": "bytes32"
            },
            {
              "internalType": "bytes32",
              "name": "fromPerspectiveIdHash",
              "type": "bytes32"
            },
            {
              "internalType": "address",
              "name": "owner",
              "type": "address"
            },
            {
              "internalType": "uint256",
              "name": "nonce",
              "type": "uint256"
            },
            {
              "components": [
                {
                  "internalType": "bytes32",
                  "name": "perspectiveIdHash",
                  "type": "bytes32"
                },
                {
                  "internalType": "bytes32",
                  "name": "headCid0",
                  "type": "bytes32"
                },
                {
                  "internalType": "bytes32",
                  "name": "headCid1",
                  "type": "bytes32"
                },
                {
                  "internalType": "uint8",
                  "name": "executed",
                  "type": "uint8"
                }
              ],
              "internalType": "struct UprtclProposals.HeadUpdate[]",
              "name": "headUpdates",
              "type": "tuple[]"
            },
            {
              "internalType": "address[]",
              "name": "approvedAddresses",
              "type": "address[]"
            }
          ],
          "internalType": "struct UprtclProposals.NewProposal",
          "name": "newProposal",
          "type": "tuple"
        },
        {
          "internalType": "address",
          "name": "account",
          "type": "address"
        }
      ],
      "name": "initProposal",
      "outputs": [],
      "payable": false,
      "stateMutability": "nonpayable",
      "type": "function"
    },
    {
      "constant": false,
      "inputs": [
        {
          "internalType": "bytes32",
          "name": "proposalId",
          "type": "bytes32"
        },
        {
          "components": [
            {
              "internalType": "bytes32",
              "name": "perspectiveIdHash",
              "type": "bytes32"
            },
            {
              "internalType": "bytes32",
              "name": "headCid0",
              "type": "bytes32"
            },
            {
              "internalType": "bytes32",
              "name": "headCid1",
              "type": "bytes32"
            },
            {
              "internalType": "uint8",
              "name": "executed",
              "type": "uint8"
            }
          ],
          "internalType": "struct UprtclProposals.HeadUpdate[]",
          "name": "headUpdates",
          "type": "tuple[]"
        }
      ],
      "name": "addUpdatesToProposal",
      "outputs": [],
      "payable": false,
      "stateMutability": "nonpayable",
      "type": "function"
    },
    {
      "constant": false,
      "inputs": [
        {
          "internalType": "bytes32",
          "name": "proposalId",
          "type": "bytes32"
        },
        {
          "internalType": "uint8",
          "name": "status",
          "type": "uint8"
        }
      ],
      "name": "setProposalStatus",
      "outputs": [],
      "payable": false,
      "stateMutability": "nonpayable",
      "type": "function"
    },
    {
      "constant": false,
      "inputs": [
        {
          "internalType": "bytes32",
          "name": "proposalId",
          "type": "bytes32"
        },
        {
          "internalType": "uint8",
          "name": "authorized",
          "type": "uint8"
        }
      ],
      "name": "setProposalAuthorized",
      "outputs": [],
      "payable": false,
      "stateMutability": "nonpayable",
      "type": "function"
    },
    {
      "constant": false,
      "inputs": [
        {
          "internalType": "bytes32",
          "name": "proposalId",
          "type": "bytes32"
        },
        {
          "internalType": "address",
          "name": "account",
          "type": "address"
        }
      ],
      "name": "executeProposal",
      "outputs": [],
      "payable": false,
      "stateMutability": "nonpayable",
      "type": "function"
    },
    {
      "constant": false,
      "inputs": [
        {
          "internalType": "bytes32",
          "name": "proposalId",
          "type": "bytes32"
        },
        {
          "internalType": "uint256[]",
          "name": "indexes",
          "type": "uint256[]"
        },
        {
          "internalType": "address",
          "name": "account",
          "type": "address"
        }
      ],
      "name": "executeProposalPartially",
      "outputs": [],
      "payable": false,
      "stateMutability": "nonpayable",
      "type": "function"
    },
    {
      "constant": true,
      "inputs": [
        {
          "internalType": "bytes32",
          "name": "proposalId",
          "type": "bytes32"
        }
      ],
      "name": "getProposal",
      "outputs": [
        {
          "components": [
            {
              "internalType": "bytes32",
              "name": "toPerspectiveIdHash",
              "type": "bytes32"
            },
            {
              "internalType": "bytes32",
              "name": "fromPerspectiveIdHash",
              "type": "bytes32"
            },
            {
              "internalType": "address",
              "name": "owner",
              "type": "address"
            },
            {
              "internalType": "uint256",
              "name": "nonce",
              "type": "uint256"
            },
            {
              "components": [
                {
                  "internalType": "bytes32",
                  "name": "perspectiveIdHash",
                  "type": "bytes32"
                },
                {
                  "internalType": "bytes32",
                  "name": "headCid0",
                  "type": "bytes32"
                },
                {
                  "internalType": "bytes32",
                  "name": "headCid1",
                  "type": "bytes32"
                },
                {
                  "internalType": "uint8",
                  "name": "executed",
                  "type": "uint8"
                }
              ],
              "internalType": "struct UprtclProposals.HeadUpdate[]",
              "name": "headUpdates",
              "type": "tuple[]"
            },
            {
              "internalType": "address[]",
              "name": "approvedAddresses",
              "type": "address[]"
            },
            {
              "internalType": "uint8",
              "name": "status",
              "type": "uint8"
            },
            {
              "internalType": "uint8",
              "name": "authorized",
              "type": "uint8"
            }
          ],
          "internalType": "struct UprtclProposals.Proposal",
          "name": "proposal",
          "type": "tuple"
        }
      ],
      "payable": false,
      "stateMutability": "view",
      "type": "function"
    }
  ],
  "bytecode": "0x60806040526100156001600160e01b0361006216565b600080546001600160a01b0319166001600160a01b03928316178082556040519216917f8be0079c531659141344cd1fd0a4f28419497f9722a3daafe3b4186f6b6457e0908290a3610066565b3390565b61237d806100756000396000f3fe608060405234801561001057600080fd5b50600436106101375760003560e01c8063715018a6116100b8578063971a294f1161007c578063971a294f146102685780639eb788c51461027b578063b80d3bdc1461028e578063f18251f1146102a1578063f2fde38b146102b4578063faaebd21146102c757610137565b8063715018a6146102105780637cce0117146102185780638517f68a1461022b5780638da5cb5b1461023e5780638f32d59b1461025357610137565b806332e31af0116100ff57806332e31af01461019d57806332ed5b12146101b057806339eacf34146101d5578063430694cf146101e857806352f386cb1461020857610137565b806305196b9d1461013c5780630de4cb191461015a57806324ec75901461016f57806326d50df11461017757806331ac99201461018a575b600080fd5b6101446102e8565b6040516101519190612098565b60405180910390f35b61016d610168366004611874565b6102ee565b005b610144610320565b61016d6101853660046118cc565b610326565b61016d610198366004611874565b610650565b61016d6101ab366004611a0a565b610679565b6101c36101be366004611874565b6109e0565b604051610151969594939291906120a6565b61016d6101e33660046119bc565b610a24565b6101fb6101f6366004611874565b610a76565b6040516101519190612216565b610144610bc9565b61016d610bcf565b61016d6102263660046119ec565b610c3d565b61016d610239366004611914565b610c83565b610246610c94565b6040516101519190612016565b61025b610ca4565b604051610151919061208a565b61016d610276366004611874565b610cc8565b61016d610289366004611892565b610cf1565b61014461029c366004611979565b610e42565b61016d6102af3660046119bc565b610e78565b61016d6102c2366004611830565b610ee6565b6102da6102d5366004611830565b610f16565b604051610151929190612227565b60045481565b6102f6610ca4565b61031b5760405162461bcd60e51b8152600401610312906121f6565b60405180910390fd5b600455565b60035481565b600082815260016020526040902060028101546001600160a01b031661035e5760405162461bcd60e51b815260040161031290612196565b600681015460ff166103825760405162461bcd60e51b815260040161031290612206565b604080516101008101825282548152600183015460208083019190915260028401546001600160a01b031682840152600384015460608301526004840180548451818402810184019095528085526000946104ca9493879360808601939091889084015b8282101561043d576000848152602090819020604080516080810182526004860290920180548352600180820154848601526002820154928401929092526003015460ff16606083015290835290920191016103e6565b5050505081526020016005820180548060200260200160405190810160405280929190818152602001828054801561049e57602002820191906000526020600020905b81546001600160a01b03168152600190910190602001808311610480575b50505091835250506006919091015460ff80821660208401526101009091041660409091015233610f2f565b60ff16116104ea5760405162461bcd60e51b8152600401610312906121b6565b60005b82518160ff16101561064a576105016113fd565b838260ff168151811061051057fe5b60200260200101519050806060015160ff166000146105415760405162461bcd60e51b815260040161031290612166565b60028301546006548251604051631393bbf560e01b81526001600160a01b039384169390921691631393bbf59161057a91600401612098565b60206040518083038186803b15801561059257600080fd5b505afa1580156105a6573d6000803e3d6000fd5b505050506040513d601f19601f820116820180604052506105ca9190810190611856565b6001600160a01b0316146105f05760405162461bcd60e51b815260040161031290612156565b600483810180546001808201835560009283526020928390208551929094029093019081559083015181830155604083015160028201556060909201516003909201805460ff191660ff90931692909217909155016104ed565b50505050565b610658610ca4565b6106745760405162461bcd60e51b8152600401610312906121f6565b600355565b6006548251604051631393bbf560e01b81526000926001600160a01b031691631393bbf5916106ab9190600401612098565b60206040518083038186803b1580156106c357600080fd5b505afa1580156106d7573d6000803e3d6000fd5b505050506040513d601f19601f820116820180604052506106fb9190810190611856565b6001600160a01b03811660009081526002602052604090205490915080610791576003541561078c576006546003546040516302654acd60e51b81526001600160a01b0390921691634ca959a0916107599187913391600401612062565b600060405180830381600087803b15801561077357600080fd5b505af1158015610787573d6000803e3d6000fd5b505050505b6108d1565b60006107ba6005546107ae60045485610fb290919063ffffffff16565b9063ffffffff610ff316565b905060006107eb6005546107ae6107de60045460055461103590919063ffffffff16565b869063ffffffff610fb216565b60035490915082908110156107ff57506003545b600654604051636556cd0560e01b81526001600160a01b0390911690636556cd059061083590899033908a908890600401612024565b600060405180830381600087803b15801561084f57600080fd5b505af1158015610863573d6000803e3d6000fd5b50506006546040516302654acd60e51b81526001600160a01b039091169250634ca959a0915061089b90899033908690600401612062565b600060405180830381600087803b1580156108b557600080fd5b505af11580156108c9573d6000803e3d6000fd5b505050505050505b60006108ea856000015186602001518760600151610e42565b60008181526001602052604090206002810154919250906001600160a01b0316156109275760405162461bcd60e51b8152600401610312906121c6565b85518155602080870151600183015560408701516002830180546001600160a01b0319166001600160a01b039092169190911790556060870151600383015560a0870151805161097d9260058501920190611424565b5060068101805461ff001960ff1990911660011716905560808601516109a4908390610326565b60208601518651604051849291907fce71c3ab622a29b5fdfec848c59fcdb091cad2d180d8babba5c659726e56816690600090a4505050505050565b60016020819052600091825260409091208054918101546002820154600383015460069093015491926001600160a01b039091169160ff8082169161010090041686565b600082815260016020526040902060028101546001600160a01b03163314610a5e5760405162461bcd60e51b815260040161031290612146565b600601805460ff191660ff9290921691909117905550565b610a7e611489565b600082815260016020818152604080842081516101008101835281548152938101548484015260028101546001600160a01b031684830152600381015460608501526004810180548351818602810186019094528084529495919460808701949192909184015b82821015610b3c576000848152602090819020604080516080810182526004860290920180548352600180820154848601526002820154928401929092526003015460ff1660608301529083529092019101610ae5565b50505050815260200160058201805480602002602001604051908101604052809291908181526020018280548015610b9d57602002820191906000526020600020905b81546001600160a01b03168152600190910190602001808311610b7f575b50505091835250506006919091015460ff80821660208401526101009091041660409091015292915050565b60055481565b610bd7610ca4565b610bf35760405162461bcd60e51b8152600401610312906121f6565b600080546040516001600160a01b03909116907f8be0079c531659141344cd1fd0a4f28419497f9722a3daafe3b4186f6b6457e0908390a3600080546001600160a01b0319169055565b610c45610ca4565b610c615760405162461bcd60e51b8152600401610312906121f6565b600680546001600160a01b0319166001600160a01b0392909216919091179055565b610c8f83833384611077565b505050565b6000546001600160a01b03165b90565b600080546001600160a01b0316610cb9611315565b6001600160a01b031614905090565b610cd0610ca4565b610cec5760405162461bcd60e51b8152600401610312906121f6565b600555565b600082815260016020818152604080842081516101008101835281548152938101548484015260028101546001600160a01b03168483015260038101546060850152600481018054835181860281018601909452808452919594610db394909387936080860193919288908401821561043d576000848152602090819020604080516080810182526004860290920180548352600180820154848601526002820154928401929092526003015460ff16606083015290835290920191016103e6565b60ff1611610dd35760405162461bcd60e51b8152600401610312906121b6565b60048101546040805182815260208084028201019091526060918015610e03578160200160208202803883390190505b50905060005b6004830154811015610e355780828281518110610e2257fe5b6020908102919091010152600101610e09565b5061064a84823386611077565b6000838383604051602001610e5993929190611fdf565b6040516020818303038152906040528051906020012090509392505050565b600082815260016020526040902060028101546001600160a01b03163314610eb25760405162461bcd60e51b815260040161031290612186565b60ff821615610ec85760068101805460ff191690555b600601805460ff9092166101000261ff001990921691909117905550565b610eee610ca4565b610f0a5760405162461bcd60e51b8152600401610312906121f6565b610f1381611319565b50565b6002602052600090815260409020805460019091015482565b60008260a001515160001415610f4757506001610fac565b60005b8360a00151518163ffffffff161015610fa6578360a001518163ffffffff1681518110610f7357fe5b60200260200101516001600160a01b0316836001600160a01b03161415610f9e575060019050610fac565b600101610f4a565b50600090505b92915050565b600082610fc157506000610fac565b82820282848281610fce57fe5b0414610fec5760405162461bcd60e51b8152600401610312906121d6565b9392505050565b6000610fec83836040518060400160405280601a81526020017f536166654d6174683a206469766973696f6e206279207a65726f00000000000081525061139a565b6000610fec83836040518060400160405280601e81526020017f536166654d6174683a207375627472616374696f6e206f766572666c6f7700008152506113d1565b60008481526001602052604090206006810154610100900460ff166110ae5760405162461bcd60e51b8152600401610312906121e6565b604080516101008101825282548152600183015460208083019190915260028401546001600160a01b031682840152600384015460608301526004840180548451818402810184019095528085526000946111f69493879360808601939091889084015b82821015611169576000848152602090819020604080516080810182526004860290920180548352600180820154848601526002820154928401929092526003015460ff1660608301529083529092019101611112565b505050508152602001600582018054806020026020016040519081016040528092919081815260200182805480156111ca57602002820191906000526020600020905b81546001600160a01b031681526001909101906020018083116111ac575b50505091835250506006919091015460ff80821660208401526101009091041660409091015285610f2f565b60ff16116112165760405162461bcd60e51b8152600401610312906121b6565b60005b845181101561130d5760008260040186838151811061123457fe5b60200260200101518154811061124657fe5b60009182526020909120600490910201600381015490915060ff161561127e5760405162461bcd60e51b8152600401610312906121a6565b60038101805460ff1916600190811790915560065482549183015460028401546040516301d4f0fd60e31b81526001600160a01b0390931693630ea787e8936112ce939192908a90600401612100565b600060405180830381600087803b1580156112e857600080fd5b505af11580156112fc573d6000803e3d6000fd5b505060019093019250611219915050565b505050505050565b3390565b6001600160a01b03811661133f5760405162461bcd60e51b815260040161031290612176565b600080546040516001600160a01b03808516939216917f8be0079c531659141344cd1fd0a4f28419497f9722a3daafe3b4186f6b6457e091a3600080546001600160a01b0319166001600160a01b0392909216919091179055565b600081836113bb5760405162461bcd60e51b81526004016103129190612135565b5060008385816113c757fe5b0495945050505050565b600081848411156113f55760405162461bcd60e51b81526004016103129190612135565b505050900390565b60408051608081018252600080825260208201819052918101829052606081019190915290565b828054828255906000526020600020908101928215611479579160200282015b8281111561147957825182546001600160a01b0319166001600160a01b03909116178255602090920191600190910190611444565b506114859291506114cc565b5090565b604080516101008101825260008082526020820181905291810182905260608082018390526080820181905260a082015260c0810182905260e081019190915290565b610ca191905b808211156114855780546001600160a01b03191681556001016114d2565b8035610fac8161230b565b8051610fac8161230b565b600082601f83011261151757600080fd5b813561152a61152582612269565b612242565b9150818183526020840193506020810190508385602084028201111561154f57600080fd5b60005b8381101561157b578161156588826114f0565b8452506020928301929190910190600101611552565b5050505092915050565b600082601f83011261159657600080fd5b81356115a461152582612269565b915081818352602084019350602081019050838560808402820111156115c957600080fd5b60005b8381101561157b57816115df88826116ef565b845250602090920191608091909101906001016115cc565b600082601f83011261160857600080fd5b813561161661152582612269565b9150818183526020840193506020810190508385608084028201111561163b57600080fd5b60005b8381101561157b578161165188826116ef565b8452506020909201916080919091019060010161163e565b600082601f83011261167a57600080fd5b813561168861152582612269565b915081818352602084019350602081019050838560208402820111156116ad57600080fd5b60005b8381101561157b57816116c388826116d9565b84525060209283019291909101906001016116b0565b8035610fac8161231f565b8035610fac81612328565b60006080828403121561170157600080fd5b61170b6080612242565b9050600061171984846116d9565b825250602061172a848483016116d9565b602083015250604061173e848285016116d9565b604083015250606061175284828501611825565b60608301525092915050565b600060c0828403121561177057600080fd5b61177a60c0612242565b9050600061178884846116d9565b8252506020611799848483016116d9565b60208301525060406117ad848285016114f0565b60408301525060606117c1848285016116d9565b606083015250608082013567ffffffffffffffff8111156117e157600080fd5b6117ed84828501611585565b60808301525060a082013567ffffffffffffffff81111561180d57600080fd5b61181984828501611506565b60a08301525092915050565b8035610fac81612331565b60006020828403121561184257600080fd5b600061184e84846114f0565b949350505050565b60006020828403121561186857600080fd5b600061184e84846114fb565b60006020828403121561188657600080fd5b600061184e84846116d9565b600080604083850312156118a557600080fd5b60006118b185856116d9565b92505060206118c2858286016114f0565b9150509250929050565b600080604083850312156118df57600080fd5b60006118eb85856116d9565b925050602083013567ffffffffffffffff81111561190857600080fd5b6118c2858286016115f7565b60008060006060848603121561192957600080fd5b600061193586866116d9565b935050602084013567ffffffffffffffff81111561195257600080fd5b61195e86828701611669565b925050604061196f868287016114f0565b9150509250925092565b60008060006060848603121561198e57600080fd5b600061199a86866116d9565b93505060206119ab868287016116d9565b925050604061196f868287016116d9565b600080604083850312156119cf57600080fd5b60006119db85856116d9565b92505060206118c285828601611825565b6000602082840312156119fe57600080fd5b600061184e84846116e4565b60008060408385031215611a1d57600080fd5b823567ffffffffffffffff811115611a3457600080fd5b6118b18582860161175e565b6000611a4c8383611a77565b505060200190565b6000611a608383611edc565b505060800190565b611a71816122ca565b82525050565b611a718161229d565b6000611a8b82612290565b611a958185612294565b9350611aa08361228a565b8060005b83811015611ace578151611ab88882611a40565b9750611ac38361228a565b925050600101611aa4565b509495945050505050565b6000611ae482612290565b611aee8185612294565b9350611af98361228a565b8060005b83811015611ace578151611b118882611a54565b9750611b1c8361228a565b925050600101611afd565b611a71816122a8565b611a7181610ca1565b611a71611b4582610ca1565b610ca1565b6000611b5582612290565b611b5f8185612294565b9350611b6f8185602086016122d5565b611b7881612301565b9093019392505050565b6000611b8f602c83612294565b7f50726f706f73616c207374617475732063616e206f6e6c79206279207365742081526b313c9034ba399037bbb732b960a11b602082015260400192915050565b6000611bdd603783612294565b7f70726f706f73616c2063616e206f6e6c792073746f726520706572737065637481527f69766573206f776e656420627920697473206f776e6572000000000000000000602082015260400192915050565b6000611c3c602a83612294565b7f68656164207570646174652065786563757465642070726f7065727479206d758152697374206265207a65726f60b01b602082015260400192915050565b6000611c88602683612294565b7f4f776e61626c653a206e6577206f776e657220697320746865207a65726f206181526564647265737360d01b602082015260400192915050565b6000611cd0602c83612294565b7f50726f706f73616c2063616e206f6e6c7920627920617574686f72697a65642081526b313c9034ba399037bbb732b960a11b602082015260400192915050565b6000611d1e601283612294565b711c1c9bdc1bdcd85b081b9bdd08199bdd5b9960721b815260200192915050565b6000611d4c601c83612294565b7f686561642075706461746520616c726561647920657865637574656400000000815260200192915050565b6000611d85602283612294565b7f6d73672e73656e646572206e6f7420616e20617070726f766564206164647265815261737360f01b602082015260400192915050565b6000611dc9601683612294565b751c1c9bdc1bdcd85b08185b1c9958591e48195e1a5cdd60521b815260200192915050565b6000611dfb602183612294565b7f536166654d6174683a206d756c7469706c69636174696f6e206f766572666c6f8152607760f81b602082015260400192915050565b6000611e3e601783612294565b7f50726f706f73616c206e6f7420617574686f72697a6564000000000000000000815260200192915050565b6000611e77602083612294565b7f4f776e61626c653a2063616c6c6572206973206e6f7420746865206f776e6572815260200192915050565b6000611eb0601b83612294565b7f70726f706f73616c207374617475732069732064697361626c65640000000000815260200192915050565b80516080830190611eed8482611b30565b506020820151611f006020850182611b30565b506040820151611f136040850182611b30565b50606082015161064a6060850182611fd6565b8051600090610100840190611f3b8582611b30565b506020830151611f4e6020860182611b30565b506040830151611f616040860182611a77565b506060830151611f746060860182611b30565b5060808301518482036080860152611f8c8282611ad9565b91505060a083015184820360a0860152611fa68282611a80565b91505060c0830151611fbb60c0860182611fd6565b5060e0830151611fce60e0860182611fd6565b509392505050565b611a71816122c4565b6000611feb8286611b39565b602082019150611ffb8285611b39565b60208201915061200b8284611b39565b506020019392505050565b60208101610fac8284611a77565b608081016120328287611a77565b61203f6020830186611a68565b61204c6040830185611a77565b6120596060830184611b30565b95945050505050565b606081016120708286611a77565b61207d6020830185611a68565b61184e6040830184611b30565b60208101610fac8284611b27565b60208101610fac8284611b30565b60c081016120b48289611b30565b6120c16020830188611b30565b6120ce6040830187611a77565b6120db6060830186611b30565b6120e86080830185611fd6565b6120f560a0830184611fd6565b979650505050505050565b6080810161210e8287611b30565b61211b6020830186611b30565b6121286040830185611b30565b6120596060830184611a77565b60208082528101610fec8184611b4a565b60208082528101610fac81611b82565b60208082528101610fac81611bd0565b60208082528101610fac81611c2f565b60208082528101610fac81611c7b565b60208082528101610fac81611cc3565b60208082528101610fac81611d11565b60208082528101610fac81611d3f565b60208082528101610fac81611d78565b60208082528101610fac81611dbc565b60208082528101610fac81611dee565b60208082528101610fac81611e31565b60208082528101610fac81611e6a565b60208082528101610fac81611ea3565b60208082528101610fec8184611f26565b604081016122358285611b30565b610fec6020830184611b30565b60405181810167ffffffffffffffff8111828210171561226157600080fd5b604052919050565b600067ffffffffffffffff82111561228057600080fd5b5060209081020190565b60200190565b5190565b90815260200190565b6000610fac826122b8565b151590565b6000610fac8261229d565b6001600160a01b031690565b60ff1690565b6000610fac826122ad565b60005b838110156122f05781810151838201526020016122d8565b8381111561064a5750506000910152565b601f01601f191690565b6123148161229d565b8114610f1357600080fd5b61231481610ca1565b612314816122ad565b612314816122c456fea365627a7a7231582052885f2508ef2891c2626ea72c8abfa1c64f2647ef94efd5207136e802d354106c6578706572696d656e74616cf564736f6c63430005100040",
  "source": "pragma solidity >=0.5.0 <0.6.0;\npragma experimental ABIEncoderV2;\n\nimport \"./UprtclRoot.sol\";\nimport \"./SafeMath.sol\";\n\ncontract UprtclProposals is Ownable {\n\n    using SafeMath for uint256;\n\n    struct HeadUpdate {\n        bytes32 perspectiveIdHash;\n        bytes32 headCid0;\n        bytes32 headCid1;\n        uint8 executed;\n    }\n\n    struct NewProposal {\n        bytes32 toPerspectiveIdHash;\n        bytes32 fromPerspectiveIdHash;\n        address owner;\n        uint256 nonce;\n        HeadUpdate[] headUpdates;\n        address[] approvedAddresses;\n    }\n\n    struct Proposal {\n        bytes32 toPerspectiveIdHash;\n        bytes32 fromPerspectiveIdHash;\n        address owner;\n        uint256 nonce;\n        HeadUpdate[] headUpdates;\n        address[] approvedAddresses;\n        uint8 status;\n        uint8 authorized;\n    }\n\n    struct OwnerFees {\n        uint256 fee;\n        uint256 balance;\n    }\n\n    mapping(bytes32 => Proposal) public proposals;\n    mapping(address => OwnerFees) public fees;\n    \n    uint256 public minFee;\n    uint256 public factor_num;\n    uint256 public factor_den;\n\n    UprtclRoot uprtclRoot;\n\n    event ProposalCreated(\n        bytes32 indexed toPerspectiveIdHash,\n        bytes32 indexed fromPerspectiveIdHash,\n        bytes32 indexed proposalId\n    );\n\n    function setUprtclRoot(UprtclRoot _uprtclRoot) public onlyOwner {\n        uprtclRoot = _uprtclRoot;\n    }\n\n    function getProposalId(\n        bytes32 toPerspectiveIdHash,\n        bytes32 fromPerspectiveIdHash,\n        uint256 nonce\n    ) public pure returns (bytes32 proposalId) {\n        proposalId = keccak256(\n            abi.encodePacked(toPerspectiveIdHash, fromPerspectiveIdHash, nonce)\n        );\n    }\n\n    function setMinFee(uint256 _minFee) public onlyOwner {\n        minFee = _minFee;\n    }\n\n    function setFactorNum(uint256 _factor_num) public onlyOwner {\n        factor_num = _factor_num;\n    }\n\n    function setFactorDen(uint256 _factor_den) public onlyOwner {\n        factor_den = _factor_den;\n    }\n\n    function initProposal(\n        NewProposal memory newProposal,\n        address account\n    ) public {\n        \n        address perspOwner = uprtclRoot.getPerspectiveOwner(newProposal.toPerspectiveIdHash);\n        uint256 perspFee = fees[perspOwner].fee;\n\n        if (perspFee == 0) {\n            /** charge only min fee */\n            if (minFee > 0) {\n                uprtclRoot.consume(account, msg.sender, minFee);\n            }\n        } else {\n            /** charge fee and transfer to perspOwner, keep a fraction to us */\n            uint256 feeUprtcl = perspFee.mul(factor_num).div(factor_den);\n            uint256 feeOwner = perspFee.mul(factor_den.sub(factor_num)).div(factor_den);\n\n            uint256 feeUprtclActual = feeUprtcl;\n            if (feeUprtcl < minFee) {\n                feeUprtclActual = minFee;\n            }\n\n            uprtclRoot.transferTo(account, msg.sender, perspOwner, feeOwner);\n            uprtclRoot.consume(account, msg.sender, feeUprtclActual);\n        }\n\n        bytes32 proposalId = getProposalId(\n            newProposal.toPerspectiveIdHash,\n            newProposal.fromPerspectiveIdHash,\n            newProposal.nonce\n        );\n\n        /** make sure the proposal does not exist */\n        Proposal storage proposal = proposals[proposalId];\n        require(proposal.owner == address(0), \"proposal already exist\");\n\n        proposal.toPerspectiveIdHash = newProposal.toPerspectiveIdHash;\n        proposal.fromPerspectiveIdHash = newProposal.fromPerspectiveIdHash;\n        proposal.owner = newProposal.owner;\n        proposal.nonce = newProposal.nonce;\n        proposal.approvedAddresses = newProposal.approvedAddresses;\n        proposal.status = 1;\n        proposal.authorized = 0;\n\n        addUpdatesToProposal(proposalId, newProposal.headUpdates);\n\n        emit ProposalCreated(\n            newProposal.toPerspectiveIdHash,\n            newProposal.fromPerspectiveIdHash,\n            proposalId\n        );\n    }\n\n    function isApproved(Proposal memory proposal, address value)\n        private\n        pure\n        returns (uint8 approved)\n    {\n\t\tif (proposal.approvedAddresses.length == 0) {\n\t\t\tapproved = 1;\n\t\t\treturn approved;\n\t\t}\n\n        for (uint32 ix = 0; ix < proposal.approvedAddresses.length; ix++) {\n            if (value == proposal.approvedAddresses[ix]) {\n                approved = 1;\n                return approved;\n            }\n        }\n        approved = 0;\n    }\n\n    /** Add one or more headUpdate elements to an existing proposal */\n    function addUpdatesToProposal(\n        bytes32 proposalId,\n        HeadUpdate[] memory headUpdates\n    ) public {\n        Proposal storage proposal = proposals[proposalId];\n\n        /** make sure the proposal is open for new elements */\n        require(proposal.owner != address(0), \"proposal not found\");\n        require(proposal.status != 0, \"proposal status is disabled\");\n        require(\n            isApproved(proposal, msg.sender) > 0,\n            \"msg.sender not an approved address\"\n        );\n\n        for (uint8 ix = 0; ix < headUpdates.length; ix++) {\n            HeadUpdate memory headUpdate = headUpdates[ix];\n            require(\n                headUpdate.executed == 0,\n                \"head update executed property must be zero\"\n            );\n            require(\n                uprtclRoot.getPerspectiveOwner(headUpdate.perspectiveIdHash) == proposal.owner,\n                \"proposal can only store perspectives owned by its owner\"\n            );\n            proposal.headUpdates.push(headUpdate);\n        }\n    }\n\n    function setProposalStatus(bytes32 proposalId, uint8 status) public {\n        Proposal storage proposal = proposals[proposalId];\n        require(\n            msg.sender == proposal.owner,\n            \"Proposal status can only by set by its owner\"\n        );\n        proposal.status = status;\n    }\n\n    function setProposalAuthorized(bytes32 proposalId, uint8 authorized) public {\n        Proposal storage proposal = proposals[proposalId];\n        require(\n            msg.sender == proposal.owner,\n            \"Proposal can only by authorized by its owner\"\n        );\n        /** by default the proposal is closed once it is authorized. */\n        if (authorized > 0) proposal.status = 0;\n        proposal.authorized = authorized;\n    }\n\n    function executeProposal(bytes32 proposalId, address account) public {\n        Proposal storage proposal = proposals[proposalId];\n\n        /** Check the msg.sender is an approved address */\n        require(\n            isApproved(proposal, msg.sender) > 0,\n            \"msg.sender not an approved address\"\n        );\n\n        uint256[] memory indexes = new uint256[](proposal.headUpdates.length);\n        for (uint256 ix = 0; ix < proposal.headUpdates.length; ix++) {\n            indexes[ix] = ix;\n        }\n\n        executeProposalPartiallyInternal(proposalId, indexes, msg.sender, account);\n    }\n\n    function executeProposalPartially(\n        bytes32 proposalId,\n        uint256[] memory indexes,\n        address account\n    ) public {\n        executeProposalPartiallyInternal(proposalId, indexes, msg.sender, account);\n    }\n\n    function executeProposalPartiallyInternal(\n        bytes32 proposalId,\n        uint256[] memory indexes,\n        address msgSender,\n        address account\n    ) private {\n        Proposal storage proposal = proposals[proposalId];\n        require(proposal.authorized != 0, \"Proposal not authorized\");\n\n        require(\n            isApproved(proposal, msgSender) > 0,\n            \"msg.sender not an approved address\"\n        );\n\n        for (uint256 ix = 0; ix < indexes.length; ix++) {\n            HeadUpdate storage headUpdate = proposal.headUpdates[indexes[ix]];\n\n            require(headUpdate.executed == 0, \"head update already executed\");\n            headUpdate.executed = 1;\n\n            uprtclRoot.updateHead(headUpdate.perspectiveIdHash, headUpdate.headCid0, headUpdate.headCid1, account);\n        }\n    }\n\n    function getProposal(bytes32 proposalId)\n        public\n        view\n        returns (Proposal memory proposal)\n    {\n        return (proposals[proposalId]);\n    }\n}\n",
  "sourcePath": "/home/pepo/pr/uprtcl/eth-uprtcl/contracts/UprtclProposals.sol",
  "compiler": {
    "name": "solc",
    "version": "0.5.16+commit.9c3226ce.Emscripten.clang"
  },
  "schemaVersion": "3.0.11",
  "updatedAt": "2020-02-28T09:57:04.197Z",
  "devdoc": {
    "methods": {
      "isOwner()": {
        "details": "Returns true if the caller is the current owner."
      },
      "owner()": {
        "details": "Returns the address of the current owner."
      },
      "renounceOwnership()": {
        "details": "Leaves the contract without owner. It will not be possible to call `onlyOwner` functions anymore. Can only be called by the current owner.     * NOTE: Renouncing ownership will leave the contract without an owner, thereby removing any functionality that is only available to the owner."
      },
      "transferOwnership(address)": {
        "details": "Transfers ownership of the contract to a new account (`newOwner`). Can only be called by the current owner."
      }
    }
  },
  "userdoc": {
    "methods": {
      "addUpdatesToProposal(bytes32,(bytes32,bytes32,bytes32,uint8)[])": {
        "notice": "Add one or more headUpdate elements to an existing proposal "
      }
    }
  }
}