{
  "contractName": "UprtclRoot",
  "abi": [
    {
      "anonymous": false,
      "inputs": [
        {
          "indexed": true,
          "internalType": "address",
          "name": "previousOwner",
          "type": "address"
        },
        {
          "indexed": true,
          "internalType": "address",
          "name": "newOwner",
          "type": "address"
        }
      ],
      "name": "OwnershipTransferred",
      "type": "event"
    },
    {
      "anonymous": false,
      "inputs": [
        {
          "indexed": true,
          "internalType": "bytes32",
          "name": "perspectiveIdHash",
          "type": "bytes32"
        },
        {
          "indexed": false,
          "internalType": "address",
          "name": "newOwner",
          "type": "address"
        },
        {
          "indexed": false,
          "internalType": "address",
          "name": "previousOwner",
          "type": "address"
        }
      ],
      "name": "PerspectiveOwnerUpdated",
      "type": "event"
    },
    {
      "constant": true,
      "inputs": [
        {
          "internalType": "uint256",
          "name": "",
          "type": "uint256"
        }
      ],
      "name": "fees",
      "outputs": [
        {
          "internalType": "uint256",
          "name": "",
          "type": "uint256"
        }
      ],
      "payable": false,
      "stateMutability": "view",
      "type": "function"
    },
    {
      "constant": true,
      "inputs": [],
      "name": "isOwner",
      "outputs": [
        {
          "internalType": "bool",
          "name": "",
          "type": "bool"
        }
      ],
      "payable": false,
      "stateMutability": "view",
      "type": "function"
    },
    {
      "constant": true,
      "inputs": [],
      "name": "owner",
      "outputs": [
        {
          "internalType": "address payable",
          "name": "",
          "type": "address"
        }
      ],
      "payable": false,
      "stateMutability": "view",
      "type": "function"
    },
    {
      "constant": true,
      "inputs": [
        {
          "internalType": "bytes32",
          "name": "",
          "type": "bytes32"
        }
      ],
      "name": "perspectives",
      "outputs": [
        {
          "internalType": "address",
          "name": "owner",
          "type": "address"
        },
        {
          "internalType": "bytes32",
          "name": "headCid1",
          "type": "bytes32"
        },
        {
          "internalType": "bytes32",
          "name": "headCid0",
          "type": "bytes32"
        }
      ],
      "payable": false,
      "stateMutability": "view",
      "type": "function"
    },
    {
      "constant": false,
      "inputs": [],
      "name": "renounceOwnership",
      "outputs": [],
      "payable": false,
      "stateMutability": "nonpayable",
      "type": "function"
    },
    {
      "constant": false,
      "inputs": [
        {
          "internalType": "address payable",
          "name": "newOwner",
          "type": "address"
        }
      ],
      "name": "transferOwnership",
      "outputs": [],
      "payable": false,
      "stateMutability": "nonpayable",
      "type": "function"
    },
    {
      "constant": false,
      "inputs": [
        {
          "internalType": "contract UprtclAccounts",
          "name": "_accounts",
          "type": "address"
        }
      ],
      "name": "setAccounts",
      "outputs": [],
      "payable": false,
      "stateMutability": "nonpayable",
      "type": "function"
    },
    {
      "constant": false,
      "inputs": [
        {
          "internalType": "address",
          "name": "suAddress",
          "type": "address"
        }
      ],
      "name": "setSuperUser",
      "outputs": [],
      "payable": false,
      "stateMutability": "nonpayable",
      "type": "function"
    },
    {
      "constant": false,
      "inputs": [
        {
          "internalType": "uint256",
          "name": "amount",
          "type": "uint256"
        }
      ],
      "name": "withdraw",
      "outputs": [],
      "payable": false,
      "stateMutability": "nonpayable",
      "type": "function"
    },
    {
      "constant": false,
      "inputs": [
        {
          "internalType": "uint256",
          "name": "addFee",
          "type": "uint256"
        },
        {
          "internalType": "uint256",
          "name": "updateFee",
          "type": "uint256"
        }
      ],
      "name": "setFees",
      "outputs": [],
      "payable": false,
      "stateMutability": "nonpayable",
      "type": "function"
    },
    {
      "constant": true,
      "inputs": [],
      "name": "getFees",
      "outputs": [
        {
          "internalType": "uint256",
          "name": "addFee",
          "type": "uint256"
        },
        {
          "internalType": "uint256",
          "name": "updateFee",
          "type": "uint256"
        }
      ],
      "payable": false,
      "stateMutability": "view",
      "type": "function"
    },
    {
      "constant": true,
      "inputs": [],
      "name": "getAddFee",
      "outputs": [
        {
          "internalType": "uint256",
          "name": "",
          "type": "uint256"
        }
      ],
      "payable": false,
      "stateMutability": "view",
      "type": "function"
    },
    {
      "constant": true,
      "inputs": [],
      "name": "getUpdateFee",
      "outputs": [
        {
          "internalType": "uint256",
          "name": "",
          "type": "uint256"
        }
      ],
      "payable": false,
      "stateMutability": "view",
      "type": "function"
    },
    {
      "constant": false,
      "inputs": [
        {
          "components": [
            {
              "internalType": "bytes32",
              "name": "perspectiveIdHash",
              "type": "bytes32"
            },
            {
              "internalType": "bytes32",
              "name": "headCid1",
              "type": "bytes32"
            },
            {
              "internalType": "bytes32",
              "name": "headCid0",
              "type": "bytes32"
            },
            {
              "internalType": "address",
              "name": "owner",
              "type": "address"
            }
          ],
          "internalType": "struct UprtclRoot.NewPerspective",
          "name": "newPerspective",
          "type": "tuple"
        },
        {
          "internalType": "address",
          "name": "account",
          "type": "address"
        }
      ],
      "name": "addPerspective",
      "outputs": [],
      "payable": false,
      "stateMutability": "nonpayable",
      "type": "function"
    },
    {
      "constant": false,
      "inputs": [
        {
          "components": [
            {
              "internalType": "bytes32",
              "name": "perspectiveIdHash",
              "type": "bytes32"
            },
            {
              "internalType": "bytes32",
              "name": "headCid1",
              "type": "bytes32"
            },
            {
              "internalType": "bytes32",
              "name": "headCid0",
              "type": "bytes32"
            },
            {
              "internalType": "address",
              "name": "owner",
              "type": "address"
            }
          ],
          "internalType": "struct UprtclRoot.NewPerspective[]",
          "name": "newPerspectives",
          "type": "tuple[]"
        },
        {
          "internalType": "address",
          "name": "account",
          "type": "address"
        }
      ],
      "name": "addPerspectiveBatch",
      "outputs": [],
      "payable": false,
      "stateMutability": "nonpayable",
      "type": "function"
    },
    {
      "constant": false,
      "inputs": [
        {
          "internalType": "bytes32",
          "name": "perspectiveIdHash",
          "type": "bytes32"
        },
        {
          "internalType": "bytes32",
          "name": "newHeadCid1",
          "type": "bytes32"
        },
        {
          "internalType": "bytes32",
          "name": "newHeadCid0",
          "type": "bytes32"
        },
        {
          "internalType": "address",
          "name": "account",
          "type": "address"
        }
      ],
      "name": "updateHead",
      "outputs": [],
      "payable": false,
      "stateMutability": "nonpayable",
      "type": "function"
    },
    {
      "constant": false,
      "inputs": [
        {
          "internalType": "bytes32",
          "name": "perspectiveIdHash",
          "type": "bytes32"
        },
        {
          "internalType": "address",
          "name": "newOwner",
          "type": "address"
        }
      ],
      "name": "changePerspectiveOwner",
      "outputs": [],
      "payable": false,
      "stateMutability": "nonpayable",
      "type": "function"
    },
    {
      "constant": false,
      "inputs": [
        {
          "internalType": "bytes32[]",
          "name": "perspectiveIdsHashes",
          "type": "bytes32[]"
        },
        {
          "internalType": "address",
          "name": "newOwner",
          "type": "address"
        }
      ],
      "name": "changePerspectiveOwnerBatch",
      "outputs": [],
      "payable": false,
      "stateMutability": "nonpayable",
      "type": "function"
    },
    {
      "constant": true,
      "inputs": [
        {
          "internalType": "bytes32",
          "name": "perspectiveIdHash",
          "type": "bytes32"
        }
      ],
      "name": "getPerspectiveDetails",
      "outputs": [
        {
          "internalType": "address",
          "name": "owner",
          "type": "address"
        },
        {
          "internalType": "bytes32",
          "name": "headCid1",
          "type": "bytes32"
        },
        {
          "internalType": "bytes32",
          "name": "headCid0",
          "type": "bytes32"
        }
      ],
      "payable": false,
      "stateMutability": "view",
      "type": "function"
    },
    {
      "constant": true,
      "inputs": [
        {
          "internalType": "bytes32",
          "name": "perspectiveIdHash",
          "type": "bytes32"
        }
      ],
      "name": "getPerspectiveOwner",
      "outputs": [
        {
          "internalType": "address",
          "name": "owner",
          "type": "address"
        }
      ],
      "payable": false,
      "stateMutability": "view",
      "type": "function"
    }
  ],
  "bytecode": "0x60806040526100156001600160e01b0361006216565b600080546001600160a01b0319166001600160a01b03928316178082556040519216917f8be0079c531659141344cd1fd0a4f28419497f9722a3daafe3b4186f6b6457e0908290a3610066565b3390565b611284806100756000396000f3fe608060405234801561001057600080fd5b506004361061012c5760003560e01c806372d50cc5116100ad5780638f32d59b116100715780638f32d59b14610261578063b7b0ccde14610276578063b92d30dc1461027e578063db8d55f114610291578063f2fde38b146102a75761012c565b806372d50cc51461020957806376914ecf1461021c57806386830d581461023e5780638cd9ed99146102465780638da5cb5b146102595761012c565b80632e1a7d4d116100f45780632e1a7d4d146101a857806339c37594146101bb5780634acc79ed146101ce5780634eee8c43146101ee578063715018a6146102015761012c565b806308274382146101315780630b78f9c0146101465780630de1ef4a146101595780630ea787e81461016c5780631393bbf51461017f575b600080fd5b61014461013f366004610e34565b6102ba565b005b610144610154366004610e82565b610309565b610144610167366004610d60565b610380565b61014461017a366004610dd3565b610440565b61019261018d366004610d96565b61052c565b60405161019f919061107b565b60405180910390f35b6101446101b6366004610d96565b610577565b6101446101c9366004610db4565b610648565b6101e16101dc366004610d96565b610653565b60405161019f919061116c565b6101446101fc366004610d0f565b610665565b61014461069c565b610144610217366004610e52565b61070a565b61022f61022a366004610d96565b610713565b60405161019f939291906110d3565b6101e1610767565b610144610254366004610ccb565b610795565b6101926107e0565b6102696107ef565b60405161019f91906110ee565b6101e1610813565b61022f61028c366004610d96565b610842565b61029961086e565b60405161019f92919061117a565b6101446102b5366004610ccb565b6108c0565b6102c26107ef565b6102e75760405162461bcd60e51b81526004016102de9061113c565b60405180910390fd5b600480546001600160a01b0319166001600160a01b0392909216919091179055565b6103116107ef565b61032d5760405162461bcd60e51b81526004016102de9061113c565b60036020527f3617319a054d772f909f7c479a2cebe5066e836a939412e32403c99029b92eff9190915560016000527fa15bc60c955c405d20d9149c709e2460f1c2d9a497496a7f46004d1772c3054c55565b8151600061039c82610390610813565b9063ffffffff6108f016565b9050801561040a57600480546040516302654acd60e51b81526001600160a01b0390911691634ca959a0916103d79133918891879101611089565b600060405180830381600087803b1580156103f157600080fd5b505af1158015610405573d6000803e3d6000fd5b505050505b60005b828110156104395761043185828151811061042457fe5b6020026020010151610933565b60010161040d565b5050505050565b600061044a610813565b905080156104b857600480546040516302654acd60e51b81526001600160a01b0390911691634ca959a0916104859133918791879101611089565b600060405180830381600087803b15801561049f57600080fd5b505af11580156104b3573d6000803e3d6000fd5b505050505b600085815260026020526040902080546001600160a01b03163314806104f357503360009081526001602081905260409091205460ff161515145b61050f5760405162461bcd60e51b81526004016102de9061111c565b83156105245760028101849055600181018590555b505050505050565b6000610536610b1f565b5050600090815260026020818152604092839020835160608101855281546001600160a01b0316808252600183015493820193909352920154919092015290565b61057f6107ef565b61059b5760405162461bcd60e51b81526004016102de9061113c565b306001600160a01b0316638da5cb5b6040518163ffffffff1660e01b815260040160206040518083038186803b1580156105d457600080fd5b505afa1580156105e8573d6000803e3d6000fd5b505050506040513d601f19601f8201168201806040525061060c9190810190610cf1565b6001600160a01b03166108fc829081150290604051600060405180830381858888f19350505050158015610644573d6000803e3d6000fd5b5050565b6106448282336109fc565b60036020526000908152604090205481565b60005b82518110156106975761068f83828151811061068057fe5b602002602001015183336109fc565b600101610668565b505050565b6106a46107ef565b6106c05760405162461bcd60e51b81526004016102de9061113c565b600080546040516001600160a01b03909116907f8be0079c531659141344cd1fd0a4f28419497f9722a3daafe3b4186f6b6457e0908390a3600080546001600160a01b0319169055565b61064482610933565b6000806000610720610b1f565b50505060009182525060026020818152604092839020835160608101855281546001600160a01b031680825260018301549382018490529190930154929093018290529192565b6000805260036020527f3617319a054d772f909f7c479a2cebe5066e836a939412e32403c99029b92eff5490565b61079d6107ef565b6107b95760405162461bcd60e51b81526004016102de9061113c565b6001600160a01b03166000908152600160208190526040909120805460ff19169091179055565b6000546001600160a01b031690565b600080546001600160a01b0316610804610a9a565b6001600160a01b031614905090565b600160005260036020527fa15bc60c955c405d20d9149c709e2460f1c2d9a497496a7f46004d1772c3054c5490565b60026020819052600091825260409091208054600182015491909201546001600160a01b039092169183565b60036020527f3617319a054d772f909f7c479a2cebe5066e836a939412e32403c99029b92eff5460016000527fa15bc60c955c405d20d9149c709e2460f1c2d9a497496a7f46004d1772c3054c549091565b6108c86107ef565b6108e45760405162461bcd60e51b81526004016102de9061113c565b6108ed81610a9e565b50565b6000826108ff5750600061092d565b8282028284828161090c57fe5b041461092a5760405162461bcd60e51b81526004016102de9061112c565b90505b92915050565b8051600081815260026020526040902060608301516001600160a01b031661096d5760405162461bcd60e51b81526004016102de9061115c565b80546001600160a01b0316156109955760405162461bcd60e51b81526004016102de906110fc565b606083015181546001600160a01b039182166001600160a01b03199182161780845560208087015160018087019182556040988901516002978801908155600098895292879052979096208054909316919093161781559254938301939093559154910155565b600083815260026020526040902080546001600160a01b03838116911614610a365760405162461bcd60e51b81526004016102de9061114c565b80546001600160a01b038481166001600160a01b03198316178084556040519282169287927f4d2778d25f224a7981314f90e4cf321a226f16d8b8a31ea04a6f191e88151b6892610a8b9291169085906110b1565b60405180910390a25050505050565b3390565b6001600160a01b038116610ac45760405162461bcd60e51b81526004016102de9061110c565b600080546040516001600160a01b03808516939216917f8be0079c531659141344cd1fd0a4f28419497f9722a3daafe3b4186f6b6457e091a3600080546001600160a01b0319166001600160a01b0392909216919091179055565b604080516060810182526000808252602082018190529181019190915290565b803561092d8161121b565b805161092d8161121b565b600082601f830112610b6657600080fd5b8135610b79610b74826111bc565b611195565b91508181835260208401935060208101905083856020840282011115610b9e57600080fd5b60005b83811015610bca5781610bb48882610c46565b8452506020928301929190910190600101610ba1565b5050505092915050565b600082601f830112610be557600080fd5b8135610bf3610b74826111bc565b91508181835260208401935060208101905083856080840282011115610c1857600080fd5b60005b83811015610bca5781610c2e8882610c5c565b84525060209092019160809190910190600101610c1b565b803561092d8161122f565b803561092d81611238565b600060808284031215610c6e57600080fd5b610c786080611195565b90506000610c868484610c46565b8252506020610c9784848301610c46565b6020830152506040610cab84828501610c46565b6040830152506060610cbf84828501610b3f565b60608301525092915050565b600060208284031215610cdd57600080fd5b6000610ce98484610b3f565b949350505050565b600060208284031215610d0357600080fd5b6000610ce98484610b4a565b60008060408385031215610d2257600080fd5b823567ffffffffffffffff811115610d3957600080fd5b610d4585828601610b55565b9250506020610d5685828601610b3f565b9150509250929050565b60008060408385031215610d7357600080fd5b823567ffffffffffffffff811115610d8a57600080fd5b610d4585828601610bd4565b600060208284031215610da857600080fd5b6000610ce98484610c46565b60008060408385031215610dc757600080fd5b6000610d458585610c46565b60008060008060808587031215610de957600080fd5b6000610df58787610c46565b9450506020610e0687828801610c46565b9350506040610e1787828801610c46565b9250506060610e2887828801610b3f565b91505092959194509250565b600060208284031215610e4657600080fd5b6000610ce98484610c51565b60008060a08385031215610e6557600080fd5b6000610e718585610c5c565b9250506080610d5685828601610b3f565b60008060408385031215610e9557600080fd5b6000610ea18585610c46565b9250506020610d5685828601610c46565b610ebb81611210565b82525050565b610ebb816111e6565b610ebb816111f1565b610ebb816111f6565b6000610ee96014836111dd565b736578697374696e6720706572737065637469766560601b815260200192915050565b6000610f196026836111dd565b7f4f776e61626c653a206e6577206f776e657220697320746865207a65726f206181526564647265737360d01b602082015260400192915050565b6000610f616029836111dd565b7f6f6e6c7920746865206f776e65722063616e207570646174652074686520706581526872737065637469766560b81b602082015260400192915050565b6000610fac6021836111dd565b7f536166654d6174683a206d756c7469706c69636174696f6e206f766572666c6f8152607760f81b602082015260400192915050565b6000610fef6020836111dd565b7f4f776e61626c653a2063616c6c6572206973206e6f7420746865206f776e6572815260200192915050565b60006110286013836111dd565b72756e617574686f72697a65642061636365737360681b815260200192915050565b60006110576015836111dd565b746f776e65722063616e6e6f7420626520656d70747960581b815260200192915050565b6020810161092d8284610ec1565b606081016110978286610eb2565b6110a46020830185610ec1565b610ce96040830184610ed3565b604081016110bf8285610ec1565b6110cc6020830184610ec1565b9392505050565b606081016110e18286610ec1565b6110a46020830185610ed3565b6020810161092d8284610eca565b6020808252810161092d81610edc565b6020808252810161092d81610f0c565b6020808252810161092d81610f54565b6020808252810161092d81610f9f565b6020808252810161092d81610fe2565b6020808252810161092d8161101b565b6020808252810161092d8161104a565b6020810161092d8284610ed3565b604081016111888285610ed3565b6110cc6020830184610ed3565b60405181810167ffffffffffffffff811182821017156111b457600080fd5b604052919050565b600067ffffffffffffffff8211156111d357600080fd5b5060209081020190565b90815260200190565b600061092d82611204565b151590565b90565b600061092d826111e6565b6001600160a01b031690565b600061092d826111f9565b611224816111e6565b81146108ed57600080fd5b611224816111f6565b611224816111f956fea365627a7a72315820caf92e96d8fa15847ba9ae14aa3177937d6d027a930d5a698b59fe18e42582956c6578706572696d656e74616cf564736f6c63430005100040",
  "source": "pragma solidity >=0.5.0 <0.6.0;\npragma experimental ABIEncoderV2;\n\nimport \"./Ownable.sol\";\nimport \"./SafeMath.sol\";\n\nimport \"./UprtclAccounts.sol\";\n\n/** Underscore Protocol Ethereum Service used to store the content of\n* _Prtcl perspectives */\ncontract UprtclRoot is Ownable {\n    using SafeMath for uint256;\n\n    struct Perspective {\n        address owner;\n        bytes32 headCid1;\n        bytes32 headCid0;\n    }\n\n    struct NewPerspective {\n        bytes32 perspectiveIdHash;\n        bytes32 headCid1;\n        bytes32 headCid0;\n        address owner;\n    }\n\n    /** superUsers can update any perspective */\n    mapping(address => bool) private superUsers;\n    mapping(bytes32 => Perspective) public perspectives;\n    mapping(uint256 => uint256) public fees;\n\n    event PerspectiveOwnerUpdated(\n        bytes32 indexed perspectiveIdHash,\n        address newOwner,\n        address previousOwner\n    );\n\n    UprtclAccounts accounts;\n\n    function setAccounts(UprtclAccounts _accounts) public onlyOwner {\n        accounts = _accounts;\n    }\n\n    function setSuperUser(address suAddress) public onlyOwner {\n        superUsers[suAddress] = true;\n    }\n\n    function withdraw(uint256 amount) public onlyOwner {\n        this.owner().transfer(amount);\n    }\n\n    function setFees(uint256 addFee, uint256 updateFee) public onlyOwner {\n        fees[0] = addFee;\n        fees[1] = updateFee;\n    }\n\n    function getFees() public view returns (uint256 addFee, uint256 updateFee) {\n        return (fees[0], fees[1]);\n    }\n\n    function getAddFee() public view returns (uint256) {\n        return fees[0];\n    }\n\n    function getUpdateFee() public view returns (uint256) {\n        return fees[1];\n    }\n\n    /** Adds a new perspective to the mapping and sets the owner. The head pointer and the context. */\n    function addPerspectiveInternal(NewPerspective memory newPerspective)\n        private\n    {\n        bytes32 perspectiveIdHash = newPerspective.perspectiveIdHash;\n\n        Perspective storage perspective = perspectives[perspectiveIdHash];\n        require(address(0) != newPerspective.owner, \"owner cannot be empty\");\n        require(address(0) == perspective.owner, \"existing perspective\");\n\n        perspective.owner = newPerspective.owner;\n        perspective.headCid1 = newPerspective.headCid1;\n        perspective.headCid0 = newPerspective.headCid0;\n\n        perspectives[perspectiveIdHash] = perspective;\n    }\n\n    function addPerspective(NewPerspective memory newPerspective, address account)\n        public\n    {\n        // uint256 fee = getAddFee();\n        // if (fee > 0) {\n        //     accounts.consume(msg.sender, account, fee);\n        // }\n        addPerspectiveInternal(newPerspective);\n    }\n\n    function addPerspectiveBatch(NewPerspective[] memory newPerspectives, address account)\n        public\n    {\n        uint256 nPerspectives = newPerspectives.length;\n\n        uint256 fee = getUpdateFee().mul(nPerspectives);\n        if (fee > 0) {\n            accounts.consume(msg.sender, account, fee);\n        }\n\n        for (uint256 ix = 0; ix < nPerspectives; ix++) {\n            addPerspectiveInternal(newPerspectives[ix]);\n        }\n    }\n\n    function updateHead(\n        bytes32 perspectiveIdHash,\n        bytes32 newHeadCid1,\n        bytes32 newHeadCid0,\n        address account\n    ) public {\n        uint256 fee = getUpdateFee();\n        if (fee > 0) {\n            accounts.consume(msg.sender, account, fee);\n        }\n\n        Perspective storage perspective = perspectives[perspectiveIdHash];\n\n        require(\n            (perspective.owner == msg.sender) || (superUsers[msg.sender] == true),\n            \"only the owner can update the perspective\"\n        );\n\n        if (newHeadCid0 != bytes32(0)) {\n            perspective.headCid0 = newHeadCid0;\n            perspective.headCid1 = newHeadCid1;\n        }\n    }\n\n    function changePerspectiveOwnerInternal(\n        bytes32 perspectiveIdHash,\n        address newOwner,\n        address sender\n    ) private {\n        Perspective storage perspective = perspectives[perspectiveIdHash];\n        require(sender == perspective.owner, \"unauthorized access\");\n\n        address previousOwner = perspective.owner;\n        perspective.owner = newOwner;\n\n        emit PerspectiveOwnerUpdated(\n            perspectiveIdHash,\n            perspective.owner,\n            previousOwner\n        );\n    }\n\n    /** Changes the owner of a given perspective. Available only to the current owner of that perspective. */\n    function changePerspectiveOwner(bytes32 perspectiveIdHash, address newOwner)\n        public\n    {\n        changePerspectiveOwnerInternal(perspectiveIdHash, newOwner, msg.sender);\n    }\n\n    function changePerspectiveOwnerBatch(\n        bytes32[] memory perspectiveIdsHashes,\n        address newOwner\n    ) public {\n        for (uint256 ix = 0; ix < perspectiveIdsHashes.length; ix++) {\n            changePerspectiveOwnerInternal(\n                perspectiveIdsHashes[ix],\n                newOwner,\n                msg.sender\n            );\n        }\n    }\n\n    /** Get the perspective owner and details from its ID */\n    function getPerspectiveDetails(bytes32 perspectiveIdHash)\n        public\n        view\n        returns (address owner, bytes32 headCid1, bytes32 headCid0)\n    {\n        Perspective memory perspective = perspectives[perspectiveIdHash];\n\n        return (perspective.owner, perspective.headCid1, perspective.headCid0);\n    }\n\n    /** Get the perspective owner and details from its ID */\n    function getPerspectiveOwner(bytes32 perspectiveIdHash)\n        public\n        view\n        returns (address owner)\n    {\n        Perspective memory perspective = perspectives[perspectiveIdHash];\n\n        return (perspective.owner);\n    }\n\n}\n",
  "sourcePath": "/home/pepo/pr/uprtcl/eth-uprtcl/contracts/UprtclRoot.sol",
  "compiler": {
    "name": "solc",
    "version": "0.5.16+commit.9c3226ce.Emscripten.clang"
  },
  "schemaVersion": "3.0.23",
  "updatedAt": "2020-02-25T11:37:23.386Z",
  "devdoc": {
    "methods": {
      "isOwner()": {
        "details": "Returns true if the caller is the current owner."
      },
      "owner()": {
        "details": "Returns the address of the current owner."
      },
      "renounceOwnership()": {
        "details": "Leaves the contract without owner. It will not be possible to call `onlyOwner` functions anymore. Can only be called by the current owner.     * NOTE: Renouncing ownership will leave the contract without an owner, thereby removing any functionality that is only available to the owner."
      },
      "transferOwnership(address)": {
        "details": "Transfers ownership of the contract to a new account (`newOwner`). Can only be called by the current owner."
      }
    }
  },
  "userdoc": {
    "methods": {
      "changePerspectiveOwner(bytes32,address)": {
        "notice": "Changes the owner of a given perspective. Available only to the current owner of that perspective. "
      },
      "getPerspectiveDetails(bytes32)": {
        "notice": "Get the perspective owner and details from its ID "
      },
      "getPerspectiveOwner(bytes32)": {
        "notice": "Get the perspective owner and details from its ID "
      }
    },
    "notice": "Underscore Protocol Ethereum Service used to store the content of _Prtcl perspectives "
  }
}