{
  "contractName": "Uprtcl",
  "abi": [
    {
      "constant": true,
      "inputs": [
        {
          "name": "",
          "type": "bytes32"
        }
      ],
      "name": "perspectives",
      "outputs": [
        {
          "name": "owner",
          "type": "address"
        },
        {
          "name": "head0",
          "type": "bytes32"
        },
        {
          "name": "head1",
          "type": "bytes32"
        }
      ],
      "payable": false,
      "stateMutability": "view",
      "type": "function"
    },
    {
      "inputs": [],
      "payable": false,
      "stateMutability": "nonpayable",
      "type": "constructor"
    },
    {
      "anonymous": false,
      "inputs": [
        {
          "indexed": true,
          "name": "perspectiveIdHash",
          "type": "bytes32"
        },
        {
          "indexed": true,
          "name": "contextIdHash",
          "type": "bytes32"
        },
        {
          "indexed": false,
          "name": "owner",
          "type": "address"
        }
      ],
      "name": "PerspectiveAdded",
      "type": "event"
    },
    {
      "anonymous": false,
      "inputs": [
        {
          "indexed": true,
          "name": "perspectiveIdHash",
          "type": "bytes32"
        },
        {
          "indexed": false,
          "name": "author",
          "type": "address"
        },
        {
          "indexed": false,
          "name": "previousHead0",
          "type": "bytes32"
        },
        {
          "indexed": false,
          "name": "previousHead1",
          "type": "bytes32"
        },
        {
          "indexed": false,
          "name": "newHead0",
          "type": "bytes32"
        },
        {
          "indexed": false,
          "name": "newHead1",
          "type": "bytes32"
        }
      ],
      "name": "PerspectiveHeadUpdated",
      "type": "event"
    },
    {
      "anonymous": false,
      "inputs": [
        {
          "indexed": true,
          "name": "perspectiveIdHash",
          "type": "bytes32"
        },
        {
          "indexed": false,
          "name": "newOwner",
          "type": "address"
        },
        {
          "indexed": false,
          "name": "previousOwner",
          "type": "address"
        }
      ],
      "name": "PerspectiveOwnerUpdated",
      "type": "event"
    },
    {
      "constant": false,
      "inputs": [
        {
          "name": "perspectiveIdHash",
          "type": "bytes32"
        },
        {
          "name": "contextIdHash",
          "type": "bytes32"
        },
        {
          "name": "owner",
          "type": "address"
        }
      ],
      "name": "addPerspective",
      "outputs": [],
      "payable": false,
      "stateMutability": "nonpayable",
      "type": "function"
    },
    {
      "constant": false,
      "inputs": [
        {
          "name": "perspectiveIdHash",
          "type": "bytes32"
        },
        {
          "name": "newHead0",
          "type": "bytes32"
        },
        {
          "name": "newHead1",
          "type": "bytes32"
        }
      ],
      "name": "updateHead",
      "outputs": [],
      "payable": false,
      "stateMutability": "nonpayable",
      "type": "function"
    },
    {
      "constant": false,
      "inputs": [
        {
          "name": "perspectiveIdHash",
          "type": "bytes32"
        },
        {
          "name": "newOwner",
          "type": "address"
        }
      ],
      "name": "changeOwner",
      "outputs": [],
      "payable": false,
      "stateMutability": "nonpayable",
      "type": "function"
    },
    {
      "constant": true,
      "inputs": [
        {
          "name": "perspectiveIdHash",
          "type": "bytes32"
        }
      ],
      "name": "getPerspective",
      "outputs": [
        {
          "name": "owner",
          "type": "address"
        },
        {
          "name": "head0",
          "type": "bytes32"
        },
        {
          "name": "head1",
          "type": "bytes32"
        }
      ],
      "payable": false,
      "stateMutability": "view",
      "type": "function"
    }
  ],
  "bytecode": "0x608060405234801561001057600080fd5b50610afa806100206000396000f3fe60806040526004361061006d576000357c0100000000000000000000000000000000000000000000000000000000900463ffffffff168063133075d214610072578063b92d30dc146100fb578063d3a5b10714610184578063ecc5739c146101df578063f846c9121461022e575b600080fd5b34801561007e57600080fd5b506100ab6004803603602081101561009557600080fd5b8101908080359060200190929190505050610293565b604051808473ffffffffffffffffffffffffffffffffffffffff1673ffffffffffffffffffffffffffffffffffffffff168152602001838152602001828152602001935050505060405180910390f35b34801561010757600080fd5b506101346004803603602081101561011e57600080fd5b8101908080359060200190929190505050610347565b604051808473ffffffffffffffffffffffffffffffffffffffff1673ffffffffffffffffffffffffffffffffffffffff168152602001838152602001828152602001935050505060405180910390f35b34801561019057600080fd5b506101dd600480360360408110156101a757600080fd5b8101908080359060200190929190803573ffffffffffffffffffffffffffffffffffffffff169060200190929190505050610391565b005b3480156101eb57600080fd5b5061022c6004803603606081101561020257600080fd5b810190808035906020019092919080359060200190929190803590602001909291905050506105a6565b005b34801561023a57600080fd5b506102916004803603606081101561025157600080fd5b810190808035906020019092919080359060200190929190803573ffffffffffffffffffffffffffffffffffffffff169060200190929190505050610799565b005b60008060006102a0610a90565b600080868152602001908152602001600020606060405190810160405290816000820160009054906101000a900473ffffffffffffffffffffffffffffffffffffffff1673ffffffffffffffffffffffffffffffffffffffff1673ffffffffffffffffffffffffffffffffffffffff168152602001600182015481526020016002820154815250509050806000015181602001518260400151935093509350509193909250565b60006020528060005260406000206000915090508060000160009054906101000a900473ffffffffffffffffffffffffffffffffffffffff16908060010154908060020154905083565b610399610a90565b600080848152602001908152602001600020606060405190810160405290816000820160009054906101000a900473ffffffffffffffffffffffffffffffffffffffff1673ffffffffffffffffffffffffffffffffffffffff1673ffffffffffffffffffffffffffffffffffffffff168152602001600182015481526020016002820154815250509050806000015173ffffffffffffffffffffffffffffffffffffffff163373ffffffffffffffffffffffffffffffffffffffff161415156104ca576040517f08c379a00000000000000000000000000000000000000000000000000000000081526004018080602001828103825260138152602001807f756e617574686f72697a6564206163636573730000000000000000000000000081525060200191505060405180910390fd5b600082826000019073ffffffffffffffffffffffffffffffffffffffff16908173ffffffffffffffffffffffffffffffffffffffff1681525050837f4d2778d25f224a7981314f90e4cf321a226f16d8b8a31ea04a6f191e88151b68828460000151604051808373ffffffffffffffffffffffffffffffffffffffff1673ffffffffffffffffffffffffffffffffffffffff1681526020018273ffffffffffffffffffffffffffffffffffffffff1673ffffffffffffffffffffffffffffffffffffffff1681526020019250505060405180910390a250505050565b6105ae610a90565b600080858152602001908152602001600020606060405190810160405290816000820160009054906101000a900473ffffffffffffffffffffffffffffffffffffffff1673ffffffffffffffffffffffffffffffffffffffff1673ffffffffffffffffffffffffffffffffffffffff168152602001600182015481526020016002820154815250509050806000015173ffffffffffffffffffffffffffffffffffffffff163373ffffffffffffffffffffffffffffffffffffffff161415156106df576040517f08c379a00000000000000000000000000000000000000000000000000000000081526004018080602001828103825260138152602001807f756e617574686f72697a6564206163636573730000000000000000000000000081525060200191505060405180910390fd5b6000816020015190506000826040015190508483602001818152505083836040018181525050857f2f98c1403c3a6e4109520a59508a3ef328179749ab4b3dc4b08d52dd03716a8233848487602001518860400151604051808673ffffffffffffffffffffffffffffffffffffffff1673ffffffffffffffffffffffffffffffffffffffff1681526020018581526020018481526020018381526020018281526020019550505050505060405180910390a2505050505050565b6107a1610a90565b600080858152602001908152602001600020606060405190810160405290816000820160009054906101000a900473ffffffffffffffffffffffffffffffffffffffff1673ffffffffffffffffffffffffffffffffffffffff1673ffffffffffffffffffffffffffffffffffffffff1681526020016001820154815260200160028201548152505090508173ffffffffffffffffffffffffffffffffffffffff16600073ffffffffffffffffffffffffffffffffffffffff16141515156108d0576040517f08c379a00000000000000000000000000000000000000000000000000000000081526004018080602001828103825260138152602001807f6f776e65722063616e7420626520656d7074790000000000000000000000000081525060200191505060405180910390fd5b806000015173ffffffffffffffffffffffffffffffffffffffff16600073ffffffffffffffffffffffffffffffffffffffff16141515610978576040517f08c379a00000000000000000000000000000000000000000000000000000000081526004018080602001828103825260148152602001807f6578697374696e6720706572737065637469766500000000000000000000000081525060200191505060405180910390fd5b81816000019073ffffffffffffffffffffffffffffffffffffffff16908173ffffffffffffffffffffffffffffffffffffffff16815250508060008086815260200190815260200160002060008201518160000160006101000a81548173ffffffffffffffffffffffffffffffffffffffff021916908373ffffffffffffffffffffffffffffffffffffffff160217905550602082015181600101556040820151816002015590505082847ff063e8a3dd08b17527ac8138be28513e92828372c3198ab83ea9defbdffcbc568360000151604051808273ffffffffffffffffffffffffffffffffffffffff1673ffffffffffffffffffffffffffffffffffffffff16815260200191505060405180910390a350505050565b606060405190810160405280600073ffffffffffffffffffffffffffffffffffffffff1681526020016000801916815260200160008019168152509056fea165627a7a72305820d3da490075862f461866a912030027e14199fcc716a8412d9b30d4fe6c35d2f40029",
  "source": "pragma solidity >=0.4.25 <0.6.0;\n\n/** Underscore Protocol Ethereum Service used to store the content of\n* _Prtcl perspectives */\ncontract Uprtcl {\n\n\tstruct Perspective {\n\t\taddress owner;\n\t\tbytes32 head0;\n\t\tbytes32 head1;\n\t}\n\n\tmapping (bytes32 => Perspective) public perspectives;\n\n\tevent PerspectiveAdded(\n\t\tbytes32 indexed perspectiveIdHash,\n\t\tbytes32 indexed contextIdHash,\n\t\taddress owner);\n\n\tevent PerspectiveHeadUpdated(\n\t\tbytes32 indexed perspectiveIdHash,\n\t\taddress author,\n\t\tbytes32 previousHead0,\n\t\tbytes32 previousHead1,\n\t\tbytes32 newHead0,\n\t\tbytes32 newHead1);\n\n\tevent PerspectiveOwnerUpdated(\n\t\tbytes32 indexed perspectiveIdHash,\n\t\taddress newOwner,\n\t\taddress previousOwner);\n\n\tconstructor() public {\n\t}\n\n\t/** Adds a new perspective to the mapping and sets the owner. The head pointer is initialized as null and should\n\t *  be updated independently using updateHead(). The contextId is not persisted but emited in the PerspectiveAdded\n\t *  event to enable filtering. Validation of the perspectiveId to contextId should be done externally using any\n\t * \tcontent addressable\tstorage solution for the perspectiveId. */\n\tfunction addPerspective(\n\t\tbytes32 perspectiveIdHash,\n\t\tbytes32 contextIdHash,\n\t\taddress owner)\n\t\tpublic {\n\n\t\tPerspective memory perspective = perspectives[perspectiveIdHash];\n\t\trequire(address(0) != owner, \"owner cant be empty\");\n\t\trequire(address(0) == perspective.owner, \"existing perspective\");\n\n\t\tperspective.owner = owner;\n\t\tperspectives[perspectiveIdHash] = perspective;\n\t\temit PerspectiveAdded(perspectiveIdHash, contextIdHash, perspective.owner);\n\t}\n\n\t/** Updates the head pointer of a given perspective. Available only to the owner of that perspective. */\n\tfunction updateHead(bytes32 perspectiveIdHash, bytes32 newHead0, bytes32 newHead1) public {\n\n\t\tPerspective memory perspective = perspectives[perspectiveIdHash];\n\t\trequire(msg.sender == perspective.owner, \"unauthorized access\");\n\n\t\tbytes32 parentHead0 = perspective.head0;\n\t\tbytes32 parentHead1 = perspective.head1;\n\n\t\tperspective.head0 = newHead0;\n\t\tperspective.head1 = newHead1;\n\n\t\temit PerspectiveHeadUpdated(perspectiveIdHash, msg.sender, parentHead0, parentHead1, perspective.head0, perspective.head1);\n\t}\n\n\t/** Changes the owner of a given perspective. Available only to the current owner of that perspective. */\n\tfunction changeOwner(bytes32 perspectiveIdHash, address newOwner) public {\n\n    Perspective memory perspective = perspectives[perspectiveIdHash];\n\t\trequire(msg.sender == perspective.owner, \"unauthorized access\");\n\n    address previousOwner;\n\t\tperspective.owner = newOwner;\n\t\temit PerspectiveOwnerUpdated(perspectiveIdHash, previousOwner, perspective.owner);\n\t}\n\n\t/** Get the perspective owner and head from its ID */\n\tfunction getPerspective(bytes32 perspectiveIdHash)\n\t\tpublic view\n\t\treturns(address owner, bytes32 head0, bytes32 head1) {\n\n\t\tPerspective memory perspective = perspectives[perspectiveIdHash];\n\t\treturn (perspective.owner, perspective.head0, perspective.head1);\n\t}\n\n}\n",
  "sourcePath": "/home/pepo/ethworkspace/uprtcl-eth/contracts/Uprtcl.sol",
  "compiler": {
    "name": "solc",
    "version": "0.5.0+commit.1d4f565a.Emscripten.clang"
  },
  "schemaVersion": "3.0.9",
  "updatedAt": "2019-06-15T18:01:29.018Z",
  "devdoc": {
    "methods": {}
  },
  "userdoc": {
    "methods": {
      "addPerspective(bytes32,bytes32,address)": {
        "notice": "Adds a new perspective to the mapping and sets the owner. The head pointer is initialized as null and should be updated independently using updateHead(). The contextId is not persisted but emited in the PerspectiveAdded event to enable filtering. Validation of the perspectiveId to contextId should be done externally using any\tcontent addressable\tstorage solution for the perspectiveId. "
      },
      "changeOwner(bytes32,address)": {
        "notice": "Changes the owner of a given perspective. Available only to the current owner of that perspective. "
      },
      "getPerspective(bytes32)": {
        "notice": "Get the perspective owner and head from its ID "
      },
      "updateHead(bytes32,bytes32,bytes32)": {
        "notice": "Updates the head pointer of a given perspective. Available only to the owner of that perspective. "
      }
    },
    "notice": "Underscore Protocol Ethereum Service used to store the content of _Prtcl perspectives "
  }
}