{
  "contractName": "Uprtcl",
  "abi": [
    {
      "constant": true,
      "inputs": [
        {
          "name": "",
          "type": "bytes32"
        }
      ],
      "name": "perspectives",
      "outputs": [
        {
          "name": "owner",
          "type": "address"
        },
        {
          "name": "headCid",
          "type": "string"
        }
      ],
      "payable": false,
      "stateMutability": "view",
      "type": "function"
    },
    {
      "inputs": [],
      "payable": false,
      "stateMutability": "nonpayable",
      "type": "constructor"
    },
    {
      "anonymous": false,
      "inputs": [
        {
          "indexed": true,
          "name": "perspectiveIdHash",
          "type": "bytes32"
        },
        {
          "indexed": true,
          "name": "contextIdHash",
          "type": "bytes32"
        },
        {
          "indexed": false,
          "name": "owner",
          "type": "address"
        },
        {
          "indexed": false,
          "name": "perspectiveCid",
          "type": "string"
        }
      ],
      "name": "PerspectiveAdded",
      "type": "event"
    },
    {
      "anonymous": false,
      "inputs": [
        {
          "indexed": true,
          "name": "perspectiveIdHash",
          "type": "bytes32"
        },
        {
          "indexed": false,
          "name": "author",
          "type": "address"
        },
        {
          "indexed": false,
          "name": "previousHeadCid",
          "type": "string"
        },
        {
          "indexed": false,
          "name": "newHeadCid",
          "type": "string"
        }
      ],
      "name": "PerspectiveHeadUpdated",
      "type": "event"
    },
    {
      "anonymous": false,
      "inputs": [
        {
          "indexed": true,
          "name": "perspectiveIdHash",
          "type": "bytes32"
        },
        {
          "indexed": false,
          "name": "newOwner",
          "type": "address"
        },
        {
          "indexed": false,
          "name": "previousOwner",
          "type": "address"
        }
      ],
      "name": "PerspectiveOwnerUpdated",
      "type": "event"
    },
    {
      "constant": false,
      "inputs": [
        {
          "name": "perspectiveIdHash",
          "type": "bytes32"
        },
        {
          "name": "contextIdHash",
          "type": "bytes32"
        },
        {
          "name": "owner",
          "type": "address"
        },
        {
          "name": "perspectiveCid",
          "type": "string"
        }
      ],
      "name": "addPerspective",
      "outputs": [],
      "payable": false,
      "stateMutability": "nonpayable",
      "type": "function"
    },
    {
      "constant": false,
      "inputs": [
        {
          "name": "perspectiveIdHash",
          "type": "bytes32"
        },
        {
          "name": "newHead",
          "type": "string"
        }
      ],
      "name": "updateHead",
      "outputs": [],
      "payable": false,
      "stateMutability": "nonpayable",
      "type": "function"
    },
    {
      "constant": false,
      "inputs": [
        {
          "name": "perspectiveIdHash",
          "type": "bytes32"
        },
        {
          "name": "newOwner",
          "type": "address"
        }
      ],
      "name": "changeOwner",
      "outputs": [],
      "payable": false,
      "stateMutability": "nonpayable",
      "type": "function"
    },
    {
      "constant": true,
      "inputs": [
        {
          "name": "perspectiveIdHash",
          "type": "bytes32"
        }
      ],
      "name": "getPerspective",
      "outputs": [
        {
          "name": "owner",
          "type": "address"
        },
        {
          "name": "headCid",
          "type": "string"
        }
      ],
      "payable": false,
      "stateMutability": "view",
      "type": "function"
    }
  ],
  "bytecode": "0x608060405234801561001057600080fd5b50611075806100206000396000f3fe60806040526004361061006d576000357c0100000000000000000000000000000000000000000000000000000000900463ffffffff168063133075d2146100725780633ef7d32a14610159578063919bf7881461022b578063b92d30dc14610327578063d3a5b1071461040e575b600080fd5b34801561007e57600080fd5b506100ab6004803603602081101561009557600080fd5b8101908080359060200190929190505050610469565b604051808373ffffffffffffffffffffffffffffffffffffffff1673ffffffffffffffffffffffffffffffffffffffff16815260200180602001828103825283818151815260200191508051906020019080838360005b8381101561011d578082015181840152602081019050610102565b50505050905090810190601f16801561014a5780820380516001836020036101000a031916815260200191505b50935050505060405180910390f35b34801561016557600080fd5b506102296004803603604081101561017c57600080fd5b8101908080359060200190929190803590602001906401000000008111156101a357600080fd5b8201836020820111156101b557600080fd5b803590602001918460018302840111640100000000831117156101d757600080fd5b91908080601f016020809104026020016040519081016040528093929190818152602001838380828437600081840152601f19601f8201169050808301925050505050505091929192905050506105a3565b005b34801561023757600080fd5b506103256004803603608081101561024e57600080fd5b810190808035906020019092919080359060200190929190803573ffffffffffffffffffffffffffffffffffffffff1690602001909291908035906020019064010000000081111561029f57600080fd5b8201836020820111156102b157600080fd5b803590602001918460018302840111640100000000831117156102d357600080fd5b91908080601f016020809104026020016040519081016040528093929190818152602001838380828437600081840152601f19601f82011690508083019250505050505050919291929050505061089e565b005b34801561033357600080fd5b506103606004803603602081101561034a57600080fd5b8101908080359060200190929190505050610c06565b604051808373ffffffffffffffffffffffffffffffffffffffff1673ffffffffffffffffffffffffffffffffffffffff16815260200180602001828103825283818151815260200191508051906020019080838360005b838110156103d25780820151818401526020810190506103b7565b50505050905090810190601f1680156103ff5780820380516001836020036101000a031916815260200191505b50935050505060405180910390f35b34801561041a57600080fd5b506104676004803603604081101561043157600080fd5b8101908080359060200190929190803573ffffffffffffffffffffffffffffffffffffffff169060200190929190505050610ce2565b005b60006060610475610eed565b6000808581526020019081526020016000206040805190810160405290816000820160009054906101000a900473ffffffffffffffffffffffffffffffffffffffff1673ffffffffffffffffffffffffffffffffffffffff1673ffffffffffffffffffffffffffffffffffffffff168152602001600182018054600181600116156101000203166002900480601f0160208091040260200160405190810160405280929190818152602001828054600181600116156101000203166002900480156105815780601f1061055657610100808354040283529160200191610581565b820191906000526020600020905b81548152906001019060200180831161056457829003601f168201915b5050505050815250509050806000015181602001518090509250925050915091565b600080600084815260200190815260200160002090508060000160009054906101000a900473ffffffffffffffffffffffffffffffffffffffff1673ffffffffffffffffffffffffffffffffffffffff163373ffffffffffffffffffffffffffffffffffffffff16141515610680576040517f08c379a00000000000000000000000000000000000000000000000000000000081526004018080602001828103825260138152602001807f756e617574686f72697a6564206163636573730000000000000000000000000081525060200191505060405180910390fd5b6060816001018054600181600116156101000203166002900480601f01602080910402602001604051908101604052809291908181526020018280546001816001161561010002031660029004801561071a5780601f106106ef5761010080835404028352916020019161071a565b820191906000526020600020905b8154815290600101906020018083116106fd57829003601f168201915b5050505050905082826001019080519060200190610739929190610f1d565b50837f77be61219b420fd0b111842a19b94a83a18c098de15583905c239ced157942de338385600101604051808473ffffffffffffffffffffffffffffffffffffffff1673ffffffffffffffffffffffffffffffffffffffff1681526020018060200180602001838103835285818151815260200191508051906020019080838360005b838110156107d85780820151818401526020810190506107bd565b50505050905090810190601f1680156108055780820380516001836020036101000a031916815260200191505b508381038252848181546001816001161561010002031660029004815260200191508054600181600116156101000203166002900480156108875780601f1061085c57610100808354040283529160200191610887565b820191906000526020600020905b81548152906001019060200180831161086a57829003601f168201915b50509550505050505060405180910390a250505050565b600080600086815260200190815260200160002090508273ffffffffffffffffffffffffffffffffffffffff16600073ffffffffffffffffffffffffffffffffffffffff1614151515610959576040517f08c379a00000000000000000000000000000000000000000000000000000000081526004018080602001828103825260138152602001807f6f776e65722063616e7420626520656d7074790000000000000000000000000081525060200191505060405180910390fd5b8060000160009054906101000a900473ffffffffffffffffffffffffffffffffffffffff1673ffffffffffffffffffffffffffffffffffffffff16600073ffffffffffffffffffffffffffffffffffffffff16141515610a21576040517f08c379a00000000000000000000000000000000000000000000000000000000081526004018080602001828103825260148152602001807f6578697374696e6720706572737065637469766500000000000000000000000081525060200191505060405180910390fd5b828160000160006101000a81548173ffffffffffffffffffffffffffffffffffffffff021916908373ffffffffffffffffffffffffffffffffffffffff160217905550806000808781526020019081526020016000206000820160009054906101000a900473ffffffffffffffffffffffffffffffffffffffff168160000160006101000a81548173ffffffffffffffffffffffffffffffffffffffff021916908373ffffffffffffffffffffffffffffffffffffffff16021790555060018201816001019080546001816001161561010002031660029004610b05929190610f9d565b5090505083857f860054bc685adc5abf3911bea53c94a53180a4e7cf04d4d2e519ecfe31235c188360000160009054906101000a900473ffffffffffffffffffffffffffffffffffffffff1685604051808373ffffffffffffffffffffffffffffffffffffffff1673ffffffffffffffffffffffffffffffffffffffff16815260200180602001828103825283818151815260200191508051906020019080838360005b83811015610bc4578082015181840152602081019050610ba9565b50505050905090810190601f168015610bf15780820380516001836020036101000a031916815260200191505b50935050505060405180910390a35050505050565b60006020528060005260406000206000915090508060000160009054906101000a900473ffffffffffffffffffffffffffffffffffffffff1690806001018054600181600116156101000203166002900480601f016020809104026020016040519081016040528092919081815260200182805460018160011615610100020316600290048015610cd85780601f10610cad57610100808354040283529160200191610cd8565b820191906000526020600020905b815481529060010190602001808311610cbb57829003601f168201915b5050505050905082565b600080600084815260200190815260200160002090508060000160009054906101000a900473ffffffffffffffffffffffffffffffffffffffff1673ffffffffffffffffffffffffffffffffffffffff163373ffffffffffffffffffffffffffffffffffffffff16141515610dbf576040517f08c379a00000000000000000000000000000000000000000000000000000000081526004018080602001828103825260138152602001807f756e617574686f72697a6564206163636573730000000000000000000000000081525060200191505060405180910390fd5b60008160000160009054906101000a900473ffffffffffffffffffffffffffffffffffffffff169050828260000160006101000a81548173ffffffffffffffffffffffffffffffffffffffff021916908373ffffffffffffffffffffffffffffffffffffffff160217905550837f4d2778d25f224a7981314f90e4cf321a226f16d8b8a31ea04a6f191e88151b688360000160009054906101000a900473ffffffffffffffffffffffffffffffffffffffff1683604051808373ffffffffffffffffffffffffffffffffffffffff1673ffffffffffffffffffffffffffffffffffffffff1681526020018273ffffffffffffffffffffffffffffffffffffffff1673ffffffffffffffffffffffffffffffffffffffff1681526020019250505060405180910390a250505050565b6040805190810160405280600073ffffffffffffffffffffffffffffffffffffffff168152602001606081525090565b828054600181600116156101000203166002900490600052602060002090601f016020900481019282601f10610f5e57805160ff1916838001178555610f8c565b82800160010185558215610f8c579182015b82811115610f8b578251825591602001919060010190610f70565b5b509050610f999190611024565b5090565b828054600181600116156101000203166002900490600052602060002090601f016020900481019282601f10610fd65780548555611013565b8280016001018555821561101357600052602060002091601f016020900482015b82811115611012578254825591600101919060010190610ff7565b5b5090506110209190611024565b5090565b61104691905b8082111561104257600081600090555060010161102a565b5090565b9056fea165627a7a72305820e55572bf9598089d434b031783a118d48b97e505585032142fc9a85e18bc30c50029",
  "source": "pragma solidity >=0.4.25 <0.6.0;\n\n/** Underscore Protocol Ethereum Service used to store the content of\n* _Prtcl perspectives */\ncontract Uprtcl {\n\n\tstruct Perspective {\n\t\taddress owner;\n\t\tstring headCid;\n\t}\n\n\tmapping (bytes32 => Perspective) public perspectives;\n\n\tevent PerspectiveAdded(\n\t\tbytes32 indexed perspectiveIdHash,\n\t\tbytes32 indexed contextIdHash,\n\t\taddress owner,\n\t\tstring perspectiveCid);\n\n\tevent PerspectiveHeadUpdated(\n\t\tbytes32 indexed perspectiveIdHash,\n\t\taddress author,\n\t\tstring previousHeadCid,\n\t\tstring newHeadCid);\n\n\tevent PerspectiveOwnerUpdated(\n\t\tbytes32 indexed perspectiveIdHash,\n\t\taddress newOwner,\n\t\taddress previousOwner);\n\n\tconstructor() public {\n\t}\n\n\t/** Adds a new perspective to the mapping and sets the owner. The head pointer is initialized as null and should\n\t *  be updated independently using updateHead(). The contextId is not persisted but emited in the PerspectiveAdded\n\t *  event to enable filtering. Validation of the perspectiveId to contextId should be done externally using any\n\t * \tcontent addressable\tstorage solution for the perspectiveId. The perspectiveCid is emited to help perspectiveHash\n\t *  reverse mapping */\n\tfunction addPerspective(\n\t\tbytes32 perspectiveIdHash,\n\t\tbytes32 contextIdHash,\n\t\taddress owner,\n\t\tstring memory perspectiveCid) /** LSB */\n\t\tpublic {\n\n\t\tPerspective storage perspective = perspectives[perspectiveIdHash];\n\t\trequire(address(0) != owner, \"owner cant be empty\");\n\t\trequire(address(0) == perspective.owner, \"existing perspective\");\n\n\t\tperspective.owner = owner;\n\n\t\tperspectives[perspectiveIdHash] = perspective;\n\n\t\temit PerspectiveAdded(\n\t\t\tperspectiveIdHash,\n\t\t\tcontextIdHash,\n\t\t\tperspective.owner,\n\t\t\tperspectiveCid);\n\t}\n\n\t/** Updates the head pointer of a given perspective. Available only to the owner of that perspective. */\n\tfunction updateHead(\n\t\tbytes32 perspectiveIdHash,\n\t\tstring memory newHead) public {\n\n\t\tPerspective storage perspective = perspectives[perspectiveIdHash];\n\t\trequire(msg.sender == perspective.owner, \"unauthorized access\");\n\n\t\tstring memory parentHead = perspective.headCid;\n\t\tperspective.headCid = newHead;\n\n\t\temit PerspectiveHeadUpdated(\n\t\t\tperspectiveIdHash,\n\t\t\tmsg.sender,\n\t\t\tparentHead,\n\t\t\tperspective.headCid);\n\t}\n\n\t/** Changes the owner of a given perspective. Available only to the current owner of that perspective. */\n\tfunction changeOwner(bytes32 perspectiveIdHash, address newOwner) public {\n\n    Perspective storage perspective = perspectives[perspectiveIdHash];\n\t\trequire(msg.sender == perspective.owner, \"unauthorized access\");\n\n    address previousOwner = perspective.owner;\n\t\tperspective.owner = newOwner;\n\n\t\temit PerspectiveOwnerUpdated(perspectiveIdHash, perspective.owner, previousOwner);\n\t}\n\n\t/** Get the perspective owner and head from its ID */\n\tfunction getPerspective(bytes32 perspectiveIdHash)\n\t\tpublic view\n\t\treturns(\n\t\t\taddress owner,\n\t\t\tstring memory headCid) {\n\n\t\tPerspective memory perspective = perspectives[perspectiveIdHash];\n\n\t\treturn (\n\t\t\tperspective.owner,\n\t\t\tperspective.headCid);\n\t}\n\n}\n",
  "sourcePath": "/home/pepo/ethworkspace/uprtcl-eth/contracts/Uprtcl.sol",
  "compiler": {
    "name": "solc",
    "version": "0.5.0+commit.1d4f565a.Emscripten.clang"
  },
  "schemaVersion": "3.0.9",
  "updatedAt": "2019-06-19T16:03:41.396Z",
  "devdoc": {
    "methods": {}
  },
  "userdoc": {
    "methods": {
      "addPerspective(bytes32,bytes32,address,string)": {
        "notice": "Adds a new perspective to the mapping and sets the owner. The head pointer is initialized as null and should be updated independently using updateHead(). The contextId is not persisted but emited in the PerspectiveAdded event to enable filtering. Validation of the perspectiveId to contextId should be done externally using any\tcontent addressable\tstorage solution for the perspectiveId. The perspectiveCid is emited to help perspectiveHash reverse mapping "
      },
      "changeOwner(bytes32,address)": {
        "notice": "Changes the owner of a given perspective. Available only to the current owner of that perspective. "
      },
      "getPerspective(bytes32)": {
        "notice": "Get the perspective owner and head from its ID "
      },
      "updateHead(bytes32,string)": {
        "notice": "Updates the head pointer of a given perspective. Available only to the owner of that perspective. "
      }
    },
    "notice": "Underscore Protocol Ethereum Service used to store the content of _Prtcl perspectives "
  }
}