{
  "contractName": "UprtclDAOWrapper",
  "abi": [
    {
      "constant": false,
      "inputs": [],
      "name": "renounceOwnership",
      "outputs": [],
      "payable": false,
      "stateMutability": "nonpayable",
      "type": "function"
    },
    {
      "constant": true,
      "inputs": [],
      "name": "owner",
      "outputs": [
        {
          "name": "",
          "type": "address"
        }
      ],
      "payable": false,
      "stateMutability": "view",
      "type": "function"
    },
    {
      "constant": true,
      "inputs": [],
      "name": "isOwner",
      "outputs": [
        {
          "name": "",
          "type": "bool"
        }
      ],
      "payable": false,
      "stateMutability": "view",
      "type": "function"
    },
    {
      "constant": false,
      "inputs": [
        {
          "name": "newOwner",
          "type": "address"
        }
      ],
      "name": "transferOwnership",
      "outputs": [],
      "payable": false,
      "stateMutability": "nonpayable",
      "type": "function"
    },
    {
      "anonymous": false,
      "inputs": [
        {
          "indexed": true,
          "name": "previousOwner",
          "type": "address"
        },
        {
          "indexed": true,
          "name": "newOwner",
          "type": "address"
        }
      ],
      "name": "OwnershipTransferred",
      "type": "event"
    },
    {
      "constant": false,
      "inputs": [
        {
          "name": "_uprtclRoot",
          "type": "address"
        },
        {
          "name": "_uprtclDetails",
          "type": "address"
        },
        {
          "name": "_uprtclProposals",
          "type": "address"
        },
        {
          "name": "_uprtclHomePerspectives",
          "type": "address"
        }
      ],
      "name": "setDependencies",
      "outputs": [],
      "payable": false,
      "stateMutability": "nonpayable",
      "type": "function"
    },
    {
      "constant": false,
      "inputs": [
        {
          "name": "perspectiveId",
          "type": "string"
        }
      ],
      "name": "setHomePerspective",
      "outputs": [],
      "payable": false,
      "stateMutability": "nonpayable",
      "type": "function"
    },
    {
      "constant": false,
      "inputs": [
        {
          "name": "proposalId",
          "type": "bytes32"
        },
        {
          "name": "authorized",
          "type": "uint8"
        },
        {
          "name": "execute",
          "type": "bool"
        }
      ],
      "name": "authorizeProposal",
      "outputs": [],
      "payable": false,
      "stateMutability": "nonpayable",
      "type": "function"
    },
    {
      "constant": false,
      "inputs": [
        {
          "name": "perspectiveIdHash",
          "type": "bytes32"
        },
        {
          "name": "newOwner",
          "type": "address"
        }
      ],
      "name": "changePerspectiveOwner",
      "outputs": [],
      "payable": false,
      "stateMutability": "nonpayable",
      "type": "function"
    },
    {
      "constant": false,
      "inputs": [
        {
          "name": "perspectiveIdHash",
          "type": "bytes32"
        },
        {
          "name": "context",
          "type": "string"
        }
      ],
      "name": "setPerspectiveDetails",
      "outputs": [],
      "payable": false,
      "stateMutability": "nonpayable",
      "type": "function"
    },
    {
      "constant": false,
      "inputs": [
        {
          "components": [
            {
              "name": "perspectiveId",
              "type": "string"
            },
            {
              "name": "headCid1",
              "type": "bytes32"
            },
            {
              "name": "headCid0",
              "type": "bytes32"
            },
            {
              "name": "owner",
              "type": "address"
            }
          ],
          "name": "newPerspectives",
          "type": "tuple[]"
        },
        {
          "components": [
            {
              "name": "toPerspectiveId",
              "type": "string"
            },
            {
              "name": "fromPerspectiveId",
              "type": "string"
            },
            {
              "name": "toHeadId",
              "type": "string"
            },
            {
              "name": "fromHeadId",
              "type": "string"
            },
            {
              "name": "owner",
              "type": "address"
            },
            {
              "name": "nonce",
              "type": "uint256"
            },
            {
              "components": [
                {
                  "name": "perspectiveIdHash",
                  "type": "bytes32"
                },
                {
                  "name": "headCid1",
                  "type": "bytes32"
                },
                {
                  "name": "headCid0",
                  "type": "bytes32"
                },
                {
                  "name": "executed",
                  "type": "uint8"
                }
              ],
              "name": "headUpdates",
              "type": "tuple[]"
            },
            {
              "name": "approvedAddresses",
              "type": "address[]"
            }
          ],
          "name": "newProposal",
          "type": "tuple"
        },
        {
          "name": "account",
          "type": "address"
        }
      ],
      "name": "createAndInitProposal",
      "outputs": [],
      "payable": false,
      "stateMutability": "nonpayable",
      "type": "function"
    }
  ],
  "bytecode": "0x608060405261001261005f60201b60201c565b600080546001600160a01b0319166001600160a01b03928316178082556040519216917f8be0079c531659141344cd1fd0a4f28419497f9722a3daafe3b4186f6b6457e0908290a3610063565b3390565b6111e3806100726000396000f3fe608060405234801561001057600080fd5b506004361061009e5760003560e01c80638da5cb5b116100665780638da5cb5b146100f95780638f32d59b14610117578063a93115471461012c578063eb5e06c31461013f578063f2fde38b146101525761009e565b80630e14447d146100a357806339c37594146100b85780633bde7d2e146100cb578063641591af146100de578063715018a6146100f1575b600080fd5b6100b66100b13660046109a4565b610165565b005b6100b66100c6366004610a1e565b610238565b6100b66100d9366004610ae2565b6102a5565b6100b66100ec366004610a9f565b610325565b6100b661035e565b6101016103cf565b60405161010e9190610f5a565b60405180910390f35b61011f6103de565b60405161010e9190610f88565b6100b661013a366004610a58565b610402565b6100b661014d366004610b43565b610439565b6100b661016036600461097e565b61046f565b600154604051600160e11b6311a4d2490281526001600160a01b0390911690632349a4929061019a9086908590600401610f68565b600060405180830381600087803b1580156101b457600080fd5b505af11580156101c8573d6000803e3d6000fd5b5050600354604051600160e01b6363685b5b0281526001600160a01b0390911692506363685b5b91506102019085908590600401611063565b600060405180830381600087803b15801561021b57600080fd5b505af115801561022f573d6000803e3d6000fd5b50505050505050565b600154604051600160e21b6303ab26c30281526001600160a01b0390911690630eac9b0c9061026f90859085903390600401610f96565b600060405180830381600087803b15801561028957600080fd5b505af115801561029d573d6000803e3d6000fd5b505050505050565b6102ad6103de565b6102d557604051600160e51b62461bcd0281526004016102cc90611053565b60405180910390fd5b600180546001600160a01b039586166001600160a01b0319918216179091556002805494861694821694909417909355600380549285169284169290921790915560048054919093169116179055565b600354604051600160e41b630bb61de30281526001600160a01b039091169063bb61de3090610201908690869086903390600401610fed565b6103666103de565b61038557604051600160e51b62461bcd0281526004016102cc90611053565b600080546040516001600160a01b03909116907f8be0079c531659141344cd1fd0a4f28419497f9722a3daafe3b4186f6b6457e0908390a3600080546001600160a01b0319169055565b6000546001600160a01b031690565b600080546001600160a01b03166103f36104a2565b6001600160a01b031614905090565b600254604051600160e01b6326d5ec010281526001600160a01b03909116906326d5ec019061026f90859085903390600401610fbe565b60048054604051600160e31b631369375f0281526001600160a01b0390911691639b49baf89161026f9186918691339101611022565b6104776103de565b61049657604051600160e51b62461bcd0281526004016102cc90611053565b61049f816104a6565b50565b3390565b6001600160a01b0381166104cf57604051600160e51b62461bcd0281526004016102cc90611043565b600080546040516001600160a01b03808516939216917f8be0079c531659141344cd1fd0a4f28419497f9722a3daafe3b4186f6b6457e091a3600080546001600160a01b0319166001600160a01b0392909216919091179055565b803561053581611171565b92915050565b600082601f83011261054c57600080fd5b813561055f61055a8261109a565b611074565b9150818183526020840193506020810190508385602084028201111561058457600080fd5b60005b838110156105b0578161059a888261052a565b8452506020928301929190910190600101610587565b5050505092915050565b600082601f8301126105cb57600080fd5b81356105d961055a8261109a565b915081818352602084019350602081019050838560808402820111156105fe57600080fd5b60005b838110156105b057816106148882610741565b84525060209092019160809190910190600101610601565b600082601f83011261063d57600080fd5b813561064b61055a8261109a565b81815260209384019390925082018360005b838110156105b0578135860161067388826107b0565b845250602092830192919091019060010161065d565b803561053581611185565b80356105358161118e565b803561053581611197565b60008083601f8401126106bc57600080fd5b5081356001600160401b038111156106d357600080fd5b6020830191508360018202830111156106eb57600080fd5b9250929050565b600082601f83011261070357600080fd5b813561071161055a826110ba565b9150808252602083016020830185838301111561072d57600080fd5b61073883828461112f565b50505092915050565b60006080828403121561075357600080fd5b61075d6080611074565b9050600061076b8484610694565b825250602061077c84848301610694565b602083015250604061079084828501610694565b60408301525060606107a484828501610973565b60608301525092915050565b6000608082840312156107c257600080fd5b6107cc6080611074565b905081356001600160401b038111156107e457600080fd5b6107f0848285016106f2565b825250602061080184848301610694565b602083015250604061081584828501610694565b60408301525060606107a48482850161052a565b6000610100828403121561083c57600080fd5b610847610100611074565b905081356001600160401b0381111561085f57600080fd5b61086b848285016106f2565b82525060208201356001600160401b0381111561088757600080fd5b610893848285016106f2565b60208301525060408201356001600160401b038111156108b257600080fd5b6108be848285016106f2565b60408301525060608201356001600160401b038111156108dd57600080fd5b6108e9848285016106f2565b60608301525060806108fd8482850161052a565b60808301525060a061091184828501610694565b60a08301525060c08201356001600160401b0381111561093057600080fd5b61093c848285016105ba565b60c08301525060e08201356001600160401b0381111561095b57600080fd5b6109678482850161053b565b60e08301525092915050565b8035610535816111a0565b60006020828403121561099057600080fd5b600061099c848461052a565b949350505050565b6000806000606084860312156109b957600080fd5b83356001600160401b038111156109cf57600080fd5b6109db8682870161062c565b93505060208401356001600160401b038111156109f757600080fd5b610a0386828701610829565b9250506040610a148682870161052a565b9150509250925092565b60008060408385031215610a3157600080fd5b6000610a3d8585610694565b9250506020610a4e8582860161052a565b9150509250929050565b60008060408385031215610a6b57600080fd5b6000610a778585610694565b92505060208301356001600160401b03811115610a9357600080fd5b610a4e858286016106f2565b600080600060608486031215610ab457600080fd5b6000610ac08686610694565b9350506020610ad186828701610973565b9250506040610a1486828701610689565b60008060008060808587031215610af857600080fd5b6000610b04878761069f565b9450506020610b158782880161069f565b9350506040610b268782880161069f565b9250506060610b378782880161069f565b91505092959194509250565b60008060208385031215610b5657600080fd5b82356001600160401b03811115610b6c57600080fd5b610b78858286016106aa565b92509250509250929050565b6000610b908383610bce565b505060200190565b6000610ba48383610ddc565b505060800190565b6000610bb88383610e2c565b9392505050565b610bc881611124565b82525050565b610bc8816110f4565b6000610be2826110e7565b610bec81856110eb565b9350610bf7836110e1565b8060005b83811015610c25578151610c0f8882610b84565b9750610c1a836110e1565b925050600101610bfb565b509495945050505050565b6000610c3b826110e7565b610c4581856110eb565b9350610c50836110e1565b8060005b83811015610c25578151610c688882610b98565b9750610c73836110e1565b925050600101610c54565b6000610c89826110e7565b610c9381856110eb565b935083602082028501610ca5856110e1565b8060005b85811015610cdf5784840389528151610cc28582610bac565b9450610ccd836110e1565b60209a909a0199925050600101610ca9565b5091979650505050505050565b610bc8816110ff565b610bc881611104565b6000610d0a83856110eb565b9350610d1783858461112f565b610d2083611167565b9093019392505050565b6000610d35826110e7565b610d3f81856110eb565b9350610d4f81856020860161113b565b610d2081611167565b6000610d656026836110eb565b7f4f776e61626c653a206e6577206f776e657220697320746865207a65726f20618152600160d01b6564647265737302602082015260400192915050565b6000610db06020836110eb565b7f4f776e61626c653a2063616c6c6572206973206e6f7420746865206f776e6572815260200192915050565b80516080830190610ded8482610cf5565b506020820151610e006020850182610cf5565b506040820151610e136040850182610cf5565b506060820151610e266060850182610f51565b50505050565b8051608080845260009190840190610e448282610d2a565b9150506020830151610e596020860182610cf5565b506040830151610e6c6040860182610cf5565b506060830151610e7f6060860182610bce565b509392505050565b805161010080845260009190840190610ea08282610d2a565b91505060208301518482036020860152610eba8282610d2a565b91505060408301518482036040860152610ed48282610d2a565b91505060608301518482036060860152610eee8282610d2a565b9150506080830151610f036080860182610bce565b5060a0830151610f1660a0860182610cf5565b5060c083015184820360c0860152610f2e8282610c30565b91505060e083015184820360e0860152610f488282610bd7565b95945050505050565b610bc88161111e565b602081016105358284610bce565b60408082528101610f798185610c7e565b9050610bb86020830184610bce565b602081016105358284610cec565b60608101610fa48286610cf5565b610fb16020830185610bce565b61099c6040830184610bbf565b60608101610fcc8286610cf5565b8181036020830152610fde8185610d2a565b905061099c6040830184610bbf565b60808101610ffb8287610cf5565b6110086020830186610f51565b6110156040830185610cec565b610f486060830184610bbf565b60408082528101611034818587610cfe565b905061099c6020830184610bbf565b6020808252810161053581610d58565b6020808252810161053581610da3565b60408082528101610f798185610e87565b6040518181016001600160401b038111828210171561109257600080fd5b604052919050565b60006001600160401b038211156110b057600080fd5b5060209081020190565b60006001600160401b038211156110d057600080fd5b506020601f91909101601f19160190565b60200190565b5190565b90815260200190565b600061053582611112565b151590565b90565b6000610535826110f4565b6001600160a01b031690565b60ff1690565b600061053582611107565b82818337506000910152565b60005b8381101561115657818101518382015260200161113e565b83811115610e265750506000910152565b601f01601f191690565b61117a816110f4565b811461049f57600080fd5b61117a816110ff565b61117a81611104565b61117a81611107565b61117a8161111e56fea265627a7a72305820019a07d8fe05559404ad56f238715aca8a295afface706de9dbd85f1e06681606c6578706572696d656e74616cf50037",
  "source": "pragma solidity >=0.5.0 <0.6.0;\npragma experimental ABIEncoderV2;\n\nimport \"./UprtclRoot.sol\";\nimport \"./UprtclDetails.sol\";\nimport \"./UprtclProposals.sol\";\nimport \"./UprtclHomePerspectives.sol\";\n\ncontract UprtclDAOWrapper is Ownable {\n    UprtclRoot uprtclRoot;\n    UprtclDetails uprtclDetails;\n    UprtclProposals uprtclProposals;\n    UprtclHomePerspectives uprtclHomePerspectives;\n\n    function setDependencies(\n        UprtclRoot _uprtclRoot,\n        UprtclDetails _uprtclDetails,\n        UprtclProposals _uprtclProposals,\n        UprtclHomePerspectives _uprtclHomePerspectives\n    ) external onlyOwner {\n        uprtclRoot = _uprtclRoot;\n        uprtclDetails = _uprtclDetails;\n        uprtclProposals = _uprtclProposals;\n        uprtclHomePerspectives = _uprtclHomePerspectives;\n    }\n\n    function setHomePerspective(string calldata perspectiveId) external {\n        uprtclHomePerspectives.setHomePerspectiveSuperUser(\n            perspectiveId,\n            msg.sender\n        );\n    }\n\n    function authorizeProposal(\n        bytes32 proposalId,\n        uint8 authorized,\n        bool execute\n    ) external {\n        uprtclProposals.authorizeProposalSuperUser(\n            proposalId,\n            authorized,\n            execute,\n            msg.sender\n        );\n    }\n\n    function changePerspectiveOwner(\n        bytes32 perspectiveIdHash,\n        address newOwner\n    ) external {\n        uprtclRoot.changePerspectiveOwnerSuperUser(\n            perspectiveIdHash,\n            newOwner,\n            msg.sender\n        );\n    }\n\n    function setPerspectiveDetails(\n        bytes32 perspectiveIdHash,\n        string memory context\n    ) public {\n        uprtclDetails.setPerspectiveDetailsSuperUser(\n            perspectiveIdHash,\n            context,\n            msg.sender\n        );\n    }\n\n    /** create the perspectives and initialize a new proposal on one tx */\n    function createAndInitProposal(\n        UprtclRoot.NewPerspective[] memory newPerspectives,\n        UprtclProposals.NewProposal memory newProposal,\n        address account) public {\n\n        uprtclRoot.createPerspectiveBatch(newPerspectives, account);\n        uprtclProposals.initProposal(newProposal, account);\n    }\n\n}\n",
  "sourcePath": "/home/pepo/pr/uprtcl/eth-uprtcl/contracts/UprtclDAOWrapper.sol",
  "compiler": {
    "name": "solc",
    "version": "0.5.8+commit.23d335f2.Emscripten.clang"
  },
  "schemaVersion": "3.0.11",
  "updatedAt": "2020-04-19T13:53:28.771Z",
  "devdoc": {
    "methods": {
      "isOwner()": {
        "details": "Returns true if the caller is the current owner."
      },
      "owner()": {
        "details": "Returns the address of the current owner."
      },
      "renounceOwnership()": {
        "details": "Leaves the contract without owner. It will not be possible to call `onlyOwner` functions anymore. Can only be called by the current owner.     * NOTE: Renouncing ownership will leave the contract without an owner, thereby removing any functionality that is only available to the owner."
      },
      "transferOwnership(address)": {
        "details": "Transfers ownership of the contract to a new account (`newOwner`). Can only be called by the current owner."
      }
    }
  },
  "userdoc": {
    "methods": {
      "createAndInitProposal((string,bytes32,bytes32,address)[],(string,string,string,string,address,uint256,(bytes32,bytes32,bytes32,uint8)[],address[]),address)": {
        "notice": "create the perspectives and initialize a new proposal on one tx "
      }
    }
  }
}