{
  "contractName": "UprtclRoot",
  "abi": [
    {
      "anonymous": false,
      "inputs": [
        {
          "indexed": true,
          "internalType": "address",
          "name": "previousOwner",
          "type": "address"
        },
        {
          "indexed": true,
          "internalType": "address",
          "name": "newOwner",
          "type": "address"
        }
      ],
      "name": "OwnershipTransferred",
      "type": "event"
    },
    {
      "anonymous": false,
      "inputs": [
        {
          "indexed": true,
          "internalType": "bytes32",
          "name": "perspectiveIdHash",
          "type": "bytes32"
        },
        {
          "indexed": false,
          "internalType": "address",
          "name": "newOwner",
          "type": "address"
        },
        {
          "indexed": false,
          "internalType": "address",
          "name": "previousOwner",
          "type": "address"
        }
      ],
      "name": "PerspectiveOwnerUpdated",
      "type": "event"
    },
    {
      "constant": true,
      "inputs": [],
      "name": "getAddFee",
      "outputs": [
        {
          "internalType": "uint256",
          "name": "",
          "type": "uint256"
        }
      ],
      "payable": false,
      "stateMutability": "view",
      "type": "function"
    },
    {
      "constant": true,
      "inputs": [],
      "name": "getFees",
      "outputs": [
        {
          "internalType": "uint256",
          "name": "addFee",
          "type": "uint256"
        },
        {
          "internalType": "uint256",
          "name": "updateFee",
          "type": "uint256"
        }
      ],
      "payable": false,
      "stateMutability": "view",
      "type": "function"
    },
    {
      "constant": true,
      "inputs": [],
      "name": "getUpdateFee",
      "outputs": [
        {
          "internalType": "uint256",
          "name": "",
          "type": "uint256"
        }
      ],
      "payable": false,
      "stateMutability": "view",
      "type": "function"
    },
    {
      "constant": true,
      "inputs": [],
      "name": "isOwner",
      "outputs": [
        {
          "internalType": "bool",
          "name": "",
          "type": "bool"
        }
      ],
      "payable": false,
      "stateMutability": "view",
      "type": "function"
    },
    {
      "constant": true,
      "inputs": [],
      "name": "owner",
      "outputs": [
        {
          "internalType": "address payable",
          "name": "",
          "type": "address"
        }
      ],
      "payable": false,
      "stateMutability": "view",
      "type": "function"
    },
    {
      "constant": true,
      "inputs": [
        {
          "internalType": "bytes32",
          "name": "",
          "type": "bytes32"
        }
      ],
      "name": "perspectives",
      "outputs": [
        {
          "internalType": "address",
          "name": "owner",
          "type": "address"
        },
        {
          "internalType": "bytes32",
          "name": "headCid1",
          "type": "bytes32"
        },
        {
          "internalType": "bytes32",
          "name": "headCid0",
          "type": "bytes32"
        }
      ],
      "payable": false,
      "stateMutability": "view",
      "type": "function"
    },
    {
      "constant": false,
      "inputs": [],
      "name": "renounceOwnership",
      "outputs": [],
      "payable": false,
      "stateMutability": "nonpayable",
      "type": "function"
    },
    {
      "constant": false,
      "inputs": [
        {
          "internalType": "uint256",
          "name": "addFee",
          "type": "uint256"
        },
        {
          "internalType": "uint256",
          "name": "updateFee",
          "type": "uint256"
        }
      ],
      "name": "setFees",
      "outputs": [],
      "payable": false,
      "stateMutability": "nonpayable",
      "type": "function"
    },
    {
      "constant": false,
      "inputs": [
        {
          "internalType": "uint256",
          "name": "amount",
          "type": "uint256"
        }
      ],
      "name": "transfer",
      "outputs": [],
      "payable": false,
      "stateMutability": "nonpayable",
      "type": "function"
    },
    {
      "constant": false,
      "inputs": [
        {
          "internalType": "address payable",
          "name": "newOwner",
          "type": "address"
        }
      ],
      "name": "transferOwnership",
      "outputs": [],
      "payable": false,
      "stateMutability": "nonpayable",
      "type": "function"
    },
    {
      "constant": false,
      "inputs": [
        {
          "components": [
            {
              "internalType": "bytes32",
              "name": "perspectiveIdHash",
              "type": "bytes32"
            },
            {
              "internalType": "bytes32",
              "name": "headCid1",
              "type": "bytes32"
            },
            {
              "internalType": "bytes32",
              "name": "headCid0",
              "type": "bytes32"
            },
            {
              "internalType": "address",
              "name": "owner",
              "type": "address"
            }
          ],
          "internalType": "struct UprtclRoot.NewPerspective",
          "name": "newPerspective",
          "type": "tuple"
        }
      ],
      "name": "addPerspective",
      "outputs": [],
      "payable": true,
      "stateMutability": "payable",
      "type": "function"
    },
    {
      "constant": false,
      "inputs": [
        {
          "components": [
            {
              "internalType": "bytes32",
              "name": "perspectiveIdHash",
              "type": "bytes32"
            },
            {
              "internalType": "bytes32",
              "name": "headCid1",
              "type": "bytes32"
            },
            {
              "internalType": "bytes32",
              "name": "headCid0",
              "type": "bytes32"
            },
            {
              "internalType": "address",
              "name": "owner",
              "type": "address"
            }
          ],
          "internalType": "struct UprtclRoot.NewPerspective[]",
          "name": "newPerspectives",
          "type": "tuple[]"
        }
      ],
      "name": "addPerspectiveBatch",
      "outputs": [],
      "payable": true,
      "stateMutability": "payable",
      "type": "function"
    },
    {
      "constant": false,
      "inputs": [
        {
          "internalType": "bytes32",
          "name": "perspectiveIdHash",
          "type": "bytes32"
        },
        {
          "internalType": "bytes32",
          "name": "newHeadCid1",
          "type": "bytes32"
        },
        {
          "internalType": "bytes32",
          "name": "newHeadCid0",
          "type": "bytes32"
        }
      ],
      "name": "updateHead",
      "outputs": [],
      "payable": true,
      "stateMutability": "payable",
      "type": "function"
    },
    {
      "constant": false,
      "inputs": [
        {
          "internalType": "bytes32",
          "name": "perspectiveIdHash",
          "type": "bytes32"
        },
        {
          "internalType": "address",
          "name": "newOwner",
          "type": "address"
        }
      ],
      "name": "changeOwner",
      "outputs": [],
      "payable": false,
      "stateMutability": "nonpayable",
      "type": "function"
    },
    {
      "constant": true,
      "inputs": [
        {
          "internalType": "bytes32",
          "name": "perspectiveIdHash",
          "type": "bytes32"
        }
      ],
      "name": "getPerspectiveDetails",
      "outputs": [
        {
          "internalType": "address",
          "name": "owner",
          "type": "address"
        },
        {
          "internalType": "bytes32",
          "name": "headCid1",
          "type": "bytes32"
        },
        {
          "internalType": "bytes32",
          "name": "headCid0",
          "type": "bytes32"
        }
      ],
      "payable": false,
      "stateMutability": "view",
      "type": "function"
    },
    {
      "constant": true,
      "inputs": [
        {
          "internalType": "bytes32",
          "name": "perspectiveIdHash",
          "type": "bytes32"
        }
      ],
      "name": "getPerspectiveOwner",
      "outputs": [
        {
          "internalType": "address",
          "name": "owner",
          "type": "address"
        }
      ],
      "payable": false,
      "stateMutability": "view",
      "type": "function"
    }
  ],
  "bytecode": "0x60806040526100156001600160e01b0361006216565b600080546001600160a01b0319166001600160a01b03928316178082556040519216917f8be0079c531659141344cd1fd0a4f28419497f9722a3daafe3b4186f6b6457e0908290a3610066565b3390565b610fa3806100756000396000f3fe6080604052600436106100f35760003560e01c80638f32d59b1161008a578063d3a5b10711610059578063d3a5b10714610268578063db8d55f114610288578063ecc5739c146102ab578063f2fde38b146102be576100f3565b80638f32d59b146101fe578063a22ed7c314610220578063b7b0ccde14610233578063b92d30dc14610248576100f3565b8063715018a6116100c6578063715018a61461018357806376914ecf1461019857806386830d58146101c75780638da5cb5b146101e9576100f3565b80630b78f9c0146100f857806312514bba1461011a5780631393bbf51461013a5780632fbf49c814610170575b600080fd5b34801561010457600080fd5b50610118610113366004610b66565b6102de565b005b34801561012657600080fd5b50610118610135366004610aa3565b610316565b34801561014657600080fd5b5061015a610155366004610aa3565b6103e7565b6040516101679190610db4565b60405180910390f35b61011861017e366004610a6e565b610436565b34801561018f57600080fd5b506101186104a3565b3480156101a457600080fd5b506101b86101b3366004610aa3565b610511565b60405161016793929190610de4565b3480156101d357600080fd5b506101dc610566565b6040516101679190610eaa565b3480156101f557600080fd5b5061015a610573565b34801561020a57600080fd5b50610213610582565b6040516101679190610e0c565b61011861022e366004610b48565b6105a6565b34801561023f57600080fd5b506101dc6105d9565b34801561025457600080fd5b506101b8610263366004610aa3565b6105e3565b34801561027457600080fd5b50610118610283366004610ac1565b61060e565b34801561029457600080fd5b5061029d610619565b604051610167929190610eb8565b6101186102b9366004610afb565b610623565b3480156102ca57600080fd5b506101186102d9366004610a2a565b61069c565b6102e6610582565b61030b5760405162461bcd60e51b815260040161030290610e5a565b60405180910390fd5b600191909155600255565b61031e610582565b61033a5760405162461bcd60e51b815260040161030290610e5a565b306001600160a01b0316638da5cb5b6040518163ffffffff1660e01b815260040160206040518083038186803b15801561037357600080fd5b505afa158015610387573d6000803e3d6000fd5b505050506040513d601f19601f820116820180604052506103ab9190810190610a50565b6001600160a01b03166108fc829081150290604051600060405180830381858888f193505050501580156103e3573d6000803e3d6000fd5b5050565b60006103f16108f9565b5050600090815260036020908152604091829020825160608101845281546001600160a01b031680825260018301549382019390935260029091015492019190915290565b805161045081610444610566565b9063ffffffff6106c916565b34101561046f5760405162461bcd60e51b815260040161030290610e6a565b60005b8181101561049e5761049683828151811061048957fe5b602002602001015161070c565b600101610472565b505050565b6104ab610582565b6104c75760405162461bcd60e51b815260040161030290610e5a565b600080546040516001600160a01b03909116907f8be0079c531659141344cd1fd0a4f28419497f9722a3daafe3b4186f6b6457e0908390a3600080546001600160a01b0319169055565b600080600061051e6108f9565b50505060009182525060036020908152604091829020825160608101845281546001600160a01b03168082526001830154938201849052600290920154930183905292909190565b60006001815b0154905090565b6000546001600160a01b031690565b600080546001600160a01b03166105976107d6565b6001600160a01b031614905090565b6105ae610566565b3410156105cd5760405162461bcd60e51b815260040161030290610e6a565b6105d68161070c565b50565b600060018061056c565b6003602052600090815260409020805460018201546002909201546001600160a01b03909116919083565b6103e38282336107da565b6001546002549091565b61062b6105d9565b34101561064a5760405162461bcd60e51b815260040161030290610e8a565b600083815260036020526040902080546001600160a01b031633146106815760405162461bcd60e51b815260040161030290610e3a565b81156106965760028101829055600181018390555b50505050565b6106a4610582565b6106c05760405162461bcd60e51b815260040161030290610e5a565b6105d681610878565b6000826106d857506000610706565b828202828482816106e557fe5b04146107035760405162461bcd60e51b815260040161030290610e4a565b90505b92915050565b8051600081815260036020526040902060608301516001600160a01b03166107465760405162461bcd60e51b815260040161030290610e9a565b80546001600160a01b03161561076e5760405162461bcd60e51b815260040161030290610e1a565b606083015181546001600160a01b039182166001600160a01b0319918216178084556020808701516001808701918255604098890151600297880190815560009889526003909352979096208054909316919093161781559254938301939093559154910155565b3390565b600083815260036020526040902080546001600160a01b038381169116146108145760405162461bcd60e51b815260040161030290610e7a565b80546001600160a01b038481166001600160a01b03198316178084556040519282169287927f4d2778d25f224a7981314f90e4cf321a226f16d8b8a31ea04a6f191e88151b6892610869929116908590610dc2565b60405180910390a25050505050565b6001600160a01b03811661089e5760405162461bcd60e51b815260040161030290610e2a565b600080546040516001600160a01b03808516939216917f8be0079c531659141344cd1fd0a4f28419497f9722a3daafe3b4186f6b6457e091a3600080546001600160a01b0319166001600160a01b0392909216919091179055565b604080516060810182526000808252602082018190529181019190915290565b803561070681610f43565b805161070681610f43565b600082601f83011261094057600080fd5b813561095361094e82610efa565b610ed3565b9150818183526020840193506020810190508385608084028201111561097857600080fd5b60005b838110156109a6578161098e88826109bb565b8452506020909201916080919091019060010161097b565b5050505092915050565b803561070681610f57565b6000608082840312156109cd57600080fd5b6109d76080610ed3565b905060006109e584846109b0565b82525060206109f6848483016109b0565b6020830152506040610a0a848285016109b0565b6040830152506060610a1e84828501610919565b60608301525092915050565b600060208284031215610a3c57600080fd5b6000610a488484610919565b949350505050565b600060208284031215610a6257600080fd5b6000610a488484610924565b600060208284031215610a8057600080fd5b813567ffffffffffffffff811115610a9757600080fd5b610a488482850161092f565b600060208284031215610ab557600080fd5b6000610a4884846109b0565b60008060408385031215610ad457600080fd5b6000610ae085856109b0565b9250506020610af185828601610919565b9150509250929050565b600080600060608486031215610b1057600080fd5b6000610b1c86866109b0565b9350506020610b2d868287016109b0565b9250506040610b3e868287016109b0565b9150509250925092565b600060808284031215610b5a57600080fd5b6000610a4884846109bb565b60008060408385031215610b7957600080fd5b6000610b8585856109b0565b9250506020610af1858286016109b0565b610b9f81610f24565b82525050565b610b9f81610f2f565b610b9f81610f34565b6000610bc4601483610f1b565b736578697374696e6720706572737065637469766560601b815260200192915050565b6000610bf4602683610f1b565b7f4f776e61626c653a206e6577206f776e657220697320746865207a65726f206181526564647265737360d01b602082015260400192915050565b6000610c3c602983610f1b565b7f6f6e6c7920746865206f776e65722063616e207570646174652074686520706581526872737065637469766560b81b602082015260400192915050565b6000610c87602183610f1b565b7f536166654d6174683a206d756c7469706c69636174696f6e206f766572666c6f8152607760f81b602082015260400192915050565b6000610cca602083610f1b565b7f4f776e61626c653a2063616c6c6572206973206e6f7420746865206f776e6572815260200192915050565b6000610d03601283610f1b565b710c2c8c840cccaca40dcdee840cadcdeeaced60731b815260200192915050565b6000610d31601383610f1b565b72756e617574686f72697a65642061636365737360681b815260200192915050565b6000610d60601483610f1b565b731d5c19185d1948199959481b9bdd08185919195960621b815260200192915050565b6000610d90601583610f1b565b746f776e65722063616e6e6f7420626520656d70747960581b815260200192915050565b602081016107068284610b96565b60408101610dd08285610b96565b610ddd6020830184610b96565b9392505050565b60608101610df28286610b96565b610dff6020830185610bae565b610a486040830184610bae565b602081016107068284610ba5565b6020808252810161070681610bb7565b6020808252810161070681610be7565b6020808252810161070681610c2f565b6020808252810161070681610c7a565b6020808252810161070681610cbd565b6020808252810161070681610cf6565b6020808252810161070681610d24565b6020808252810161070681610d53565b6020808252810161070681610d83565b602081016107068284610bae565b60408101610ec68285610bae565b610ddd6020830184610bae565b60405181810167ffffffffffffffff81118282101715610ef257600080fd5b604052919050565b600067ffffffffffffffff821115610f1157600080fd5b5060209081020190565b90815260200190565b600061070682610f37565b151590565b90565b6001600160a01b031690565b610f4c81610f24565b81146105d657600080fd5b610f4c81610f3456fea365627a7a723158204c8e60d0d458298676e37f6628380431c911f317f2bc0f12e08f50abaf3144386c6578706572696d656e74616cf564736f6c63430005100040",
  "source": "pragma solidity >=0.5.0 <0.6.0;\npragma experimental ABIEncoderV2;\n\nimport \"./Toll.sol\";\nimport \"./SafeMath.sol\";\n\n/** Underscore Protocol Ethereum Service used to store the content of\n* _Prtcl perspectives */\ncontract UprtclRoot is Toll {\n\n    using SafeMath for uint256;\n\n    struct Perspective {\n        address owner;\n        bytes32 headCid1;\n        bytes32 headCid0;\n    }\n\n    struct NewPerspective {\n        bytes32 perspectiveIdHash;\n        bytes32 headCid1;\n        bytes32 headCid0;\n        address owner;\n    }\n\n    mapping(bytes32 => Perspective) public perspectives;\n\n    event PerspectiveOwnerUpdated(\n        bytes32 indexed perspectiveIdHash,\n        address newOwner,\n        address previousOwner\n    );\n\n    /** Adds a new perspective to the mapping and sets the owner. The head pointer and the context. */\n    function addPerspectiveInternal(\n        NewPerspective memory newPerspective\n    ) private {\n\n        bytes32 perspectiveIdHash = newPerspective.perspectiveIdHash;\n\n        Perspective storage perspective = perspectives[perspectiveIdHash];\n        require(address(0) != newPerspective.owner, \"owner cannot be empty\");\n        require(address(0) == perspective.owner, \"existing perspective\");\n\n        perspective.owner = newPerspective.owner;\n        perspective.headCid1 = newPerspective.headCid1;\n        perspective.headCid0 = newPerspective.headCid0;\n\n        perspectives[perspectiveIdHash] = perspective;\n    }\n\n    function addPerspective(NewPerspective memory newPerspective) public payable {\n        require(msg.value >= getAddFee(), \"add fee not enough\");\n        addPerspectiveInternal(newPerspective);\n    }\n\n    function addPerspectiveBatch(NewPerspective[] memory newPerspectives) public payable {\n        uint256 nPerspectives = newPerspectives.length;\n\n        require(msg.value >= (getAddFee().mul(nPerspectives)), \"add fee not enough\");\n\n        for (uint256 ix = 0; ix < nPerspectives; ix++) {\n            addPerspectiveInternal(newPerspectives[ix]);\n        }\n    }\n\n    function updateHead(\n        bytes32 perspectiveIdHash,\n        bytes32 newHeadCid1,\n        bytes32 newHeadCid0\n    ) public payable {\n        require(msg.value >= getUpdateFee(), \"update fee not added\");\n\n        Perspective storage perspective = perspectives[perspectiveIdHash];\n\n        require(\n            perspective.owner == msg.sender,\n            \"only the owner can update the perspective\"\n        );\n\n        if (newHeadCid0 != bytes32(0)) {\n            perspective.headCid0 = newHeadCid0;\n            perspective.headCid1 = newHeadCid1;\n        }\n    }\n\n    function changeOwnerInternal(\n        bytes32 perspectiveIdHash,\n        address newOwner,\n        address sender) private {\n\n        Perspective storage perspective = perspectives[perspectiveIdHash];\n        require(sender == perspective.owner, \"unauthorized access\");\n\n        address previousOwner = perspective.owner;\n        perspective.owner = newOwner;\n\n        emit PerspectiveOwnerUpdated(\n            perspectiveIdHash,\n            perspective.owner,\n            previousOwner\n        );\n    }\n\n    /** Changes the owner of a given perspective. Available only to the current owner of that perspective. */\n    function changeOwner(\n        bytes32 perspectiveIdHash,\n        address newOwner) public {\n        changeOwnerInternal(perspectiveIdHash, newOwner, msg.sender);\n    }\n\n    /** Get the perspective owner and details from its ID */\n    function getPerspectiveDetails(\n        bytes32 perspectiveIdHash)\n        public\n        view\n        returns (\n            address owner,\n            bytes32 headCid1,\n            bytes32 headCid0\n        )\n    {\n        Perspective memory perspective = perspectives[perspectiveIdHash];\n\n        return (\n            perspective.owner,\n            perspective.headCid1,\n            perspective.headCid0\n        );\n    }\n\n    /** Get the perspective owner and details from its ID */\n    function getPerspectiveOwner(\n        bytes32 perspectiveIdHash)\n        public\n        view\n        returns (\n            address owner\n        )\n    {\n        Perspective memory perspective = perspectives[perspectiveIdHash];\n\n        return (\n            perspective.owner\n        );\n    }\n\n}\n",
  "sourcePath": "/home/pepo/pr/uprtcl/eth-uprtcl/contracts/UprtclRoot.sol",
  "compiler": {
    "name": "solc",
    "version": "0.5.16+commit.9c3226ce.Emscripten.clang"
  },
  "schemaVersion": "3.0.23",
  "updatedAt": "2020-02-21T14:43:47.350Z",
  "networkType": "ethereum",
  "devdoc": {
    "methods": {
      "isOwner()": {
        "details": "Returns true if the caller is the current owner."
      },
      "owner()": {
        "details": "Returns the address of the current owner."
      },
      "renounceOwnership()": {
        "details": "Leaves the contract without owner. It will not be possible to call `onlyOwner` functions anymore. Can only be called by the current owner.     * NOTE: Renouncing ownership will leave the contract without an owner, thereby removing any functionality that is only available to the owner."
      },
      "transferOwnership(address)": {
        "details": "Transfers ownership of the contract to a new account (`newOwner`). Can only be called by the current owner."
      }
    }
  },
  "userdoc": {
    "methods": {
      "changeOwner(bytes32,address)": {
        "notice": "Changes the owner of a given perspective. Available only to the current owner of that perspective. "
      },
      "getPerspectiveDetails(bytes32)": {
        "notice": "Get the perspective owner and details from its ID "
      },
      "getPerspectiveOwner(bytes32)": {
        "notice": "Get the perspective owner and details from its ID "
      }
    },
    "notice": "Underscore Protocol Ethereum Service used to store the content of _Prtcl perspectives "
  }
}