{
  "contractName": "UprtclAccounts",
  "abi": [
    {
      "anonymous": false,
      "inputs": [
        {
          "indexed": true,
          "internalType": "address",
          "name": "previousOwner",
          "type": "address"
        },
        {
          "indexed": true,
          "internalType": "address",
          "name": "newOwner",
          "type": "address"
        }
      ],
      "name": "OwnershipTransferred",
      "type": "event"
    },
    {
      "constant": true,
      "inputs": [
        {
          "internalType": "address",
          "name": "",
          "type": "address"
        },
        {
          "internalType": "address",
          "name": "",
          "type": "address"
        }
      ],
      "name": "accounts",
      "outputs": [
        {
          "internalType": "bool",
          "name": "",
          "type": "bool"
        }
      ],
      "payable": false,
      "stateMutability": "view",
      "type": "function"
    },
    {
      "constant": true,
      "inputs": [],
      "name": "isOwner",
      "outputs": [
        {
          "internalType": "bool",
          "name": "",
          "type": "bool"
        }
      ],
      "payable": false,
      "stateMutability": "view",
      "type": "function"
    },
    {
      "constant": true,
      "inputs": [],
      "name": "owner",
      "outputs": [
        {
          "internalType": "address payable",
          "name": "",
          "type": "address"
        }
      ],
      "payable": false,
      "stateMutability": "view",
      "type": "function"
    },
    {
      "constant": false,
      "inputs": [],
      "name": "renounceOwnership",
      "outputs": [],
      "payable": false,
      "stateMutability": "nonpayable",
      "type": "function"
    },
    {
      "constant": true,
      "inputs": [],
      "name": "token",
      "outputs": [
        {
          "internalType": "contract IERC20",
          "name": "",
          "type": "address"
        }
      ],
      "payable": false,
      "stateMutability": "view",
      "type": "function"
    },
    {
      "constant": false,
      "inputs": [
        {
          "internalType": "address payable",
          "name": "newOwner",
          "type": "address"
        }
      ],
      "name": "transferOwnership",
      "outputs": [],
      "payable": false,
      "stateMutability": "nonpayable",
      "type": "function"
    },
    {
      "constant": false,
      "inputs": [
        {
          "internalType": "address",
          "name": "to",
          "type": "address"
        },
        {
          "internalType": "uint256",
          "name": "amount",
          "type": "uint256"
        }
      ],
      "name": "withdraw",
      "outputs": [],
      "payable": false,
      "stateMutability": "nonpayable",
      "type": "function"
    },
    {
      "constant": false,
      "inputs": [
        {
          "internalType": "address",
          "name": "by",
          "type": "address"
        },
        {
          "internalType": "address",
          "name": "fromAccount",
          "type": "address"
        },
        {
          "internalType": "uint256",
          "name": "amount",
          "type": "uint256"
        }
      ],
      "name": "consume",
      "outputs": [],
      "payable": false,
      "stateMutability": "nonpayable",
      "type": "function"
    }
  ],
  "bytecode": "0x60806040526100156001600160e01b0361006216565b600080546001600160a01b0319166001600160a01b03928316178082556040519216917f8be0079c531659141344cd1fd0a4f28419497f9722a3daafe3b4186f6b6457e0908290a3610066565b3390565b6106bd806100756000396000f3fe608060405234801561001057600080fd5b50600436106100885760003560e01c8063ad74b7751161005b578063ad74b7751461010d578063f2fde38b1461013b578063f3fef3a314610161578063fc0c546a1461018d57610088565b80634ca959a01461008d578063715018a6146100c55780638da5cb5b146100cd5780638f32d59b146100f1575b600080fd5b6100c3600480360360608110156100a357600080fd5b506001600160a01b03813581169160208101359091169060400135610195565b005b6100c3610352565b6100d56103f5565b604080516001600160a01b039092168252519081900360200190f35b6100f9610404565b604080519115158252519081900360200190f35b6100f96004803603604081101561012357600080fd5b506001600160a01b0381358116916020013516610428565b6100c36004803603602081101561015157600080fd5b50356001600160a01b0316610448565b6100c36004803603604081101561017757600080fd5b506001600160a01b0381351690602001356104ad565b6100d561058c565b6001600160a01b03808316600090815260016020818152604080842094881684529390529190205460ff161515146101fe5760405162461bcd60e51b81526004018080602001828103825260238152602001806106666023913960400191505060405180910390fd5b60025460408051636eb1769f60e11b81526001600160a01b03858116600483015230602483015291518493929092169163dd62ed3e91604480820192602092909190829003018186803b15801561025457600080fd5b505afa158015610268573d6000803e3d6000fd5b505050506040513d602081101561027e57600080fd5b505110156102c6576040805162461bcd60e51b815260206004820152601060248201526f6e6f7420656e6f7567682066756e647360801b604482015290519081900360640190fd5b600254604080516323b872dd60e01b8152306004820181905260248201526044810184905290516001600160a01b03909216916323b872dd916064808201926020929091908290030181600087803b15801561032157600080fd5b505af1158015610335573d6000803e3d6000fd5b505050506040513d602081101561034b57600080fd5b5050505050565b61035a610404565b6103ab576040805162461bcd60e51b815260206004820181905260248201527f4f776e61626c653a2063616c6c6572206973206e6f7420746865206f776e6572604482015290519081900360640190fd5b600080546040516001600160a01b03909116907f8be0079c531659141344cd1fd0a4f28419497f9722a3daafe3b4186f6b6457e0908390a3600080546001600160a01b0319169055565b6000546001600160a01b031690565b600080546001600160a01b031661041961059b565b6001600160a01b031614905090565b600160209081526000928352604080842090915290825290205460ff1681565b610450610404565b6104a1576040805162461bcd60e51b815260206004820181905260248201527f4f776e61626c653a2063616c6c6572206973206e6f7420746865206f776e6572604482015290519081900360640190fd5b6104aa8161059f565b50565b6104b5610404565b610506576040805162461bcd60e51b815260206004820181905260248201527f4f776e61626c653a2063616c6c6572206973206e6f7420746865206f776e6572604482015290519081900360640190fd5b6002546040805163a9059cbb60e01b81526001600160a01b038581166004830152602482018590529151919092169163a9059cbb9160448083019260209291908290030181600087803b15801561055c57600080fd5b505af1158015610570573d6000803e3d6000fd5b505050506040513d602081101561058657600080fd5b50505050565b6002546001600160a01b031681565b3390565b6001600160a01b0381166105e45760405162461bcd60e51b81526004018080602001828103825260268152602001806106406026913960400191505060405180910390fd5b600080546040516001600160a01b03808516939216917f8be0079c531659141344cd1fd0a4f28419497f9722a3daafe3b4186f6b6457e091a3600080546001600160a01b0319166001600160a01b039290921691909117905556fe4f776e61626c653a206e6577206f776e657220697320746865207a65726f206164647265737375736572206973206e6f7420616e206163636f756e7420757375667275637475617279a265627a7a723158205c53e2d36f6f4f340567513aa69d7cbcf98eeef9ce95b75ebeb8613c8ba0c81764736f6c63430005100032",
  "source": "pragma solidity >=0.5.0 <0.6.0;\n\nimport \"./Ownable.sol\";\nimport \"./IERC20.sol\";\n\ncontract UprtclAccounts is Ownable {\n\n    mapping(address => mapping(address => bool)) public accounts;\n\n    IERC20 public token;\n\n    function withdraw (address to, uint256 amount) public onlyOwner {\n        token.transfer(to, amount);\n    }\n\n    function consume (address by, address fromAccount, uint256 amount) public {\n        require(accounts[fromAccount][by] == true, \"user is not an account usufructuary\");\n        require(token.allowance(fromAccount, address(this)) >= amount, \"not enough funds\");\n\n        token.transferFrom(address(this), address(this), amount);\n    }\n\n}\n",
  "sourcePath": "/home/pepo/pr/uprtcl/eth-uprtcl/contracts/UprtclAccounts.sol",
  "compiler": {
    "name": "solc",
    "version": "0.5.16+commit.9c3226ce.Emscripten.clang"
  },
  "schemaVersion": "3.0.23",
  "updatedAt": "2020-02-25T11:37:23.374Z",
  "devdoc": {
    "methods": {
      "isOwner()": {
        "details": "Returns true if the caller is the current owner."
      },
      "owner()": {
        "details": "Returns the address of the current owner."
      },
      "renounceOwnership()": {
        "details": "Leaves the contract without owner. It will not be possible to call `onlyOwner` functions anymore. Can only be called by the current owner.     * NOTE: Renouncing ownership will leave the contract without an owner, thereby removing any functionality that is only available to the owner."
      },
      "transferOwnership(address)": {
        "details": "Transfers ownership of the contract to a new account (`newOwner`). Can only be called by the current owner."
      }
    }
  },
  "userdoc": {
    "methods": {}
  }
}