{
  "contractName": "UprtclDAOWrapper",
  "abi": [
    {
      "constant": false,
      "inputs": [],
      "name": "renounceOwnership",
      "outputs": [],
      "payable": false,
      "stateMutability": "nonpayable",
      "type": "function"
    },
    {
      "constant": true,
      "inputs": [],
      "name": "owner",
      "outputs": [
        {
          "name": "",
          "type": "address"
        }
      ],
      "payable": false,
      "stateMutability": "view",
      "type": "function"
    },
    {
      "constant": true,
      "inputs": [],
      "name": "isOwner",
      "outputs": [
        {
          "name": "",
          "type": "bool"
        }
      ],
      "payable": false,
      "stateMutability": "view",
      "type": "function"
    },
    {
      "constant": false,
      "inputs": [
        {
          "name": "newOwner",
          "type": "address"
        }
      ],
      "name": "transferOwnership",
      "outputs": [],
      "payable": false,
      "stateMutability": "nonpayable",
      "type": "function"
    },
    {
      "anonymous": false,
      "inputs": [
        {
          "indexed": true,
          "name": "previousOwner",
          "type": "address"
        },
        {
          "indexed": true,
          "name": "newOwner",
          "type": "address"
        }
      ],
      "name": "OwnershipTransferred",
      "type": "event"
    },
    {
      "constant": false,
      "inputs": [
        {
          "name": "_uprtclRoot",
          "type": "address"
        },
        {
          "name": "_uprtclDetails",
          "type": "address"
        },
        {
          "name": "_uprtclProposals",
          "type": "address"
        },
        {
          "name": "_uprtclHomePerspectives",
          "type": "address"
        }
      ],
      "name": "setDependencies",
      "outputs": [],
      "payable": false,
      "stateMutability": "nonpayable",
      "type": "function"
    },
    {
      "constant": false,
      "inputs": [
        {
          "name": "perspectiveId",
          "type": "string"
        }
      ],
      "name": "setHomePerspective",
      "outputs": [],
      "payable": false,
      "stateMutability": "nonpayable",
      "type": "function"
    },
    {
      "constant": false,
      "inputs": [
        {
          "name": "proposalId",
          "type": "bytes32"
        },
        {
          "name": "authorized",
          "type": "uint8"
        },
        {
          "name": "execute",
          "type": "bool"
        }
      ],
      "name": "authorizeProposal",
      "outputs": [],
      "payable": false,
      "stateMutability": "nonpayable",
      "type": "function"
    },
    {
      "constant": false,
      "inputs": [
        {
          "name": "perspectiveIdHash",
          "type": "bytes32"
        },
        {
          "name": "newOwner",
          "type": "address"
        }
      ],
      "name": "changePerspectiveOwner",
      "outputs": [],
      "payable": false,
      "stateMutability": "nonpayable",
      "type": "function"
    },
    {
      "constant": false,
      "inputs": [
        {
          "name": "perspectiveIdHash",
          "type": "bytes32"
        },
        {
          "components": [
            {
              "name": "name",
              "type": "string"
            },
            {
              "name": "context",
              "type": "string"
            }
          ],
          "name": "newDetails",
          "type": "tuple"
        }
      ],
      "name": "setPerspectiveDetails",
      "outputs": [],
      "payable": false,
      "stateMutability": "nonpayable",
      "type": "function"
    }
  ],
  "bytecode": "0x608060405261001261005f60201b60201c565b600080546001600160a01b0319166001600160a01b03928316178082556040519216917f8be0079c531659141344cd1fd0a4f28419497f9722a3daafe3b4186f6b6457e0908290a3610063565b3390565b610adc806100726000396000f3fe608060405234801561001057600080fd5b50600436106100935760003560e01c80638da5cb5b116100665780638da5cb5b146100db5780638f32d59b146100f9578063c08b985d1461010e578063eb5e06c314610121578063f2fde38b1461013457610093565b806339c37594146100985780633bde7d2e146100ad578063641591af146100c0578063715018a6146100d3575b600080fd5b6100ab6100a63660046105e6565b610147565b005b6100ab6100bb3660046106b5565b6101b4565b6100ab6100ce366004610668565b610234565b6100ab6102a4565b6100e3610315565b6040516100f091906108a4565b60405180910390f35b610101610324565b6040516100f091906108b2565b6100ab61011c366004610620565b610348565b6100ab61012f366004610716565b61037f565b6100ab6101423660046105c0565b6103b5565b600154604051600160e21b6303ab26c30281526001600160a01b0390911690630eac9b0c9061017e908590859033906004016108c0565b600060405180830381600087803b15801561019857600080fd5b505af11580156101ac573d6000803e3d6000fd5b505050505050565b6101bc610324565b6101e457604051600160e51b62461bcd0281526004016101db9061097d565b60405180910390fd5b600180546001600160a01b039586166001600160a01b0319918216179091556002805494861694821694909417909355600380549285169284169290921790915560048054919093169116179055565b600354604051600160e41b630bb61de30281526001600160a01b039091169063bb61de309061026d908690869086903390600401610917565b600060405180830381600087803b15801561028757600080fd5b505af115801561029b573d6000803e3d6000fd5b50505050505050565b6102ac610324565b6102cb57604051600160e51b62461bcd0281526004016101db9061097d565b600080546040516001600160a01b03909116907f8be0079c531659141344cd1fd0a4f28419497f9722a3daafe3b4186f6b6457e0908390a3600080546001600160a01b0319169055565b6000546001600160a01b031690565b600080546001600160a01b03166103396103e8565b6001600160a01b031614905090565b600254604051600160e31b631a89a4590281526001600160a01b039091169063d44d22c89061017e908590859033906004016108e8565b60048054604051600160e31b631369375f0281526001600160a01b0390911691639b49baf89161017e918691869133910161094c565b6103bd610324565b6103dc57604051600160e51b62461bcd0281526004016101db9061097d565b6103e5816103ec565b50565b3390565b6001600160a01b03811661041557604051600160e51b62461bcd0281526004016101db9061096d565b600080546040516001600160a01b03808516939216917f8be0079c531659141344cd1fd0a4f28419497f9722a3daafe3b4186f6b6457e091a3600080546001600160a01b0319166001600160a01b0392909216919091179055565b803561047b81610a6a565b92915050565b803561047b81610a7e565b803561047b81610a87565b803561047b81610a90565b60008083601f8401126104b457600080fd5b50813567ffffffffffffffff8111156104cc57600080fd5b6020830191508360018202830111156104e457600080fd5b9250929050565b600082601f8301126104fc57600080fd5b813561050f61050a826109b4565b61098d565b9150808252602083016020830185838301111561052b57600080fd5b610536838284610a24565b50505092915050565b60006040828403121561055157600080fd5b61055b604061098d565b9050813567ffffffffffffffff81111561057457600080fd5b610580848285016104eb565b825250602082013567ffffffffffffffff81111561059d57600080fd5b6105a9848285016104eb565b60208301525092915050565b803561047b81610a99565b6000602082840312156105d257600080fd5b60006105de8484610470565b949350505050565b600080604083850312156105f957600080fd5b6000610605858561048c565b925050602061061685828601610470565b9150509250929050565b6000806040838503121561063357600080fd5b600061063f858561048c565b925050602083013567ffffffffffffffff81111561065c57600080fd5b6106168582860161053f565b60008060006060848603121561067d57600080fd5b6000610689868661048c565b935050602061069a868287016105b5565b92505060406106ab86828701610481565b9150509250925092565b600080600080608085870312156106cb57600080fd5b60006106d78787610497565b94505060206106e887828801610497565b93505060406106f987828801610497565b925050606061070a87828801610497565b91505092959194509250565b6000806020838503121561072957600080fd5b823567ffffffffffffffff81111561074057600080fd5b61074c858286016104a2565b92509250509250929050565b61076181610a19565b82525050565b610761816109e9565b610761816109f4565b610761816109f9565b600061078e83856109e0565b935061079b838584610a24565b6107a483610a60565b9093019392505050565b60006107b9826109dc565b6107c381856109e0565b93506107d3818560208601610a30565b6107a481610a60565b60006107e96026836109e0565b7f4f776e61626c653a206e6577206f776e657220697320746865207a65726f20618152600160d01b6564647265737302602082015260400192915050565b60006108346020836109e0565b7f4f776e61626c653a2063616c6c6572206973206e6f7420746865206f776e6572815260200192915050565b805160408084526000919084019061087882826107ae565b9150506020830151848203602086015261089282826107ae565b95945050505050565b61076181610a13565b6020810161047b8284610767565b6020810161047b8284610770565b606081016108ce8286610779565b6108db6020830185610767565b6105de6040830184610758565b606081016108f68286610779565b81810360208301526109088185610860565b90506105de6040830184610758565b608081016109258287610779565b610932602083018661089b565b61093f6040830185610770565b6108926060830184610758565b6040808252810161095e818587610782565b90506105de6020830184610758565b6020808252810161047b816107dc565b6020808252810161047b81610827565b60405181810167ffffffffffffffff811182821017156109ac57600080fd5b604052919050565b600067ffffffffffffffff8211156109cb57600080fd5b506020601f91909101601f19160190565b5190565b90815260200190565b600061047b82610a07565b151590565b90565b600061047b826109e9565b6001600160a01b031690565b60ff1690565b600061047b826109fc565b82818337506000910152565b60005b83811015610a4b578181015183820152602001610a33565b83811115610a5a576000848401525b50505050565b601f01601f191690565b610a73816109e9565b81146103e557600080fd5b610a73816109f4565b610a73816109f9565b610a73816109fc565b610a7381610a1356fea265627a7a72305820fb01b2ea825220b48fdab24d954919106d403ed956df99ebc1b1ea83b24cee816c6578706572696d656e74616cf50037",
  "source": "pragma solidity >=0.5.0 <0.6.0;\npragma experimental ABIEncoderV2;\n\nimport \"./UprtclRoot.sol\";\nimport \"./UprtclDetails.sol\";\nimport \"./UprtclProposals.sol\";\nimport \"./UprtclHomePerspectives.sol\";\n\ncontract UprtclDAOWrapper is Ownable {\n    UprtclRoot uprtclRoot;\n    UprtclDetails uprtclDetails;\n    UprtclProposals uprtclProposals;\n    UprtclHomePerspectives uprtclHomePerspectives;\n\n    function setDependencies(\n        UprtclRoot _uprtclRoot,\n        UprtclDetails _uprtclDetails,\n        UprtclProposals _uprtclProposals,\n        UprtclHomePerspectives _uprtclHomePerspectives\n    ) external onlyOwner {\n        uprtclRoot = _uprtclRoot;\n        uprtclDetails = _uprtclDetails;\n        uprtclProposals = _uprtclProposals;\n        uprtclHomePerspectives = _uprtclHomePerspectives;\n    }\n\n    function setHomePerspective(string calldata perspectiveId) external {\n        uprtclHomePerspectives.setHomePerspectiveSuperUser(\n            perspectiveId,\n            msg.sender\n        );\n    }\n\n    function authorizeProposal(\n        bytes32 proposalId,\n        uint8 authorized,\n        bool execute\n    ) external {\n        uprtclProposals.authorizeProposalSuperUser(\n            proposalId,\n            authorized,\n            execute,\n            msg.sender\n        );\n    }\n\n    function changePerspectiveOwner(\n        bytes32 perspectiveIdHash,\n        address newOwner\n    ) external {\n        uprtclRoot.changePerspectiveOwnerSuperUser(\n            perspectiveIdHash,\n            newOwner,\n            msg.sender\n        );\n    }\n\n    function setPerspectiveDetails(\n        bytes32 perspectiveIdHash,\n        SharedPerspectiveDetails.PerspectiveDetails memory newDetails\n    ) public {\n        uprtclDetails.setPerspectiveDetailsSuperUser(\n            perspectiveIdHash,\n            newDetails,\n            msg.sender\n        );\n    }\n\n}\n",
  "sourcePath": "/home/pepo/pr/uprtcl/eth-uprtcl/contracts/UprtclDAOWrapper.sol",
  "compiler": {
    "name": "solc",
    "version": "0.5.8+commit.23d335f2.Emscripten.clang"
  },
  "schemaVersion": "3.0.11",
  "updatedAt": "2020-04-19T09:13:24.226Z",
  "devdoc": {
    "methods": {
      "isOwner()": {
        "details": "Returns true if the caller is the current owner."
      },
      "owner()": {
        "details": "Returns the address of the current owner."
      },
      "renounceOwnership()": {
        "details": "Leaves the contract without owner. It will not be possible to call `onlyOwner` functions anymore. Can only be called by the current owner.     * NOTE: Renouncing ownership will leave the contract without an owner, thereby removing any functionality that is only available to the owner."
      },
      "transferOwnership(address)": {
        "details": "Transfers ownership of the contract to a new account (`newOwner`). Can only be called by the current owner."
      }
    }
  },
  "userdoc": {
    "methods": {}
  }
}