{
  "contractName": "UprtclDetails",
  "abi": [
    {
      "inputs": [
        {
          "internalType": "contract UprtclRoot",
          "name": "_uprtclRoot",
          "type": "address"
        }
      ],
      "payable": false,
      "stateMutability": "nonpayable",
      "type": "constructor"
    },
    {
      "constant": true,
      "inputs": [
        {
          "internalType": "bytes32",
          "name": "",
          "type": "bytes32"
        }
      ],
      "name": "perspectivesDetails",
      "outputs": [
        {
          "internalType": "string",
          "name": "name",
          "type": "string"
        },
        {
          "internalType": "string",
          "name": "context",
          "type": "string"
        }
      ],
      "payable": false,
      "stateMutability": "view",
      "type": "function"
    },
    {
      "constant": false,
      "inputs": [
        {
          "internalType": "bytes32",
          "name": "perspectiveIdHash",
          "type": "bytes32"
        },
        {
          "components": [
            {
              "internalType": "string",
              "name": "name",
              "type": "string"
            },
            {
              "internalType": "string",
              "name": "context",
              "type": "string"
            }
          ],
          "internalType": "struct UprtclDetails.PerspectiveDetails",
          "name": "newDetails",
          "type": "tuple"
        }
      ],
      "name": "setPerspectiveDetails",
      "outputs": [],
      "payable": false,
      "stateMutability": "nonpayable",
      "type": "function"
    },
    {
      "constant": true,
      "inputs": [
        {
          "internalType": "bytes32",
          "name": "perspectiveIdHash",
          "type": "bytes32"
        }
      ],
      "name": "getPerspectiveDetails",
      "outputs": [
        {
          "internalType": "string",
          "name": "name",
          "type": "string"
        },
        {
          "internalType": "string",
          "name": "context",
          "type": "string"
        }
      ],
      "payable": false,
      "stateMutability": "view",
      "type": "function"
    }
  ],
  "bytecode": "0x608060405234801561001057600080fd5b506040516109f03803806109f083398101604081905261002f91610065565b600180546001600160a01b0319166001600160a01b03929092169190911790556100c4565b805161005f816100ad565b92915050565b60006020828403121561007757600080fd5b60006100838484610054565b949350505050565b600061005f826100a1565b600061005f8261008b565b6001600160a01b031690565b6100b681610096565b81146100c157600080fd5b50565b61091d806100d36000396000f3fe608060405234801561001057600080fd5b50600436106100415760003560e01c806376914ecf14610046578063c08b985d14610070578063cf29e96914610085575b600080fd5b6100596100543660046106bf565b610098565b6040516100679291906107d2565b60405180910390f35b61008361007e3660046106dd565b6101fd565b005b6100596100933660046106bf565b61034d565b6060806100a3610489565b600084815260208181526040918290208251815460026001821615610100026000190190911604601f810184900490930281016060908101855293810183815290939192849284919084018282801561013d5780601f106101125761010080835404028352916020019161013d565b820191906000526020600020905b81548152906001019060200180831161012057829003601f168201915b50505050508152602001600182018054600181600116156101000203166002900480601f0160208091040260200160405190810160405280929190818152602001828054600181600116156101000203166002900480156101df5780601f106101b4576101008083540402835291602001916101df565b820191906000526020600020905b8154815290600101906020018083116101c257829003601f168201915b50505091909252505081516020909201519194509092505050915091565b600154604051631393bbf560e01b815233916001600160a01b031690631393bbf59061022d9086906004016107c4565b60206040518083038186803b15801561024557600080fd5b505afa158015610259573d6000803e3d6000fd5b505050506040513d601f19601f8201168201806040525061027d9190810190610699565b6001600160a01b0316146102ac5760405162461bcd60e51b81526004016102a3906107f7565b60405180910390fd5b6000828152602081815260409091208251805191926102d0928492909101906104a3565b5060208083015180516102e992600185019201906104a3565b506000838152602081905260409020815482919061031d908290849060026000196101006001841615020190911604610521565b5060018201816001019080546001816001161561010002031660029004610345929190610521565b505050505050565b6000602081815291815260409081902080548251601f6002600019610100600186161502019093169290920491820185900485028101850190935280835290928391908301828280156103e15780601f106103b6576101008083540402835291602001916103e1565b820191906000526020600020905b8154815290600101906020018083116103c457829003601f168201915b505050505090806001018054600181600116156101000203166002900480601f01602080910402602001604051908101604052809291908181526020018280546001816001161561010002031660029004801561047f5780601f106104545761010080835404028352916020019161047f565b820191906000526020600020905b81548152906001019060200180831161046257829003601f168201915b5050505050905082565b604051806040016040528060608152602001606081525090565b828054600181600116156101000203166002900490600052602060002090601f016020900481019282601f106104e457805160ff1916838001178555610511565b82800160010185558215610511579182015b828111156105115782518255916020019190600101906104f6565b5061051d929150610596565b5090565b828054600181600116156101000203166002900490600052602060002090601f016020900481019282601f1061055a5780548555610511565b8280016001018555821561051157600052602060002091601f016020900482015b8281111561051157825482559160010191906001019061057b565b6105b091905b8082111561051d576000815560010161059c565b90565b80516105be816108ba565b92915050565b80356105be816108d1565b600082601f8301126105e057600080fd5b81356105f36105ee8261082e565b610807565b9150808252602083016020830185838301111561060f57600080fd5b61061a838284610874565b50505092915050565b60006040828403121561063557600080fd5b61063f6040610807565b9050813567ffffffffffffffff81111561065857600080fd5b610664848285016105cf565b825250602082013567ffffffffffffffff81111561068157600080fd5b61068d848285016105cf565b60208301525092915050565b6000602082840312156106ab57600080fd5b60006106b784846105b3565b949350505050565b6000602082840312156106d157600080fd5b60006106b784846105c4565b600080604083850312156106f057600080fd5b60006106fc85856105c4565b925050602083013567ffffffffffffffff81111561071957600080fd5b61072585828601610623565b9150509250929050565b610738816105b0565b82525050565b600061074982610856565b610753818561085a565b9350610763818560208601610880565b61076c816108b0565b9093019392505050565b6000610783602c8361085a565b7f64657461696c732063616e206f6e6c792062792073657420627920706572737081526b32b1ba34bb329037bbb732b960a11b602082015260400192915050565b602081016105be828461072f565b604080825281016107e3818561073e565b905081810360208301526106b7818461073e565b602080825281016105be81610776565b60405181810167ffffffffffffffff8111828210171561082657600080fd5b604052919050565b600067ffffffffffffffff82111561084557600080fd5b506020601f91909101601f19160190565b5190565b90815260200190565b60006001600160a01b0382166105be565b82818337506000910152565b60005b8381101561089b578181015183820152602001610883565b838111156108aa576000848401525b50505050565b601f01601f191690565b6108c381610863565b81146108ce57600080fd5b50565b6108c3816105b056fea365627a7a723158202e39e66f671dc79bdc60bb0c73a33607c5da550b8e47094741131d7b0a5eab466c6578706572696d656e74616cf564736f6c63430005100040",
  "source": "pragma solidity >=0.5.0 <0.6.0;\npragma experimental ABIEncoderV2;\n\nimport \"./UprtclRoot.sol\";\n\ncontract UprtclDetails {\n\n    struct PerspectiveDetails {\n        string name;\n        string context;\n    }\n\n    mapping(bytes32 => PerspectiveDetails) public perspectivesDetails;\n\n    UprtclRoot uprtclRoot;\n\n    constructor(UprtclRoot _uprtclRoot) public {\n        uprtclRoot = _uprtclRoot;\n    }\n\n    /** Adds a new perspective to the mapping and sets the owner. The head pointer and the context. */\n    function setPerspectiveDetails(\n        bytes32 perspectiveIdHash,\n        PerspectiveDetails memory newDetails\n    ) public {\n        require(uprtclRoot.getPerspectiveOwner(perspectiveIdHash) == msg.sender, \"details can only by set by perspective owner\");\n\n        PerspectiveDetails storage details = perspectivesDetails[perspectiveIdHash];\n\n        details.name = newDetails.name;\n        details.context = newDetails.context;\n\n        perspectivesDetails[perspectiveIdHash] = details;\n    }\n\n    function getPerspectiveDetails(bytes32 perspectiveIdHash) public view returns (string memory name, string memory context) {\n        PerspectiveDetails memory details = perspectivesDetails[perspectiveIdHash];\n        return (details.name, details.context);\n    }\n\n}\n",
  "sourcePath": "/home/pepo/pr/uprtcl/eth-uprtcl/contracts/UprtclDetails.sol",
  "compiler": {
    "name": "solc",
    "version": "0.5.16+commit.9c3226ce.Emscripten.clang"
  },
  "schemaVersion": "3.0.23",
  "updatedAt": "2020-02-21T14:43:47.355Z",
  "networkType": "ethereum",
  "devdoc": {
    "methods": {}
  },
  "userdoc": {
    "methods": {
      "setPerspectiveDetails(bytes32,(string,string))": {
        "notice": "Adds a new perspective to the mapping and sets the owner. The head pointer and the context. "
      }
    }
  }
}