{
  "contractName": "Uprtcl",
  "abi": [
    {
      "constant": true,
      "inputs": [
        {
          "name": "",
          "type": "bytes32"
        }
      ],
      "name": "requests",
      "outputs": [
        {
          "name": "toPerspectiveIdHash",
          "type": "bytes32"
        },
        {
          "name": "fromPerspectiveIdHash",
          "type": "bytes32"
        },
        {
          "name": "owner",
          "type": "address"
        },
        {
          "name": "status",
          "type": "uint8"
        },
        {
          "name": "authorized",
          "type": "uint8"
        }
      ],
      "payable": false,
      "stateMutability": "view",
      "type": "function"
    },
    {
      "constant": true,
      "inputs": [
        {
          "name": "",
          "type": "bytes32"
        }
      ],
      "name": "perspectives",
      "outputs": [
        {
          "name": "owner",
          "type": "address"
        },
        {
          "name": "headId",
          "type": "string"
        }
      ],
      "payable": false,
      "stateMutability": "view",
      "type": "function"
    },
    {
      "anonymous": false,
      "inputs": [
        {
          "indexed": true,
          "name": "perspectiveIdHash",
          "type": "bytes32"
        },
        {
          "indexed": true,
          "name": "contextHash",
          "type": "bytes32"
        },
        {
          "indexed": false,
          "name": "head",
          "type": "string"
        },
        {
          "indexed": false,
          "name": "owner",
          "type": "address"
        },
        {
          "indexed": false,
          "name": "perspectiveId",
          "type": "string"
        }
      ],
      "name": "PerspectiveAdded",
      "type": "event"
    },
    {
      "anonymous": false,
      "inputs": [
        {
          "indexed": true,
          "name": "perspectiveIdHash",
          "type": "bytes32"
        },
        {
          "indexed": false,
          "name": "author",
          "type": "address"
        },
        {
          "indexed": false,
          "name": "previousHeadId",
          "type": "string"
        },
        {
          "indexed": false,
          "name": "newHeadId",
          "type": "string"
        }
      ],
      "name": "PerspectiveHeadUpdated",
      "type": "event"
    },
    {
      "anonymous": false,
      "inputs": [
        {
          "indexed": true,
          "name": "perspectiveIdHash",
          "type": "bytes32"
        },
        {
          "indexed": false,
          "name": "newOwner",
          "type": "address"
        },
        {
          "indexed": false,
          "name": "previousOwner",
          "type": "address"
        }
      ],
      "name": "PerspectiveOwnerUpdated",
      "type": "event"
    },
    {
      "anonymous": false,
      "inputs": [
        {
          "indexed": true,
          "name": "toPerspectiveIdHash",
          "type": "bytes32"
        },
        {
          "indexed": true,
          "name": "fromPerspectiveIdHash",
          "type": "bytes32"
        },
        {
          "indexed": false,
          "name": "nonce",
          "type": "uint32"
        },
        {
          "indexed": true,
          "name": "requestId",
          "type": "bytes32"
        },
        {
          "indexed": false,
          "name": "toPerspectiveId",
          "type": "string"
        },
        {
          "indexed": false,
          "name": "fromPerspectiveId",
          "type": "string"
        }
      ],
      "name": "MergeRequestCreated",
      "type": "event"
    },
    {
      "anonymous": false,
      "inputs": [
        {
          "indexed": true,
          "name": "requestId",
          "type": "bytes32"
        }
      ],
      "name": "AddedUpdatesToRequest",
      "type": "event"
    },
    {
      "constant": false,
      "inputs": [
        {
          "name": "perspectiveIdHash",
          "type": "bytes32"
        },
        {
          "name": "contextHash",
          "type": "bytes32"
        },
        {
          "name": "head",
          "type": "string"
        },
        {
          "name": "owner",
          "type": "address"
        },
        {
          "name": "perspectiveId",
          "type": "string"
        }
      ],
      "name": "addPerspective",
      "outputs": [],
      "payable": false,
      "stateMutability": "nonpayable",
      "type": "function"
    },
    {
      "constant": false,
      "inputs": [
        {
          "name": "perspectiveIdHash",
          "type": "bytes32"
        },
        {
          "name": "newOwner",
          "type": "address"
        }
      ],
      "name": "changeOwner",
      "outputs": [],
      "payable": false,
      "stateMutability": "nonpayable",
      "type": "function"
    },
    {
      "constant": true,
      "inputs": [
        {
          "name": "perspectiveIdHash",
          "type": "bytes32"
        }
      ],
      "name": "getPerspective",
      "outputs": [
        {
          "name": "owner",
          "type": "address"
        },
        {
          "name": "headId",
          "type": "string"
        }
      ],
      "payable": false,
      "stateMutability": "view",
      "type": "function"
    },
    {
      "constant": false,
      "inputs": [
        {
          "components": [
            {
              "name": "perspectiveIdHash",
              "type": "bytes32"
            },
            {
              "name": "headId",
              "type": "string"
            },
            {
              "name": "executed",
              "type": "uint8"
            }
          ],
          "name": "headUpdates",
          "type": "tuple[]"
        }
      ],
      "name": "updateHeads",
      "outputs": [],
      "payable": false,
      "stateMutability": "nonpayable",
      "type": "function"
    },
    {
      "constant": true,
      "inputs": [
        {
          "name": "toPerspectiveIdHash",
          "type": "bytes32"
        },
        {
          "name": "fromPerspectiveIdHash",
          "type": "bytes32"
        },
        {
          "name": "nonce",
          "type": "uint32"
        }
      ],
      "name": "getRequestId",
      "outputs": [
        {
          "name": "requestId",
          "type": "bytes32"
        }
      ],
      "payable": false,
      "stateMutability": "pure",
      "type": "function"
    },
    {
      "constant": false,
      "inputs": [
        {
          "name": "toPerspectiveIdHash",
          "type": "bytes32"
        },
        {
          "name": "fromPerspectiveIdHash",
          "type": "bytes32"
        },
        {
          "name": "owner",
          "type": "address"
        },
        {
          "name": "nonce",
          "type": "uint32"
        },
        {
          "components": [
            {
              "name": "perspectiveIdHash",
              "type": "bytes32"
            },
            {
              "name": "headId",
              "type": "string"
            },
            {
              "name": "executed",
              "type": "uint8"
            }
          ],
          "name": "headUpdates",
          "type": "tuple[]"
        },
        {
          "name": "approvedAddresses",
          "type": "address[]"
        },
        {
          "name": "toPerspectiveId",
          "type": "string"
        },
        {
          "name": "fromPerspectiveId",
          "type": "string"
        }
      ],
      "name": "initRequest",
      "outputs": [],
      "payable": false,
      "stateMutability": "nonpayable",
      "type": "function"
    },
    {
      "constant": false,
      "inputs": [
        {
          "name": "requestId",
          "type": "bytes32"
        },
        {
          "components": [
            {
              "name": "perspectiveIdHash",
              "type": "bytes32"
            },
            {
              "name": "headId",
              "type": "string"
            },
            {
              "name": "executed",
              "type": "uint8"
            }
          ],
          "name": "headUpdates",
          "type": "tuple[]"
        }
      ],
      "name": "addUpdatesToRequest",
      "outputs": [],
      "payable": false,
      "stateMutability": "nonpayable",
      "type": "function"
    },
    {
      "constant": false,
      "inputs": [
        {
          "name": "requestId",
          "type": "bytes32"
        },
        {
          "name": "authorized",
          "type": "uint8"
        }
      ],
      "name": "setRequestAuthorized",
      "outputs": [],
      "payable": false,
      "stateMutability": "nonpayable",
      "type": "function"
    },
    {
      "constant": false,
      "inputs": [
        {
          "name": "requestId",
          "type": "bytes32"
        },
        {
          "name": "status",
          "type": "uint8"
        }
      ],
      "name": "setRequestStatus",
      "outputs": [],
      "payable": false,
      "stateMutability": "nonpayable",
      "type": "function"
    },
    {
      "constant": false,
      "inputs": [
        {
          "name": "requestId",
          "type": "bytes32"
        }
      ],
      "name": "closeRequest",
      "outputs": [],
      "payable": false,
      "stateMutability": "nonpayable",
      "type": "function"
    },
    {
      "constant": false,
      "inputs": [
        {
          "name": "requestId",
          "type": "bytes32"
        }
      ],
      "name": "executeRequest",
      "outputs": [],
      "payable": false,
      "stateMutability": "nonpayable",
      "type": "function"
    },
    {
      "constant": false,
      "inputs": [
        {
          "name": "requestId",
          "type": "bytes32"
        },
        {
          "name": "indexes",
          "type": "uint256[]"
        }
      ],
      "name": "executeRequestPartially",
      "outputs": [],
      "payable": false,
      "stateMutability": "nonpayable",
      "type": "function"
    },
    {
      "constant": true,
      "inputs": [
        {
          "name": "batchId",
          "type": "bytes32"
        }
      ],
      "name": "getRequest",
      "outputs": [
        {
          "components": [
            {
              "name": "toPerspectiveIdHash",
              "type": "bytes32"
            },
            {
              "name": "fromPerspectiveIdHash",
              "type": "bytes32"
            },
            {
              "name": "owner",
              "type": "address"
            },
            {
              "components": [
                {
                  "name": "perspectiveIdHash",
                  "type": "bytes32"
                },
                {
                  "name": "headId",
                  "type": "string"
                },
                {
                  "name": "executed",
                  "type": "uint8"
                }
              ],
              "name": "headUpdates",
              "type": "tuple[]"
            },
            {
              "name": "approvedAddresses",
              "type": "address[]"
            },
            {
              "name": "status",
              "type": "uint8"
            },
            {
              "name": "authorized",
              "type": "uint8"
            }
          ],
          "name": "batch",
          "type": "tuple"
        }
      ],
      "payable": false,
      "stateMutability": "view",
      "type": "function"
    }
  ],
  "bytecode": "0x608060405234801561001057600080fd5b5061278d806100206000396000f3fe6080604052600436106100da5763ffffffff7c0100000000000000000000000000000000000000000000000000000000600035041663130c823681146100df578063133075d21461010157806319d43eb5146101385780632328df2414610158578063270eac4a146101785780632aa22eb21461019857806370130494146101b8578063776de312146101d85780639d866985146101f8578063b92d30dc14610229578063cee4da5914610249578063d3a5b10714610276578063d7ea51ae14610296578063e9c24166146102b6578063fb1e61ca146102d6575b600080fd5b3480156100eb57600080fd5b506100ff6100fa366004611e9d565b610303565b005b34801561010d57600080fd5b5061012161011c366004611bb3565b610380565b60405161012f9291906124a5565b60405180910390f35b34801561014457600080fd5b506100ff610153366004611e9d565b61045f565b34801561016457600080fd5b506100ff610173366004611b76565b6104b4565b34801561018457600080fd5b506100ff610193366004611c9b565b610548565b3480156101a457600080fd5b506100ff6101b3366004611bb3565b610642565b3480156101c457600080fd5b506100ff6101d3366004611dab565b610852565b3480156101e457600080fd5b506100ff6101f3366004611c53565b6109b1565b34801561020457600080fd5b50610218610213366004611bb3565b6109bc565b60405161012f9594939291906124d3565b34801561023557600080fd5b50610121610244366004611bb3565b6109f9565b34801561025557600080fd5b50610269610264366004611e50565b610aaa565b60405161012f91906124c5565b34801561028257600080fd5b506100ff610291366004611bd1565b610b04565b3480156102a257600080fd5b506100ff6102b1366004611c0b565b610bae565b3480156102c257600080fd5b506100ff6102d1366004611bb3565b610e87565b3480156102e257600080fd5b506102f66102f1366004611bb3565b611070565b60405161012f9190612611565b60008281526001602052604090206002810154600160a060020a031633146103495760405160e560020a62461bcd028152600401610340906125e1565b60405180910390fd5b60008260ff1611156103625760058101805460ff191690555b600501805460ff9092166101000261ff001990921691909117905550565b6000606061038c61170d565b60008481526020818152604091829020825180840184528154600160a060020a03168152600180830180548651600261010094831615949094026000190190911692909204601f81018690048602830186019096528582529194929385810193919291908301828280156104415780601f1061041657610100808354040283529160200191610441565b820191906000526020600020905b81548152906001019060200180831161042457829003601f168201915b50505091909252505081516020909201519194509092505050915091565b60008281526001602052604090206002810154600160a060020a0316331461049c5760405160e560020a62461bcd02815260040161034090612601565b600501805460ff191660ff9290921691909117905550565b60005b81518160ff161015610544576104cb611725565b828260ff168151811015156104dc57fe5b60209081029190910181015180516000908152918290526040909120805491925090600160a060020a031633146105285760405160e560020a62461bcd028152600401610340906125f1565b61053a82600001518360200151611250565b50506001016104b7565b5050565b6000610555898988610aaa565b6000818152600160205260409020600281015491925090600160a060020a0316156105955760405160e560020a62461bcd028152600401610340906125d1565b8981556001810189905560028101805473ffffffffffffffffffffffffffffffffffffffff1916600160a060020a038a1617905584516105de9060048301906020880190611747565b5060058101805460ff191660011790556105f88287610bae565b81898b7fcf4216ecc350582f68f1dedd2307cd3a8590edc318ee9fa31a5f920b1f2b1e9f8a888860405161062e93929190612622565b60405180910390a450505050505050505050565b6000818152600160208181526040808420815160e0810183528154815293810154848401526002810154600160a060020a031684830152600381018054835181860281018601909452808452919594610821949093879360608601939192889084015b8282101561079457838290600052602060002090600302016060604051908101604052908160008201548152602001600182018054600181600116156101000203166002900480601f01602080910402602001604051908101604052809291908181526020018280546001816001161561010002031660029004801561076c5780601f106107415761010080835404028352916020019161076c565b820191906000526020600020905b81548152906001019060200180831161074f57829003601f168201915b50505091835250506002919091015460ff1660209182015290825260019290920191016106a5565b505050508152602001600482018054806020026020016040519081016040528092919081815260200182805480156107f557602002820191906000526020600020905b8154600160a060020a031681526001909101906020018083116107d7575b50505091835250506005919091015460ff80821660208401526101009091041660409091015233611340565b60ff16116108445760405160e560020a62461bcd028152600401610340906125b1565b600501805460ff1916905550565b6000858152602081905260409020600160a060020a038316151561088b5760405160e560020a62461bcd02815260040161034090612571565b8054600160a060020a0316156108b65760405160e560020a62461bcd02815260040161034090612551565b805473ffffffffffffffffffffffffffffffffffffffff1916600160a060020a03841617815583516108f190600183019060208701906117b9565b5060008681526020819052604090208154815473ffffffffffffffffffffffffffffffffffffffff1916600160a060020a039091161781556001808301805484939261095792818501929091600260001991831615610100029190910190911604611833565b5050815460405187925088917f5bf81d9123c74aaa380e3baec6db8c37513f385ce8f486b1fef9fffd156e4c62916109a1916001870191600160a060020a0390911690889061251f565b60405180910390a3505050505050565b6105448282336113af565b600160208190526000918252604090912080549181015460028201546005909201549091600160a060020a03169060ff8082169161010090041685565b600060208181529181526040908190208054600180830180548551600261010094831615949094026000190190911692909204601f8101879004870283018701909552848252600160a060020a039092169492939092830182828015610aa05780601f10610a7557610100808354040283529160200191610aa0565b820191906000526020600020905b815481529060010190602001808311610a8357829003601f168201915b5050505050905082565b604080516020808201959095528082019390935263ffffffff919091167c01000000000000000000000000000000000000000000000000000000000260608301528051808303604401815260649092019052805191012090565b60008281526020819052604090208054600160a060020a03163314610b3e5760405160e560020a62461bcd028152600401610340906125f1565b8054600160a060020a0383811673ffffffffffffffffffffffffffffffffffffffff198316178084556040519282169286927f4d2778d25f224a7981314f90e4cf321a226f16d8b8a31ea04a6f191e88151b6892610ba092911690859061248a565b60405180910390a250505050565b6000828152600160205260409020600581015460ff161515610be55760405160e560020a62461bcd02815260040161034090612591565b6040805160e0810182528254815260018301546020808301919091526002840154600160a060020a031682840152600384018054845181840281018401909552808552600094610d2d9493879360608601939091889084015b8282101561079457838290600052602060002090600302016060604051908101604052908160008201548152602001600182018054600181600116156101000203166002900480601f016020809104026020016040519081016040528092919081815260200182805460018160011615610100020316600290048015610d055780601f10610cda57610100808354040283529160200191610d05565b820191906000526020600020905b815481529060010190602001808311610ce857829003601f168201915b50505091835250506002919091015460ff166020918201529082526001929092019101610c3e565b60ff1611610d505760405160e560020a62461bcd028152600401610340906125b1565b60005b82518160ff161015610e5657610d67611725565b838260ff16815181101515610d7857fe5b60209081029091010151604081015190915060ff1615610dad5760405160e560020a62461bcd02815260040161034090612561565b8051600090815260208190526040902060028401548154600160a060020a03908116911614610df15760405160e560020a62461bcd028152600401610340906125c1565b60038085018054600181810180845560009384526020938490208751939095029094019182558286015180518794610e2d9385019201906117b9565b50604091909101516002909101805460ff191660ff909216919091179055505050600101610d53565b5060405183907f5bb2acf5738b1bbd9f0e6235acd595c7b83e76e5424f74e9ed7be340f646c41c90600090a2505050565b6000818152600160208181526040808420815160e0810183528154815293810154848401526002810154600160a060020a031684830152600381018054835181860281018601909452808452919594610fd9949093879360608601939192889084015b8282101561079457838290600052602060002090600302016060604051908101604052908160008201548152602001600182018054600181600116156101000203166002900480601f016020809104026020016040519081016040528092919081815260200182805460018160011615610100020316600290048015610fb15780601f10610f8657610100808354040283529160200191610fb1565b820191906000526020600020905b815481529060010190602001808311610f9457829003601f168201915b50505091835250506002919091015460ff166020918201529082526001929092019101610eea565b60ff1611610ffc5760405160e560020a62461bcd028152600401610340906125b1565b6003810154604080518281526020808402820101909152606091801561102c578160200160208202803883390190505b50905060005b600383015481101561105f5780828281518110151561104d57fe5b60209081029091010152600101611032565b5061106b8382336113af565b505050565b6110786118a8565b6000828152600160208181526040808420815160e0810183528154815293810154848401526002810154600160a060020a0316848301526003810180548351818602810186019094528084529495919460608701949192909184015b828210156111c357838290600052602060002090600302016060604051908101604052908160008201548152602001600182018054600181600116156101000203166002900480601f01602080910402602001604051908101604052809291908181526020018280546001816001161561010002031660029004801561119b5780601f106111705761010080835404028352916020019161119b565b820191906000526020600020905b81548152906001019060200180831161117e57829003601f168201915b50505091835250506002919091015460ff1660209182015290825260019290920191016110d4565b5050505081526020016004820180548060200260200160405190810160405280929190818152602001828054801561122457602002820191906000526020600020905b8154600160a060020a03168152600190910190602001808311611206575b50505091835250506005919091015460ff80821660208401526101009091041660409091015292915050565b60008281526020818152604091829020600180820180548551600293821615610100026000190190911692909204601f810185900485028301850190955284825291936060939192918301828280156112ea5780601f106112bf576101008083540402835291602001916112ea565b820191906000526020600020905b8154815290600101906020018083116112cd57829003601f168201915b505086519394506113089360018701935060208801925090506117b9565b50837f77be61219b420fd0b111842a19b94a83a18c098de15583905c239ced157942de338385600101604051610ba09392919061244d565b6000805b8360800151518163ffffffff1610156113a3576080840151805163ffffffff831690811061136e57fe5b90602001906020020151600160a060020a031683600160a060020a0316141561139b5750600190506113a9565b600101611344565b50600090505b92915050565b60008381526001602052604090206005810154610100900460ff1615156113eb5760405160e560020a62461bcd02815260040161034090612581565b6040805160e0810182528254815260018301546020808301919091526002840154600160a060020a0316828401526003840180548451818402810184019095528085526000946115c09493879360608601939091889084015b8282101561153357838290600052602060002090600302016060604051908101604052908160008201548152602001600182018054600181600116156101000203166002900480601f01602080910402602001604051908101604052809291908181526020018280546001816001161561010002031660029004801561150b5780601f106114e05761010080835404028352916020019161150b565b820191906000526020600020905b8154815290600101906020018083116114ee57829003601f168201915b50505091835250506002919091015460ff166020918201529082526001929092019101611444565b5050505081526020016004820180548060200260200160405190810160405280929190818152602001828054801561159457602002820191906000526020600020905b8154600160a060020a03168152600190910190602001808311611576575b50505091835250506005919091015460ff80821660208401526101009091041660409091015284611340565b60ff16116115e35760405160e560020a62461bcd028152600401610340906125b1565b60005b835181101561170657600082600301858381518110151561160357fe5b602090810290910101518154811061161757fe5b60009182526020909120600390910201600281015490915060ff16156116525760405160e560020a62461bcd028152600401610340906125a1565b6002808201805460ff1916600190811790915582548382018054604080516020601f6000199785161561010002979097019093169690960494850182900482028601820190528385526116fd949293908301828280156116f35780601f106116c8576101008083540402835291602001916116f3565b820191906000526020600020905b8154815290600101906020018083116116d657829003601f168201915b5050505050611250565b506001016115e6565b5050505050565b60408051808201909152600081526060602082015290565b6040805160608181018352600080835260208301919091529181019190915290565b8280548282559060005260206000209081019282156117a9579160200282015b828111156117a9578251825473ffffffffffffffffffffffffffffffffffffffff1916600160a060020a03909116178255602090920191600190910190611767565b506117b59291506118e3565b5090565b828054600181600116156101000203166002900490600052602060002090601f016020900481019282601f106117fa57805160ff1916838001178555611827565b82800160010185558215611827579182015b8281111561182757825182559160200191906001019061180c565b506117b5929150611917565b828054600181600116156101000203166002900490600052602060002090601f016020900481019282601f1061186c5780548555611827565b8280016001018555821561182757600052602060002091601f016020900482015b8281111561182757825482559160010191906001019061188d565b6040805160e0810182526000808252602082018190529181018290526060808201819052608082015260a0810182905260c081019190915290565b61191491905b808211156117b557805473ffffffffffffffffffffffffffffffffffffffff191681556001016118e9565b90565b61191491905b808211156117b5576000815560010161191d565b600061193d82356126dc565b9392505050565b6000601f8201831361195557600080fd5b81356119686119638261267d565b612656565b9150818183526020840193506020810190508385602084028201111561198d57600080fd5b60005b838110156119b957816119a38882611931565b8452506020928301929190910190600101611990565b5050505092915050565b6000601f820183136119d457600080fd5b81356119e26119638261267d565b81815260209384019390925082018360005b838110156119b95781358601611a0a8882611aeb565b84525060209283019291909101906001016119f4565b6000601f82018313611a3157600080fd5b8135611a3f6119638261267d565b91508181835260208401935060208101905083856020840282011115611a6457600080fd5b60005b838110156119b95781611a7a8882611a90565b8452506020928301929190910190600101611a67565b600061193d8235611914565b6000601f82018313611aad57600080fd5b8135611abb6119638261269e565b91508082526020830160208301858383011115611ad757600080fd5b611ae283828461270d565b50505092915050565b600060608284031215611afd57600080fd5b611b076060612656565b90506000611b158484611a90565b825250602082013567ffffffffffffffff811115611b3257600080fd5b611b3e84828501611a9c565b6020830152506040611b5284828501611b6a565b60408301525092915050565b600061193d82356126ed565b600061193d82356126f6565b600060208284031215611b8857600080fd5b813567ffffffffffffffff811115611b9f57600080fd5b611bab848285016119c3565b949350505050565b600060208284031215611bc557600080fd5b6000611bab8484611a90565b60008060408385031215611be457600080fd5b6000611bf08585611a90565b9250506020611c0185828601611931565b9150509250929050565b60008060408385031215611c1e57600080fd5b6000611c2a8585611a90565b925050602083013567ffffffffffffffff811115611c4757600080fd5b611c01858286016119c3565b60008060408385031215611c6657600080fd5b6000611c728585611a90565b925050602083013567ffffffffffffffff811115611c8f57600080fd5b611c0185828601611a20565b600080600080600080600080610100898b031215611cb857600080fd5b6000611cc48b8b611a90565b9850506020611cd58b828c01611a90565b9750506040611ce68b828c01611931565b9650506060611cf78b828c01611b5e565b955050608089013567ffffffffffffffff811115611d1457600080fd5b611d208b828c016119c3565b94505060a089013567ffffffffffffffff811115611d3d57600080fd5b611d498b828c01611944565b93505060c089013567ffffffffffffffff811115611d6657600080fd5b611d728b828c01611a9c565b92505060e089013567ffffffffffffffff811115611d8f57600080fd5b611d9b8b828c01611a9c565b9150509295985092959890939650565b600080600080600060a08688031215611dc357600080fd5b6000611dcf8888611a90565b9550506020611de088828901611a90565b945050604086013567ffffffffffffffff811115611dfd57600080fd5b611e0988828901611a9c565b9350506060611e1a88828901611931565b925050608086013567ffffffffffffffff811115611e3757600080fd5b611e4388828901611a9c565b9150509295509295909350565b600080600060608486031215611e6557600080fd5b6000611e718686611a90565b9350506020611e8286828701611a90565b9250506040611e9386828701611b5e565b9150509250925092565b60008060408385031215611eb057600080fd5b6000611ebc8585611a90565b9250506020611c0185828601611b6a565b611ed6816126fc565b82525050565b611ed6816126dc565b6000611ef0826126d8565b808452602084019350611f02836126c6565b60005b82811015611f3257611f18868351611edc565b611f21826126c6565b602096909601959150600101611f05565b5093949350505050565b6000611f47826126d8565b80845260208401935083602082028501611f60856126c6565b60005b84811015611f97578383038852611f7b83835161235e565b9250611f86826126c6565b602098909801979150600101611f63565b50909695505050505050565b611ed681611914565b6000611fb7826126d8565b808452611fcb816020860160208601612719565b611fd481612749565b9093016020019392505050565b600081546001811660008114611ffe576001811461201c57612058565b60028204607f16855260ff1982166020860152604085019250612058565b60028204808652602086019550612032856126cc565b60005b8281101561205157815488820152600190910190602001612035565b8701945050505b505092915050565b601481527f6578697374696e67207065727370656374697665000000000000000000000000602082015260400190565b602a81527f68656164207570646174652065786563757465642070726f7065727479206d7560208201527f7374206265207a65726f00000000000000000000000000000000000000000000604082015260600190565b601381527f6f776e65722063616e7420626520656d70747900000000000000000000000000602082015260400190565b601681527f52657175657374206e6f7420617574686f72697a656400000000000000000000602082015260400190565b601a81527f72657175657374207374617475732069732064697361626c6564000000000000602082015260400190565b601c81527f686561642075706461746520616c726561647920657865637574656400000000602082015260400190565b602281527f6d73672e73656e646572206e6f7420616e20617070726f76656420616464726560208201527f7373000000000000000000000000000000000000000000000000000000000000604082015260600190565b603681527f726571756573742063616e206f6e6c792073746f72652070657273706563746960208201527f766573206f776e657220627920697473206f776e657200000000000000000000604082015260600190565b601581527f7265717565737420616c72656164792065786973740000000000000000000000602082015260400190565b602b81527f526571756573742063616e206f6e6c7920627920617574686f72697a6564206260208201527f7920697473206f776e6572000000000000000000000000000000000000000000604082015260600190565b601381527f756e617574686f72697a65642061636365737300000000000000000000000000602082015260400190565b602b81527f52657175657374207374617475732063616e206f6e6c7920627920736574206260208201527f7920697473206f776e6572000000000000000000000000000000000000000000604082015260600190565b805160009060608401906123728582611fa3565b506020830151848203602086015261238a8282611fac565b915050604083015161239f6040860182612444565b509392505050565b805160009060e08401906123bb8582611fa3565b5060208301516123ce6020860182611fa3565b5060408301516123e16040860182611edc565b50606083015184820360608601526123f98282611f3c565b915050608083015184820360808601526124138282611ee5565b91505060a083015161242860a0860182612444565b5060c083015161239f60c0860182612444565b611ed6816126ed565b611ed6816126f6565b6060810161245b8286611ecd565b818103602083015261246d8185611fac565b905081810360408301526124818184611fe1565b95945050505050565b604081016124988285611edc565b61193d6020830184611edc565b604081016124b38285611edc565b8181036020830152611bab8184611fac565b602081016113a98284611fa3565b60a081016124e18288611fa3565b6124ee6020830187611fa3565b6124fb6040830186611edc565b6125086060830185612444565b6125156080830184612444565b9695505050505050565b606080825281016125308186611fe1565b905061253f6020830185611edc565b81810360408301526124818184611fac565b602080825281016113a981612060565b602080825281016113a981612090565b602080825281016113a9816120e6565b602080825281016113a981612116565b602080825281016113a981612146565b602080825281016113a981612176565b602080825281016113a9816121a6565b602080825281016113a9816121fc565b602080825281016113a981612252565b602080825281016113a981612282565b602080825281016113a9816122d8565b602080825281016113a981612308565b6020808252810161193d81846123a7565b60608101612630828661243b565b81810360208301526126428185611fac565b905081810360408301526124818184611fac565b60405181810167ffffffffffffffff8111828210171561267557600080fd5b604052919050565b600067ffffffffffffffff82111561269457600080fd5b5060209081020190565b600067ffffffffffffffff8211156126b557600080fd5b506020601f91909101601f19160190565b60200190565b60009081526020902090565b5190565b6000600160a060020a0382166113a9565b63ffffffff1690565b60ff1690565b60006113a98260006113a9826126dc565b82818337506000910152565b60005b8381101561273457818101518382015260200161271c565b83811115612743576000848401525b50505050565b601f01601f19169056fea265627a7a72305820c738a2a217fa19282d6832169e8060afff5311b1b8efc608850aff7fd46ad8a56c6578706572696d656e74616cf50037",
  "source": "pragma solidity >=0.4.25 <0.6.0;\npragma experimental ABIEncoderV2;\n\n/** Underscore Protocol Ethereum Service used to store the content of\n* _Prtcl perspectives */\ncontract Uprtcl {\n\n\tstruct Perspective {\n\t\taddress owner;\n\t\tstring headId;\n\t}\n\n\tstruct HeadUpdate {\n\t\tbytes32 perspectiveIdHash;\n\t\tstring headId;\n\t\tuint8 executed;\n\t}\n\n\tstruct MergeRequest {\n\n\t\tbytes32 toPerspectiveIdHash;\n\t\tbytes32 fromPerspectiveIdHash;\n\n\t\t/** All perspectives in headUpdates must be owned by this owner */\n\t\taddress owner;\n\n\t\t/** Approved addresses can add new HeadUpdate elements to this\n\t\tlist as long as they are all from the same owner and this owner is\n\t\tthe same as the one of existing HeadUpdates. */\n\t\tHeadUpdate[] headUpdates;\n\n\t\taddress[] approvedAddresses;\n\n\t\t/** Status of the request. New headUpdates can be added by approved\n\t\taddreses as long as status != 0. */\n\t\tuint8 status;\n\n\t\t/** Authorizing the request lets anyone run one or more of\n\t\tthe head updates in the request in any order. It can only be called\n\t\tby the owner of all the perspectives in the request. */\n\t\tuint8 authorized;\n\t}\n\n\tmapping (bytes32 => Perspective) public perspectives;\n\tmapping (bytes32 => MergeRequest) public requests;\n\n\tevent PerspectiveAdded(\n\t\tbytes32 indexed perspectiveIdHash,\n\t\tbytes32 indexed contextHash,\n\t\tstring head,\n\t\taddress owner,\n\t\tstring perspectiveId);\n\n\tevent PerspectiveHeadUpdated(\n\t\tbytes32 indexed perspectiveIdHash,\n\t\taddress author,\n\t\tstring previousHeadId,\n\t\tstring newHeadId);\n\n\tevent PerspectiveOwnerUpdated(\n\t\tbytes32 indexed perspectiveIdHash,\n\t\taddress newOwner,\n\t\taddress previousOwner);\n\n\tevent MergeRequestCreated(\n\t\tbytes32 indexed toPerspectiveIdHash,\n\t\tbytes32 indexed fromPerspectiveIdHash,\n\t\tuint32 nonce,\n\t\tbytes32 indexed requestId,\n\t\tstring toPerspectiveId,\n\t\tstring fromPerspectiveId);\n\n\tevent AddedUpdatesToRequest(\n\t\tbytes32 indexed requestId);\n\n\n\tfunction isApproved(MergeRequest memory request, address value) private pure returns(uint8 approved){\n\t\tfor (uint32 ix = 0; ix < request.approvedAddresses.length; ix++) {\n\t\t\tif (value == request.approvedAddresses[ix]) {\n\t\t\t\tapproved = 1;\n\t\t\t\treturn approved;\n\t\t\t}\n\t\t}\n\t\tapproved = 0;\n\t}\n\n\t/** Adds a new perspective to the mapping and sets the owner. The head pointer is initialized as null and should\n\t *  be updated independently using updateHead(). The contextHash is not persisted but emited in the PerspectiveAdded\n\t *  event to enable filtering. Validation of the perspectiveId to contextHash should be done externally using any\n\t * \tcontent addressable\tstorage solution for the perspectiveId. The perspectiveId is emited to help perspectiveHash\n\t *  reverse mapping */\n\tfunction addPerspective(\n\t\tbytes32 perspectiveIdHash,\n\t\tbytes32 contextHash,\n\t\tstring memory head,\n\t\taddress owner,\n\t\tstring memory perspectiveId) /** LSB */\n\t\tpublic {\n\n\t\tPerspective storage perspective = perspectives[perspectiveIdHash];\n\t\trequire(address(0) != owner, \"owner cant be empty\");\n\t\trequire(address(0) == perspective.owner, \"existing perspective\");\n\n\t\tperspective.owner = owner;\n\t\tperspective.headId = head;\n\n\t\tperspectives[perspectiveIdHash] = perspective;\n\n\t\temit PerspectiveAdded(\n\t\t\tperspectiveIdHash,\n\t\t\tcontextHash,\n\t\t\tperspective.headId,\n\t\t\tperspective.owner,\n\t\t\tperspectiveId);\n\t}\n\n\t/** internal function that updates the head pointer of a given perspective. It dont\n\t\tcheck the owner to let the request functionality do it. Its internal\n\t\tso user should use updateHeads instead. */\n\tfunction updateHead(\n\t\tbytes32 perspectiveIdHash,\n\t\tstring memory newHead) internal {\n\n\t\tPerspective storage perspective = perspectives[perspectiveIdHash];\n\n\t\tstring memory parentHead = perspective.headId;\n\t\tperspective.headId = newHead;\n\n\t\temit PerspectiveHeadUpdated(\n\t\t\tperspectiveIdHash,\n\t\t\tmsg.sender,\n\t\t\tparentHead,\n\t\t\tperspective.headId);\n\t}\n\n\t/** Changes the owner of a given perspective. Available only to the current owner of that perspective. */\n\tfunction changeOwner(bytes32 perspectiveIdHash, address newOwner) public {\n\n    \tPerspective storage perspective = perspectives[perspectiveIdHash];\n\t\trequire(msg.sender == perspective.owner, \"unauthorized access\");\n\n    \taddress previousOwner = perspective.owner;\n\t\tperspective.owner = newOwner;\n\n\t\temit PerspectiveOwnerUpdated(perspectiveIdHash, perspective.owner, previousOwner);\n\t}\n\n\t/** Get the perspective owner and head from its ID */\n\tfunction getPerspective(bytes32 perspectiveIdHash)\n\t\tpublic view\n\t\treturns(\n\t\t\taddress owner,\n\t\t\tstring memory headId) {\n\n\t\tPerspective memory perspective = perspectives[perspectiveIdHash];\n\n\t\treturn (\n\t\t\tperspective.owner,\n\t\t\tperspective.headId);\n\t}\n\n\t/** One method to execute the head updates directly, without creating the request. Useful\n\t\tif the owner dont want to use the request authorization feature.\n\t\tIt also works for updating one single perspective */\n\tfunction updateHeads(HeadUpdate[] memory headUpdates) public {\n\t\tfor (uint8 ix = 0; ix < headUpdates.length; ix++) {\n\t\t\tHeadUpdate memory headUpdate = headUpdates[ix];\n\n\t\t\t/** Check the msg.sender is the owner */\n\t\t\tPerspective storage perspective = perspectives[headUpdate.perspectiveIdHash];\n\t\t\trequire(msg.sender == perspective.owner, \"unauthorized access\");\n\n\t\t\t/** Update the head */\n\t\t\tupdateHead(headUpdate.perspectiveIdHash, headUpdate.headId);\n\t\t}\n\t}\n\n\tfunction getRequestId(\n\t\tbytes32 toPerspectiveIdHash,\n\t\tbytes32 fromPerspectiveIdHash,\n\t\tuint32 nonce)\n\t\tpublic pure\n\t\treturns(bytes32 requestId) {\n\n\t\trequestId = keccak256(\n\t\t\tabi.encodePacked(\n\t\t\t\ttoPerspectiveIdHash,\n\t\t\t\tfromPerspectiveIdHash,\n\t\t\t\tnonce));\n\t}\n\n\t/** Creates a new request owned and initialize its properties.\n\t\tThe id of the request is derived from the message sender to prevent frontrunning attacks. */\n\tfunction initRequest(\n\t\tbytes32 toPerspectiveIdHash,\n\t\tbytes32 fromPerspectiveIdHash,\n\t\taddress owner,\n\t\tuint32 nonce,\n\t\tHeadUpdate[] memory headUpdates,\n\t\taddress[] memory approvedAddresses,\n\t\tstring memory toPerspectiveId,\n\t\tstring memory fromPerspectiveId) public {\n\n\t\tbytes32 requestId = getRequestId(toPerspectiveIdHash, fromPerspectiveIdHash, nonce);\n\n\t\t/** make sure the request does not exist */\n\t\tMergeRequest storage request = requests[requestId];\n\t\trequire(request.owner == address(0), \"request already exist\");\n\n\t\trequest.toPerspectiveIdHash = toPerspectiveIdHash;\n\t\trequest.fromPerspectiveIdHash = fromPerspectiveIdHash;\n\t\trequest.owner = owner;\n\t\trequest.approvedAddresses = approvedAddresses;\n\t\trequest.status = 1;\n\n\t\taddUpdatesToRequest(requestId, headUpdates);\n\n\t\temit MergeRequestCreated(\n\t\t\ttoPerspectiveIdHash,\n\t\t\tfromPerspectiveIdHash,\n\t\t\tnonce,\n\t\t\trequestId,\n\t\t\ttoPerspectiveId,\n\t\t\tfromPerspectiveId\n\t\t);\n\t}\n\n\t/** Add one or more headUpdate elements to an existing request */\n\tfunction addUpdatesToRequest(\n\t\tbytes32 requestId,\n\t\tHeadUpdate[] memory headUpdates) public {\n\n\t\tMergeRequest storage request = requests[requestId];\n\n\t\t/** make sure the request is open for new elements */\n\t\trequire(request.status != 0, \"request status is disabled\");\n\n\t\t/** check msg sender is approved address unless is this contract */\n\t\trequire(isApproved(request, msg.sender) > 0, \"msg.sender not an approved address\");\n\n\t\t/** initialize */\n\t\tfor (uint8 ix = 0; ix < headUpdates.length; ix++) {\n\t\t\tHeadUpdate memory headUpdate = headUpdates[ix];\n\t\t\t/** head update executed property must be zero */\n\t\t\trequire(headUpdate.executed == 0, \"head update executed property must be zero\");\n\t\t\t/** Only add perspectives of the same owner as the request */\n\t\t\tPerspective storage newPerspective = perspectives[headUpdate.perspectiveIdHash];\n\t\t\trequire(newPerspective.owner == request.owner, \"request can only store perspectives owner by its owner\");\n\t\t\trequest.headUpdates.push(headUpdate);\n\t\t}\n\n\t\temit AddedUpdatesToRequest(requestId);\n\t}\n\n\tfunction setRequestAuthorized(bytes32 requestId, uint8 authorized) public {\n\t\tMergeRequest storage request = requests[requestId];\n\t\trequire(msg.sender == request.owner, \"Request can only by authorized by its owner\");\n\t\t/** by default the request is closed once it is authorized. */\n\t\tif (authorized > 0) request.status = 0;\n\t\trequest.authorized = authorized;\n\t}\n\n\tfunction setRequestStatus(bytes32 requestId, uint8 status) public {\n\t\tMergeRequest storage request = requests[requestId];\n\t\trequire(msg.sender == request.owner, \"Request status can only by set by its owner\");\n\t\trequest.status = status;\n\t}\n\n\t/** set the status to disabled (0) and can be called by any authorized address */\n\tfunction closeRequest(bytes32 requestId) public {\n\t\tMergeRequest storage request = requests[requestId];\n\t\t/** Check the msg.sender is an approved address */\n\t\trequire(isApproved(request, msg.sender) > 0, \"msg.sender not an approved address\");\n\t\trequest.status = 0;\n\t}\n\n\tfunction executeRequest(bytes32 requestId) public {\n\t\tMergeRequest storage request = requests[requestId];\n\n\t\t/** Check the msg.sender is an approved address */\n\t\trequire(isApproved(request, msg.sender) > 0, \"msg.sender not an approved address\");\n\n\t\tuint256[] memory indexes = new uint256[](request.headUpdates.length);\n\t\tfor (uint256 ix = 0; ix < request.headUpdates.length; ix++) {\n\t\t\tindexes[ix] = ix;\n\t\t}\n\n\t\texecuteRequestPartiallyInternal(requestId, indexes, msg.sender);\n\t}\n\n\tfunction executeRequestPartially(bytes32 requestId, uint256[] memory indexes) public {\n\t\texecuteRequestPartiallyInternal(requestId, indexes, msg.sender);\n\t}\n\n\tfunction executeRequestPartiallyInternal(\n\t\tbytes32 requestId,\n\t\tuint256[] memory indexes,\n\t\taddress msgSender) private {\n\n\t\tMergeRequest storage request = requests[requestId];\n\t\trequire(request.authorized != 0, \"Request not authorized\");\n\n\t\trequire(isApproved(request, msgSender) > 0, \"msg.sender not an approved address\");\n\n\t\tfor (uint256 ix = 0; ix < indexes.length; ix++) {\n\t\t\tHeadUpdate storage headUpdate = request.headUpdates[indexes[ix]];\n\n\t\t\trequire(headUpdate.executed == 0, \"head update already executed\");\n\n\t\t\t/** mark the update as executed */\n\t\t\theadUpdate.executed = 1;\n\t\t\t/** Update the head */\n\t\t\tupdateHead(headUpdate.perspectiveIdHash, headUpdate.headId);\n\t\t}\n\t}\n\n\t/** Get the perspective owner and head from its ID */\n\tfunction getRequest(bytes32 batchId)\n\t\tpublic view\n\t\treturns(MergeRequest memory batch) {\n\t\treturn (requests[batchId]);\n\t}\n\n}\n",
  "sourcePath": "/home/pepo/projects/uprtcl/uprtcl-eth/contracts/Uprtcl.sol",
  "compiler": {
    "name": "solc",
    "version": "0.5.0+commit.1d4f565a.Emscripten.clang"
  },
  "schemaVersion": "3.0.9",
  "updatedAt": "2019-09-20T15:47:37.645Z",
  "devdoc": {
    "methods": {}
  },
  "userdoc": {
    "methods": {
      "addPerspective(bytes32,bytes32,string,address,string)": {
        "notice": "Adds a new perspective to the mapping and sets the owner. The head pointer is initialized as null and should be updated independently using updateHead(). The contextHash is not persisted but emited in the PerspectiveAdded event to enable filtering. Validation of the perspectiveId to contextHash should be done externally using any\tcontent addressable\tstorage solution for the perspectiveId. The perspectiveId is emited to help perspectiveHash reverse mapping "
      },
      "addUpdatesToRequest(bytes32,(bytes32,string,uint8)[])": {
        "notice": "Add one or more headUpdate elements to an existing request "
      },
      "changeOwner(bytes32,address)": {
        "notice": "Changes the owner of a given perspective. Available only to the current owner of that perspective. "
      },
      "closeRequest(bytes32)": {
        "notice": "set the status to disabled (0) and can be called by any authorized address "
      },
      "getPerspective(bytes32)": {
        "notice": "Get the perspective owner and head from its ID "
      },
      "getRequest(bytes32)": {
        "notice": "Get the perspective owner and head from its ID "
      },
      "initRequest(bytes32,bytes32,address,uint32,(bytes32,string,uint8)[],address[])": {
        "notice": "Creates a new request owned and initialize its properties. The id of the request is derived from the message sender to prevent frontrunning attacks. "
      },
      "updateHeads((bytes32,string,uint8)[])": {
        "notice": "One method to execute the head updates directly, without creating the request. Useful if the owner dont want to use the request authorization feature. It also works for updating one single perspective "
      },
      "initRequest(bytes32,bytes32,address,uint32,(bytes32,string,uint8)[],address[],string,string)": {
        "notice": "Creates a new request owned and initialize its properties. The id of the request is derived from the message sender to prevent frontrunning attacks. "
      }
    },
    "notice": "Underscore Protocol Ethereum Service used to store the content of _Prtcl perspectives "
  }
}