{
  "contractName": "UprtclDAOWrapper",
  "abi": [
    {
      "constant": false,
      "inputs": [],
      "name": "renounceOwnership",
      "outputs": [],
      "payable": false,
      "stateMutability": "nonpayable",
      "type": "function"
    },
    {
      "constant": true,
      "inputs": [],
      "name": "owner",
      "outputs": [
        {
          "name": "",
          "type": "address"
        }
      ],
      "payable": false,
      "stateMutability": "view",
      "type": "function"
    },
    {
      "constant": true,
      "inputs": [],
      "name": "isOwner",
      "outputs": [
        {
          "name": "",
          "type": "bool"
        }
      ],
      "payable": false,
      "stateMutability": "view",
      "type": "function"
    },
    {
      "constant": false,
      "inputs": [
        {
          "name": "newOwner",
          "type": "address"
        }
      ],
      "name": "transferOwnership",
      "outputs": [],
      "payable": false,
      "stateMutability": "nonpayable",
      "type": "function"
    },
    {
      "anonymous": false,
      "inputs": [
        {
          "indexed": true,
          "name": "previousOwner",
          "type": "address"
        },
        {
          "indexed": true,
          "name": "newOwner",
          "type": "address"
        }
      ],
      "name": "OwnershipTransferred",
      "type": "event"
    },
    {
      "constant": false,
      "inputs": [
        {
          "name": "_uprtclRoot",
          "type": "address"
        },
        {
          "name": "_uprtclDetails",
          "type": "address"
        },
        {
          "name": "uUprtclProposals",
          "type": "address"
        },
        {
          "name": "_uprtclHomePerspectives",
          "type": "address"
        }
      ],
      "name": "setDependencies",
      "outputs": [],
      "payable": false,
      "stateMutability": "nonpayable",
      "type": "function"
    },
    {
      "constant": false,
      "inputs": [
        {
          "name": "perspectiveId",
          "type": "string"
        }
      ],
      "name": "setHomePerspective",
      "outputs": [],
      "payable": false,
      "stateMutability": "nonpayable",
      "type": "function"
    },
    {
      "constant": false,
      "inputs": [
        {
          "name": "proposalId",
          "type": "bytes32"
        },
        {
          "name": "authorized",
          "type": "uint8"
        },
        {
          "name": "execute",
          "type": "bool"
        },
        {
          "name": "proposalOwner",
          "type": "address"
        }
      ],
      "name": "authorizeProposal",
      "outputs": [],
      "payable": false,
      "stateMutability": "nonpayable",
      "type": "function"
    },
    {
      "constant": false,
      "inputs": [
        {
          "name": "perspectiveIdHash",
          "type": "bytes32"
        },
        {
          "name": "newOwner",
          "type": "address"
        },
        {
          "name": "oldOwner",
          "type": "address"
        }
      ],
      "name": "changeOwner",
      "outputs": [],
      "payable": false,
      "stateMutability": "nonpayable",
      "type": "function"
    },
    {
      "constant": false,
      "inputs": [
        {
          "name": "perspectiveIdHash",
          "type": "bytes32"
        },
        {
          "components": [
            {
              "name": "name",
              "type": "string"
            },
            {
              "name": "context",
              "type": "string"
            }
          ],
          "name": "newDetails",
          "type": "tuple"
        }
      ],
      "name": "setPerspectiveDetails",
      "outputs": [],
      "payable": false,
      "stateMutability": "nonpayable",
      "type": "function"
    }
  ],
  "bytecode": "0x608060405261001261005f60201b60201c565b600080546001600160a01b0319166001600160a01b03928316178082556040519216917f8be0079c531659141344cd1fd0a4f28419497f9722a3daafe3b4186f6b6457e0908290a3610063565b3390565b610b87806100726000396000f3fe608060405234801561001057600080fd5b50600436106100935760003560e01c80638da5cb5b116100665780638da5cb5b146100db5780638f32d59b146100f9578063c08b985d1461010e578063eb5e06c314610121578063f2fde38b1461013457610093565b8063055a2a44146100985780630ec78f9e146100ad5780633bde7d2e146100c0578063715018a6146100d3575b600080fd5b6100ab6100a636600461066c565b610147565b005b6100ab6100bb36600461070b565b6101e5565b6100ab6100ce36600461076c565b61027d565b6100ab6102f4565b6100e3610365565b6040516100f0919061094f565b60405180910390f35b610101610374565b6040516100f0919061095d565b6100ab61011c3660046106b9565b610398565b6100ab61012f3660046107c1565b610405565b6100ab610142366004610646565b61043b565b61014f610374565b61017757604051600160e51b62461bcd02815260040161016e90610a28565b60405180910390fd5b600154604051600160e21b6303ab26c30281526001600160a01b0390911690630eac9b0c906101ae9086908690869060040161096b565b600060405180830381600087803b1580156101c857600080fd5b505af11580156101dc573d6000803e3d6000fd5b50505050505050565b6101ed610374565b61020c57604051600160e51b62461bcd02815260040161016e90610a28565b600354604051600160e41b630bb61de30281526001600160a01b039091169063bb61de30906102459087908790879087906004016109c2565b600060405180830381600087803b15801561025f57600080fd5b505af1158015610273573d6000803e3d6000fd5b5050505050505050565b610285610374565b6102a457604051600160e51b62461bcd02815260040161016e90610a28565b600180546001600160a01b039586166001600160a01b0319918216179091556002805494861694821694909417909355600380549285169284169290921790915560048054919093169116179055565b6102fc610374565b61031b57604051600160e51b62461bcd02815260040161016e90610a28565b600080546040516001600160a01b03909116907f8be0079c531659141344cd1fd0a4f28419497f9722a3daafe3b4186f6b6457e0908390a3600080546001600160a01b0319169055565b6000546001600160a01b031690565b600080546001600160a01b031661038961046e565b6001600160a01b031614905090565b600254604051600160e31b631a89a4590281526001600160a01b039091169063d44d22c8906103cf90859085903390600401610993565b600060405180830381600087803b1580156103e957600080fd5b505af11580156103fd573d6000803e3d6000fd5b505050505050565b60048054604051600160e31b631369375f0281526001600160a01b0390911691639b49baf8916103cf91869186913391016109f7565b610443610374565b61046257604051600160e51b62461bcd02815260040161016e90610a28565b61046b81610472565b50565b3390565b6001600160a01b03811661049b57604051600160e51b62461bcd02815260040161016e90610a18565b600080546040516001600160a01b03808516939216917f8be0079c531659141344cd1fd0a4f28419497f9722a3daafe3b4186f6b6457e091a3600080546001600160a01b0319166001600160a01b0392909216919091179055565b803561050181610b15565b92915050565b803561050181610b29565b803561050181610b32565b803561050181610b3b565b60008083601f84011261053a57600080fd5b50813567ffffffffffffffff81111561055257600080fd5b60208301915083600182028301111561056a57600080fd5b9250929050565b600082601f83011261058257600080fd5b813561059561059082610a5f565b610a38565b915080825260208301602083018583830111156105b157600080fd5b6105bc838284610acf565b50505092915050565b6000604082840312156105d757600080fd5b6105e16040610a38565b9050813567ffffffffffffffff8111156105fa57600080fd5b61060684828501610571565b825250602082013567ffffffffffffffff81111561062357600080fd5b61062f84828501610571565b60208301525092915050565b803561050181610b44565b60006020828403121561065857600080fd5b600061066484846104f6565b949350505050565b60008060006060848603121561068157600080fd5b600061068d8686610512565b935050602061069e868287016104f6565b92505060406106af868287016104f6565b9150509250925092565b600080604083850312156106cc57600080fd5b60006106d88585610512565b925050602083013567ffffffffffffffff8111156106f557600080fd5b610701858286016105c5565b9150509250929050565b6000806000806080858703121561072157600080fd5b600061072d8787610512565b945050602061073e8782880161063b565b935050604061074f87828801610507565b9250506060610760878288016104f6565b91505092959194509250565b6000806000806080858703121561078257600080fd5b600061078e878761051d565b945050602061079f8782880161051d565b93505060406107b08782880161051d565b92505060606107608782880161051d565b600080602083850312156107d457600080fd5b823567ffffffffffffffff8111156107eb57600080fd5b6107f785828601610528565b92509250509250929050565b61080c81610ac4565b82525050565b61080c81610a94565b61080c81610a9f565b61080c81610aa4565b60006108398385610a8b565b9350610846838584610acf565b61084f83610b0b565b9093019392505050565b600061086482610a87565b61086e8185610a8b565b935061087e818560208601610adb565b61084f81610b0b565b6000610894602683610a8b565b7f4f776e61626c653a206e6577206f776e657220697320746865207a65726f20618152600160d01b6564647265737302602082015260400192915050565b60006108df602083610a8b565b7f4f776e61626c653a2063616c6c6572206973206e6f7420746865206f776e6572815260200192915050565b80516040808452600091908401906109238282610859565b9150506020830151848203602086015261093d8282610859565b95945050505050565b61080c81610abe565b602081016105018284610812565b60208101610501828461081b565b606081016109798286610824565b6109866020830185610812565b6106646040830184610812565b606081016109a18286610824565b81810360208301526109b3818561090b565b90506106646040830184610803565b608081016109d08287610824565b6109dd6020830186610946565b6109ea604083018561081b565b61093d6060830184610812565b60408082528101610a0981858761082d565b90506106646020830184610803565b6020808252810161050181610887565b60208082528101610501816108d2565b60405181810167ffffffffffffffff81118282101715610a5757600080fd5b604052919050565b600067ffffffffffffffff821115610a7657600080fd5b506020601f91909101601f19160190565b5190565b90815260200190565b600061050182610ab2565b151590565b90565b600061050182610a94565b6001600160a01b031690565b60ff1690565b600061050182610aa7565b82818337506000910152565b60005b83811015610af6578181015183820152602001610ade565b83811115610b05576000848401525b50505050565b601f01601f191690565b610b1e81610a94565b811461046b57600080fd5b610b1e81610a9f565b610b1e81610aa4565b610b1e81610aa7565b610b1e81610abe56fea265627a7a7230582019f091ab08060397702a490273029099dbd15a4f135b20d36d6fc199f1bacf1a6c6578706572696d656e74616cf50037",
  "source": "pragma solidity >=0.5.0 <0.6.0;\npragma experimental ABIEncoderV2;\n\nimport \"./UprtclRoot.sol\";\nimport \"./UprtclDetails.sol\";\nimport \"./UprtclProposals.sol\";\nimport \"./UprtclHomePerspectives.sol\";\n\ncontract UprtclDAOWrapper is Ownable {\n    UprtclRoot uprtclRoot;\n    UprtclDetails uprtclDetails;\n    UprtclProposals uprtclProposals;\n    UprtclHomePerspectives uprtclHomePerspectives;\n\n    function setDependencies(\n        UprtclRoot _uprtclRoot,\n        UprtclDetails _uprtclDetails,\n        UprtclProposals uUprtclProposals,\n        UprtclHomePerspectives _uprtclHomePerspectives\n    ) external onlyOwner {\n        uprtclRoot = _uprtclRoot;\n        uprtclDetails = _uprtclDetails;\n        uprtclProposals = uUprtclProposals;\n        uprtclHomePerspectives = _uprtclHomePerspectives;\n    }\n\n    function setHomePerspective(string calldata perspectiveId) external {\n        uprtclHomePerspectives.setHomePerspectiveSuperUser(\n            perspectiveId,\n            msg.sender\n        );\n    }\n\n    function authorizeProposal(\n        bytes32 proposalId,\n        uint8 authorized,\n        bool execute,\n        address proposalOwner\n    ) external onlyOwner {\n        uprtclProposals.authorizeProposalSuperUser(\n            proposalId,\n            authorized,\n            execute,\n            proposalOwner\n        );\n    }\n\n    function changeOwner(\n        bytes32 perspectiveIdHash,\n        address newOwner,\n        address oldOwner\n    ) external onlyOwner {\n        uprtclRoot.changePerspectiveOwnerSuperUser(\n            perspectiveIdHash,\n            newOwner,\n            oldOwner\n        );\n    }\n\n    function setPerspectiveDetails(\n        bytes32 perspectiveIdHash,\n        SharedPerspectiveDetails.PerspectiveDetails memory newDetails\n    ) public {\n        uprtclDetails.setPerspectiveDetailsSuperUser(\n            perspectiveIdHash,\n            newDetails,\n            msg.sender\n        );\n    }\n\n}\n",
  "sourcePath": "/Users/Cesar/apps/dorg/uptrcl/eth-provider/contracts/UprtclDAOWrapper.sol",
  "compiler": {
    "name": "solc",
    "version": "0.5.8+commit.23d335f2.Emscripten.clang"
  },
  "schemaVersion": "3.0.11",
  "updatedAt": "2020-03-23T17:19:02.316Z",
  "devdoc": {
    "methods": {
      "isOwner()": {
        "details": "Returns true if the caller is the current owner."
      },
      "owner()": {
        "details": "Returns the address of the current owner."
      },
      "renounceOwnership()": {
        "details": "Leaves the contract without owner. It will not be possible to call `onlyOwner` functions anymore. Can only be called by the current owner.     * NOTE: Renouncing ownership will leave the contract without an owner, thereby removing any functionality that is only available to the owner."
      },
      "transferOwnership(address)": {
        "details": "Transfers ownership of the contract to a new account (`newOwner`). Can only be called by the current owner."
      }
    }
  },
  "userdoc": {
    "methods": {}
  }
}