{
  "contractName": "UprtclProposals",
  "abi": [
    {
      "anonymous": false,
      "inputs": [
        {
          "indexed": true,
          "internalType": "address",
          "name": "previousOwner",
          "type": "address"
        },
        {
          "indexed": true,
          "internalType": "address",
          "name": "newOwner",
          "type": "address"
        }
      ],
      "name": "OwnershipTransferred",
      "type": "event"
    },
    {
      "anonymous": false,
      "inputs": [
        {
          "indexed": true,
          "internalType": "bytes32",
          "name": "toPerspectiveIdHash",
          "type": "bytes32"
        },
        {
          "indexed": true,
          "internalType": "bytes32",
          "name": "fromPerspectiveIdHash",
          "type": "bytes32"
        },
        {
          "indexed": false,
          "internalType": "uint32",
          "name": "nonce",
          "type": "uint32"
        },
        {
          "indexed": true,
          "internalType": "bytes32",
          "name": "proposalId",
          "type": "bytes32"
        }
      ],
      "name": "ProposalCreated",
      "type": "event"
    },
    {
      "constant": true,
      "inputs": [],
      "name": "isOwner",
      "outputs": [
        {
          "internalType": "bool",
          "name": "",
          "type": "bool"
        }
      ],
      "payable": false,
      "stateMutability": "view",
      "type": "function"
    },
    {
      "constant": true,
      "inputs": [],
      "name": "owner",
      "outputs": [
        {
          "internalType": "address payable",
          "name": "",
          "type": "address"
        }
      ],
      "payable": false,
      "stateMutability": "view",
      "type": "function"
    },
    {
      "constant": true,
      "inputs": [
        {
          "internalType": "bytes32",
          "name": "",
          "type": "bytes32"
        }
      ],
      "name": "proposals",
      "outputs": [
        {
          "internalType": "bytes32",
          "name": "toPerspectiveIdHash",
          "type": "bytes32"
        },
        {
          "internalType": "bytes32",
          "name": "fromPerspectiveIdHash",
          "type": "bytes32"
        },
        {
          "internalType": "address",
          "name": "owner",
          "type": "address"
        },
        {
          "internalType": "uint8",
          "name": "status",
          "type": "uint8"
        },
        {
          "internalType": "uint8",
          "name": "authorized",
          "type": "uint8"
        }
      ],
      "payable": false,
      "stateMutability": "view",
      "type": "function"
    },
    {
      "constant": false,
      "inputs": [],
      "name": "renounceOwnership",
      "outputs": [],
      "payable": false,
      "stateMutability": "nonpayable",
      "type": "function"
    },
    {
      "constant": false,
      "inputs": [
        {
          "internalType": "address payable",
          "name": "newOwner",
          "type": "address"
        }
      ],
      "name": "transferOwnership",
      "outputs": [],
      "payable": false,
      "stateMutability": "nonpayable",
      "type": "function"
    },
    {
      "constant": true,
      "inputs": [
        {
          "internalType": "bytes32",
          "name": "toPerspectiveIdHash",
          "type": "bytes32"
        },
        {
          "internalType": "bytes32",
          "name": "fromPerspectiveIdHash",
          "type": "bytes32"
        },
        {
          "internalType": "uint32",
          "name": "nonce",
          "type": "uint32"
        }
      ],
      "name": "getProposalId",
      "outputs": [
        {
          "internalType": "bytes32",
          "name": "proposalId",
          "type": "bytes32"
        }
      ],
      "payable": false,
      "stateMutability": "pure",
      "type": "function"
    },
    {
      "constant": false,
      "inputs": [
        {
          "internalType": "bytes32",
          "name": "toPerspectiveIdHash",
          "type": "bytes32"
        },
        {
          "internalType": "bytes32",
          "name": "fromPerspectiveIdHash",
          "type": "bytes32"
        },
        {
          "internalType": "address",
          "name": "owner",
          "type": "address"
        },
        {
          "internalType": "uint32",
          "name": "nonce",
          "type": "uint32"
        },
        {
          "components": [
            {
              "internalType": "bytes32",
              "name": "perspectiveIdHash",
              "type": "bytes32"
            },
            {
              "internalType": "bytes32",
              "name": "headCid0",
              "type": "bytes32"
            },
            {
              "internalType": "bytes32",
              "name": "headCid1",
              "type": "bytes32"
            },
            {
              "internalType": "uint8",
              "name": "executed",
              "type": "uint8"
            }
          ],
          "internalType": "struct UprtclProposals.HeadUpdate[]",
          "name": "headUpdates",
          "type": "tuple[]"
        },
        {
          "internalType": "address[]",
          "name": "approvedAddresses",
          "type": "address[]"
        }
      ],
      "name": "initProposal",
      "outputs": [],
      "payable": false,
      "stateMutability": "nonpayable",
      "type": "function"
    },
    {
      "constant": false,
      "inputs": [
        {
          "internalType": "bytes32",
          "name": "proposalId",
          "type": "bytes32"
        },
        {
          "components": [
            {
              "internalType": "bytes32",
              "name": "perspectiveIdHash",
              "type": "bytes32"
            },
            {
              "internalType": "bytes32",
              "name": "headCid0",
              "type": "bytes32"
            },
            {
              "internalType": "bytes32",
              "name": "headCid1",
              "type": "bytes32"
            },
            {
              "internalType": "uint8",
              "name": "executed",
              "type": "uint8"
            }
          ],
          "internalType": "struct UprtclProposals.HeadUpdate[]",
          "name": "headUpdates",
          "type": "tuple[]"
        }
      ],
      "name": "addUpdatesToProposal",
      "outputs": [],
      "payable": false,
      "stateMutability": "nonpayable",
      "type": "function"
    },
    {
      "constant": false,
      "inputs": [
        {
          "internalType": "bytes32",
          "name": "proposalId",
          "type": "bytes32"
        },
        {
          "internalType": "uint8",
          "name": "status",
          "type": "uint8"
        }
      ],
      "name": "setProposalStatus",
      "outputs": [],
      "payable": false,
      "stateMutability": "nonpayable",
      "type": "function"
    },
    {
      "constant": false,
      "inputs": [
        {
          "internalType": "bytes32",
          "name": "proposalId",
          "type": "bytes32"
        },
        {
          "internalType": "uint8",
          "name": "authorized",
          "type": "uint8"
        }
      ],
      "name": "setProposalAuthorized",
      "outputs": [],
      "payable": false,
      "stateMutability": "nonpayable",
      "type": "function"
    },
    {
      "constant": false,
      "inputs": [
        {
          "internalType": "bytes32",
          "name": "proposalId",
          "type": "bytes32"
        },
        {
          "internalType": "address",
          "name": "account",
          "type": "address"
        }
      ],
      "name": "executeProposal",
      "outputs": [],
      "payable": false,
      "stateMutability": "nonpayable",
      "type": "function"
    },
    {
      "constant": false,
      "inputs": [
        {
          "internalType": "bytes32",
          "name": "proposalId",
          "type": "bytes32"
        },
        {
          "internalType": "uint256[]",
          "name": "indexes",
          "type": "uint256[]"
        },
        {
          "internalType": "address",
          "name": "account",
          "type": "address"
        }
      ],
      "name": "executeProposalPartially",
      "outputs": [],
      "payable": false,
      "stateMutability": "nonpayable",
      "type": "function"
    },
    {
      "constant": true,
      "inputs": [
        {
          "internalType": "bytes32",
          "name": "proposalId",
          "type": "bytes32"
        }
      ],
      "name": "getProposal",
      "outputs": [
        {
          "components": [
            {
              "internalType": "bytes32",
              "name": "toPerspectiveIdHash",
              "type": "bytes32"
            },
            {
              "internalType": "bytes32",
              "name": "fromPerspectiveIdHash",
              "type": "bytes32"
            },
            {
              "internalType": "address",
              "name": "owner",
              "type": "address"
            },
            {
              "components": [
                {
                  "internalType": "bytes32",
                  "name": "perspectiveIdHash",
                  "type": "bytes32"
                },
                {
                  "internalType": "bytes32",
                  "name": "headCid0",
                  "type": "bytes32"
                },
                {
                  "internalType": "bytes32",
                  "name": "headCid1",
                  "type": "bytes32"
                },
                {
                  "internalType": "uint8",
                  "name": "executed",
                  "type": "uint8"
                }
              ],
              "internalType": "struct UprtclProposals.HeadUpdate[]",
              "name": "headUpdates",
              "type": "tuple[]"
            },
            {
              "internalType": "address[]",
              "name": "approvedAddresses",
              "type": "address[]"
            },
            {
              "internalType": "uint8",
              "name": "status",
              "type": "uint8"
            },
            {
              "internalType": "uint8",
              "name": "authorized",
              "type": "uint8"
            }
          ],
          "internalType": "struct UprtclProposals.Proposal",
          "name": "proposal",
          "type": "tuple"
        }
      ],
      "payable": false,
      "stateMutability": "view",
      "type": "function"
    }
  ],
  "bytecode": "0x60806040526100156001600160e01b0361006216565b600080546001600160a01b0319166001600160a01b03928316178082556040519216917f8be0079c531659141344cd1fd0a4f28419497f9722a3daafe3b4186f6b6457e0908290a3610066565b3390565b611b9f806100756000396000f3fe608060405234801561001057600080fd5b50600436106100cf5760003560e01c80638da5cb5b1161008c5780639eb788c5116100665780639eb788c5146101a1578063f18251f1146101b4578063f2fde38b146101c7578063ff3433d4146101da576100cf565b80638da5cb5b146101645780638f32d59b14610179578063978480601461018e576100cf565b806326d50df1146100d457806332ed5b12146100e957806339eacf3414610116578063430694cf14610129578063715018a6146101495780638517f68a14610151575b600080fd5b6100e76100e23660046111d2565b6101fa565b005b6100fc6100f736600461117a565b610520565b60405161010d95949392919061192b565b60405180910390f35b6100e7610124366004611379565b61055d565b61013c61013736600461117a565b6105af565b60405161010d9190611a75565b6100e76106f7565b6100e761015f36600461121a565b610765565b61016c610776565b60405161010d9190611901565b610181610786565b60405161010d919061190f565b6100e761019c36600461127f565b6107aa565b6100e76101af366004611198565b61088e565b6100e76101c2366004611379565b6109d4565b6100e76101d536600461115c565b610a42565b6101ed6101e8366004611336565b610a72565b60405161010d919061191d565b600082815260016020526040902060028101546001600160a01b031661023b5760405162461bcd60e51b815260040161023290611a05565b60405180910390fd5b600581015460ff1661025f5760405162461bcd60e51b815260040161023290611a65565b6040805160e08101825282548152600183015460208083019190915260028401546001600160a01b03168284015260038401805484518184028101840190955280855260009461039c9493879360608601939091889084015b8282101561030f576000848152602090819020604080516080810182526004860290920180548352600180820154848601526002820154928401929092526003015460ff16606083015290835290920191016102b8565b5050505081526020016004820180548060200260200160405190810160405280929190818152602001828054801561037057602002820191906000526020600020905b81546001600160a01b03168152600190910190602001808311610352575b50505091835250506005919091015460ff80821660208401526101009091041660409091015233610aa8565b60ff16116103bc5760405162461bcd60e51b815260040161023290611a25565b60005b82518160ff16101561051a576103d3610e44565b838260ff16815181106103e257fe5b60200260200101519050806060015160ff166000146104135760405162461bcd60e51b8152600401610232906119d5565b60028381015490548251604051631393bbf560e01b81526001600160a01b039384169390921691631393bbf59161044c9160040161191d565b60206040518083038186803b15801561046457600080fd5b505afa158015610478573d6000803e3d6000fd5b505050506040513d601f19601f8201168201806040525061049c9190810190611136565b6001600160a01b0316146104c25760405162461bcd60e51b8152600401610232906119c5565b60038381018054600180820183556000928352602092839020855160049093020191825591840151818301556040840151600282015560609093015192909101805460ff191660ff90931692909217909155016103bf565b50505050565b6001602081905260009182526040909120805491810154600282015460059092015490916001600160a01b03169060ff8082169161010090041685565b600082815260016020526040902060028101546001600160a01b031633146105975760405162461bcd60e51b8152600401610232906119b5565b600501805460ff191660ff9290921691909117905550565b6105b7610e6b565b6000828152600160208181526040808420815160e08101835281548152938101548484015260028101546001600160a01b0316848301526003810180548351818602810186019094528084529495919460608701949192909184015b8282101561066a576000848152602090819020604080516080810182526004860290920180548352600180820154848601526002820154928401929092526003015460ff1660608301529083529092019101610613565b505050508152602001600482018054806020026020016040519081016040528092919081815260200182805480156106cb57602002820191906000526020600020905b81546001600160a01b031681526001909101906020018083116106ad575b50505091835250506005919091015460ff80821660208401526101009091041660409091015292915050565b6106ff610786565b61071b5760405162461bcd60e51b815260040161023290611a55565b600080546040516001600160a01b03909116907f8be0079c531659141344cd1fd0a4f28419497f9722a3daafe3b4186f6b6457e0908390a3600080546001600160a01b0319169055565b61077183833384610b2b565b505050565b6000546001600160a01b03165b90565b600080546001600160a01b031661079b610dbf565b6001600160a01b031614905090565b60006107b7878786610a72565b60008181526001602052604090206002810154919250906001600160a01b0316156107f45760405162461bcd60e51b815260040161023290611a35565b878155600181018790556002810180546001600160a01b0319166001600160a01b03881617905582516108309060048301906020860190610ea6565b5060058101805460ff1916600117905561084a82856101fa565b8187897f4e4f243275b3821e2e3408990d60d6fc7d067a530f86ae67627a25ec835b01ec8860405161087c9190611a8d565b60405180910390a45050505050505050565b6000828152600160208181526040808420815160e08101835281548152938101548484015260028101546001600160a01b03168483015260038101805483518186028101860190945280845291959461094594909387936060860193919288908401821561030f576000848152602090819020604080516080810182526004860290920180548352600180820154848601526002820154928401929092526003015460ff16606083015290835290920191016102b8565b60ff16116109655760405162461bcd60e51b815260040161023290611a25565b60038101546040805182815260208084028201019091526060918015610995578160200160208202803883390190505b50905060005b60038301548110156109c757808282815181106109b457fe5b602090810291909101015260010161099b565b5061051a84823386610b2b565b600082815260016020526040902060028101546001600160a01b03163314610a0e5760405162461bcd60e51b8152600401610232906119f5565b60ff821615610a245760058101805460ff191690555b600501805460ff9092166101000261ff001990921691909117905550565b610a4a610786565b610a665760405162461bcd60e51b815260040161023290611a55565b610a6f81610dc3565b50565b6000838383604051602001610a89939291906118ca565b6040516020818303038152906040528051906020012090509392505050565b600082608001515160001415610ac057506001610b25565b60005b8360800151518163ffffffff161015610b1f5783608001518163ffffffff1681518110610aec57fe5b60200260200101516001600160a01b0316836001600160a01b03161415610b17575060019050610b25565b600101610ac3565b50600090505b92915050565b60008481526001602052604090206005810154610100900460ff16610b625760405162461bcd60e51b815260040161023290611a45565b6040805160e08101825282548152600183015460208083019190915260028401546001600160a01b031682840152600384018054845181840281018401909552808552600094610c9f9493879360608601939091889084015b82821015610c12576000848152602090819020604080516080810182526004860290920180548352600180820154848601526002820154928401929092526003015460ff1660608301529083529092019101610bbb565b50505050815260200160048201805480602002602001604051908101604052809291908181526020018280548015610c7357602002820191906000526020600020905b81546001600160a01b03168152600190910190602001808311610c55575b50505091835250506005919091015460ff80821660208401526101009091041660409091015285610aa8565b60ff1611610cbf5760405162461bcd60e51b815260040161023290611a25565b60005b8451811015610db757600082600301868381518110610cdd57fe5b602002602001015181548110610cef57fe5b60009182526020909120600490910201600381015490915060ff1615610d275760405162461bcd60e51b815260040161023290611a15565b60038101805460ff1916600190811790915560028054835492840154918401546040516301d4f0fd60e31b81526001600160a01b0390921693630ea787e893610d7893919290918a90600401611977565b600060405180830381600087803b158015610d9257600080fd5b505af1158015610da6573d6000803e3d6000fd5b505060019093019250610cc2915050565b505050505050565b3390565b6001600160a01b038116610de95760405162461bcd60e51b8152600401610232906119e5565b600080546040516001600160a01b03808516939216917f8be0079c531659141344cd1fd0a4f28419497f9722a3daafe3b4186f6b6457e091a3600080546001600160a01b0319166001600160a01b0392909216919091179055565b60408051608081018252600080825260208201819052918101829052606081019190915290565b6040805160e0810182526000808252602082018190529181018290526060808201819052608082015260a0810182905260c081019190915290565b828054828255906000526020600020908101928215610efb579160200282015b82811115610efb57825182546001600160a01b0319166001600160a01b03909116178255602090920191600190910190610ec6565b50610f07929150610f0b565b5090565b61078391905b80821115610f075780546001600160a01b0319168155600101610f11565b8035610b2581611b2d565b8051610b2581611b2d565b600082601f830112610f5657600080fd5b8135610f69610f6482611ac2565b611a9b565b91508181835260208401935060208101905083856020840282011115610f8e57600080fd5b60005b83811015610fba5781610fa48882610f2f565b8452506020928301929190910190600101610f91565b5050505092915050565b600082601f830112610fd557600080fd5b8135610fe3610f6482611ac2565b9150818183526020840193506020810190508385608084028201111561100857600080fd5b60005b83811015610fba578161101e88826110b1565b8452506020909201916080919091019060010161100b565b600082601f83011261104757600080fd5b8135611055610f6482611ac2565b9150818183526020840193506020810190508385602084028201111561107a57600080fd5b60005b83811015610fba578161109088826110a6565b845250602092830192919091019060010161107d565b8035610b2581611b41565b6000608082840312156110c357600080fd5b6110cd6080611a9b565b905060006110db84846110a6565b82525060206110ec848483016110a6565b6020830152506040611100848285016110a6565b60408301525060606111148482850161112b565b60608301525092915050565b8035610b2581611b4a565b8035610b2581611b53565b60006020828403121561114857600080fd5b60006111548484610f3a565b949350505050565b60006020828403121561116e57600080fd5b60006111548484610f2f565b60006020828403121561118c57600080fd5b600061115484846110a6565b600080604083850312156111ab57600080fd5b60006111b785856110a6565b92505060206111c885828601610f2f565b9150509250929050565b600080604083850312156111e557600080fd5b60006111f185856110a6565b925050602083013567ffffffffffffffff81111561120e57600080fd5b6111c885828601610fc4565b60008060006060848603121561122f57600080fd5b600061123b86866110a6565b935050602084013567ffffffffffffffff81111561125857600080fd5b61126486828701611036565b925050604061127586828701610f2f565b9150509250925092565b60008060008060008060c0878903121561129857600080fd5b60006112a489896110a6565b96505060206112b589828a016110a6565b95505060406112c689828a01610f2f565b94505060606112d789828a01611120565b935050608087013567ffffffffffffffff8111156112f457600080fd5b61130089828a01610fc4565b92505060a087013567ffffffffffffffff81111561131d57600080fd5b61132989828a01610f45565b9150509295509295509295565b60008060006060848603121561134b57600080fd5b600061135786866110a6565b9350506020611368868287016110a6565b925050604061127586828701611120565b6000806040838503121561138c57600080fd5b600061139885856110a6565b92505060206111c88582860161112b565b60006113b583836113d1565b505060200190565b60006113c983836117c1565b505060800190565b6113da81611af6565b82525050565b60006113eb82611ae9565b6113f58185611aed565b935061140083611ae3565b8060005b8381101561142e57815161141888826113a9565b975061142383611ae3565b925050600101611404565b509495945050505050565b600061144482611ae9565b61144e8185611aed565b935061145983611ae3565b8060005b8381101561142e57815161147188826113bd565b975061147c83611ae3565b92505060010161145d565b6113da81611b01565b6113da81610783565b6113da6114a582610783565b610783565b60006114b7602c83611aed565b7f50726f706f73616c207374617475732063616e206f6e6c79206279207365742081526b313c9034ba399037bbb732b960a11b602082015260400192915050565b6000611505603783611aed565b7f70726f706f73616c2063616e206f6e6c792073746f726520706572737065637481527f69766573206f776e656420627920697473206f776e6572000000000000000000602082015260400192915050565b6000611564602a83611aed565b7f68656164207570646174652065786563757465642070726f7065727479206d758152697374206265207a65726f60b01b602082015260400192915050565b60006115b0602683611aed565b7f4f776e61626c653a206e6577206f776e657220697320746865207a65726f206181526564647265737360d01b602082015260400192915050565b60006115f8602c83611aed565b7f50726f706f73616c2063616e206f6e6c7920627920617574686f72697a65642081526b313c9034ba399037bbb732b960a11b602082015260400192915050565b6000611646601283611aed565b711c1c9bdc1bdcd85b081b9bdd08199bdd5b9960721b815260200192915050565b6000611674601c83611aed565b7f686561642075706461746520616c726561647920657865637574656400000000815260200192915050565b60006116ad602283611aed565b7f6d73672e73656e646572206e6f7420616e20617070726f766564206164647265815261737360f01b602082015260400192915050565b60006116f1601683611aed565b751c1c9bdc1bdcd85b08185b1c9958591e48195e1a5cdd60521b815260200192915050565b6000611723601783611aed565b7f50726f706f73616c206e6f7420617574686f72697a6564000000000000000000815260200192915050565b600061175c602083611aed565b7f4f776e61626c653a2063616c6c6572206973206e6f7420746865206f776e6572815260200192915050565b6000611795601b83611aed565b7f70726f706f73616c207374617475732069732064697361626c65640000000000815260200192915050565b805160808301906117d28482611490565b5060208201516117e56020850182611490565b5060408201516117f86040850182611490565b50606082015161051a60608501826118c1565b805160009060e084019061181f8582611490565b5060208301516118326020860182611490565b50604083015161184560408601826113d1565b506060830151848203606086015261185d8282611439565b9150506080830151848203608086015261187782826113e0565b91505060a083015161188c60a08601826118c1565b5060c083015161189f60c08601826118c1565b509392505050565b6113da81611b12565b6113da6118bc82611b12565b611b21565b6113da81611b1b565b60006118d68286611499565b6020820191506118e68285611499565b6020820191506118f682846118b0565b506004019392505050565b60208101610b2582846113d1565b60208101610b258284611487565b60208101610b258284611490565b60a081016119398288611490565b6119466020830187611490565b61195360408301866113d1565b61196060608301856118c1565b61196d60808301846118c1565b9695505050505050565b608081016119858287611490565b6119926020830186611490565b61199f6040830185611490565b6119ac60608301846113d1565b95945050505050565b60208082528101610b25816114aa565b60208082528101610b25816114f8565b60208082528101610b2581611557565b60208082528101610b25816115a3565b60208082528101610b25816115eb565b60208082528101610b2581611639565b60208082528101610b2581611667565b60208082528101610b25816116a0565b60208082528101610b25816116e4565b60208082528101610b2581611716565b60208082528101610b258161174f565b60208082528101610b2581611788565b60208082528101611a86818461180b565b9392505050565b60208101610b2582846118a7565b60405181810167ffffffffffffffff81118282101715611aba57600080fd5b604052919050565b600067ffffffffffffffff821115611ad957600080fd5b5060209081020190565b60200190565b5190565b90815260200190565b6000610b2582611b06565b151590565b6001600160a01b031690565b63ffffffff1690565b60ff1690565b6000610b258260e01b90565b611b3681611af6565b8114610a6f57600080fd5b611b3681610783565b611b3681611b12565b611b3681611b1b56fea365627a7a72315820c89a3b0617cf5665bc2af49a73a73d23baa91a85749a90b1637e924ff2e335db6c6578706572696d656e74616cf564736f6c63430005100040",
  "source": "pragma solidity >=0.5.0 <0.6.0;\npragma experimental ABIEncoderV2;\n\nimport \"./UprtclRoot.sol\";\n\ncontract UprtclProposals is Ownable {\n\n    struct HeadUpdate {\n        bytes32 perspectiveIdHash;\n        bytes32 headCid0;\n        bytes32 headCid1;\n        uint8 executed;\n    }\n\n    struct Proposal {\n        bytes32 toPerspectiveIdHash;\n        bytes32 fromPerspectiveIdHash;\n        address owner;\n        HeadUpdate[] headUpdates;\n        address[] approvedAddresses;\n        uint8 status;\n        uint8 authorized;\n    }\n\n    mapping(bytes32 => Proposal) public proposals;\n\n    UprtclRoot uprtclRoot;\n\n    event ProposalCreated(\n        bytes32 indexed toPerspectiveIdHash,\n        bytes32 indexed fromPerspectiveIdHash,\n        uint32 nonce,\n        bytes32 indexed proposalId\n    );\n\n    function getProposalId(\n        bytes32 toPerspectiveIdHash,\n        bytes32 fromPerspectiveIdHash,\n        uint32 nonce\n    ) public pure returns (bytes32 proposalId) {\n        proposalId = keccak256(\n            abi.encodePacked(toPerspectiveIdHash, fromPerspectiveIdHash, nonce)\n        );\n    }\n\n    function initProposal(\n        bytes32 toPerspectiveIdHash,\n        bytes32 fromPerspectiveIdHash,\n        address owner,\n        uint32 nonce,\n        HeadUpdate[] memory headUpdates,\n        address[] memory approvedAddresses\n    ) public {\n        bytes32 proposalId = getProposalId(\n            toPerspectiveIdHash,\n            fromPerspectiveIdHash,\n            nonce\n        );\n\n        /** make sure the proposal does not exist */\n        Proposal storage proposal = proposals[proposalId];\n        require(proposal.owner == address(0), \"proposal already exist\");\n\n        proposal.toPerspectiveIdHash = toPerspectiveIdHash;\n        proposal.fromPerspectiveIdHash = fromPerspectiveIdHash;\n        proposal.owner = owner;\n        proposal.approvedAddresses = approvedAddresses;\n        proposal.status = 1;\n\n        addUpdatesToProposal(proposalId, headUpdates);\n\n        emit ProposalCreated(\n            toPerspectiveIdHash,\n            fromPerspectiveIdHash,\n            nonce,\n            proposalId\n        );\n    }\n\n    function isApproved(Proposal memory proposal, address value)\n        private\n        pure\n        returns (uint8 approved)\n    {\n\t\tif (proposal.approvedAddresses.length == 0) {\n\t\t\tapproved = 1;\n\t\t\treturn approved;\n\t\t}\n\n        for (uint32 ix = 0; ix < proposal.approvedAddresses.length; ix++) {\n            if (value == proposal.approvedAddresses[ix]) {\n                approved = 1;\n                return approved;\n            }\n        }\n        approved = 0;\n    }\n\n    /** Add one or more headUpdate elements to an existing proposal */\n    function addUpdatesToProposal(\n        bytes32 proposalId,\n        HeadUpdate[] memory headUpdates\n    ) public {\n        Proposal storage proposal = proposals[proposalId];\n\n        /** make sure the proposal is open for new elements */\n        require(proposal.owner != address(0), \"proposal not found\");\n        require(proposal.status != 0, \"proposal status is disabled\");\n        require(\n            isApproved(proposal, msg.sender) > 0,\n            \"msg.sender not an approved address\"\n        );\n\n        for (uint8 ix = 0; ix < headUpdates.length; ix++) {\n            HeadUpdate memory headUpdate = headUpdates[ix];\n            require(\n                headUpdate.executed == 0,\n                \"head update executed property must be zero\"\n            );\n            require(\n                uprtclRoot.getPerspectiveOwner(headUpdate.perspectiveIdHash) == proposal.owner,\n                \"proposal can only store perspectives owned by its owner\"\n            );\n            proposal.headUpdates.push(headUpdate);\n        }\n    }\n\n    function setProposalStatus(bytes32 proposalId, uint8 status) public {\n        Proposal storage proposal = proposals[proposalId];\n        require(\n            msg.sender == proposal.owner,\n            \"Proposal status can only by set by its owner\"\n        );\n        proposal.status = status;\n    }\n\n    function setProposalAuthorized(bytes32 proposalId, uint8 authorized) public {\n        Proposal storage proposal = proposals[proposalId];\n        require(\n            msg.sender == proposal.owner,\n            \"Proposal can only by authorized by its owner\"\n        );\n        /** by default the proposal is closed once it is authorized. */\n        if (authorized > 0) proposal.status = 0;\n        proposal.authorized = authorized;\n    }\n\n    function executeProposal(bytes32 proposalId, address account) public {\n        Proposal storage proposal = proposals[proposalId];\n\n        /** Check the msg.sender is an approved address */\n        require(\n            isApproved(proposal, msg.sender) > 0,\n            \"msg.sender not an approved address\"\n        );\n\n        uint256[] memory indexes = new uint256[](proposal.headUpdates.length);\n        for (uint256 ix = 0; ix < proposal.headUpdates.length; ix++) {\n            indexes[ix] = ix;\n        }\n\n        executeProposalPartiallyInternal(proposalId, indexes, msg.sender, account);\n    }\n\n    function executeProposalPartially(\n        bytes32 proposalId,\n        uint256[] memory indexes,\n        address account\n    ) public {\n        executeProposalPartiallyInternal(proposalId, indexes, msg.sender, account);\n    }\n\n    function executeProposalPartiallyInternal(\n        bytes32 proposalId,\n        uint256[] memory indexes,\n        address msgSender,\n        address account\n    ) private {\n        Proposal storage proposal = proposals[proposalId];\n        require(proposal.authorized != 0, \"Proposal not authorized\");\n\n        require(\n            isApproved(proposal, msgSender) > 0,\n            \"msg.sender not an approved address\"\n        );\n\n        for (uint256 ix = 0; ix < indexes.length; ix++) {\n            HeadUpdate storage headUpdate = proposal.headUpdates[indexes[ix]];\n\n            require(headUpdate.executed == 0, \"head update already executed\");\n            headUpdate.executed = 1;\n\n            uprtclRoot.updateHead(headUpdate.perspectiveIdHash, headUpdate.headCid0, headUpdate.headCid1, account);\n        }\n    }\n\n    function getProposal(bytes32 proposalId)\n        public\n        view\n        returns (Proposal memory proposal)\n    {\n        return (proposals[proposalId]);\n    }\n}\n",
  "sourcePath": "/home/pepo/pr/uprtcl/eth-uprtcl/contracts/UprtclProposals.sol",
  "compiler": {
    "name": "solc",
    "version": "0.5.16+commit.9c3226ce.Emscripten.clang"
  },
  "schemaVersion": "3.0.23",
  "updatedAt": "2020-02-25T11:37:23.378Z",
  "devdoc": {
    "methods": {
      "isOwner()": {
        "details": "Returns true if the caller is the current owner."
      },
      "owner()": {
        "details": "Returns the address of the current owner."
      },
      "renounceOwnership()": {
        "details": "Leaves the contract without owner. It will not be possible to call `onlyOwner` functions anymore. Can only be called by the current owner.     * NOTE: Renouncing ownership will leave the contract without an owner, thereby removing any functionality that is only available to the owner."
      },
      "transferOwnership(address)": {
        "details": "Transfers ownership of the contract to a new account (`newOwner`). Can only be called by the current owner."
      }
    }
  },
  "userdoc": {
    "methods": {
      "addUpdatesToProposal(bytes32,(bytes32,bytes32,bytes32,uint8)[])": {
        "notice": "Add one or more headUpdate elements to an existing proposal "
      }
    }
  }
}