{
  "contractName": "Uprtcl",
  "abi": [
    {
      "constant": true,
      "inputs": [
        {
          "name": "",
          "type": "bytes32"
        }
      ],
      "name": "perspectives",
      "outputs": [
        {
          "name": "owner",
          "type": "address"
        },
        {
          "name": "base",
          "type": "uint8"
        },
        {
          "name": "head1",
          "type": "bytes32"
        },
        {
          "name": "head0",
          "type": "bytes32"
        }
      ],
      "payable": false,
      "stateMutability": "view",
      "type": "function"
    },
    {
      "inputs": [],
      "payable": false,
      "stateMutability": "nonpayable",
      "type": "constructor"
    },
    {
      "anonymous": false,
      "inputs": [
        {
          "indexed": true,
          "name": "perspectiveIdHash",
          "type": "bytes32"
        },
        {
          "indexed": true,
          "name": "contextIdHash",
          "type": "bytes32"
        },
        {
          "indexed": false,
          "name": "owner",
          "type": "address"
        }
      ],
      "name": "PerspectiveAdded",
      "type": "event"
    },
    {
      "anonymous": false,
      "inputs": [
        {
          "indexed": true,
          "name": "perspectiveIdHash",
          "type": "bytes32"
        },
        {
          "indexed": false,
          "name": "author",
          "type": "address"
        },
        {
          "indexed": false,
          "name": "base",
          "type": "uint8"
        },
        {
          "indexed": false,
          "name": "previousHead1",
          "type": "bytes32"
        },
        {
          "indexed": false,
          "name": "previousHead0",
          "type": "bytes32"
        },
        {
          "indexed": false,
          "name": "newHead1",
          "type": "bytes32"
        },
        {
          "indexed": false,
          "name": "newHead0",
          "type": "bytes32"
        }
      ],
      "name": "PerspectiveHeadUpdated",
      "type": "event"
    },
    {
      "anonymous": false,
      "inputs": [
        {
          "indexed": true,
          "name": "perspectiveIdHash",
          "type": "bytes32"
        },
        {
          "indexed": false,
          "name": "newOwner",
          "type": "address"
        },
        {
          "indexed": false,
          "name": "previousOwner",
          "type": "address"
        }
      ],
      "name": "PerspectiveOwnerUpdated",
      "type": "event"
    },
    {
      "constant": false,
      "inputs": [
        {
          "name": "perspectiveIdHash",
          "type": "bytes32"
        },
        {
          "name": "contextIdHash",
          "type": "bytes32"
        },
        {
          "name": "owner",
          "type": "address"
        }
      ],
      "name": "addPerspective",
      "outputs": [],
      "payable": false,
      "stateMutability": "nonpayable",
      "type": "function"
    },
    {
      "constant": false,
      "inputs": [
        {
          "name": "perspectiveIdHash",
          "type": "bytes32"
        },
        {
          "name": "base",
          "type": "uint8"
        },
        {
          "name": "newHead1",
          "type": "bytes32"
        },
        {
          "name": "newHead0",
          "type": "bytes32"
        }
      ],
      "name": "updateHead",
      "outputs": [],
      "payable": false,
      "stateMutability": "nonpayable",
      "type": "function"
    },
    {
      "constant": false,
      "inputs": [
        {
          "name": "perspectiveIdHash",
          "type": "bytes32"
        },
        {
          "name": "newOwner",
          "type": "address"
        }
      ],
      "name": "changeOwner",
      "outputs": [],
      "payable": false,
      "stateMutability": "nonpayable",
      "type": "function"
    },
    {
      "constant": true,
      "inputs": [
        {
          "name": "perspectiveIdHash",
          "type": "bytes32"
        }
      ],
      "name": "getPerspective",
      "outputs": [
        {
          "name": "owner",
          "type": "address"
        },
        {
          "name": "base",
          "type": "uint8"
        },
        {
          "name": "head1",
          "type": "bytes32"
        },
        {
          "name": "head0",
          "type": "bytes32"
        }
      ],
      "payable": false,
      "stateMutability": "view",
      "type": "function"
    }
  ],
  "bytecode": "0x608060405234801561001057600080fd5b50610b44806100206000396000f3fe60806040526004361061006d576000357c0100000000000000000000000000000000000000000000000000000000900463ffffffff168063133075d214610072578063b92d30dc14610108578063cb3d940d1461019e578063d3a5b107146101fa578063f846c91214610255575b600080fd5b34801561007e57600080fd5b506100ab6004803603602081101561009557600080fd5b81019080803590602001909291905050506102ba565b604051808573ffffffffffffffffffffffffffffffffffffffff1673ffffffffffffffffffffffffffffffffffffffff1681526020018460ff1660ff16815260200183815260200182815260200194505050505060405180910390f35b34801561011457600080fd5b506101416004803603602081101561012b57600080fd5b8101908080359060200190929190505050610393565b604051808573ffffffffffffffffffffffffffffffffffffffff1673ffffffffffffffffffffffffffffffffffffffff1681526020018460ff1660ff16815260200183815260200182815260200194505050505060405180910390f35b3480156101aa57600080fd5b506101f8600480360360808110156101c157600080fd5b8101908080359060200190929190803560ff16906020019092919080359060200190929190803590602001909291905050506103f0565b005b34801561020657600080fd5b506102536004803603604081101561021d57600080fd5b8101908080359060200190929190803573ffffffffffffffffffffffffffffffffffffffff1690602001909291905050506105b1565b005b34801561026157600080fd5b506102b86004803603606081101561027857600080fd5b810190808035906020019092919080359060200190929190803573ffffffffffffffffffffffffffffffffffffffff1690602001909291905050506107bc565b005b6000806000806102c8610ad0565b600080878152602001908152602001600020608060405190810160405290816000820160009054906101000a900473ffffffffffffffffffffffffffffffffffffffff1673ffffffffffffffffffffffffffffffffffffffff1673ffffffffffffffffffffffffffffffffffffffff1681526020016000820160149054906101000a900460ff1660ff1660ff16815260200160018201548152602001600282015481525050905080600001518160200151826040015183606001519450945094509450509193509193565b60006020528060005260406000206000915090508060000160009054906101000a900473ffffffffffffffffffffffffffffffffffffffff16908060000160149054906101000a900460ff16908060010154908060020154905084565b600080600086815260200190815260200160002090508060000160009054906101000a900473ffffffffffffffffffffffffffffffffffffffff1673ffffffffffffffffffffffffffffffffffffffff163373ffffffffffffffffffffffffffffffffffffffff161415156104cd576040517f08c379a00000000000000000000000000000000000000000000000000000000081526004018080602001828103825260138152602001807f756e617574686f72697a6564206163636573730000000000000000000000000081525060200191505060405180910390fd5b600081600101549050600082600201549050858360000160146101000a81548160ff021916908360ff160217905550848360010181905550838360020181905550867f7799037e884dc8d90785b3a5465ace3aed8ec01e65daa747647cdb5e7bd4208b3388858588600101548960020154604051808773ffffffffffffffffffffffffffffffffffffffff1673ffffffffffffffffffffffffffffffffffffffff1681526020018660ff1660ff168152602001858152602001848152602001838152602001828152602001965050505050505060405180910390a250505050505050565b600080600084815260200190815260200160002090508060000160009054906101000a900473ffffffffffffffffffffffffffffffffffffffff1673ffffffffffffffffffffffffffffffffffffffff163373ffffffffffffffffffffffffffffffffffffffff1614151561068e576040517f08c379a00000000000000000000000000000000000000000000000000000000081526004018080602001828103825260138152602001807f756e617574686f72697a6564206163636573730000000000000000000000000081525060200191505060405180910390fd5b60008160000160009054906101000a900473ffffffffffffffffffffffffffffffffffffffff169050828260000160006101000a81548173ffffffffffffffffffffffffffffffffffffffff021916908373ffffffffffffffffffffffffffffffffffffffff160217905550837f4d2778d25f224a7981314f90e4cf321a226f16d8b8a31ea04a6f191e88151b688360000160009054906101000a900473ffffffffffffffffffffffffffffffffffffffff1683604051808373ffffffffffffffffffffffffffffffffffffffff1673ffffffffffffffffffffffffffffffffffffffff1681526020018273ffffffffffffffffffffffffffffffffffffffff1673ffffffffffffffffffffffffffffffffffffffff1681526020019250505060405180910390a250505050565b600080600085815260200190815260200160002090508173ffffffffffffffffffffffffffffffffffffffff16600073ffffffffffffffffffffffffffffffffffffffff1614151515610877576040517f08c379a00000000000000000000000000000000000000000000000000000000081526004018080602001828103825260138152602001807f6f776e65722063616e7420626520656d7074790000000000000000000000000081525060200191505060405180910390fd5b8060000160009054906101000a900473ffffffffffffffffffffffffffffffffffffffff1673ffffffffffffffffffffffffffffffffffffffff16600073ffffffffffffffffffffffffffffffffffffffff1614151561093f576040517f08c379a00000000000000000000000000000000000000000000000000000000081526004018080602001828103825260148152602001807f6578697374696e6720706572737065637469766500000000000000000000000081525060200191505060405180910390fd5b818160000160006101000a81548173ffffffffffffffffffffffffffffffffffffffff021916908373ffffffffffffffffffffffffffffffffffffffff160217905550806000808681526020019081526020016000206000820160009054906101000a900473ffffffffffffffffffffffffffffffffffffffff168160000160006101000a81548173ffffffffffffffffffffffffffffffffffffffff021916908373ffffffffffffffffffffffffffffffffffffffff1602179055506000820160149054906101000a900460ff168160000160146101000a81548160ff021916908360ff160217905550600182015481600101556002820154816002015590505082847ff063e8a3dd08b17527ac8138be28513e92828372c3198ab83ea9defbdffcbc568360000160009054906101000a900473ffffffffffffffffffffffffffffffffffffffff16604051808273ffffffffffffffffffffffffffffffffffffffff1673ffffffffffffffffffffffffffffffffffffffff16815260200191505060405180910390a350505050565b608060405190810160405280600073ffffffffffffffffffffffffffffffffffffffff168152602001600060ff1681526020016000801916815260200160008019168152509056fea165627a7a723058205ae7855387c5ee0f4102d3cc56d1ee0ca9b6d68f04943ed8479a44e2848a065b0029",
  "source": "pragma solidity >=0.4.25 <0.6.0;\n\n/** Underscore Protocol Ethereum Service used to store the content of\n* _Prtcl perspectives */\ncontract Uprtcl {\n\n\tstruct Perspective {\n\t\taddress owner;\n\t\tuint8   base;  /* cid base UTF-8 code stored prevent artificial duplication of perspectives caused by base selection */\n\t\tbytes32 head1;\n\t\tbytes32 head0; /* less significant bit */\n\t}\n\n\tmapping (bytes32 => Perspective) public perspectives;\n\n\tevent PerspectiveAdded(\n\t\tbytes32 indexed perspectiveIdHash,\n\t\tbytes32 indexed contextIdHash,\n\t\taddress owner);\n\n\tevent PerspectiveHeadUpdated(\n\t\tbytes32 indexed perspectiveIdHash,\n\t\taddress author,\n\t\tuint8   base,\n\t\tbytes32 previousHead1,\n\t\tbytes32 previousHead0,\n\t\tbytes32 newHead1,\n\t\tbytes32 newHead0);\n\n\tevent PerspectiveOwnerUpdated(\n\t\tbytes32 indexed perspectiveIdHash,\n\t\taddress newOwner,\n\t\taddress previousOwner);\n\n\tconstructor() public {\n\t}\n\n\t/** Adds a new perspective to the mapping and sets the owner. The head pointer is initialized as null and should\n\t *  be updated independently using updateHead(). The contextId is not persisted but emited in the PerspectiveAdded\n\t *  event to enable filtering. Validation of the perspectiveId to contextId should be done externally using any\n\t * \tcontent addressable\tstorage solution for the perspectiveId. */\n\tfunction addPerspective(\n\t\tbytes32 perspectiveIdHash,\n\t\tbytes32 contextIdHash,\n\t\taddress owner)\n\t\tpublic {\n\n\t\tPerspective storage perspective = perspectives[perspectiveIdHash];\n\t\trequire(address(0) != owner, \"owner cant be empty\");\n\t\trequire(address(0) == perspective.owner, \"existing perspective\");\n\n\t\tperspective.owner = owner;\n\t\t\n\t\tperspectives[perspectiveIdHash] = perspective;\n\n\t\temit PerspectiveAdded(perspectiveIdHash, contextIdHash, perspective.owner);\n\t}\n\n\t/** Updates the head pointer of a given perspective. Available only to the owner of that perspective. */\n\tfunction updateHead(\n\t\tbytes32 perspectiveIdHash,\n\t\tuint8   base,\n\t\tbytes32 newHead1,\n\t\tbytes32 newHead0) public {\n\n\t\tPerspective storage perspective = perspectives[perspectiveIdHash];\n\t\trequire(msg.sender == perspective.owner, \"unauthorized access\");\n\n\t\tbytes32 parentHead1 = perspective.head1;\n\t\tbytes32 parentHead0 = perspective.head0;\n\n\t\tperspective.base = base;\n\t\tperspective.head1 = newHead1;\n\t\tperspective.head0 = newHead0;\n\n\t\temit PerspectiveHeadUpdated(\n\t\t\tperspectiveIdHash,\n\t\t\tmsg.sender,\n\t\t\tbase,\n\t\t\tparentHead1,\n\t\t\tparentHead0,\n\t\t\tperspective.head1,\n\t\t\tperspective.head0);\n\t}\n\n\t/** Changes the owner of a given perspective. Available only to the current owner of that perspective. */\n\tfunction changeOwner(bytes32 perspectiveIdHash, address newOwner) public {\n\n    Perspective storage perspective = perspectives[perspectiveIdHash];\n\t\trequire(msg.sender == perspective.owner, \"unauthorized access\");\n\n    address previousOwner = perspective.owner;\n\t\tperspective.owner = newOwner;\n\n\t\temit PerspectiveOwnerUpdated(perspectiveIdHash, perspective.owner, previousOwner);\n\t}\n\n\t/** Get the perspective owner and head from its ID */\n\tfunction getPerspective(bytes32 perspectiveIdHash)\n\t\tpublic view\n\t\treturns(\n\t\t\taddress owner,\n\t\t\tuint8 base,\n\t\t\tbytes32 head1,\n\t\t\tbytes32 head0) {\n\n\t\tPerspective memory perspective = perspectives[perspectiveIdHash];\n\n\t\treturn (\n\t\t\tperspective.owner,\n\t\t\tperspective.base,\n\t\t\tperspective.head1,\n\t\t\tperspective.head0);\n\t}\n\n}\n",
  "sourcePath": "/home/pepo/ethworkspace/uprtcl-eth/contracts/Uprtcl.sol",
  "compiler": {
    "name": "solc",
    "version": "0.5.0+commit.1d4f565a.Emscripten.clang"
  },
  "schemaVersion": "3.0.9",
  "updatedAt": "2019-06-18T13:35:22.494Z",
  "devdoc": {
    "methods": {}
  },
  "userdoc": {
    "methods": {
      "addPerspective(bytes32,bytes32,address)": {
        "notice": "Adds a new perspective to the mapping and sets the owner. The head pointer is initialized as null and should be updated independently using updateHead(). The contextId is not persisted but emited in the PerspectiveAdded event to enable filtering. Validation of the perspectiveId to contextId should be done externally using any\tcontent addressable\tstorage solution for the perspectiveId. "
      },
      "changeOwner(bytes32,address)": {
        "notice": "Changes the owner of a given perspective. Available only to the current owner of that perspective. "
      },
      "getPerspective(bytes32)": {
        "notice": "Get the perspective owner and head from its ID "
      },
      "updateHead(bytes32,bytes32,bytes32)": {
        "notice": "Updates the head pointer of a given perspective. Available only to the owner of that perspective. "
      },
      "updateHead(bytes32,uint8,bytes32,bytes32)": {
        "notice": "Updates the head pointer of a given perspective. Available only to the owner of that perspective. "
      }
    },
    "notice": "Underscore Protocol Ethereum Service used to store the content of _Prtcl perspectives "
  }
}