{
  "contractName": "UprtclDAOWrapper",
  "abi": [
    {
      "anonymous": false,
      "inputs": [
        {
          "indexed": true,
          "internalType": "address",
          "name": "previousOwner",
          "type": "address"
        },
        {
          "indexed": true,
          "internalType": "address",
          "name": "newOwner",
          "type": "address"
        }
      ],
      "name": "OwnershipTransferred",
      "type": "event"
    },
    {
      "constant": true,
      "inputs": [],
      "name": "isOwner",
      "outputs": [
        {
          "internalType": "bool",
          "name": "",
          "type": "bool"
        }
      ],
      "payable": false,
      "stateMutability": "view",
      "type": "function"
    },
    {
      "constant": true,
      "inputs": [],
      "name": "owner",
      "outputs": [
        {
          "internalType": "address payable",
          "name": "",
          "type": "address"
        }
      ],
      "payable": false,
      "stateMutability": "view",
      "type": "function"
    },
    {
      "constant": false,
      "inputs": [],
      "name": "renounceOwnership",
      "outputs": [],
      "payable": false,
      "stateMutability": "nonpayable",
      "type": "function"
    },
    {
      "constant": false,
      "inputs": [
        {
          "internalType": "address payable",
          "name": "newOwner",
          "type": "address"
        }
      ],
      "name": "transferOwnership",
      "outputs": [],
      "payable": false,
      "stateMutability": "nonpayable",
      "type": "function"
    },
    {
      "constant": false,
      "inputs": [
        {
          "internalType": "contract UprtclRoot",
          "name": "_uprtclRoot",
          "type": "address"
        },
        {
          "internalType": "contract UprtclDetails",
          "name": "_uprtclDetails",
          "type": "address"
        },
        {
          "internalType": "contract UprtclProposals",
          "name": "_uprtclProposals",
          "type": "address"
        },
        {
          "internalType": "contract UprtclHomePerspectives",
          "name": "_uprtclHomePerspectives",
          "type": "address"
        }
      ],
      "name": "setDependencies",
      "outputs": [],
      "payable": false,
      "stateMutability": "nonpayable",
      "type": "function"
    },
    {
      "constant": false,
      "inputs": [
        {
          "internalType": "string",
          "name": "perspectiveId",
          "type": "string"
        }
      ],
      "name": "setHomePerspective",
      "outputs": [],
      "payable": false,
      "stateMutability": "nonpayable",
      "type": "function"
    },
    {
      "constant": false,
      "inputs": [
        {
          "internalType": "bytes32",
          "name": "proposalId",
          "type": "bytes32"
        },
        {
          "internalType": "uint8",
          "name": "authorized",
          "type": "uint8"
        },
        {
          "internalType": "bool",
          "name": "execute",
          "type": "bool"
        }
      ],
      "name": "authorizeProposal",
      "outputs": [],
      "payable": false,
      "stateMutability": "nonpayable",
      "type": "function"
    },
    {
      "constant": false,
      "inputs": [
        {
          "internalType": "bytes32",
          "name": "perspectiveIdHash",
          "type": "bytes32"
        },
        {
          "internalType": "address",
          "name": "newOwner",
          "type": "address"
        }
      ],
      "name": "changePerspectiveOwner",
      "outputs": [],
      "payable": false,
      "stateMutability": "nonpayable",
      "type": "function"
    },
    {
      "constant": false,
      "inputs": [
        {
          "internalType": "bytes32",
          "name": "perspectiveIdHash",
          "type": "bytes32"
        },
        {
          "components": [
            {
              "internalType": "string",
              "name": "name",
              "type": "string"
            },
            {
              "internalType": "string",
              "name": "context",
              "type": "string"
            }
          ],
          "internalType": "struct SharedPerspectiveDetails.PerspectiveDetails",
          "name": "newDetails",
          "type": "tuple"
        }
      ],
      "name": "setPerspectiveDetails",
      "outputs": [],
      "payable": false,
      "stateMutability": "nonpayable",
      "type": "function"
    }
  ],
  "bytecode": "0x60806040526100156001600160e01b0361006216565b600080546001600160a01b0319166001600160a01b03928316178082556040519216917f8be0079c531659141344cd1fd0a4f28419497f9722a3daafe3b4186f6b6457e0908290a3610066565b3390565b610aca806100756000396000f3fe608060405234801561001057600080fd5b50600436106100935760003560e01c80638da5cb5b116100665780638da5cb5b146100db5780638f32d59b146100f9578063c08b985d1461010e578063eb5e06c314610121578063f2fde38b1461013457610093565b806339c37594146100985780633bde7d2e146100ad578063641591af146100c0578063715018a6146100d3575b600080fd5b6100ab6100a63660046105ce565b610147565b005b6100ab6100bb36600461069d565b6101b1565b6100ab6100ce366004610650565b61022e565b6100ab61029b565b6100e3610309565b6040516100f09190610889565b60405180910390f35b610101610318565b6040516100f09190610897565b6100ab61011c366004610608565b61033c565b6100ab61012f3660046106fe565b610370565b6100ab6101423660046105a8565b6103a3565b6001546040516303ab26c360e21b81526001600160a01b0390911690630eac9b0c9061017b908590859033906004016108a5565b600060405180830381600087803b15801561019557600080fd5b505af11580156101a9573d6000803e3d6000fd5b505050505050565b6101b9610318565b6101de5760405162461bcd60e51b81526004016101d590610962565b60405180910390fd5b600180546001600160a01b039586166001600160a01b0319918216179091556002805494861694821694909417909355600380549285169284169290921790915560048054919093169116179055565b600354604051630bb61de360e41b81526001600160a01b039091169063bb61de30906102649086908690869033906004016108fc565b600060405180830381600087803b15801561027e57600080fd5b505af1158015610292573d6000803e3d6000fd5b50505050505050565b6102a3610318565b6102bf5760405162461bcd60e51b81526004016101d590610962565b600080546040516001600160a01b03909116907f8be0079c531659141344cd1fd0a4f28419497f9722a3daafe3b4186f6b6457e0908390a3600080546001600160a01b0319169055565b6000546001600160a01b031690565b600080546001600160a01b031661032d6103d3565b6001600160a01b031614905090565b600254604051631a89a45960e31b81526001600160a01b039091169063d44d22c89061017b908590859033906004016108cd565b60048054604051631369375f60e31b81526001600160a01b0390911691639b49baf89161017b9186918691339101610931565b6103ab610318565b6103c75760405162461bcd60e51b81526004016101d590610962565b6103d0816103d7565b50565b3390565b6001600160a01b0381166103fd5760405162461bcd60e51b81526004016101d590610952565b600080546040516001600160a01b03808516939216917f8be0079c531659141344cd1fd0a4f28419497f9722a3daafe3b4186f6b6457e091a3600080546001600160a01b0319166001600160a01b0392909216919091179055565b803561046381610a4f565b92915050565b803561046381610a63565b803561046381610a6c565b803561046381610a75565b60008083601f84011261049c57600080fd5b50813567ffffffffffffffff8111156104b457600080fd5b6020830191508360018202830111156104cc57600080fd5b9250929050565b600082601f8301126104e457600080fd5b81356104f76104f282610999565b610972565b9150808252602083016020830185838301111561051357600080fd5b61051e838284610a09565b50505092915050565b60006040828403121561053957600080fd5b6105436040610972565b9050813567ffffffffffffffff81111561055c57600080fd5b610568848285016104d3565b825250602082013567ffffffffffffffff81111561058557600080fd5b610591848285016104d3565b60208301525092915050565b803561046381610a7e565b6000602082840312156105ba57600080fd5b60006105c68484610458565b949350505050565b600080604083850312156105e157600080fd5b60006105ed8585610474565b92505060206105fe85828601610458565b9150509250929050565b6000806040838503121561061b57600080fd5b60006106278585610474565b925050602083013567ffffffffffffffff81111561064457600080fd5b6105fe85828601610527565b60008060006060848603121561066557600080fd5b60006106718686610474565b93505060206106828682870161059d565b925050604061069386828701610469565b9150509250925092565b600080600080608085870312156106b357600080fd5b60006106bf878761047f565b94505060206106d08782880161047f565b93505060406106e18782880161047f565b92505060606106f28782880161047f565b91505092959194509250565b6000806020838503121561071157600080fd5b823567ffffffffffffffff81111561072857600080fd5b6107348582860161048a565b92509250509250929050565b610749816109fe565b82525050565b610749816109ce565b610749816109d9565b610749816109de565b600061077683856109c5565b9350610783838584610a09565b61078c83610a45565b9093019392505050565b60006107a1826109c1565b6107ab81856109c5565b93506107bb818560208601610a15565b61078c81610a45565b60006107d16026836109c5565b7f4f776e61626c653a206e6577206f776e657220697320746865207a65726f206181526564647265737360d01b602082015260400192915050565b60006108196020836109c5565b7f4f776e61626c653a2063616c6c6572206973206e6f7420746865206f776e6572815260200192915050565b805160408084526000919084019061085d8282610796565b915050602083015184820360208601526108778282610796565b95945050505050565b610749816109f8565b60208101610463828461074f565b602081016104638284610758565b606081016108b38286610761565b6108c0602083018561074f565b6105c66040830184610740565b606081016108db8286610761565b81810360208301526108ed8185610845565b90506105c66040830184610740565b6080810161090a8287610761565b6109176020830186610880565b6109246040830185610758565b6108776060830184610740565b6040808252810161094381858761076a565b90506105c66020830184610740565b60208082528101610463816107c4565b602080825281016104638161080c565b60405181810167ffffffffffffffff8111828210171561099157600080fd5b604052919050565b600067ffffffffffffffff8211156109b057600080fd5b506020601f91909101601f19160190565b5190565b90815260200190565b6000610463826109ec565b151590565b90565b6000610463826109ce565b6001600160a01b031690565b60ff1690565b6000610463826109e1565b82818337506000910152565b60005b83811015610a30578181015183820152602001610a18565b83811115610a3f576000848401525b50505050565b601f01601f191690565b610a58816109ce565b81146103d057600080fd5b610a58816109d9565b610a58816109de565b610a58816109e1565b610a58816109f856fea365627a7a72315820e5f366cd486f1f8252a75351bde5b81abaadc3d0899a54bc9f7a92daa7aa80dd6c6578706572696d656e74616cf564736f6c63430005100040",
  "source": "pragma solidity >=0.5.0 <0.6.0;\npragma experimental ABIEncoderV2;\n\nimport \"./UprtclRoot.sol\";\nimport \"./UprtclDetails.sol\";\nimport \"./UprtclProposals.sol\";\nimport \"./UprtclHomePerspectives.sol\";\n\ncontract UprtclDAOWrapper is Ownable {\n    UprtclRoot uprtclRoot;\n    UprtclDetails uprtclDetails;\n    UprtclProposals uprtclProposals;\n    UprtclHomePerspectives uprtclHomePerspectives;\n\n    function setDependencies(\n        UprtclRoot _uprtclRoot,\n        UprtclDetails _uprtclDetails,\n        UprtclProposals _uprtclProposals,\n        UprtclHomePerspectives _uprtclHomePerspectives\n    ) external onlyOwner {\n        uprtclRoot = _uprtclRoot;\n        uprtclDetails = _uprtclDetails;\n        uprtclProposals = _uprtclProposals;\n        uprtclHomePerspectives = _uprtclHomePerspectives;\n    }\n\n    function setHomePerspective(string calldata perspectiveId) external {\n        uprtclHomePerspectives.setHomePerspectiveSuperUser(\n            perspectiveId,\n            msg.sender\n        );\n    }\n\n    function authorizeProposal(\n        bytes32 proposalId,\n        uint8 authorized,\n        bool execute\n    ) external {\n        uprtclProposals.authorizeProposalSuperUser(\n            proposalId,\n            authorized,\n            execute,\n            msg.sender\n        );\n    }\n\n    function changePerspectiveOwner(\n        bytes32 perspectiveIdHash,\n        address newOwner\n    ) external {\n        uprtclRoot.changePerspectiveOwnerSuperUser(\n            perspectiveIdHash,\n            newOwner,\n            msg.sender\n        );\n    }\n\n    function setPerspectiveDetails(\n        bytes32 perspectiveIdHash,\n        SharedPerspectiveDetails.PerspectiveDetails memory newDetails\n    ) public {\n        uprtclDetails.setPerspectiveDetailsSuperUser(\n            perspectiveIdHash,\n            newDetails,\n            msg.sender\n        );\n    }\n\n}\n",
  "sourcePath": "/home/pepo/pr/uprtcl/eth-uprtcl/contracts/UprtclDAOWrapper.sol",
  "compiler": {
    "name": "solc",
    "version": "0.5.16+commit.9c3226ce.Emscripten.clang"
  },
  "schemaVersion": "3.0.11",
  "updatedAt": "2020-04-06T14:44:09.412Z",
  "devdoc": {
    "methods": {
      "isOwner()": {
        "details": "Returns true if the caller is the current owner."
      },
      "owner()": {
        "details": "Returns the address of the current owner."
      },
      "renounceOwnership()": {
        "details": "Leaves the contract without owner. It will not be possible to call `onlyOwner` functions anymore. Can only be called by the current owner.     * NOTE: Renouncing ownership will leave the contract without an owner, thereby removing any functionality that is only available to the owner."
      },
      "transferOwnership(address)": {
        "details": "Transfers ownership of the contract to a new account (`newOwner`). Can only be called by the current owner."
      }
    }
  },
  "userdoc": {
    "methods": {}
  }
}