{
  "contractName": "UprtclDetails",
  "abi": [
    {
      "anonymous": false,
      "inputs": [
        {
          "indexed": true,
          "internalType": "address",
          "name": "previousOwner",
          "type": "address"
        },
        {
          "indexed": true,
          "internalType": "address",
          "name": "newOwner",
          "type": "address"
        }
      ],
      "name": "OwnershipTransferred",
      "type": "event"
    },
    {
      "anonymous": false,
      "inputs": [
        {
          "indexed": true,
          "internalType": "bytes32",
          "name": "perspectiveIdHash",
          "type": "bytes32"
        },
        {
          "indexed": true,
          "internalType": "bytes32",
          "name": "contextHash",
          "type": "bytes32"
        }
      ],
      "name": "PerspectiveDetailsSet",
      "type": "event"
    },
    {
      "constant": true,
      "inputs": [],
      "name": "isOwner",
      "outputs": [
        {
          "internalType": "bool",
          "name": "",
          "type": "bool"
        }
      ],
      "payable": false,
      "stateMutability": "view",
      "type": "function"
    },
    {
      "constant": true,
      "inputs": [],
      "name": "owner",
      "outputs": [
        {
          "internalType": "address payable",
          "name": "",
          "type": "address"
        }
      ],
      "payable": false,
      "stateMutability": "view",
      "type": "function"
    },
    {
      "constant": true,
      "inputs": [
        {
          "internalType": "bytes32",
          "name": "",
          "type": "bytes32"
        }
      ],
      "name": "perspectivesDetails",
      "outputs": [
        {
          "internalType": "string",
          "name": "name",
          "type": "string"
        },
        {
          "internalType": "string",
          "name": "context",
          "type": "string"
        }
      ],
      "payable": false,
      "stateMutability": "view",
      "type": "function"
    },
    {
      "constant": false,
      "inputs": [],
      "name": "renounceOwnership",
      "outputs": [],
      "payable": false,
      "stateMutability": "nonpayable",
      "type": "function"
    },
    {
      "constant": false,
      "inputs": [
        {
          "internalType": "address payable",
          "name": "newOwner",
          "type": "address"
        }
      ],
      "name": "transferOwnership",
      "outputs": [],
      "payable": false,
      "stateMutability": "nonpayable",
      "type": "function"
    },
    {
      "constant": false,
      "inputs": [
        {
          "internalType": "contract UprtclRoot",
          "name": "_uprtclRoot",
          "type": "address"
        }
      ],
      "name": "setUprtclRoot",
      "outputs": [],
      "payable": false,
      "stateMutability": "nonpayable",
      "type": "function"
    },
    {
      "constant": true,
      "inputs": [
        {
          "internalType": "string",
          "name": "context",
          "type": "string"
        }
      ],
      "name": "getContextHash",
      "outputs": [
        {
          "internalType": "bytes32",
          "name": "contextHash",
          "type": "bytes32"
        }
      ],
      "payable": false,
      "stateMutability": "pure",
      "type": "function"
    },
    {
      "constant": false,
      "inputs": [
        {
          "internalType": "bytes32",
          "name": "perspectiveIdHash",
          "type": "bytes32"
        },
        {
          "components": [
            {
              "internalType": "string",
              "name": "name",
              "type": "string"
            },
            {
              "internalType": "string",
              "name": "context",
              "type": "string"
            }
          ],
          "internalType": "struct UprtclDetails.PerspectiveDetails",
          "name": "newDetails",
          "type": "tuple"
        }
      ],
      "name": "setPerspectiveDetails",
      "outputs": [],
      "payable": false,
      "stateMutability": "nonpayable",
      "type": "function"
    },
    {
      "constant": true,
      "inputs": [
        {
          "internalType": "bytes32",
          "name": "perspectiveIdHash",
          "type": "bytes32"
        }
      ],
      "name": "getPerspectiveDetails",
      "outputs": [
        {
          "internalType": "string",
          "name": "name",
          "type": "string"
        },
        {
          "internalType": "string",
          "name": "context",
          "type": "string"
        }
      ],
      "payable": false,
      "stateMutability": "view",
      "type": "function"
    },
    {
      "constant": false,
      "inputs": [
        {
          "components": [
            {
              "internalType": "string",
              "name": "perspectiveId",
              "type": "string"
            },
            {
              "internalType": "bytes32",
              "name": "headCid1",
              "type": "bytes32"
            },
            {
              "internalType": "bytes32",
              "name": "headCid0",
              "type": "bytes32"
            },
            {
              "internalType": "address",
              "name": "owner",
              "type": "address"
            }
          ],
          "internalType": "struct UprtclRoot.NewPerspective",
          "name": "newPerspective",
          "type": "tuple"
        },
        {
          "components": [
            {
              "internalType": "string",
              "name": "name",
              "type": "string"
            },
            {
              "internalType": "string",
              "name": "context",
              "type": "string"
            }
          ],
          "internalType": "struct UprtclDetails.PerspectiveDetails",
          "name": "newDetails",
          "type": "tuple"
        },
        {
          "internalType": "address",
          "name": "account",
          "type": "address"
        }
      ],
      "name": "initPerspective",
      "outputs": [],
      "payable": false,
      "stateMutability": "nonpayable",
      "type": "function"
    }
  ],
  "bytecode": "0x60806040526100156001600160e01b0361006216565b600080546001600160a01b0319166001600160a01b03928316178082556040519216917f8be0079c531659141344cd1fd0a4f28419497f9722a3daafe3b4186f6b6457e0908290a3610066565b3390565b61124c806100756000396000f3fe608060405234801561001057600080fd5b506004361061009e5760003560e01c80638f32d59b116100665780638f32d59b14610112578063c08b985d14610127578063cf29e9691461013a578063e7d075991461014d578063f2fde38b1461016d5761009e565b8063172e3b47146100a3578063715018a6146100b857806376914ecf146100c05780637cce0117146100ea5780638da5cb5b146100fd575b600080fd5b6100b66100b1366004610dec565b610180565b005b6100b6610366565b6100d36100ce366004610d0b565b6103dd565b6040516100e1929190611099565b60405180910390f35b6100b66100f8366004610d99565b610546565b61010561058c565b6040516100e19190611036565b61011a61059c565b6040516100e1919061106c565b6100b6610135366004610d47565b6105c0565b6100d3610148366004610d0b565b6105cf565b61016061015b366004610db7565b610709565b6040516100e1919061107a565b6100b661017b366004610ced565b610739565b600254604080516310d061ab60e31b815290516000926001600160a01b0316916386830d58916004808301926020929190829003018186803b1580156101c557600080fd5b505afa1580156101d9573d6000803e3d6000fd5b505050506040513d601f19601f820116820180604052506101fd9190810190610d29565b9050801561026c576002546040516302654acd60e51b81526001600160a01b0390911690634ca959a09061023990859033908690600401611044565b600060405180830381600087803b15801561025357600080fd5b505af1158015610267573d6000803e3d6000fd5b505050505b60025460405163c886170b60e01b81526001600160a01b039091169063c886170b9061029e90879086906004016110ee565b600060405180830381600087803b1580156102b857600080fd5b505af11580156102cc573d6000803e3d6000fd5b5050600254865160405163fc87de3960e01b815261036094506001600160a01b03909216925063fc87de39916103059190600401611088565b60206040518083038186803b15801561031d57600080fd5b505afa158015610331573d6000803e3d6000fd5b505050506040513d601f19601f820116820180604052506103559190810190610d29565b848660600151610769565b50505050565b61036e61059c565b6103935760405162461bcd60e51b815260040161038a906110de565b60405180910390fd5b600080546040516001600160a01b03909116907f8be0079c531659141344cd1fd0a4f28419497f9722a3daafe3b4186f6b6457e0908390a3600080546001600160a01b0319169055565b6060806103e8610a13565b6000848152600160208181526040928390208351815460029481161561010002600019011693909304601f810183900490920283016060908101855293830182815292939092849290918491908401828280156104865780601f1061045b57610100808354040283529160200191610486565b820191906000526020600020905b81548152906001019060200180831161046957829003601f168201915b50505050508152602001600182018054600181600116156101000203166002900480601f0160208091040260200160405190810160405280929190818152602001828054600181600116156101000203166002900480156105285780601f106104fd57610100808354040283529160200191610528565b820191906000526020600020905b81548152906001019060200180831161050b57829003601f168201915b50505091909252505081516020909201519194509092505050915091565b61054e61059c565b61056a5760405162461bcd60e51b815260040161038a906110de565b600280546001600160a01b0319166001600160a01b0392909216919091179055565b6000546001600160a01b03165b90565b600080546001600160a01b03166105b161098e565b6001600160a01b031614905090565b6105cb828233610769565b5050565b60016020818152600092835260409283902080548451600294821615610100026000190190911693909304601f81018390048302840183019094528383529283918301828280156106615780601f1061063657610100808354040283529160200191610661565b820191906000526020600020905b81548152906001019060200180831161064457829003601f168201915b505050505090806001018054600181600116156101000203166002900480601f0160208091040260200160405190810160405280929190818152602001828054600181600116156101000203166002900480156106ff5780601f106106d4576101008083540402835291602001916106ff565b820191906000526020600020905b8154815290600101906020018083116106e257829003601f168201915b5050505050905082565b60008160405160200161071c9190611023565b604051602081830303815290604052805190602001209050919050565b61074161059c565b61075d5760405162461bcd60e51b815260040161038a906110de565b61076681610992565b50565b600254604051631393bbf560e01b81526001600160a01b03808416921690631393bbf59061079b90879060040161107a565b60206040518083038186803b1580156107b357600080fd5b505afa1580156107c7573d6000803e3d6000fd5b505050506040513d601f19601f820116820180604052506107eb9190810190610cc7565b6001600160a01b0316146108115760405162461bcd60e51b815260040161038a906110be565b600083815260016020908152604090912083518051919261083792849290910190610a2d565b5060208084015180516108509260018501920190610a2d565b5080600160008681526020019081526020016000206000820181600001908054600181600116156101000203166002900461088c929190610aab565b50600182018160010190805460018160011615610100020316600290046108b4929190610aab565b5090505061095d816001018054600181600116156101000203166002900480601f0160208091040260200160405190810160405280929190818152602001828054600181600116156101000203166002900480156109535780601f1061092857610100808354040283529160200191610953565b820191906000526020600020905b81548152906001019060200180831161093657829003601f168201915b5050505050610709565b60405185907f54d694087b2b7af3574607f1c7957f264e43dae2cd138a793dc22d407fac002b90600090a350505050565b3390565b6001600160a01b0381166109b85760405162461bcd60e51b815260040161038a906110ce565b600080546040516001600160a01b03808516939216917f8be0079c531659141344cd1fd0a4f28419497f9722a3daafe3b4186f6b6457e091a3600080546001600160a01b0319166001600160a01b0392909216919091179055565b604051806040016040528060608152602001606081525090565b828054600181600116156101000203166002900490600052602060002090601f016020900481019282601f10610a6e57805160ff1916838001178555610a9b565b82800160010185558215610a9b579182015b82811115610a9b578251825591602001919060010190610a80565b50610aa7929150610b20565b5090565b828054600181600116156101000203166002900490600052602060002090601f016020900481019282601f10610ae45780548555610a9b565b82800160010185558215610a9b57600052602060002091601f016020900482015b82811115610a9b578254825591600101919060010190610b05565b61059991905b80821115610aa75760008155600101610b26565b8035610b45816111e3565b92915050565b8051610b45816111e3565b8035610b45816111f7565b8051610b45816111f7565b8035610b4581611200565b600082601f830112610b8857600080fd5b8135610b9b610b9682611135565b61110e565b91508082526020830160208301858383011115610bb757600080fd5b610bc28382846111a1565b50505092915050565b600060808284031215610bdd57600080fd5b610be7608061110e565b9050813567ffffffffffffffff811115610c0057600080fd5b610c0c84828501610b77565b8252506020610c1d84848301610b56565b6020830152506040610c3184828501610b56565b6040830152506060610c4584828501610b3a565b60608301525092915050565b600060408284031215610c6357600080fd5b610c6d604061110e565b9050813567ffffffffffffffff811115610c8657600080fd5b610c9284828501610b77565b825250602082013567ffffffffffffffff811115610caf57600080fd5b610cbb84828501610b77565b60208301525092915050565b600060208284031215610cd957600080fd5b6000610ce58484610b4b565b949350505050565b600060208284031215610cff57600080fd5b6000610ce58484610b3a565b600060208284031215610d1d57600080fd5b6000610ce58484610b56565b600060208284031215610d3b57600080fd5b6000610ce58484610b61565b60008060408385031215610d5a57600080fd5b6000610d668585610b56565b925050602083013567ffffffffffffffff811115610d8357600080fd5b610d8f85828601610c51565b9150509250929050565b600060208284031215610dab57600080fd5b6000610ce58484610b6c565b600060208284031215610dc957600080fd5b813567ffffffffffffffff811115610de057600080fd5b610ce584828501610b77565b600080600060608486031215610e0157600080fd5b833567ffffffffffffffff811115610e1857600080fd5b610e2486828701610bcb565b935050602084013567ffffffffffffffff811115610e4157600080fd5b610e4d86828701610c51565b9250506040610e5e86828701610b3a565b9150509250925092565b610e7181611196565b82525050565b610e718161116f565b610e718161117a565b610e7181610599565b6000610e9d8261115d565b610ea78185611161565b9350610eb78185602086016111ad565b610ec0816111d9565b9093019392505050565b6000610ed58261115d565b610edf818561116a565b9350610eef8185602086016111ad565b9290920192915050565b6000610f06602c83611161565b7f64657461696c732063616e206f6e6c792062792073657420627920706572737081526b32b1ba34bb329037bbb732b960a11b602082015260400192915050565b6000610f54602683611161565b7f4f776e61626c653a206e6577206f776e657220697320746865207a65726f206181526564647265737360d01b602082015260400192915050565b6000610f9c602083611161565b7f4f776e61626c653a2063616c6c6572206973206e6f7420746865206f776e6572815260200192915050565b8051608080845260009190840190610fe08282610e92565b9150506020830151610ff56020860182610e89565b5060408301516110086040860182610e89565b50606083015161101b6060860182610e77565b509392505050565b600061102f8284610eca565b9392505050565b60208101610b458284610e77565b606081016110528286610e77565b61105f6020830185610e68565b610ce56040830184610e89565b60208101610b458284610e80565b60208101610b458284610e89565b6020808252810161102f8184610e92565b604080825281016110aa8185610e92565b90508181036020830152610ce58184610e92565b60208082528101610b4581610ef9565b60208082528101610b4581610f47565b60208082528101610b4581610f8f565b604080825281016110ff8185610fc8565b905061102f6020830184610e77565b60405181810167ffffffffffffffff8111828210171561112d57600080fd5b604052919050565b600067ffffffffffffffff82111561114c57600080fd5b506020601f91909101601f19160190565b5190565b90815260200190565b919050565b6000610b458261118a565b151590565b6000610b458261116f565b6001600160a01b031690565b6000610b458261117f565b82818337506000910152565b60005b838110156111c85781810151838201526020016111b0565b838111156103605750506000910152565b601f01601f191690565b6111ec8161116f565b811461076657600080fd5b6111ec81610599565b6111ec8161117f56fea365627a7a72315820ad8b9a5808ce7624adfaf198fb43ea26d9782e032683358aaad682dec5c6dbbb6c6578706572696d656e74616cf564736f6c63430005100040",
  "source": "pragma solidity >=0.5.0 <0.6.0;\npragma experimental ABIEncoderV2;\n\nimport \"./UprtclRoot.sol\";\nimport \"./Ownable.sol\";\n\ncontract UprtclDetails is Ownable {\n\n    struct PerspectiveDetails {\n        string name;\n        string context;\n    }\n\n    event PerspectiveDetailsSet (\n        bytes32 indexed perspectiveIdHash,\n        bytes32 indexed contextHash\n    );\n\n    mapping(bytes32 => PerspectiveDetails) public perspectivesDetails;\n\n    UprtclRoot uprtclRoot;\n\n    function setUprtclRoot(UprtclRoot _uprtclRoot) public onlyOwner {\n        uprtclRoot = _uprtclRoot;\n    }\n\n    function getContextHash(string memory context) public pure returns (bytes32 contextHash) {\n        return keccak256(abi.encodePacked(context));\n    }\n\n    /** Adds a new perspective to the mapping and sets the owner. The head pointer and the context. */\n    function setPerspectiveDetailsInternal(\n        bytes32 perspectiveIdHash,\n        PerspectiveDetails memory newDetails,\n        address sender\n    ) private {\n        require(uprtclRoot.getPerspectiveOwner(perspectiveIdHash) == sender, \"details can only by set by perspective owner\");\n\n        PerspectiveDetails storage details = perspectivesDetails[perspectiveIdHash];\n\n        details.name = newDetails.name;\n        details.context = newDetails.context;\n\n        perspectivesDetails[perspectiveIdHash] = details;\n\n        emit PerspectiveDetailsSet(\n            perspectiveIdHash,\n            getContextHash(details.context)\n        );\n    }\n\n    function setPerspectiveDetails(\n        bytes32 perspectiveIdHash,\n        PerspectiveDetails memory newDetails\n    ) public {\n        setPerspectiveDetailsInternal(perspectiveIdHash, newDetails, msg.sender);\n    }\n\n    function getPerspectiveDetails(bytes32 perspectiveIdHash) public view returns (string memory name, string memory context) {\n        PerspectiveDetails memory details = perspectivesDetails[perspectiveIdHash];\n        return (details.name, details.context);\n    }\n\n    function initPerspective(\n        UprtclRoot.NewPerspective memory newPerspective,\n        PerspectiveDetails memory newDetails,\n        address account) public {\n\n        /** collect fee here */\n        uint256 fee = uprtclRoot.getAddFee();\n        if (fee > 0) {\n            uprtclRoot.consume(account, msg.sender, fee);\n        }\n\n        uprtclRoot.createPerspective(newPerspective, account);\n        \n        setPerspectiveDetailsInternal(\n            uprtclRoot.getPerspectiveIdHash(newPerspective.perspectiveId),\n            newDetails,\n            newPerspective.owner);\n    }\n\n}\n",
  "sourcePath": "/home/pepo/pr/uprtcl/eth-uprtcl/contracts/UprtclDetails.sol",
  "compiler": {
    "name": "solc",
    "version": "0.5.16+commit.9c3226ce.Emscripten.clang"
  },
  "schemaVersion": "3.0.11",
  "updatedAt": "2020-02-28T09:57:04.187Z",
  "devdoc": {
    "methods": {
      "isOwner()": {
        "details": "Returns true if the caller is the current owner."
      },
      "owner()": {
        "details": "Returns the address of the current owner."
      },
      "renounceOwnership()": {
        "details": "Leaves the contract without owner. It will not be possible to call `onlyOwner` functions anymore. Can only be called by the current owner.     * NOTE: Renouncing ownership will leave the contract without an owner, thereby removing any functionality that is only available to the owner."
      },
      "transferOwnership(address)": {
        "details": "Transfers ownership of the contract to a new account (`newOwner`). Can only be called by the current owner."
      }
    }
  },
  "userdoc": {
    "methods": {}
  }
}